{
  "contractName": "Bank",
  "abi": [
    {
      "inputs": [
        {
          "internalType": "uint256",
          "name": "_discountRate",
          "type": "uint256"
        },
        {
          "internalType": "bytes32",
          "name": "_bankID",
          "type": "bytes32"
        }
      ],
      "payable": false,
      "stateMutability": "nonpayable",
      "type": "constructor"
    },
    {
      "constant": true,
      "inputs": [],
      "name": "bankID",
      "outputs": [
        {
          "internalType": "bytes32",
          "name": "",
          "type": "bytes32"
        }
      ],
      "payable": false,
      "stateMutability": "view",
      "type": "function"
    },
    {
      "constant": true,
      "inputs": [],
      "name": "discountRate",
      "outputs": [
        {
          "internalType": "uint256",
          "name": "",
          "type": "uint256"
        }
      ],
      "payable": false,
      "stateMutability": "view",
      "type": "function"
    }
  ],
  "bytecode": "0x608060405234801561001057600080fd5b5060405161011c38038061011c8339818101604052604081101561003357600080fd5b8101908080519060200190929190805190602001909291905050508160008190555080600181905550505060b08061006c6000396000f3fe6080604052348015600f57600080fd5b506004361060325760003560e01c80634154d021146037578063e6c0e6d5146053575b600080fd5b603d606f565b6040518082815260200191505060405180910390f35b60596075565b6040518082815260200191505060405180910390f35b60015481565b6000548156fea265627a7a72315820f56508f0f7cec0c36180f3e7d24e8c43a475bf0d5ffe357ee6c53c47666d596e64736f6c63430005100032",
  "source": "// SPDX-License-Identifier: MIT\npragma solidity >=0.4.22 <0.8.0;\n\ncontract Bank{\n\n\n    constructor(uint _discountRate, bytes32 _bankID) public{\n        discountRate = _discountRate;\n        bankID = _bankID;\n    }\n\n    uint public discountRate;\n    bytes32 public bankID;\n\n\n}",
  "sourcePath": "/Users/newguo/projects/blockchain-supplychainFinance/supplychain_finance/contracts/Bank.sol",
  "compiler": {
    "name": "solc",
    "version": "0.5.16+commit.9c3226ce.Emscripten.clang"
  },
  "schemaVersion": "3.2.3",
  "updatedAt": "2020-08-12T10:58:37.679Z",
  "devdoc": {
    "methods": {}
  },
  "userdoc": {
    "methods": {}
  }
}