{
  "contractName": "Bill",
  "abi": [
    {
      "inputs": [
        {
          "internalType": "bytes32",
          "name": "_billID",
          "type": "bytes32"
        },
        {
          "internalType": "uint256",
          "name": "_issuedTime",
          "type": "uint256"
        },
        {
          "internalType": "uint256",
          "name": "_expiredTime",
          "type": "uint256"
        },
        {
          "internalType": "address",
          "name": "_owner",
          "type": "address"
        },
        {
          "internalType": "uint256",
          "name": "_faceValue",
          "type": "uint256"
        },
        {
          "internalType": "enum Bill.BillState",
          "name": "_state",
          "type": "uint8"
        }
      ],
      "payable": false,
      "stateMutability": "nonpayable",
      "type": "constructor"
    },
    {
      "constant": true,
      "inputs": [],
      "name": "billID",
      "outputs": [
        {
          "internalType": "bytes32",
          "name": "",
          "type": "bytes32"
        }
      ],
      "payable": false,
      "stateMutability": "view",
      "type": "function"
    },
    {
      "constant": true,
      "inputs": [],
      "name": "expiredTime",
      "outputs": [
        {
          "internalType": "uint256",
          "name": "",
          "type": "uint256"
        }
      ],
      "payable": false,
      "stateMutability": "view",
      "type": "function"
    },
    {
      "constant": true,
      "inputs": [],
      "name": "faceValue",
      "outputs": [
        {
          "internalType": "uint256",
          "name": "",
          "type": "uint256"
        }
      ],
      "payable": false,
      "stateMutability": "view",
      "type": "function"
    },
    {
      "constant": true,
      "inputs": [],
      "name": "issuedTime",
      "outputs": [
        {
          "internalType": "uint256",
          "name": "",
          "type": "uint256"
        }
      ],
      "payable": false,
      "stateMutability": "view",
      "type": "function"
    },
    {
      "constant": true,
      "inputs": [],
      "name": "issuer",
      "outputs": [
        {
          "internalType": "address",
          "name": "",
          "type": "address"
        }
      ],
      "payable": false,
      "stateMutability": "view",
      "type": "function"
    },
    {
      "constant": true,
      "inputs": [],
      "name": "owner",
      "outputs": [
        {
          "internalType": "address",
          "name": "",
          "type": "address"
        }
      ],
      "payable": false,
      "stateMutability": "view",
      "type": "function"
    }
  ],
  "bytecode": "0x608060405234801561001057600080fd5b50604051610357380380610357833981810160405260c081101561003357600080fd5b8101908080519060200190929190805190602001909291908051906020019092919080519060200190929190805190602001909291908051906020019092919050505033600560006101000a81548173ffffffffffffffffffffffffffffffffffffffff021916908373ffffffffffffffffffffffffffffffffffffffff16021790555085600181905550846002819055508360038190555082600460006101000a81548173ffffffffffffffffffffffffffffffffffffffff021916908373ffffffffffffffffffffffffffffffffffffffff16021790555081600781905550806000806101000a81548160ff0219169083600981111561013157fe5b021790555050505050505061020c8061014b6000396000f3fe608060405234801561001057600080fd5b50600436106100625760003560e01c80631d1438481461006757806344fd9caa146100b15780635e7e24e6146100cf57806386b2cd35146100ed5780638da5cb5b1461010b5780638e32e42114610155575b600080fd5b61006f610173565b604051808273ffffffffffffffffffffffffffffffffffffffff1673ffffffffffffffffffffffffffffffffffffffff16815260200191505060405180910390f35b6100b9610199565b6040518082815260200191505060405180910390f35b6100d761019f565b6040518082815260200191505060405180910390f35b6100f56101a5565b6040518082815260200191505060405180910390f35b6101136101ab565b604051808273ffffffffffffffffffffffffffffffffffffffff1673ffffffffffffffffffffffffffffffffffffffff16815260200191505060405180910390f35b61015d6101d1565b6040518082815260200191505060405180910390f35b600560009054906101000a900473ffffffffffffffffffffffffffffffffffffffff1681565b60075481565b60025481565b60015481565b600460009054906101000a900473ffffffffffffffffffffffffffffffffffffffff1681565b6003548156fea265627a7a723158203602cd6709b6676b8cd32567483c95832c2f00d3c0a2ae673706339cc91181ca64736f6c63430005100032",
  "source": "// SPDX-License-Identifier: MIT\npragma solidity >=0.4.22 <0.8.0;\n\ncontract Bill{\n\n    enum BillState{Unissue, Issuing, Issued, Financing, Financed, Invalid, Spliting, Splited, Transfering, Transfered}\n    BillState billstate;\n    \n    bytes32 public billID;\n\n    uint public issuedTime;\n\n    uint public expiredTime;\n\n    address public owner;\n\n    address public issuer;\n\n    address[] billOperationAddrs;\n\n    uint public faceValue;\n\n\n    constructor(bytes32 _billID, uint _issuedTime, uint _expiredTime, address _owner, uint _faceValue, BillState _state) public{\n\n        issuer = msg.sender;\n        billID = _billID;\n        issuedTime = _issuedTime;\n        expiredTime = _expiredTime;\n        owner = _owner;\n        faceValue = _faceValue;\n        billstate = _state;\n        \n    }\n\n}",
  "sourcePath": "/Users/newguo/projects/blockchain-supplychainFinance/supplychain_finance/contracts/Bill.sol",
  "compiler": {
    "name": "solc",
    "version": "0.5.16+commit.9c3226ce.Emscripten.clang"
  },
  "schemaVersion": "3.2.3",
  "updatedAt": "2020-08-12T11:09:14.924Z",
  "devdoc": {
    "methods": {}
  },
  "userdoc": {
    "methods": {}
  }
}