{
  "contractName": "Company",
  "abi": [
    {
      "inputs": [],
      "payable": false,
      "stateMutability": "nonpayable",
      "type": "constructor"
    },
    {
      "constant": false,
      "inputs": [
        {
          "internalType": "address",
          "name": "_companyConAddr",
          "type": "address"
        },
        {
          "internalType": "bytes32",
          "name": "_supplierID",
          "type": "bytes32"
        },
        {
          "internalType": "uint256",
          "name": "_level",
          "type": "uint256"
        },
        {
          "internalType": "bytes32",
          "name": "_supplierName",
          "type": "bytes32"
        }
      ],
      "name": "createSupplier",
      "outputs": [
        {
          "internalType": "address",
          "name": "",
          "type": "address"
        }
      ],
      "payable": false,
      "stateMutability": "nonpayable",
      "type": "function"
    },
    {
      "constant": false,
      "inputs": [
        {
          "internalType": "address",
          "name": "_financedBillAddr",
          "type": "address"
        }
      ],
      "name": "addFinancedBillAddr",
      "outputs": [],
      "payable": false,
      "stateMutability": "nonpayable",
      "type": "function"
    },
    {
      "constant": false,
      "inputs": [
        {
          "internalType": "address",
          "name": "_billOperation",
          "type": "address"
        }
      ],
      "name": "addBillOperation",
      "outputs": [],
      "payable": false,
      "stateMutability": "nonpayable",
      "type": "function"
    }
  ],
  "bytecode": "0x608060405234801561001057600080fd5b50610479806100206000396000f3fe608060405234801561001057600080fd5b50600436106100415760003560e01c8063540defa414610046578063578db2271461008a578063c8f54743146100ce575b600080fd5b6100886004803603602081101561005c57600080fd5b81019080803573ffffffffffffffffffffffffffffffffffffffff169060200190929190505050610170565b005b6100cc600480360360208110156100a057600080fd5b81019080803573ffffffffffffffffffffffffffffffffffffffff1690602001909291905050506101d9565b005b61012e600480360360808110156100e457600080fd5b81019080803573ffffffffffffffffffffffffffffffffffffffff169060200190929190803590602001909291908035906020019092919080359060200190929190505050610242565b604051808273ffffffffffffffffffffffffffffffffffffffff1673ffffffffffffffffffffffffffffffffffffffff16815260200191505060405180910390f35b60028190806001815401808255809150509060018203906000526020600020016000909192909190916101000a81548173ffffffffffffffffffffffffffffffffffffffff021916908373ffffffffffffffffffffffffffffffffffffffff1602179055505050565b60018190806001815401808255809150509060018203906000526020600020016000909192909190916101000a81548173ffffffffffffffffffffffffffffffffffffffff021916908373ffffffffffffffffffffffffffffffffffffffff1602179055505050565b6000808585848660405161025590610331565b808573ffffffffffffffffffffffffffffffffffffffff1673ffffffffffffffffffffffffffffffffffffffff168152602001848152602001838152602001828152602001945050505050604051809103906000f0801580156102bc573d6000803e3d6000fd5b50905060008190806001815401808255809150509060018203906000526020600020016000909192909190916101000a81548173ffffffffffffffffffffffffffffffffffffffff021916908373ffffffffffffffffffffffffffffffffffffffff1602179055505080915050949350505050565b6101068061033f8339019056fe6080604052348015600f57600080fd5b5060405161010638038061010683398181016040526080811015603157600080fd5b810190808051906020019092919080519060200190929190805190602001909291908051906020019092919050505083600360006101000a81548173ffffffffffffffffffffffffffffffffffffffff021916908373ffffffffffffffffffffffffffffffffffffffff16021790555082600081905550816002819055508060018190555050505050603e806100c86000396000f3fe6080604052600080fdfea265627a7a72315820dacc35dd0330fceb98e276c0102791c712dc70904f18bc35537c3aad9b80ac4164736f6c63430005100032a265627a7a723158201e90c08f3f6a5f876d9fa63719061d18a1c78905d17b9df21737f5347257749664736f6c63430005100032",
  "source": "// SPDX-License-Identifier: MIT\npragma solidity >=0.4.22 <0.8.0;\nimport \"./Supplier.sol\";\n\n// Core Company\ncontract Company{\n\n\n    address[] supplierConAddrs;\n    address[] financedBillAddrs;\n    address[] billOperations;\n\n    constructor() public{\n\n    }\n\n    function createSupplier(address _companyConAddr,bytes32 _supplierID, uint _level,\n                            bytes32 _supplierName) public returns(address){\n        Supplier supplier = new Supplier(_companyConAddr, _supplierID, _supplierName, _level);\n        supplierConAddrs.push(address(supplier));\n        return address(supplier);\n    }\n\n    function addFinancedBillAddr(address _financedBillAddr) public {\n        financedBillAddrs.push(_financedBillAddr);\n    }\n\n    function addBillOperation(address _billOperation) public {\n        billOperations.push(_billOperation);\n    }\n\n}",
  "sourcePath": "/Users/newguo/projects/blockchain-supplychainFinance/supplychain_finance/contracts/Company.sol",
  "compiler": {
    "name": "solc",
    "version": "0.5.16+commit.9c3226ce.Emscripten.clang"
  },
  "schemaVersion": "3.2.3",
  "updatedAt": "2020-08-12T11:09:14.926Z",
  "devdoc": {
    "methods": {}
  },
  "userdoc": {
    "methods": {}
  }
}