{
  "contractName": "Finance",
  "abi": [
    {
      "inputs": [
        {
          "internalType": "bytes32",
          "name": "id",
          "type": "bytes32"
        }
      ],
      "stateMutability": "nonpayable",
      "type": "constructor"
    },
    {
      "anonymous": false,
      "inputs": [
        {
          "indexed": false,
          "internalType": "bytes32",
          "name": "billid",
          "type": "bytes32"
        },
        {
          "indexed": false,
          "internalType": "bytes32",
          "name": "epid",
          "type": "bytes32"
        }
      ],
      "name": "billDueToRepay",
      "type": "event"
    },
    {
      "stateMutability": "payable",
      "type": "fallback",
      "payable": true
    },
    {
      "inputs": [],
      "name": "theArbitral",
      "outputs": [
        {
          "internalType": "bytes32",
          "name": "_id",
          "type": "bytes32"
        },
        {
          "internalType": "address",
          "name": "_address",
          "type": "address"
        }
      ],
      "stateMutability": "view",
      "type": "function",
      "constant": true
    },
    {
      "stateMutability": "payable",
      "type": "receive",
      "payable": true
    },
    {
      "inputs": [
        {
          "internalType": "bytes32",
          "name": "bankid",
          "type": "bytes32"
        },
        {
          "internalType": "uint256",
          "name": "r1",
          "type": "uint256"
        },
        {
          "internalType": "uint256",
          "name": "r2",
          "type": "uint256"
        },
        {
          "internalType": "string",
          "name": "_name",
          "type": "string"
        }
      ],
      "name": "addBank",
      "outputs": [
        {
          "internalType": "bool",
          "name": "",
          "type": "bool"
        },
        {
          "internalType": "string",
          "name": "",
          "type": "string"
        }
      ],
      "stateMutability": "nonpayable",
      "type": "function"
    },
    {
      "inputs": [
        {
          "internalType": "bytes32",
          "name": "epid",
          "type": "bytes32"
        },
        {
          "internalType": "string",
          "name": "_name",
          "type": "string"
        }
      ],
      "name": "addEnterprise",
      "outputs": [
        {
          "internalType": "bool",
          "name": "",
          "type": "bool"
        },
        {
          "internalType": "string",
          "name": "",
          "type": "string"
        }
      ],
      "stateMutability": "nonpayable",
      "type": "function"
    },
    {
      "inputs": [
        {
          "internalType": "bytes32",
          "name": "spid",
          "type": "bytes32"
        },
        {
          "internalType": "uint8",
          "name": "_level",
          "type": "uint8"
        },
        {
          "internalType": "string",
          "name": "_name",
          "type": "string"
        }
      ],
      "name": "addSupplier",
      "outputs": [
        {
          "internalType": "bool",
          "name": "",
          "type": "bool"
        },
        {
          "internalType": "string",
          "name": "",
          "type": "string"
        }
      ],
      "stateMutability": "nonpayable",
      "type": "function"
    },
    {
      "inputs": [
        {
          "internalType": "bytes32",
          "name": "epid",
          "type": "bytes32"
        },
        {
          "internalType": "bytes32",
          "name": "spid",
          "type": "bytes32"
        },
        {
          "internalType": "uint256",
          "name": "tolerate_time",
          "type": "uint256"
        },
        {
          "internalType": "uint256",
          "name": "_facevalue",
          "type": "uint256"
        }
      ],
      "name": "issueTradeDebtBill",
      "outputs": [
        {
          "internalType": "bool",
          "name": "",
          "type": "bool"
        },
        {
          "internalType": "bytes32",
          "name": "",
          "type": "bytes32"
        },
        {
          "internalType": "string",
          "name": "",
          "type": "string"
        }
      ],
      "stateMutability": "nonpayable",
      "type": "function"
    },
    {
      "inputs": [
        {
          "internalType": "bytes32",
          "name": "spid1",
          "type": "bytes32"
        },
        {
          "internalType": "bytes32",
          "name": "spid2",
          "type": "bytes32"
        },
        {
          "internalType": "bytes32",
          "name": "billid",
          "type": "bytes32"
        }
      ],
      "name": "transferBillbetweenSuppliers",
      "outputs": [
        {
          "internalType": "bool",
          "name": "",
          "type": "bool"
        },
        {
          "internalType": "string",
          "name": "",
          "type": "string"
        }
      ],
      "stateMutability": "nonpayable",
      "type": "function"
    },
    {
      "inputs": [
        {
          "internalType": "bytes32",
          "name": "billid",
          "type": "bytes32"
        },
        {
          "internalType": "bytes32",
          "name": "spid",
          "type": "bytes32"
        },
        {
          "internalType": "uint256[]",
          "name": "ways",
          "type": "uint256[]"
        }
      ],
      "name": "billSplitBySupplier",
      "outputs": [
        {
          "internalType": "bool",
          "name": "",
          "type": "bool"
        },
        {
          "internalType": "string",
          "name": "",
          "type": "string"
        },
        {
          "internalType": "bytes32[10]",
          "name": "",
          "type": "bytes32[10]"
        }
      ],
      "stateMutability": "nonpayable",
      "type": "function"
    },
    {
      "inputs": [
        {
          "internalType": "bytes32",
          "name": "billid",
          "type": "bytes32"
        },
        {
          "internalType": "bytes32",
          "name": "spid",
          "type": "bytes32"
        },
        {
          "internalType": "bytes32",
          "name": "bankid",
          "type": "bytes32"
        }
      ],
      "name": "supplierFinancingfromBank",
      "outputs": [
        {
          "internalType": "bool",
          "name": "",
          "type": "bool"
        },
        {
          "internalType": "string",
          "name": "",
          "type": "string"
        },
        {
          "internalType": "bytes32",
          "name": "",
          "type": "bytes32"
        }
      ],
      "stateMutability": "nonpayable",
      "type": "function"
    },
    {
      "inputs": [
        {
          "internalType": "bytes32",
          "name": "billid",
          "type": "bytes32"
        },
        {
          "internalType": "bytes32",
          "name": "epid",
          "type": "bytes32"
        }
      ],
      "name": "enterpriseRepay",
      "outputs": [
        {
          "internalType": "bool",
          "name": "",
          "type": "bool"
        },
        {
          "internalType": "string",
          "name": "",
          "type": "string"
        },
        {
          "internalType": "bytes32",
          "name": "",
          "type": "bytes32"
        }
      ],
      "stateMutability": "nonpayable",
      "type": "function"
    },
    {
      "inputs": [],
      "name": "getSupplierCount",
      "outputs": [
        {
          "internalType": "uint256",
          "name": "",
          "type": "uint256"
        }
      ],
      "stateMutability": "view",
      "type": "function",
      "constant": true
    },
    {
      "inputs": [],
      "name": "getBankCount",
      "outputs": [
        {
          "internalType": "uint256",
          "name": "",
          "type": "uint256"
        }
      ],
      "stateMutability": "view",
      "type": "function",
      "constant": true
    },
    {
      "inputs": [],
      "name": "getBillCount",
      "outputs": [
        {
          "internalType": "uint256",
          "name": "",
          "type": "uint256"
        }
      ],
      "stateMutability": "view",
      "type": "function",
      "constant": true
    },
    {
      "inputs": [],
      "name": "getRecepitCount",
      "outputs": [
        {
          "internalType": "uint256",
          "name": "",
          "type": "uint256"
        }
      ],
      "stateMutability": "view",
      "type": "function",
      "constant": true
    },
    {
      "inputs": [],
      "name": "getEnterpriseCount",
      "outputs": [
        {
          "internalType": "uint256",
          "name": "",
          "type": "uint256"
        }
      ],
      "stateMutability": "view",
      "type": "function",
      "constant": true
    },
    {
      "inputs": [
        {
          "internalType": "bytes32",
          "name": "billid",
          "type": "bytes32"
        }
      ],
      "name": "getBillBasicInfo",
      "outputs": [
        {
          "internalType": "bytes32",
          "name": "",
          "type": "bytes32"
        },
        {
          "internalType": "bytes32",
          "name": "",
          "type": "bytes32"
        },
        {
          "internalType": "uint256",
          "name": "",
          "type": "uint256"
        },
        {
          "internalType": "uint256",
          "name": "",
          "type": "uint256"
        },
        {
          "internalType": "enum Finance.BillState",
          "name": "",
          "type": "uint8"
        },
        {
          "internalType": "bytes32",
          "name": "",
          "type": "bytes32"
        }
      ],
      "stateMutability": "nonpayable",
      "type": "function"
    },
    {
      "inputs": [
        {
          "internalType": "bytes32",
          "name": "billid",
          "type": "bytes32"
        }
      ],
      "name": "getBillHistory",
      "outputs": [
        {
          "internalType": "uint256[]",
          "name": "",
          "type": "uint256[]"
        },
        {
          "internalType": "bytes32[]",
          "name": "",
          "type": "bytes32[]"
        },
        {
          "internalType": "bytes32[]",
          "name": "",
          "type": "bytes32[]"
        }
      ],
      "stateMutability": "nonpayable",
      "type": "function"
    },
    {
      "inputs": [
        {
          "internalType": "bytes32",
          "name": "billid",
          "type": "bytes32"
        }
      ],
      "name": "getBillSplitInfo",
      "outputs": [
        {
          "internalType": "bytes32",
          "name": "",
          "type": "bytes32"
        },
        {
          "internalType": "bytes32[]",
          "name": "",
          "type": "bytes32[]"
        }
      ],
      "stateMutability": "nonpayable",
      "type": "function"
    },
    {
      "inputs": [
        {
          "internalType": "bytes32",
          "name": "repid",
          "type": "bytes32"
        }
      ],
      "name": "getRecepitInfo",
      "outputs": [
        {
          "internalType": "uint256",
          "name": "",
          "type": "uint256"
        },
        {
          "internalType": "bytes32",
          "name": "",
          "type": "bytes32"
        },
        {
          "internalType": "bytes32",
          "name": "",
          "type": "bytes32"
        },
        {
          "internalType": "bytes32",
          "name": "",
          "type": "bytes32"
        }
      ],
      "stateMutability": "view",
      "type": "function",
      "constant": true
    },
    {
      "inputs": [
        {
          "internalType": "bytes32",
          "name": "id",
          "type": "bytes32"
        }
      ],
      "name": "getBankBasicInfo",
      "outputs": [
        {
          "internalType": "uint256",
          "name": "",
          "type": "uint256"
        },
        {
          "internalType": "uint256",
          "name": "",
          "type": "uint256"
        },
        {
          "internalType": "uint256",
          "name": "",
          "type": "uint256"
        },
        {
          "internalType": "uint256",
          "name": "",
          "type": "uint256"
        },
        {
          "internalType": "string",
          "name": "",
          "type": "string"
        }
      ],
      "stateMutability": "view",
      "type": "function",
      "constant": true
    },
    {
      "inputs": [
        {
          "internalType": "bytes32",
          "name": "id",
          "type": "bytes32"
        }
      ],
      "name": "getSupplierBasicInfo",
      "outputs": [
        {
          "internalType": "uint256",
          "name": "",
          "type": "uint256"
        },
        {
          "internalType": "uint256",
          "name": "",
          "type": "uint256"
        },
        {
          "internalType": "uint256",
          "name": "",
          "type": "uint256"
        },
        {
          "internalType": "string",
          "name": "",
          "type": "string"
        }
      ],
      "stateMutability": "view",
      "type": "function",
      "constant": true
    },
    {
      "inputs": [
        {
          "internalType": "bytes32",
          "name": "id",
          "type": "bytes32"
        }
      ],
      "name": "getEnterpriseBasicInfo",
      "outputs": [
        {
          "internalType": "uint256",
          "name": "",
          "type": "uint256"
        },
        {
          "internalType": "uint256",
          "name": "",
          "type": "uint256"
        },
        {
          "internalType": "uint256",
          "name": "",
          "type": "uint256"
        },
        {
          "internalType": "string",
          "name": "",
          "type": "string"
        }
      ],
      "stateMutability": "view",
      "type": "function",
      "constant": true
    },
    {
      "inputs": [
        {
          "internalType": "bytes32",
          "name": "id",
          "type": "bytes32"
        }
      ],
      "name": "getAllofSupplierBillsid",
      "outputs": [
        {
          "internalType": "bytes32[]",
          "name": "",
          "type": "bytes32[]"
        }
      ],
      "stateMutability": "view",
      "type": "function",
      "constant": true
    },
    {
      "inputs": [
        {
          "internalType": "bytes32",
          "name": "id",
          "type": "bytes32"
        }
      ],
      "name": "getAllofBankBillsid",
      "outputs": [
        {
          "internalType": "bytes32[]",
          "name": "",
          "type": "bytes32[]"
        }
      ],
      "stateMutability": "view",
      "type": "function",
      "constant": true
    },
    {
      "inputs": [
        {
          "internalType": "bytes32",
          "name": "id",
          "type": "bytes32"
        }
      ],
      "name": "getAllofEnterpriseBillsid",
      "outputs": [
        {
          "internalType": "bytes32[]",
          "name": "",
          "type": "bytes32[]"
        }
      ],
      "stateMutability": "view",
      "type": "function",
      "constant": true
    },
    {
      "inputs": [
        {
          "internalType": "bytes32",
          "name": "id",
          "type": "bytes32"
        }
      ],
      "name": "getAllofSupplierRecepitsid",
      "outputs": [
        {
          "internalType": "bytes32[]",
          "name": "",
          "type": "bytes32[]"
        }
      ],
      "stateMutability": "view",
      "type": "function",
      "constant": true
    },
    {
      "inputs": [
        {
          "internalType": "bytes32",
          "name": "id",
          "type": "bytes32"
        }
      ],
      "name": "getAllofBankRecepitsid",
      "outputs": [
        {
          "internalType": "bytes32[]",
          "name": "",
          "type": "bytes32[]"
        }
      ],
      "stateMutability": "view",
      "type": "function",
      "constant": true
    },
    {
      "inputs": [
        {
          "internalType": "bytes32",
          "name": "id",
          "type": "bytes32"
        }
      ],
      "name": "getAllofEnterpriseRecepitsid",
      "outputs": [
        {
          "internalType": "bytes32[]",
          "name": "",
          "type": "bytes32[]"
        }
      ],
      "stateMutability": "view",
      "type": "function",
      "constant": true
    }
  ],
  "bytecode": "0x608060405234801561001057600080fd5b5060405162004644380380620046448339818101604052602081101561003557600080fd5b810190808051906020019092919050505060405180604001604052808281526020013373ffffffffffffffffffffffffffffffffffffffff16815250600080820151816000015560208201518160010160006101000a81548173ffffffffffffffffffffffffffffffffffffffff021916908373ffffffffffffffffffffffffffffffffffffffff1602179055509050505061456d80620000d76000396000f3fe6080604052600436106101a05760003560e01c80637386c9a7116100ec578063ba25a5f71161008a578063ef0ddc0c11610064578063ef0ddc0c14611111578063f185e300146111a1578063f7a992a114611231578063fc94d051146112c1576101a7565b8063ba25a5f714610f36578063c0a2f30414610fc6578063c90edbfa14611094576101a7565b80638c7977ed116100c65780638c7977ed14610c725780639f3ef7e314610d54578063b10b733914610e1d578063b353334914610eee576101a7565b80637386c9a714610aee57806375a010c914610b525780638936f96a14610be2576101a7565b80632e44715d116101595780634af999b3116101335780634af999b31461083657806352d07cd0146109c0578063583ea555146109eb5780635b89707514610ac3576101a7565b80632e44715d146105835780633b8e661d146105ae578063416532ec146106ce576101a7565b80631883c7cc146101a957806323218e5f146101d457806326cb93c5146101ff57806326cf81a7146102c85780632b78c076146103985780632c4a7e5a1461042f576101a7565b366101a757005b005b3480156101b557600080fd5b506101be611422565b6040518082815260200191505060405180910390f35b3480156101e057600080fd5b506101e961142f565b6040518082815260200191505060405180910390f35b34801561020b57600080fd5b506102386004803603602081101561022257600080fd5b810190808035906020019092919050505061143c565b6040518085815260200184815260200183815260200180602001828103825283818151815260200191508051906020019080838360005b8381101561028a57808201518184015260208101905061026f565b50505050905090810190601f1680156102b75780820380516001836020036101000a031916815260200191505b509550505050505060405180910390f35b3480156102d457600080fd5b50610301600480360360208110156102eb57600080fd5b8101908080359060200190929190505050611532565b6040518086815260200185815260200184815260200183815260200180602001828103825283818151815260200191508051906020019080838360005b8381101561035957808201518184015260208101905061033e565b50505050905090810190601f1680156103865780820380516001836020036101000a031916815260200191505b50965050505050505060405180910390f35b3480156103a457600080fd5b506103d1600480360360208110156103bb57600080fd5b810190808035906020019092919050505061161f565b6040518083815260200180602001828103825283818151815260200191508051906020019060200280838360005b8381101561041a5780820151818401526020810190506103ff565b50505050905001935050505060405180910390f35b34801561043b57600080fd5b506104ff6004803603604081101561045257600080fd5b81019080803590602001909291908035906020019064010000000081111561047957600080fd5b82018360208201111561048b57600080fd5b803590602001918460018302840111640100000000831117156104ad57600080fd5b91908080601f016020809104026020016040519081016040528093929190818152602001838380828437600081840152601f19601f8201169050808301925050505050505091929192905050506116a9565b60405180831515815260200180602001828103825283818151815260200191508051906020019080838360005b8381101561054757808201518184015260208101905061052c565b50505050905090810190601f1680156105745780820380516001836020036101000a031916815260200191505b50935050505060405180910390f35b34801561058f57600080fd5b506105986119a7565b6040518082815260200191505060405180910390f35b3480156105ba57600080fd5b506105e7600480360360208110156105d157600080fd5b81019080803590602001909291905050506119b4565b60405180806020018060200180602001848103845287818151815260200191508051906020019060200280838360005b83811015610632578082015181840152602081019050610617565b50505050905001848103835286818151815260200191508051906020019060200280838360005b83811015610674578082015181840152602081019050610659565b50505050905001848103825285818151815260200191508051906020019060200280838360005b838110156106b657808201518184015260208101905061069b565b50505050905001965050505050505060405180910390f35b3480156106da57600080fd5b506107b2600480360360808110156106f157600080fd5b810190808035906020019092919080359060200190929190803590602001909291908035906020019064010000000081111561072c57600080fd5b82018360208201111561073e57600080fd5b8035906020019184600183028401116401000000008311171561076057600080fd5b91908080601f016020809104026020016040519081016040528093929190818152602001838380828437600081840152601f19601f820116905080830192505050505050509192919290505050611aea565b60405180831515815260200180602001828103825283818151815260200191508051906020019080838360005b838110156107fa5780820151818401526020810190506107df565b50505050905090810190601f1680156108275780820380516001836020036101000a031916815260200191505b50935050505060405180910390f35b34801561084257600080fd5b5061090d6004803603606081101561085957600080fd5b8101908080359060200190929190803590602001909291908035906020019064010000000081111561088a57600080fd5b82018360208201111561089c57600080fd5b803590602001918460208302840111640100000000831117156108be57600080fd5b919080806020026020016040519081016040528093929190818152602001838360200280828437600081840152601f19601f820116905080830192505050505050509192919290505050611e03565b6040518084151581526020018060200183600a60200280838360005b83811015610944578082015181840152602081019050610929565b50505050905001828103825284818151815260200191508051906020019080838360005b83811015610983578082015181840152602081019050610968565b50505050905090810190601f1680156109b05780820380516001836020036101000a031916815260200191505b5094505050505060405180910390f35b3480156109cc57600080fd5b506109d5612340565b6040518082815260200191505060405180910390f35b3480156109f757600080fd5b50610a3860048036036060811015610a0e57600080fd5b8101908080359060200190929190803590602001909291908035906020019092919050505061234d565b60405180841515815260200180602001838152602001828103825284818151815260200191508051906020019080838360005b83811015610a86578082015181840152602081019050610a6b565b50505050905090810190601f168015610ab35780820380516001836020036101000a031916815260200191505b5094505050505060405180910390f35b348015610acf57600080fd5b50610ad86127fb565b6040518082815260200191505060405180910390f35b348015610afa57600080fd5b50610b2760048036036020811015610b1157600080fd5b8101908080359060200190929190505050612808565b6040518085815260200184815260200183815260200182815260200194505050505060405180910390f35b348015610b5e57600080fd5b50610b8b60048036036020811015610b7557600080fd5b8101908080359060200190929190505050612849565b6040518080602001828103825283818151815260200191508051906020019060200280838360005b83811015610bce578082015181840152602081019050610bb3565b505050509050019250505060405180910390f35b348015610bee57600080fd5b50610c1b60048036036020811015610c0557600080fd5b81019080803590602001909291905050506128bd565b6040518080602001828103825283818151815260200191508051906020019060200280838360005b83811015610c5e578082015181840152602081019050610c43565b505050509050019250505060405180910390f35b348015610c7e57600080fd5b50610cc960048036036080811015610c9557600080fd5b8101908080359060200190929190803590602001909291908035906020019092919080359060200190929190505050612931565b60405180841515815260200183815260200180602001828103825283818151815260200191508051906020019080838360005b83811015610d17578082015181840152602081019050610cfc565b50505050905090810190601f168015610d445780820380516001836020036101000a031916815260200191505b5094505050505060405180910390f35b348015610d6057600080fd5b50610d8d60048036036020811015610d7757600080fd5b8101908080359060200190929190505050612b89565b6040518085815260200184815260200183815260200180602001828103825283818151815260200191508051906020019080838360005b83811015610ddf578082015181840152602081019050610dc4565b50505050905090810190601f168015610e0c5780820380516001836020036101000a031916815260200191505b509550505050505060405180910390f35b348015610e2957600080fd5b50610e6a60048036036060811015610e4057600080fd5b81019080803590602001909291908035906020019092919080359060200190929190505050612c6c565b60405180831515815260200180602001828103825283818151815260200191508051906020019080838360005b83811015610eb2578082015181840152602081019050610e97565b50505050905090810190601f168015610edf5780820380516001836020036101000a031916815260200191505b50935050505060405180910390f35b348015610efa57600080fd5b50610f0361306f565b604051808381526020018273ffffffffffffffffffffffffffffffffffffffff1681526020019250505060405180910390f35b348015610f4257600080fd5b50610f6f60048036036020811015610f5957600080fd5b81019080803590602001909291905050506130a1565b6040518080602001828103825283818151815260200191508051906020019060200280838360005b83811015610fb2578082015181840152602081019050610f97565b505050509050019250505060405180910390f35b348015610fd257600080fd5b5061100960048036036040811015610fe957600080fd5b810190808035906020019092919080359060200190929190505050613115565b60405180841515815260200180602001838152602001828103825284818151815260200191508051906020019080838360005b8381101561105757808201518184015260208101905061103c565b50505050905090810190601f1680156110845780820380516001836020036101000a031916815260200191505b5094505050505060405180910390f35b3480156110a057600080fd5b506110cd600480360360208110156110b757600080fd5b8101908080359060200190929190505050613522565b604051808781526020018681526020018581526020018481526020018360038111156110f557fe5b8152602001828152602001965050505050505060405180910390f35b34801561111d57600080fd5b5061114a6004803603602081101561113457600080fd5b810190808035906020019092919050505061358d565b6040518080602001828103825283818151815260200191508051906020019060200280838360005b8381101561118d578082015181840152602081019050611172565b505050509050019250505060405180910390f35b3480156111ad57600080fd5b506111da600480360360208110156111c457600080fd5b8101908080359060200190929190505050613601565b6040518080602001828103825283818151815260200191508051906020019060200280838360005b8381101561121d578082015181840152602081019050611202565b505050509050019250505060405180910390f35b34801561123d57600080fd5b5061126a6004803603602081101561125457600080fd5b8101908080359060200190929190505050613675565b6040518080602001828103825283818151815260200191508051906020019060200280838360005b838110156112ad578082015181840152602081019050611292565b505050509050019250505060405180910390f35b3480156112cd57600080fd5b5061139e600480360360608110156112e457600080fd5b8101908080359060200190929190803560ff1690602001909291908035906020019064010000000081111561131857600080fd5b82018360208201111561132a57600080fd5b8035906020019184600183028401116401000000008311171561134c57600080fd5b91908080601f016020809104026020016040519081016040528093929190818152602001838380828437600081840152601f19601f8201169050808301925050505050505091929192905050506136e9565b60405180831515815260200180602001828103825283818151815260200191508051906020019080838360005b838110156113e65780820151818401526020810190506113cb565b50505050905090810190601f1680156114135780820380516001836020036101000a031916815260200191505b50935050505060405180910390f35b6000600780549050905090565b6000600b80549050905090565b6000806000606060006006600087815260200190815260200160002090508060010160009054906101000a900460ff1681600201805490508260030180549050836004018360ff169350808054600181600116156101000203166002900480601f01602080910402602001604051908101604052809291908181526020018280546001816001161561010002031660029004801561151b5780601f106114f05761010080835404028352916020019161151b565b820191906000526020600020905b8154815290600101906020018083116114fe57829003601f168201915b505050505090509450945094509450509193509193565b60008060008060606000600560008881526020019081526020016000209050806001015481600201548260030180549050836004018054905084600501808054600181600116156101000203166002900480601f0160208091040260200160405190810160405280929190818152602001828054600181600116156101000203166002900480156116045780601f106115d957610100808354040283529160200191611604565b820191906000526020600020905b8154815290600101906020018083116115e757829003601f168201915b50505050509050955095509550955095505091939590929450565b6000606061162c83613a25565b5060006003600085815260200190815260200160002090508060060154816007018080548060200260200160405190810160405280929190818152602001828054801561169857602002820191906000526020600020905b815481526020019060010190808311611684575b505050505090509250925050915091565b60006060600060010160009054906101000a900473ffffffffffffffffffffffffffffffffffffffff1673ffffffffffffffffffffffffffffffffffffffff163373ffffffffffffffffffffffffffffffffffffffff1614611773576040517f08c379a00000000000000000000000000000000000000000000000000000000081526004018080602001828103825260198152602001807f4f6e6c7920617262697472616c2063616e206f7065726174650000000000000081525060200191505060405180910390fd5b60096040518060a0016040528086815260200160008152602001600067ffffffffffffffff811180156117a557600080fd5b506040519080825280602002602001820160405280156117d45781602001602082028036833780820191505090505b508152602001600067ffffffffffffffff811180156117f257600080fd5b506040519080825280602002602001820160405280156118215781602001602082028036833780820191505090505b5081526020018581525090806001815401808255809150506001900390600052602060002090600502016000909190919091506000820151816000015560208201518160010155604082015181600201908051906020019061188492919061413f565b5060608201518160030190805190602001906118a192919061413f565b5060808201518160040190805190602001906118be92919061418c565b5050506009600160098054905003815481106118d657fe5b9060005260206000209060050201600460008681526020019081526020016000206000820154816000015560018201548160010155600282018160020190805461192192919061420c565b50600382018160030190805461193892919061420c565b506004820181600401908054600181600116156101000203166002900461196092919061425e565b5090505060016040518060400160405280600781526020017f7375636365737300000000000000000000000000000000000000000000000000815250915091509250929050565b6000600a80549050905090565b60608060606119c284613a25565b50600060036000868152602001908152602001600020905080600a01816008018260090182805480602002602001604051908101604052809291908181526020018280548015611a3157602002820191906000526020600020905b815481526020019060010190808311611a1d575b5050505050925081805480602002602001604051908101604052809291908181526020018280548015611a8357602002820191906000526020600020905b815481526020019060010190808311611a6f575b5050505050915080805480602002602001604051908101604052809291908181526020018280548015611ad557602002820191906000526020600020905b815481526020019060010190808311611ac1575b50505050509050935093509350509193909250565b60006060600060010160009054906101000a900473ffffffffffffffffffffffffffffffffffffffff1673ffffffffffffffffffffffffffffffffffffffff163373ffffffffffffffffffffffffffffffffffffffff1614611bb4576040517f08c379a00000000000000000000000000000000000000000000000000000000081526004018080602001828103825260198152602001807f4f6e6c7920617262697472616c2063616e206f7065726174650000000000000081525060200191505060405180910390fd5b600a6040518060c00160405280888152602001878152602001868152602001600067ffffffffffffffff81118015611beb57600080fd5b50604051908082528060200260200182016040528015611c1a5781602001602082028036833780820191505090505b508152602001600067ffffffffffffffff81118015611c3857600080fd5b50604051908082528060200260200182016040528015611c675781602001602082028036833780820191505090505b5081526020018581525090806001815401808255809150506001900390600052602060002090600602016000909190919091506000820151816000015560208201518160010155604082015181600201556060820151816003019080519060200190611cd492919061413f565b506080820151816004019080519060200190611cf192919061413f565b5060a0820151816005019080519060200190611d0e92919061418c565b505050600a6001600a805490500381548110611d2657fe5b9060005260206000209060060201600560008881526020019081526020016000206000820154816000015560018201548160010155600282015481600201556003820181600301908054611d7b92919061420c565b506004820181600401908054611d9292919061420c565b5060058201816005019080546001816001161561010002031660029004611dba92919061425e565b5090505060016040518060400160405280600781526020017f73756363657373000000000000000000000000000000000000000000000000008152509150915094509492505050565b60006060611e0f6142e5565b600060010160009054906101000a900473ffffffffffffffffffffffffffffffffffffffff1673ffffffffffffffffffffffffffffffffffffffff163373ffffffffffffffffffffffffffffffffffffffff1614611ed5576040517f08c379a00000000000000000000000000000000000000000000000000000000081526004018080602001828103825260198152602001807f4f6e6c7920617262697472616c2063616e206f7065726174650000000000000081525060200191505060405180910390fd5b60006003600088815260200190815260200160002090506000600660008881526020019081526020016000209050611f0b6142e5565b6000801b82600001541415611f88576040517f08c379a00000000000000000000000000000000000000000000000000000000081526004018080602001828103825260168152602001807f537570706c69657220646f65736e27742065786973740000000000000000000081525060200191505060405180910390fd5b611f9189613a25565b611fdd576000816040518060400160405280600681526020017f6661696c6564000000000000000000000000000000000000000000000000000081525090955095509550505050612337565b60016003811115611fea57fe5b8360040160009054906101000a900460ff16600381111561200757fe5b141561207b576040517f08c379a000000000000000000000000000000000000000000000000000000000815260040180806020018281038252600d8152602001807f42696c6c2069732053706c69740000000000000000000000000000000000000081525060200191505060405180910390fd5b6000600184600801805490500390508884600901828154811061209a57fe5b90600052602060002001541480156120b45750600a885111155b612109576040517f08c379a000000000000000000000000000000000000000000000000000000000815260040180806020018281038252603b8152602001806144a7603b913960400191505060405180910390fd5b6000805b895181101561213b5789818151811061212257fe5b602002602001015182019150808060010191505061210d565b50846002015481146121b5576040517f08c379a00000000000000000000000000000000000000000000000000000000081526004018080602001828103825260198152602001807f73706c6974207761792069736e2774206665617369626c652e0000000000000081525060200191505060405180910390fd5b60008560030154905060008660010154905060008d905060008d905060008960080160018b6008018054905003815481106121ec57fe5b9060005260206000200154905060005b8e518110156122c55760008f828151811061221357fe5b6020026020010151905061222c8385888842868d613ba7565b8a83600a811061223857fe5b6020020181815250508b6007018a83600a811061225157fe5b602002015190806001815401808255809150506001900390600052602060002001600090919091909150558a6002018a83600a811061228c57fe5b602002015190806001815401808255809150506001900390600052602060002001600090919091909150555080806001019150506121fc565b5060018a60040160006101000a81548160ff021916908360038111156122e757fe5b02179055506001886040518060400160405280600781526020017f7375636365737300000000000000000000000000000000000000000000000000815250909c509c509c50505050505050505050505b93509350939050565b6000600980549050905090565b6000606060008060010160009054906101000a900473ffffffffffffffffffffffffffffffffffffffff1673ffffffffffffffffffffffffffffffffffffffff163373ffffffffffffffffffffffffffffffffffffffff1614612418576040517f08c379a00000000000000000000000000000000000000000000000000000000081526004018080602001828103825260198152602001807f4f6e6c7920617262697472616c2063616e206f7065726174650000000000000081525060200191505060405180910390fd5b6000600360008881526020019081526020016000209050600060066000888152602001908152602001600020905060006005600088815260200190815260200160002090506000801b82600001541415801561247b57506000801b836000015414155b801561248e57506000801b816000015414155b6124e3576040517f08c379a00000000000000000000000000000000000000000000000000000000081526004018080602001828103825260408152602001806144676040913960400191505060405180910390fd5b60006124ee8a613a25565b61253b576000816040518060400160405280600681526020017f6661696c6564000000000000000000000000000000000000000000000000000081525090965096509650505050506127f2565b6001600381111561254857fe5b8460040160009054906101000a900460ff16600381111561256557fe5b14156125d9576040517f08c379a000000000000000000000000000000000000000000000000000000000815260040180806020018281038252600d8152602001807f42696c6c2069732053706c69740000000000000000000000000000000000000081525060200191505060405180910390fd5b600060018560080180549050039050898560090182815481106125f857fe5b906000526020600020015414612676576040517f08c379a00000000000000000000000000000000000000000000000000000000081526004018080602001828103825260208152602001807f42696c6c20646f65736e27742062656c6f6e6720746f20537570706c6965722081525060200191505060405180910390fd5b6000836002015484600101548760020154028161268f57fe5b04905061269e8a8c8e84614000565b9250856008018b9080600181540180825580915050600190039060005260206000200160009091909190915055856009018a908060018154018082558091505060019003906000526020600020016000909190919091505585600a0142908060018154018082558091505060019003906000526020600020016000909190919091505582866005018190555083600401839080600181540180825580915050600190039060005260206000200160009091909190915055836003018c9080600181540180825580915050600190039060005260206000200160009091909190915055846003018390806001815401808255809150506001900390600052602060002001600090919091909150556001836040518060400160405280600781526020017f7375636365737300000000000000000000000000000000000000000000000000815250909850985098505050505050505b93509350939050565b6000600880549050905090565b600080600080600060026000878152602001908152602001600020905080600101548160020154826003015483600401549450945094509450509193509193565b60606000600560008481526020019081526020016000209050806004018054806020026020016040519081016040528092919081815260200182805480156128b057602002820191906000526020600020905b81548152602001906001019080831161289c575b5050505050915050919050565b606060006004600084815260200190815260200160002090508060020180548060200260200160405190810160405280929190818152602001828054801561292457602002820191906000526020600020905b815481526020019060010190808311612910575b5050505050915050919050565b6000806060600060010160009054906101000a900473ffffffffffffffffffffffffffffffffffffffff1673ffffffffffffffffffffffffffffffffffffffff163373ffffffffffffffffffffffffffffffffffffffff16146129fc576040517f08c379a00000000000000000000000000000000000000000000000000000000081526004018080602001828103825260198152602001807f4f6e6c7920617262697472616c2063616e206f7065726174650000000000000081525060200191505060405180910390fd5b600060046000898152602001908152602001600020905060006006600089815260200190815260200160002090506000801b826000015414158015612a4857506000801b816000015414155b8015612a68575060018160010160009054906101000a900460ff1660ff16145b612abd576040517f08c379a00000000000000000000000000000000000000000000000000000000081526004018080602001828103825260548152602001806144136054913960600191505060405180910390fd5b6000612ad38a8a8c6000801b428c8e4201613ba7565b905086836001016000828254019250508190555082600201819080600181540180825580915050600190039060005260206000200160009091909190915055816002018190806001815401808255809150506001900390600052602060002001600090919091909150556001816040518060400160405280600781526020017f73756363657373000000000000000000000000000000000000000000000000008152509550955095505050509450945094915050565b60008060006060600060046000878152602001908152602001600020905080600101548160020180549050826003018054905083600401808054600181600116156101000203166002900480601f016020809104026020016040519081016040528092919081815260200182805460018160011615610100020316600290048015612c555780601f10612c2a57610100808354040283529160200191612c55565b820191906000526020600020905b815481529060010190602001808311612c3857829003601f168201915b505050505090509450945094509450509193509193565b60006060600060010160009054906101000a900473ffffffffffffffffffffffffffffffffffffffff1673ffffffffffffffffffffffffffffffffffffffff163373ffffffffffffffffffffffffffffffffffffffff1614612d36576040517f08c379a00000000000000000000000000000000000000000000000000000000081526004018080602001828103825260198152602001807f4f6e6c7920617262697472616c2063616e206f7065726174650000000000000081525060200191505060405180910390fd5b6000600660008781526020019081526020016000209050600060066000878152602001908152602001600020905060006003600087815260200190815260200160002090506000801b836000015414158015612d9957506000801b826000015414155b612dee576040517f08c379a00000000000000000000000000000000000000000000000000000000081526004018080602001828103825260318152602001806143e26031913960400191505060405180910390fd5b612df786613a25565b612e3f5760006040518060400160405280600681526020017f6661696c6564000000000000000000000000000000000000000000000000000081525094509450505050613067565b60016003811115612e4c57fe5b8160040160009054906101000a900460ff166003811115612e6957fe5b1415612edd576040517f08c379a000000000000000000000000000000000000000000000000000000000815260040180806020018281038252600d8152602001807f42696c6c2069732053706c69740000000000000000000000000000000000000081525060200191505060405180910390fd5b60006001826008018054905003905088826009018281548110612efc57fe5b906000526020600020015414612f7a576040517f08c379a00000000000000000000000000000000000000000000000000000000081526004018080602001828103825260208152602001807f42696c6c20646f65736e27742062656c6f6e6720746f20537570706c6965723181525060200191505060405180910390fd5b816008018990806001815401808255809150506001900390600052602060002001600090919091909150558160090188908060018154018082558091505060019003906000526020600020016000909190919091505581600a014290806001815401808255809150506001900390600052602060002001600090919091909150558260020187908060018154018082558091505060019003906000526020600020016000909190919091505560016040518060400160405280600781526020017f737563636573730000000000000000000000000000000000000000000000000081525095509550505050505b935093915050565b60008060000154908060010160009054906101000a900473ffffffffffffffffffffffffffffffffffffffff16905082565b606060006006600084815260200190815260200160002090508060030180548060200260200160405190810160405280929190818152602001828054801561310857602002820191906000526020600020905b8154815260200190600101908083116130f4575b5050505050915050919050565b6000606060008060010160009054906101000a900473ffffffffffffffffffffffffffffffffffffffff1673ffffffffffffffffffffffffffffffffffffffff163373ffffffffffffffffffffffffffffffffffffffff16146131e0576040517f08c379a00000000000000000000000000000000000000000000000000000000081526004018080602001828103825260198152602001807f4f6e6c7920617262697472616c2063616e206f7065726174650000000000000081525060200191505060405180910390fd5b600060036000878152602001908152602001600020905060006004600087815260200190815260200160002090506000801b82600001541415801561322c57506000801b816000015414155b801561323b5750858260010154145b613290576040517f08c379a00000000000000000000000000000000000000000000000000000000081526004018080602001828103825260568152602001806144e26056913960600191505060405180910390fd5b6000826002015490506000836009016001856009018054905003815481106132b457fe5b9060005260206000200154905060006132cf89838c86614000565b905084600801829080600181540180825580915050600190039060005260206000200160009091909190915055846009016000908060018154018082558091505060019003906000526020600020016000909160001b90919091505584600a0142908060018154018082558091505060019003906000526020600020016000909190919091505580856005018190555060038560040160006101000a81548160ff0219169083600381111561338057fe5b0217905550836003018190806001815401808255809150506001900390600052602060002001600090919091909150556000801b8560060154146133ea57836002018a90806001815401808255809150506001900390600052602060002001600090919091909150555b6000801b60066000848152602001908152602001600020600001541461344c576006600083815260200190815260200160002060030181908060018154018082558091505060019003906000526020600020016000909190919091505561348a565b600560008381526020019081526020016000206004018190806001815401808255809150506001900390600052602060002001600090919091909150555b8360010154831115613504576040517f08c379a00000000000000000000000000000000000000000000000000000000081526004018080602001828103825260128152602001807f4163636f756e74696e67206572726f72732e000000000000000000000000000081525060200191505060405180910390fd5b82846001016000828254039250508190555050505050509250925092565b60008060008060008061353487613a25565b50600060036000898152602001908152602001600020905080600001548160010154826002015483600301548460040160009054906101000a900460ff1685600501549650965096509650965096505091939550919395565b60606000600660008481526020019081526020016000209050806002018054806020026020016040519081016040528092919081815260200182805480156135f457602002820191906000526020600020905b8154815260200190600101908083116135e0575b5050505050915050919050565b606060006004600084815260200190815260200160002090508060030180548060200260200160405190810160405280929190818152602001828054801561366857602002820191906000526020600020905b815481526020019060010190808311613654575b5050505050915050919050565b60606000600560008481526020019081526020016000209050806003018054806020026020016040519081016040528092919081815260200182805480156136dc57602002820191906000526020600020905b8154815260200190600101908083116136c8575b5050505050915050919050565b60006060600060010160009054906101000a900473ffffffffffffffffffffffffffffffffffffffff1673ffffffffffffffffffffffffffffffffffffffff163373ffffffffffffffffffffffffffffffffffffffff16146137b3576040517f08c379a00000000000000000000000000000000000000000000000000000000081526004018080602001828103825260198152602001807f4f6e6c7920617262697472616c2063616e206f7065726174650000000000000081525060200191505060405180910390fd5b600b6040518060a001604052808781526020018660ff168152602001600067ffffffffffffffff811180156137e757600080fd5b506040519080825280602002602001820160405280156138165781602001602082028036833780820191505090505b508152602001600067ffffffffffffffff8111801561383457600080fd5b506040519080825280602002602001820160405280156138635781602001602082028036833780820191505090505b5081526020018581525090806001815401808255809150506001900390600052602060002090600502016000909190919091506000820151816000015560208201518160010160006101000a81548160ff021916908360ff16021790555060408201518160020190805190602001906138dd92919061413f565b5060608201518160030190805190602001906138fa92919061413f565b50608082015181600401908051906020019061391792919061418c565b505050600b6001600b80549050038154811061392f57fe5b906000526020600020906005020160066000878152602001908152602001600020600082015481600001556001820160009054906101000a900460ff168160010160006101000a81548160ff021916908360ff160217905550600282018160020190805461399e92919061420c565b5060038201816003019080546139b592919061420c565b50600482018160040190805460018160011615610100020316600290046139dd92919061425e565b5090505060016040518060400160405280600781526020017f737563636573730000000000000000000000000000000000000000000000000081525091509150935093915050565b6000806003600084815260200190815260200160002090506000801b81600001541415613aba576040517f08c379a00000000000000000000000000000000000000000000000000000000081526004018080602001828103825260148152602001807f42696c6c206973206e6f7420657869737465642e00000000000000000000000081525060200191505060405180910390fd5b8060030154421015613ad0576001915050613ba2565b60006003811115613add57fe5b8160040160009054906101000a900460ff166003811115613afa57fe5b1480613b2d575060026003811115613b0e57fe5b8160040160009054906101000a900460ff166003811115613b2b57fe5b145b15613b9c5760028160040160006101000a81548160ff02191690836003811115613b5357fe5b02179055507f08654ce5265a228148184007620cec585adccfc16241c136beabe78b4ced7ae7838260010154604051808381526020018281526020019250505060405180910390a15b60009150505b919050565b600080428989604051602001808481526020018381526020018281526020019350505050604051602081830303815290604052805190602001209050600760405180610160016040528083815260200189815260200186815260200185815260200160006003811115613c1657fe5b81526020016000801b8152602001888152602001600067ffffffffffffffff81118015613c4257600080fd5b50604051908082528060200260200182016040528015613c715781602001602082028036833780820191505090505b508152602001600067ffffffffffffffff81118015613c8f57600080fd5b50604051908082528060200260200182016040528015613cbe5781602001602082028036833780820191505090505b508152602001600067ffffffffffffffff81118015613cdc57600080fd5b50604051908082528060200260200182016040528015613d0b5781602001602082028036833780820191505090505b508152602001600067ffffffffffffffff81118015613d2957600080fd5b50604051908082528060200260200182016040528015613d585781602001602082028036833780820191505090505b5081525090806001815401808255809150506001900390600052602060002090600b02016000909190919091506000820151816000015560208201518160010155604082015181600201556060820151816003015560808201518160040160006101000a81548160ff02191690836003811115613dd157fe5b021790555060a0820151816005015560c0820151816006015560e0820151816007019080519060200190613e0692919061413f565b50610100820151816008019080519060200190613e2492919061413f565b50610120820151816009019080519060200190613e4292919061413f565b5061014082015181600a019080519060200190613e60929190614308565b5050506000600760016007805490500381548110613e7a57fe5b90600052602060002090600b020190508060036000848152602001908152602001600020600082015481600001556001820154816001015560028201548160020155600382015481600301556004820160009054906101000a900460ff168160040160006101000a81548160ff02191690836003811115613ef757fe5b021790555060058201548160050155600682015481600601556007820181600701908054613f2692919061420c565b506008820181600801908054613f3d92919061420c565b506009820181600901908054613f5492919061420c565b50600a820181600a01908054613f6b929190614355565b5090505080600a01869080600181540180825580915050600190039060005260206000200160009091909190915055806008018a9080600181540180825580915050600190039060005260206000200160009091909190915055806009018990806001815401808255809150506001900390600052602060002001600090919091909150558192505050979650505050505050565b60008042868660405160200180848152602001838152602001828152602001935050505060405160208183030381529060405280519060200120905060086040518060a001604052808381526020018581526020018681526020018881526020018781525090806001815401808255809150506001900390600052602060002090600502016000909190919091506000820151816000015560208201518160010155604082015181600201556060820151816003015560808201518160040155505060006008600160088054905003815481106140d957fe5b90600052602060002090600502019050806002600084815260200190815260200160002060008201548160000155600182015481600101556002820154816002015560038201548160030155600482015481600401559050508192505050949350505050565b82805482825590600052602060002090810192821561417b579160200282015b8281111561417a57825182559160200191906001019061415f565b5b50905061418891906143a7565b5090565b828054600181600116156101000203166002900490600052602060002090601f016020900481019282601f106141cd57805160ff19168380011785556141fb565b828001600101855582156141fb579182015b828111156141fa5782518255916020019190600101906141df565b5b50905061420891906143c4565b5090565b82805482825590600052602060002090810192821561424d5760005260206000209182015b8281111561424c578254825591600101919060010190614231565b5b50905061425a91906143a7565b5090565b828054600181600116156101000203166002900490600052602060002090601f016020900481019282601f1061429757805485556142d4565b828001600101855582156142d457600052602060002091601f016020900482015b828111156142d35782548255916001019190600101906142b8565b5b5090506142e191906143c4565b5090565b604051806101400160405280600a90602082028036833780820191505090505090565b828054828255906000526020600020908101928215614344579160200282015b82811115614343578251825591602001919060010190614328565b5b50905061435191906143c4565b5090565b8280548282559060005260206000209081019282156143965760005260206000209182015b8281111561439557825482559160010191906001019061437a565b5b5090506143a391906143c4565b5090565b5b808211156143c05760008160009055506001016143a8565b5090565b5b808211156143dd5760008160009055506001016143c5565b509056fe537570706c6965723120646f65736e2774206578697374202f20537570706c6965723220646f65736e2774206578697374456e746572707269736520646f65736e2774206578697374202f20537570706c69657220646f65736e2774206578697374202f20537570706c6965722773206c6576656c20646f65736e27742073756666696365537570706c69657220646f65736e2774206578697374202f2042696c6c20646f65736e2774206578697374202f2042616e6b20646f65736e277420657869737442696c6c20646f65736e27742062656c6f6e6720746f20537570706c696572202f2073706c6974207761792069736e2774206665617369626c652e2042696c6c20646f65736e2774206578697374202f20456e746572707269736520646f65736e2774206578697374202f2042696c6c206973206e6f7420697373756564206279207468697320456e7465727072697365a26469706673582212208589fdbe7810b98c2973bbf1dc73bc5c1e41f6dc9d65de7f410ae58468d0857f64736f6c63430007000033",
  "immutableReferences": {},
  "source": "// SPDX-License-Identifier: GPL-3.0\npragma solidity >0.4.0 <0.8.0;\n\ncontract Finance {\n    \n\n    enum BillState{Valid, Split, Expired, Done} // Expired: not not writed off yet ; Done: already writed off.\n    \n    \n    struct TradeDebtBill{\n        bytes32 id;\n        bytes32 issuer;\n        uint facevalue;\n        uint expire_time;\n        BillState state;\n        bytes32 idOfCR; // id of CashReceipt correspondingly. 0x0 means is not writed off yet or still valid.\n        bytes32 idOfparent;\n        bytes32[] idOfsons; // if it is split, store id of its sons to here.  \n        bytes32[] froms;\n        bytes32[] tos;\n        uint[] times;\n    }\n    \n    \n    struct CashReceipt{\n        bytes32 id;\n        uint amount;\n        bytes32 idOfTDB; // ID of TradeDebtBill that is writed off correspondingly.\n        bytes32 from;\n        bytes32 to;\n    }   \n    \n    \n    struct Arbitral {\n        bytes32 _id;\n        address _address;\n    }\n    \n    \n    struct Bank {\n        bytes32 id;\n        uint rate1;\n        uint rate2;\n        bytes32[] idOfBills;\n        bytes32[] idOfRecepits;\n        string name;\n    }\n\n\n    struct Enterprise {\n        bytes32 id;\n        uint totalDebt;\n        bytes32[] idOfBills;\n        bytes32[] idOfRecepits;\n        string name;\n    }\n    \n    \n    struct Supplier {\n        bytes32 id;\n        uint8 level;\n        bytes32[] idOfBills;\n        bytes32[] idOfRecepits;\n        string name;\n    }\n    \n    Arbitral public theArbitral;\n     \n    mapping(bytes32 => CashReceipt) mapOfCashReceipt;\n    mapping(bytes32 => TradeDebtBill) mapOfTradeDebtBill;\n    mapping(bytes32 => Enterprise) mapOfEnterprise;\n    mapping(bytes32 => Bank) mapOfBank;\n    mapping(bytes32 => Supplier) mapOfSupplier;\n    \n    TradeDebtBill[]  Bills;\n    // TradeDebtBill[] public doneBills;\n   CashReceipt[]  Recepits;\n    Enterprise[]  enterprises;\n    Bank[]  banks;\n    Supplier[]  suppliers;\n    \n    \n    constructor(bytes32 id){\n        theArbitral = Arbitral({\n            _id: id,\n            _address: msg.sender\n        });\n    }\n    \n    \n    modifier onlytheArbitral{\n        require(msg.sender == theArbitral._address, \"Only arbitral can operate\");\n        _;\n    }\n    \n    \n    function addBank(bytes32 bankid, uint r1, uint r2, string memory _name) onlytheArbitral public returns(bool, string memory) {\n\n        banks.push(Bank({\n            id: bankid, \n            rate1: r1,\n            rate2: r2,\n            idOfBills: new bytes32[](0),\n            idOfRecepits: new bytes32[](0),\n            name: _name\n        }));\n\n        mapOfBank[bankid] = banks[banks.length - 1];\n        return (true, \"success\");\n    }\n    \n    \n    function addEnterprise(bytes32 epid, string memory _name) onlytheArbitral public returns(bool, string memory) {\n        \n        enterprises.push(Enterprise({\n            id: epid, \n            totalDebt: 0,\n            idOfBills: new bytes32[](0),\n            idOfRecepits: new bytes32[](0),\n            name: _name\n        }));\n\n        mapOfEnterprise[epid] = enterprises[enterprises.length - 1];\n        return (true, \"success\");\n    }\n    \n    \n    function addSupplier(bytes32 spid, uint8 _level, string memory _name) onlytheArbitral public returns(bool, string memory) {\n\n        suppliers.push(Supplier({\n            id: spid, \n            level:_level,\n            idOfBills: new bytes32[](0),\n            idOfRecepits: new bytes32[](0),\n            name: _name\n        }));\n\n        mapOfSupplier[spid] = suppliers[suppliers.length - 1];\n        return (true, \"success\");\n    }\n    \n    \n    function newTradeDebtBill(bytes32 _from, bytes32 _to, bytes32 _issuer, bytes32 _parentid,\n                            uint _init_time, uint _facevalue, uint _expire_time) internal returns(bytes32){\n                                \n        bytes32 _id = keccak256(abi.encodePacked(block.timestamp, _from, _to));\n\n        Bills.push(TradeDebtBill({\n            id: _id,\n            issuer: _issuer,\n            facevalue: _facevalue,\n            expire_time: _expire_time,\n            state: BillState.Valid,\n            idOfCR: 0x0,\n            idOfsons: new bytes32[](0),\n            froms: new bytes32[](0),\n            tos: new bytes32[](0),\n            times: new uint[](0),\n            idOfparent: _parentid\n        }));\n        \n        TradeDebtBill storage t = Bills[Bills.length - 1];\n        mapOfTradeDebtBill[_id] = t;\n        t.times.push(_init_time);\n        t.froms.push(_from);\n        t.tos.push(_to);\n\n        return _id;\n    }\n    \n    \n    function newCashRecepit(bytes32 _from, bytes32 _to, bytes32 _idOfTDB, uint _amount) internal returns(bytes32){\n        bytes32 _id = keccak256(abi.encodePacked(block.timestamp, _from, _to));\n        \n        Recepits.push(CashReceipt({\n           id: _id,\n           idOfTDB: _idOfTDB,\n           amount: _amount,\n           from: _from,\n           to: _to\n        }));\n        \n        CashReceipt storage c = Recepits[Recepits.length - 1];\n        mapOfCashReceipt[_id] = c;\n        return _id;\n    }\n    \n    \n    function issueTradeDebtBill(bytes32 epid, bytes32 spid, uint tolerate_time, uint _facevalue) onlytheArbitral public returns(bool, bytes32, string memory){\n        Enterprise storage e = mapOfEnterprise[epid];\n        Supplier storage s = mapOfSupplier[spid];\n        \n        require(e.id != 0x0 && s.id != 0x0 && s.level == 1, \n                \"Enterprise doesn't exist / Supplier doesn't exist / Supplier's level doesn't suffice\");\n        \n        bytes32 id = newTradeDebtBill(epid, spid, epid, 0x0, block.timestamp, _facevalue, block.timestamp + tolerate_time);\n        \n        e.totalDebt += _facevalue;\n        \n        e.idOfBills.push(id);\n        s.idOfBills.push(id);\n        \n        return (true, id, \"success\");\n    }\n    \n    \n    event billDueToRepay(bytes32 billid, bytes32 epid);\n    \n    function CheckUpdateBillState(bytes32 billid) internal returns(bool){\n        TradeDebtBill storage b = mapOfTradeDebtBill[billid];\n\n        require(b.id != 0x0 , \"Bill is not existed.\");\n\n        if(block.timestamp < b.expire_time) return true;\n\n        if(b.state == BillState.Valid || b.state == BillState.Expired){\n            b.state = BillState.Expired;\n            emit billDueToRepay(billid, b.issuer);\n        }\n\n        return false;\n    }\n    \n    \n    function transferBillbetweenSuppliers(bytes32 spid1, bytes32 spid2, bytes32 billid) onlytheArbitral external returns(bool, string memory){\n        Supplier storage s1 = mapOfSupplier[spid1];\n        Supplier storage s2 = mapOfSupplier[spid2];\n        TradeDebtBill storage b = mapOfTradeDebtBill[billid];\n        \n        require(s1.id != 0x0 && s2.id != 0x0, \"Supplier1 doesn't exist / Supplier2 doesn't exist\");  \n\n        if(!CheckUpdateBillState(billid)){\n            return(false, \"failed\");\n        }\n\n        require(b.state != BillState.Split, \"Bill is Split\");\n\n        uint ridx = b.froms.length - 1;\n        require(b.tos[ridx] ==  spid1, \"Bill doesn't belong to Supplier1\");\n\n        b.froms.push(spid1);\n        b.tos.push(spid2);\n        b.times.push(block.timestamp);\n        \n        s2.idOfBills.push(billid);\n\n        return (true, \"success\");\n    }\n    \n    \n    function billSplitBySupplier(bytes32 billid, bytes32 spid, uint[] memory ways) onlytheArbitral external returns(bool, string memory, bytes32[10] memory){\n        TradeDebtBill storage b = mapOfTradeDebtBill[billid];\n        Supplier storage s = mapOfSupplier[spid];\n        bytes32[10] memory newbillids;\n        \n        require(s.id != 0x0 , \"Supplier doesn't exist\");  \n        if(!CheckUpdateBillState(billid)){\n            return(false, \"failed\", newbillids);\n        }\n        require(b.state != BillState.Split, \"Bill is Split\");\n        \n\n        uint ridx = b.froms.length - 1;\n        require(b.tos[ridx] ==  spid && ways.length <= 10, \"Bill doesn't belong to Supplier / split way isn't feasible.\");\n\n        uint sum = 0;\n        for(uint i = 0; i < ways.length; i++){\n            sum += ways[i];\n        }\n        require(sum == b.facevalue, \"split way isn't feasible.\");\n\n        uint expire_time = b.expire_time;\n        bytes32 issuer = b.issuer;\n        bytes32 bid = billid;\n        bytes32 sid = spid;\n        bytes32 _from = b.froms[b.froms.length - 1];\n        \n\n        for(uint i = 0; i < ways.length; i++){\n            uint v = ways[i];\n            newbillids[i] = newTradeDebtBill(_from,sid,issuer,bid,block.timestamp,v,expire_time);\n            b.idOfsons.push(newbillids[i]);\n            s.idOfBills.push(newbillids[i]);\n        }\n\n        b.state = BillState.Split;\n        \n        return(true, \"success\", newbillids);\n        \n    }\n    \n    \n    \n    function supplierFinancingfromBank(bytes32 billid, bytes32 spid, bytes32 bankid) onlytheArbitral external returns(bool, string memory, bytes32){\n        TradeDebtBill storage bi = mapOfTradeDebtBill[billid];\n        Supplier storage s = mapOfSupplier[spid];\n        Bank storage ba = mapOfBank[bankid];\n\n        require(s.id != 0x0 && bi.id != 0x0 && ba.id != 0x0, \n                \"Supplier doesn't exist / Bill doesn't exist / Bank doesn't exist\");\n        bytes32 newrepid;\n\n        if(!CheckUpdateBillState(billid)){\n            return(false, \"failed\", newrepid);\n        }\n        require(bi.state != BillState.Split, \"Bill is Split\");\n        \n        \n        uint ridx = bi.froms.length - 1;\n        require(bi.tos[ridx] ==  spid , \"Bill doesn't belong to Supplier \");\n\n        uint amount = bi.facevalue * ba.rate1 / ba.rate2;\n\n        newrepid = newCashRecepit(bankid, spid, billid, amount);\n        bi.froms.push(spid);\n        bi.tos.push(bankid);\n        bi.times.push(block.timestamp);\n        bi.idOfCR = newrepid;\n        \n        ba.idOfRecepits.push(newrepid);\n        ba.idOfBills.push(billid);\n        s.idOfRecepits.push(newrepid);\n        \n        return(true, \"success\", newrepid);\n\n    }\n    \n    \n    function enterpriseRepay(bytes32 billid, bytes32 epid) onlytheArbitral external returns(bool, string memory, bytes32){\n\n        TradeDebtBill storage b = mapOfTradeDebtBill[billid];\n        Enterprise storage e = mapOfEnterprise[epid];\n\n        require(b.id != 0x0 && e.id != 0x0 && b.issuer == epid, \" Bill doesn't exist / Enterprise doesn't exist / Bill is not issued by this Enterprise\");\n\n        uint amount = b.facevalue;\n        bytes32 debtorid = b.tos[b.tos.length - 1];\n        bytes32 newrepid = newCashRecepit(epid, debtorid, billid, amount);\n        \n\n        b.froms.push(debtorid);\n        b.tos.push(0x0);\n        b.times.push(block.timestamp);\n        b.idOfCR = newrepid;\n        b.state = BillState.Done;\n        e.idOfRecepits.push(newrepid);\n        if(b.idOfparent != 0x0){\n            e.idOfBills.push(billid);\n        }\n        \n        if(mapOfSupplier[debtorid].id != 0x0){\n            mapOfSupplier[debtorid].idOfRecepits.push(newrepid);\n        }else{\n            mapOfBank[debtorid].idOfRecepits.push(newrepid);\n        }\n        \n        require(amount <= e.totalDebt, \"Accounting errors.\");\n        e.totalDebt -= amount;\n\n    }\n    \n    // functions of get Informations not done yet\n    function getSupplierCount() public view returns(uint){\n        return suppliers.length;\n    }\n    \n    function getBankCount() public view returns(uint){\n        return banks.length;\n    }\n    \n    function getBillCount() public view returns(uint){\n        return Bills.length;\n    }\n    \n    function getRecepitCount() public view returns(uint){\n        return Recepits.length;\n    }\n    \n    function getEnterpriseCount() public view returns(uint){\n        return enterprises.length;\n    }\n        \n    function getBillBasicInfo(bytes32 billid) public returns(bytes32, bytes32, uint, uint, BillState, bytes32){\n        CheckUpdateBillState(billid);\n        TradeDebtBill storage b = mapOfTradeDebtBill[billid];\n        return(b.id, b.issuer, b.facevalue, b.expire_time, b.state, b.idOfCR);\n    }\n    \n    function getBillHistory(bytes32 billid) public returns(uint[] memory, bytes32[] memory, bytes32[] memory){\n        CheckUpdateBillState(billid);\n        TradeDebtBill storage b = mapOfTradeDebtBill[billid];\n        return(b.times, b.froms, b.tos);\n    }\n    \n    function getBillSplitInfo(bytes32 billid) public returns(bytes32, bytes32[]memory){\n        CheckUpdateBillState(billid);\n        TradeDebtBill storage b = mapOfTradeDebtBill[billid];\n        return(b.idOfparent, b.idOfsons);\n    }\n    \n    function getRecepitInfo(bytes32 repid) public view returns(uint, bytes32, bytes32, bytes32){\n        CashReceipt storage r = mapOfCashReceipt[repid];\n        return(r.amount, r.idOfTDB, r.from, r.to);\n    }\n    \n    function getBankBasicInfo(bytes32 id) public view returns(uint, uint, uint, uint, string memory){\n        Bank storage b = mapOfBank[id];\n        return(b.rate1, b.rate2, b.idOfBills.length, b.idOfRecepits.length, b.name);\n    }\n    \n    function getSupplierBasicInfo(bytes32 id) public view returns(uint, uint, uint, string memory){\n        Supplier storage s = mapOfSupplier[id];\n        return(s.level, s.idOfBills.length, s.idOfRecepits.length, s.name);\n    }\n    \n    function getEnterpriseBasicInfo(bytes32 id) public view returns(uint, uint, uint , string memory){\n        Enterprise storage e = mapOfEnterprise[id];\n        return(e.totalDebt, e.idOfBills.length, e.idOfRecepits.length, e.name);\n    }\n    \n    function getAllofSupplierBillsid(bytes32 id) public view returns(bytes32[] memory){\n        Supplier storage s = mapOfSupplier[id];\n        return(s.idOfBills);\n    }\n    \n    function getAllofBankBillsid(bytes32 id) public view returns(bytes32[] memory){\n        Bank storage b = mapOfBank[id];\n        return(b.idOfBills);\n    }\n    \n    function getAllofEnterpriseBillsid(bytes32 id) public view returns(bytes32[] memory){\n        Enterprise storage e = mapOfEnterprise[id];\n        return(e.idOfBills);\n    }\n    \n    function getAllofSupplierRecepitsid(bytes32 id) public view returns(bytes32[] memory){\n        Supplier storage s = mapOfSupplier[id];\n        return(s.idOfRecepits);\n    }\n    \n    function getAllofBankRecepitsid(bytes32 id) public view returns(bytes32[] memory){\n        Bank storage b = mapOfBank[id];\n        return(b.idOfRecepits);\n    }\n    \n    function getAllofEnterpriseRecepitsid(bytes32 id) public view returns(bytes32[] memory){\n        Enterprise storage e = mapOfEnterprise[id];\n        return(e.idOfRecepits);\n    }\n    \n    \n\n    fallback() external payable{}\n    receive() external payable{}\n\n}",
  "sourcePath": "/Users/newguo/projects/blockchain-supplychainFinance/supplychain_finance/contracts/Finance.sol",
  "compiler": {
    "name": "solc",
    "version": "0.7.0+commit.9e61f92b.Emscripten.clang"
  },
  "schemaVersion": "3.2.3",
  "updatedAt": "2020-08-14T07:39:34.978Z",
  "networkType": "ethereum",
  "devdoc": {
    "kind": "dev",
    "methods": {},
    "version": 1
  },
  "userdoc": {
    "kind": "user",
    "methods": {},
    "version": 1
  }
}