{
  "contractName": "Finance",
  "abi": [
    {
      "inputs": [],
      "stateMutability": "nonpayable",
      "type": "constructor"
    },
    {
      "anonymous": false,
      "inputs": [
        {
          "indexed": false,
          "internalType": "bytes32",
          "name": "billid",
          "type": "bytes32"
        },
        {
          "indexed": false,
          "internalType": "address",
          "name": "ep_ad",
          "type": "address"
        }
      ],
      "name": "billDueToRepay",
      "type": "event"
    },
    {
      "stateMutability": "payable",
      "type": "fallback"
    },
    {
      "inputs": [],
      "name": "Arbitral_address",
      "outputs": [
        {
          "internalType": "address",
          "name": "",
          "type": "address"
        }
      ],
      "stateMutability": "view",
      "type": "function"
    },
    {
      "stateMutability": "payable",
      "type": "receive"
    },
    {
      "inputs": [
        {
          "internalType": "address",
          "name": "bk_ad",
          "type": "address"
        },
        {
          "internalType": "string",
          "name": "_name",
          "type": "string"
        }
      ],
      "name": "addBank",
      "outputs": [
        {
          "internalType": "bool",
          "name": "",
          "type": "bool"
        },
        {
          "internalType": "string",
          "name": "",
          "type": "string"
        }
      ],
      "stateMutability": "nonpayable",
      "type": "function"
    },
    {
      "inputs": [
        {
          "internalType": "address",
          "name": "ep_ad",
          "type": "address"
        },
        {
          "internalType": "uint256",
          "name": "limit",
          "type": "uint256"
        },
        {
          "internalType": "string",
          "name": "_name",
          "type": "string"
        }
      ],
      "name": "addEnterprise",
      "outputs": [
        {
          "internalType": "bool",
          "name": "",
          "type": "bool"
        },
        {
          "internalType": "string",
          "name": "",
          "type": "string"
        }
      ],
      "stateMutability": "nonpayable",
      "type": "function"
    },
    {
      "inputs": [
        {
          "internalType": "address",
          "name": "ep_ad",
          "type": "address"
        },
        {
          "internalType": "uint256",
          "name": "newLimit",
          "type": "uint256"
        }
      ],
      "name": "updateEnterpriseCreditLimit",
      "outputs": [
        {
          "internalType": "bool",
          "name": "",
          "type": "bool"
        },
        {
          "internalType": "string",
          "name": "",
          "type": "string"
        }
      ],
      "stateMutability": "nonpayable",
      "type": "function"
    },
    {
      "inputs": [
        {
          "internalType": "address",
          "name": "sp_ad",
          "type": "address"
        },
        {
          "internalType": "string",
          "name": "_name",
          "type": "string"
        }
      ],
      "name": "addSupplier",
      "outputs": [
        {
          "internalType": "bool",
          "name": "",
          "type": "bool"
        },
        {
          "internalType": "string",
          "name": "",
          "type": "string"
        }
      ],
      "stateMutability": "nonpayable",
      "type": "function"
    },
    {
      "inputs": [
        {
          "internalType": "address",
          "name": "ep_ad",
          "type": "address"
        },
        {
          "internalType": "address",
          "name": "sp_ad",
          "type": "address"
        },
        {
          "internalType": "uint256",
          "name": "tolerate_time",
          "type": "uint256"
        },
        {
          "internalType": "uint256",
          "name": "_facevalue",
          "type": "uint256"
        }
      ],
      "name": "issueTradeDebtBill",
      "outputs": [
        {
          "internalType": "bool",
          "name": "",
          "type": "bool"
        },
        {
          "internalType": "bytes32",
          "name": "",
          "type": "bytes32"
        },
        {
          "internalType": "string",
          "name": "",
          "type": "string"
        }
      ],
      "stateMutability": "nonpayable",
      "type": "function"
    },
    {
      "inputs": [
        {
          "internalType": "address",
          "name": "sp_ad1",
          "type": "address"
        },
        {
          "internalType": "address",
          "name": "sp_ad2",
          "type": "address"
        },
        {
          "internalType": "bytes32",
          "name": "billid",
          "type": "bytes32"
        },
        {
          "internalType": "uint256",
          "name": "amount",
          "type": "uint256"
        }
      ],
      "name": "transferBillbetweenSuppliers",
      "outputs": [
        {
          "internalType": "bool",
          "name": "",
          "type": "bool"
        },
        {
          "internalType": "string",
          "name": "",
          "type": "string"
        },
        {
          "internalType": "bytes32",
          "name": "billid0",
          "type": "bytes32"
        },
        {
          "internalType": "bytes32",
          "name": "billid1",
          "type": "bytes32"
        }
      ],
      "stateMutability": "nonpayable",
      "type": "function"
    },
    {
      "inputs": [
        {
          "internalType": "bytes32",
          "name": "billid",
          "type": "bytes32"
        },
        {
          "internalType": "address",
          "name": "sp_ad",
          "type": "address"
        },
        {
          "internalType": "address",
          "name": "bank_ad",
          "type": "address"
        },
        {
          "internalType": "uint16",
          "name": "rate",
          "type": "uint16"
        }
      ],
      "name": "supplierFinancingfromBank",
      "outputs": [
        {
          "internalType": "bool",
          "name": "",
          "type": "bool"
        },
        {
          "internalType": "string",
          "name": "",
          "type": "string"
        },
        {
          "internalType": "bytes32",
          "name": "",
          "type": "bytes32"
        }
      ],
      "stateMutability": "nonpayable",
      "type": "function"
    },
    {
      "inputs": [
        {
          "internalType": "bytes32",
          "name": "billid",
          "type": "bytes32"
        },
        {
          "internalType": "address",
          "name": "ep_ad",
          "type": "address"
        }
      ],
      "name": "enterpriseRepay",
      "outputs": [
        {
          "internalType": "bool",
          "name": "",
          "type": "bool"
        },
        {
          "internalType": "string",
          "name": "",
          "type": "string"
        },
        {
          "internalType": "bytes32",
          "name": "",
          "type": "bytes32"
        }
      ],
      "stateMutability": "nonpayable",
      "type": "function"
    },
    {
      "inputs": [],
      "name": "getSupplierCount",
      "outputs": [
        {
          "internalType": "uint256",
          "name": "",
          "type": "uint256"
        }
      ],
      "stateMutability": "view",
      "type": "function"
    },
    {
      "inputs": [],
      "name": "getBankCount",
      "outputs": [
        {
          "internalType": "uint256",
          "name": "",
          "type": "uint256"
        }
      ],
      "stateMutability": "view",
      "type": "function"
    },
    {
      "inputs": [],
      "name": "getBillCount",
      "outputs": [
        {
          "internalType": "uint256",
          "name": "",
          "type": "uint256"
        }
      ],
      "stateMutability": "view",
      "type": "function"
    },
    {
      "inputs": [],
      "name": "getRecepitCount",
      "outputs": [
        {
          "internalType": "uint256",
          "name": "",
          "type": "uint256"
        }
      ],
      "stateMutability": "view",
      "type": "function"
    },
    {
      "inputs": [],
      "name": "getEnterpriseCount",
      "outputs": [
        {
          "internalType": "uint256",
          "name": "",
          "type": "uint256"
        }
      ],
      "stateMutability": "view",
      "type": "function"
    },
    {
      "inputs": [
        {
          "internalType": "bytes32",
          "name": "billid",
          "type": "bytes32"
        }
      ],
      "name": "getBillBasicInfo",
      "outputs": [
        {
          "internalType": "bytes32",
          "name": "",
          "type": "bytes32"
        },
        {
          "internalType": "address",
          "name": "",
          "type": "address"
        },
        {
          "internalType": "uint256",
          "name": "",
          "type": "uint256"
        },
        {
          "internalType": "uint256",
          "name": "",
          "type": "uint256"
        },
        {
          "internalType": "enum Finance.BillState",
          "name": "",
          "type": "uint8"
        },
        {
          "internalType": "bytes32",
          "name": "",
          "type": "bytes32"
        },
        {
          "internalType": "bytes32",
          "name": "",
          "type": "bytes32"
        }
      ],
      "stateMutability": "view",
      "type": "function"
    },
    {
      "inputs": [
        {
          "internalType": "bytes32",
          "name": "billid",
          "type": "bytes32"
        }
      ],
      "name": "getBillHistory",
      "outputs": [
        {
          "internalType": "uint256[]",
          "name": "",
          "type": "uint256[]"
        },
        {
          "internalType": "address[]",
          "name": "",
          "type": "address[]"
        }
      ],
      "stateMutability": "view",
      "type": "function"
    },
    {
      "inputs": [
        {
          "internalType": "bytes32",
          "name": "billid",
          "type": "bytes32"
        }
      ],
      "name": "getBillSplitInfo",
      "outputs": [
        {
          "internalType": "bytes32",
          "name": "",
          "type": "bytes32"
        },
        {
          "internalType": "bytes32",
          "name": "",
          "type": "bytes32"
        },
        {
          "internalType": "bytes32",
          "name": "",
          "type": "bytes32"
        }
      ],
      "stateMutability": "view",
      "type": "function"
    },
    {
      "inputs": [
        {
          "internalType": "bytes32",
          "name": "repid",
          "type": "bytes32"
        }
      ],
      "name": "getRecepitInfo",
      "outputs": [
        {
          "internalType": "uint256",
          "name": "",
          "type": "uint256"
        },
        {
          "internalType": "bytes32",
          "name": "",
          "type": "bytes32"
        },
        {
          "internalType": "address",
          "name": "",
          "type": "address"
        },
        {
          "internalType": "address",
          "name": "",
          "type": "address"
        }
      ],
      "stateMutability": "view",
      "type": "function"
    },
    {
      "inputs": [
        {
          "internalType": "address",
          "name": "_ad",
          "type": "address"
        }
      ],
      "name": "getBankBasicInfo",
      "outputs": [
        {
          "internalType": "uint256",
          "name": "",
          "type": "uint256"
        },
        {
          "internalType": "uint256",
          "name": "",
          "type": "uint256"
        },
        {
          "internalType": "string",
          "name": "",
          "type": "string"
        }
      ],
      "stateMutability": "view",
      "type": "function"
    },
    {
      "inputs": [
        {
          "internalType": "address",
          "name": "_ad",
          "type": "address"
        }
      ],
      "name": "getSupplierBasicInfo",
      "outputs": [
        {
          "internalType": "uint256",
          "name": "",
          "type": "uint256"
        },
        {
          "internalType": "uint256",
          "name": "",
          "type": "uint256"
        },
        {
          "internalType": "string",
          "name": "",
          "type": "string"
        }
      ],
      "stateMutability": "view",
      "type": "function"
    },
    {
      "inputs": [
        {
          "internalType": "address",
          "name": "_ad",
          "type": "address"
        }
      ],
      "name": "getEnterpriseBasicInfo",
      "outputs": [
        {
          "internalType": "uint256",
          "name": "",
          "type": "uint256"
        },
        {
          "internalType": "uint256",
          "name": "",
          "type": "uint256"
        },
        {
          "internalType": "uint256",
          "name": "",
          "type": "uint256"
        },
        {
          "internalType": "string",
          "name": "",
          "type": "string"
        }
      ],
      "stateMutability": "view",
      "type": "function"
    },
    {
      "inputs": [
        {
          "internalType": "address",
          "name": "_ad",
          "type": "address"
        }
      ],
      "name": "getAllofSupplierBillsid",
      "outputs": [
        {
          "internalType": "bytes32[]",
          "name": "",
          "type": "bytes32[]"
        }
      ],
      "stateMutability": "view",
      "type": "function"
    },
    {
      "inputs": [
        {
          "internalType": "address",
          "name": "_ad",
          "type": "address"
        }
      ],
      "name": "getAllofBankBillsid",
      "outputs": [
        {
          "internalType": "bytes32[]",
          "name": "",
          "type": "bytes32[]"
        }
      ],
      "stateMutability": "view",
      "type": "function"
    },
    {
      "inputs": [
        {
          "internalType": "address",
          "name": "_ad",
          "type": "address"
        }
      ],
      "name": "getAllofEnterpriseBillsid",
      "outputs": [
        {
          "internalType": "bytes32[]",
          "name": "",
          "type": "bytes32[]"
        }
      ],
      "stateMutability": "view",
      "type": "function"
    },
    {
      "inputs": [
        {
          "internalType": "address",
          "name": "_ad",
          "type": "address"
        }
      ],
      "name": "getAllofSupplierRecepitsid",
      "outputs": [
        {
          "internalType": "bytes32[]",
          "name": "",
          "type": "bytes32[]"
        }
      ],
      "stateMutability": "view",
      "type": "function"
    },
    {
      "inputs": [
        {
          "internalType": "address",
          "name": "_ad",
          "type": "address"
        }
      ],
      "name": "getAllofBankRecepitsid",
      "outputs": [
        {
          "internalType": "bytes32[]",
          "name": "",
          "type": "bytes32[]"
        }
      ],
      "stateMutability": "view",
      "type": "function"
    },
    {
      "inputs": [
        {
          "internalType": "address",
          "name": "_ad",
          "type": "address"
        }
      ],
      "name": "getAllofEnterpriseRecepitsid",
      "outputs": [
        {
          "internalType": "bytes32[]",
          "name": "",
          "type": "bytes32[]"
        }
      ],
      "stateMutability": "view",
      "type": "function"
    },
    {
      "inputs": [
        {
          "internalType": "uint256",
          "name": "amount",
          "type": "uint256"
        }
      ],
      "name": "withdraw",
      "outputs": [],
      "stateMutability": "nonpayable",
      "type": "function"
    },
    {
      "inputs": [],
      "name": "viewBalance",
      "outputs": [
        {
          "internalType": "uint256",
          "name": "",
          "type": "uint256"
        }
      ],
      "stateMutability": "view",
      "type": "function"
    }
  ],
  "bytecode": "0x608060405234801561001057600080fd5b50336000806101000a81548173ffffffffffffffffffffffffffffffffffffffff021916908373ffffffffffffffffffffffffffffffffffffffff160217905550615335806100606000396000f3fe6080604052600436106101c65760003560e01c80633ff1e05b116100f75780637dbd2fad116100955780639eef2784116100645780639eef2784146112ce578063a837d0c9146113dc578063c90edbfa14611482578063e1ba6a721461151c576101cd565b80637dbd2fad14610f0e578063820b802f14610fe657806389f7eaff1461108c5780638c43890814611164576101cd565b80635b897075116100d15780635b89707514610d075780636e00e56314610d325780637386c9a714610dd85780637a4917ce14610e68576101cd565b80633ff1e05b14610bd4578063442b034914610bff57806352d07cd014610cdc576101cd565b8063216fd752116101645780632e1a7d4d1161013e5780632e1a7d4d146109b25780632e44715d146109ed57806330f377e114610a185780633b8e661d14610afc576101cd565b8063216fd7521461081557806323218e5f1461092a5780632b78c07614610955576101cd565b80631883c7cc116101a05780631883c7cc1461048f5780631c933a3e146104ba5780631e0fe2de1461062457806320b5615d14610703576101cd565b80630486ca67146101cf5780630a6b0173146102755780631174bd8b146103e9576101cd565b366101cd57005b005b3480156101db57600080fd5b5061021e600480360360208110156101f257600080fd5b81019080803573ffffffffffffffffffffffffffffffffffffffff16906020019092919050505061155d565b6040518080602001828103825283818151815260200191508051906020019060200280838360005b83811015610261578082015181840152602081019050610246565b505050509050019250505060405180910390f35b34801561028157600080fd5b506103656004803603606081101561029857600080fd5b81019080803573ffffffffffffffffffffffffffffffffffffffff16906020019092919080359060200190929190803590602001906401000000008111156102df57600080fd5b8201836020820111156102f157600080fd5b8035906020019184600183028401116401000000008311171561031357600080fd5b91908080601f016020809104026020016040519081016040528093929190818152602001838380828437600081840152601f19601f8201169050808301925050505050505091929192905050506115fd565b60405180831515815260200180602001828103825283818151815260200191508051906020019080838360005b838110156103ad578082015181840152602081019050610392565b50505050905090810190601f1680156103da5780820380516001836020036101000a031916815260200191505b50935050505060405180910390f35b3480156103f557600080fd5b506104386004803603602081101561040c57600080fd5b81019080803573ffffffffffffffffffffffffffffffffffffffff1690602001909291905050506119ed565b6040518080602001828103825283818151815260200191508051906020019060200280838360005b8381101561047b578082015181840152602081019050610460565b505050509050019250505060405180910390f35b34801561049b57600080fd5b506104a4611a8d565b6040518082815260200191505060405180910390f35b3480156104c657600080fd5b506105a0600480360360408110156104dd57600080fd5b81019080803573ffffffffffffffffffffffffffffffffffffffff1690602001909291908035906020019064010000000081111561051a57600080fd5b82018360208201111561052c57600080fd5b8035906020019184600183028401116401000000008311171561054e57600080fd5b91908080601f016020809104026020016040519081016040528093929190818152602001838380828437600081840152601f19601f820116905080830192505050505050509192919290505050611a9a565b60405180831515815260200180602001828103825283818151815260200191508051906020019080838360005b838110156105e85780820151818401526020810190506105cd565b50505050905090810190601f1680156106155780820380516001836020036101000a031916815260200191505b50935050505060405180910390f35b34801561063057600080fd5b506106736004803603602081101561064757600080fd5b81019080803573ffffffffffffffffffffffffffffffffffffffff169060200190929190505050611e54565b6040518085815260200184815260200183815260200180602001828103825283818151815260200191508051906020019080838360005b838110156106c55780820151818401526020810190506106aa565b50505050905090810190601f1680156106f25780820380516001836020036101000a031916815260200191505b509550505050505060405180910390f35b34801561070f57600080fd5b5061078a6004803603608081101561072657600080fd5b8101908080359060200190929190803573ffffffffffffffffffffffffffffffffffffffff169060200190929190803573ffffffffffffffffffffffffffffffffffffffff169060200190929190803561ffff169060200190929190505050611f63565b60405180841515815260200180602001838152602001828103825284818151815260200191508051906020019080838360005b838110156107d85780820151818401526020810190506107bd565b50505050905090810190601f1680156108055780820380516001836020036101000a031916815260200191505b5094505050505060405180910390f35b34801561082157600080fd5b506108986004803603608081101561083857600080fd5b81019080803573ffffffffffffffffffffffffffffffffffffffff169060200190929190803573ffffffffffffffffffffffffffffffffffffffff1690602001909291908035906020019092919080359060200190929190505050612494565b60405180851515815260200180602001848152602001838152602001828103825285818151815260200191508051906020019080838360005b838110156108ec5780820151818401526020810190506108d1565b50505050905090810190601f1680156109195780820380516001836020036101000a031916815260200191505b509550505050505060405180910390f35b34801561093657600080fd5b5061093f612cd7565b6040518082815260200191505060405180910390f35b34801561096157600080fd5b5061098e6004803603602081101561097857600080fd5b8101908080359060200190929190505050612ce4565b60405180848152602001838152602001828152602001935050505060405180910390f35b3480156109be57600080fd5b506109eb600480360360208110156109d557600080fd5b8101908080359060200190929190505050612d1c565b005b3480156109f957600080fd5b50610a02612e3c565b6040518082815260200191505060405180910390f35b348015610a2457600080fd5b50610a7160048036036040811015610a3b57600080fd5b8101908080359060200190929190803573ffffffffffffffffffffffffffffffffffffffff169060200190929190505050612e49565b60405180841515815260200180602001838152602001828103825284818151815260200191508051906020019080838360005b83811015610abf578082015181840152602081019050610aa4565b50505050905090810190601f168015610aec5780820380516001836020036101000a031916815260200191505b5094505050505060405180910390f35b348015610b0857600080fd5b50610b3560048036036020811015610b1f57600080fd5b81019080803590602001909291905050506134b6565b604051808060200180602001838103835285818151815260200191508051906020019060200280838360005b83811015610b7c578082015181840152602081019050610b61565b50505050905001838103825284818151815260200191508051906020019060200280838360005b83811015610bbe578082015181840152602081019050610ba3565b5050505090500194505050505060405180910390f35b348015610be057600080fd5b50610be96135bc565b6040518082815260200191505060405180910390f35b348015610c0b57600080fd5b50610c5860048036036040811015610c2257600080fd5b81019080803573ffffffffffffffffffffffffffffffffffffffff169060200190929190803590602001909291905050506135c4565b60405180831515815260200180602001828103825283818151815260200191508051906020019080838360005b83811015610ca0578082015181840152602081019050610c85565b50505050905090810190601f168015610ccd5780820380516001836020036101000a031916815260200191505b50935050505060405180910390f35b348015610ce857600080fd5b50610cf1613775565b6040518082815260200191505060405180910390f35b348015610d1357600080fd5b50610d1c613782565b6040518082815260200191505060405180910390f35b348015610d3e57600080fd5b50610d8160048036036020811015610d5557600080fd5b81019080803573ffffffffffffffffffffffffffffffffffffffff16906020019092919050505061378f565b6040518080602001828103825283818151815260200191508051906020019060200280838360005b83811015610dc4578082015181840152602081019050610da9565b505050509050019250505060405180910390f35b348015610de457600080fd5b50610e1160048036036020811015610dfb57600080fd5b810190808035906020019092919050505061382f565b604051808581526020018481526020018373ffffffffffffffffffffffffffffffffffffffff1681526020018273ffffffffffffffffffffffffffffffffffffffff16815260200194505050505060405180910390f35b348015610e7457600080fd5b50610eb760048036036020811015610e8b57600080fd5b81019080803573ffffffffffffffffffffffffffffffffffffffff1690602001909291905050506138b0565b6040518080602001828103825283818151815260200191508051906020019060200280838360005b83811015610efa578082015181840152602081019050610edf565b505050509050019250505060405180910390f35b348015610f1a57600080fd5b50610f5d60048036036020811015610f3157600080fd5b81019080803573ffffffffffffffffffffffffffffffffffffffff169060200190929190505050613950565b6040518084815260200183815260200180602001828103825283818151815260200191508051906020019080838360005b83811015610fa9578082015181840152602081019050610f8e565b50505050905090810190601f168015610fd65780820380516001836020036101000a031916815260200191505b5094505050505060405180910390f35b348015610ff257600080fd5b506110356004803603602081101561100957600080fd5b81019080803573ffffffffffffffffffffffffffffffffffffffff169060200190929190505050613a56565b6040518080602001828103825283818151815260200191508051906020019060200280838360005b8381101561107857808201518184015260208101905061105d565b505050509050019250505060405180910390f35b34801561109857600080fd5b506110db600480360360208110156110af57600080fd5b81019080803573ffffffffffffffffffffffffffffffffffffffff169060200190929190505050613af6565b6040518084815260200183815260200180602001828103825283818151815260200191508051906020019080838360005b8381101561112757808201518184015260208101905061110c565b50505050905090810190601f1680156111545780820380516001836020036101000a031916815260200191505b5094505050505060405180910390f35b34801561117057600080fd5b5061124a6004803603604081101561118757600080fd5b81019080803573ffffffffffffffffffffffffffffffffffffffff169060200190929190803590602001906401000000008111156111c457600080fd5b8201836020820111156111d657600080fd5b803590602001918460018302840111640100000000831117156111f857600080fd5b91908080601f016020809104026020016040519081016040528093929190818152602001838380828437600081840152601f19601f820116905080830192505050505050509192919290505050613bfc565b60405180831515815260200180602001828103825283818151815260200191508051906020019080838360005b83811015611292578082015181840152602081019050611277565b50505050905090810190601f1680156112bf5780820380516001836020036101000a031916815260200191505b50935050505060405180910390f35b3480156112da57600080fd5b50611351600480360360808110156112f157600080fd5b81019080803573ffffffffffffffffffffffffffffffffffffffff169060200190929190803573ffffffffffffffffffffffffffffffffffffffff1690602001909291908035906020019092919080359060200190929190505050613fb6565b60405180841515815260200183815260200180602001828103825283818151815260200191508051906020019080838360005b8381101561139f578082015181840152602081019050611384565b50505050905090810190601f1680156113cc5780820380516001836020036101000a031916815260200191505b5094505050505060405180910390f35b3480156113e857600080fd5b5061142b600480360360208110156113ff57600080fd5b81019080803573ffffffffffffffffffffffffffffffffffffffff169060200190929190505050614397565b6040518080602001828103825283818151815260200191508051906020019060200280838360005b8381101561146e578082015181840152602081019050611453565b505050509050019250505060405180910390f35b34801561148e57600080fd5b506114bb600480360360208110156114a557600080fd5b8101908080359060200190929190505050614437565b604051808881526020018773ffffffffffffffffffffffffffffffffffffffff1681526020018681526020018581526020018460028111156114f957fe5b815260200183815260200182815260200197505050505050505060405180910390f35b34801561152857600080fd5b506115316144c2565b604051808273ffffffffffffffffffffffffffffffffffffffff16815260200191505060405180910390f35b60606000600460008473ffffffffffffffffffffffffffffffffffffffff1673ffffffffffffffffffffffffffffffffffffffff1681526020019081526020016000209050806001018054806020026020016040519081016040528092919081815260200182805480156115f057602002820191906000526020600020905b8154815260200190600101908083116115dc575b5050505050915050919050565b6000606060008054906101000a900473ffffffffffffffffffffffffffffffffffffffff1673ffffffffffffffffffffffffffffffffffffffff163373ffffffffffffffffffffffffffffffffffffffff16146116c2576040517f08c379a00000000000000000000000000000000000000000000000000000000081526004018080602001828103825260198152602001807f4f6e6c7920617262697472616c2063616e206f7065726174650000000000000081525060200191505060405180910390fd5b60086040518060c001604052808773ffffffffffffffffffffffffffffffffffffffff16815260200160008152602001868152602001600067ffffffffffffffff8111801561171057600080fd5b5060405190808252806020026020018201604052801561173f5781602001602082028036833780820191505090505b508152602001600067ffffffffffffffff8111801561175d57600080fd5b5060405190808252806020026020018201604052801561178c5781602001602082028036833780820191505090505b50815260200185815250908060018154018082558091505060019003906000526020600020906006020160009091909190915060008201518160000160006101000a81548173ffffffffffffffffffffffffffffffffffffffff021916908373ffffffffffffffffffffffffffffffffffffffff16021790555060208201518160010155604082015181600201556060820151816003019080519060200190611836929190614e0a565b506080820151816004019080519060200190611853929190614e0a565b5060a0820151816005019080519060200190611870929190614e57565b50505060086001600880549050038154811061188857fe5b9060005260206000209060060201600360008773ffffffffffffffffffffffffffffffffffffffff1673ffffffffffffffffffffffffffffffffffffffff1681526020019081526020016000206000820160009054906101000a900473ffffffffffffffffffffffffffffffffffffffff168160000160006101000a81548173ffffffffffffffffffffffffffffffffffffffff021916908373ffffffffffffffffffffffffffffffffffffffff16021790555060018201548160010155600282015481600201556003820181600301908054611966929190614ed7565b50600482018160040190805461197d929190614ed7565b50600582018160050190805460018160011615610100020316600290046119a5929190614f29565b5090505060016040518060400160405280600781526020017f737563636573730000000000000000000000000000000000000000000000000081525091509150935093915050565b60606000600460008473ffffffffffffffffffffffffffffffffffffffff1673ffffffffffffffffffffffffffffffffffffffff168152602001908152602001600020905080600201805480602002602001604051908101604052809291908181526020018280548015611a8057602002820191906000526020600020905b815481526020019060010190808311611a6c575b5050505050915050919050565b6000600680549050905090565b6000606060008054906101000a900473ffffffffffffffffffffffffffffffffffffffff1673ffffffffffffffffffffffffffffffffffffffff163373ffffffffffffffffffffffffffffffffffffffff1614611b5f576040517f08c379a00000000000000000000000000000000000000000000000000000000081526004018080602001828103825260198152602001807f4f6e6c7920617262697472616c2063616e206f7065726174650000000000000081525060200191505060405180910390fd5b600a60405180608001604052808673ffffffffffffffffffffffffffffffffffffffff168152602001600067ffffffffffffffff81118015611ba057600080fd5b50604051908082528060200260200182016040528015611bcf5781602001602082028036833780820191505090505b508152602001600067ffffffffffffffff81118015611bed57600080fd5b50604051908082528060200260200182016040528015611c1c5781602001602082028036833780820191505090505b50815260200185815250908060018154018082558091505060019003906000526020600020906004020160009091909190915060008201518160000160006101000a81548173ffffffffffffffffffffffffffffffffffffffff021916908373ffffffffffffffffffffffffffffffffffffffff1602179055506020820151816001019080519060200190611cb2929190614e0a565b506040820151816002019080519060200190611ccf929190614e0a565b506060820151816003019080519060200190611cec929190614e57565b505050600a6001600a805490500381548110611d0457fe5b9060005260206000209060040201600560008673ffffffffffffffffffffffffffffffffffffffff1673ffffffffffffffffffffffffffffffffffffffff1681526020019081526020016000206000820160009054906101000a900473ffffffffffffffffffffffffffffffffffffffff168160000160006101000a81548173ffffffffffffffffffffffffffffffffffffffff021916908373ffffffffffffffffffffffffffffffffffffffff1602179055506001820181600101908054611dce929190614ed7565b506002820181600201908054611de5929190614ed7565b5060038201816003019080546001816001161561010002031660029004611e0d929190614f29565b5090505060016040518060400160405280600781526020017f7375636365737300000000000000000000000000000000000000000000000000815250915091509250929050565b600080600060606000600360008773ffffffffffffffffffffffffffffffffffffffff1673ffffffffffffffffffffffffffffffffffffffff168152602001908152602001600020905080600101548160030180549050826004018054905083600501808054600181600116156101000203166002900480601f016020809104026020016040519081016040528092919081815260200182805460018160011615610100020316600290048015611f4c5780601f10611f2157610100808354040283529160200191611f4c565b820191906000526020600020905b815481529060010190602001808311611f2f57829003601f168201915b505050505090509450945094509450509193509193565b600060606000806002600089815260200190815260200160002090506000600560008973ffffffffffffffffffffffffffffffffffffffff1673ffffffffffffffffffffffffffffffffffffffff16815260200190815260200160002090506000600460008973ffffffffffffffffffffffffffffffffffffffff1673ffffffffffffffffffffffffffffffffffffffff1681526020019081526020016000209050600073ffffffffffffffffffffffffffffffffffffffff168260000160009054906101000a900473ffffffffffffffffffffffffffffffffffffffff1673ffffffffffffffffffffffffffffffffffffffff161415801561206d57506000801b836000015414155b80156120ca5750600073ffffffffffffffffffffffffffffffffffffffff168160000160009054906101000a900473ffffffffffffffffffffffffffffffffffffffff1673ffffffffffffffffffffffffffffffffffffffff1614155b61211f576040517f08c379a000000000000000000000000000000000000000000000000000000000815260040180806020018281038252604081526020018061521d6040913960400191505060405180910390fd5b600061212a8b6144e6565b612177576000816040518060400160405280600681526020017f6661696c65640000000000000000000000000000000000000000000000000000815250909650965096505050505061248a565b6000600185600a01805490500390508a73ffffffffffffffffffffffffffffffffffffffff1685600a0182815481106121ac57fe5b9060005260206000200160009054906101000a900473ffffffffffffffffffffffffffffffffffffffff1673ffffffffffffffffffffffffffffffffffffffff1614612260576040517f08c379a00000000000000000000000000000000000000000000000000000000081526004018080602001828103825260208152602001807f42696c6c20646f65736e27742062656c6f6e6720746f20537570706c6965722081525060200191505060405180910390fd5b8a73ffffffffffffffffffffffffffffffffffffffff163373ffffffffffffffffffffffffffffffffffffffff1614612301576040517f08c379a00000000000000000000000000000000000000000000000000000000081526004018080602001828103825260128152602001807f7065726d697373696f6e2064656e69656421000000000000000000000000000081525060200191505060405180910390fd5b60006103e88a61ffff168760020154028161231857fe5b0490506123278b8d8f84614680565b925085600a018b9080600181540180825580915050600190039060005260206000200160009091909190916101000a81548173ffffffffffffffffffffffffffffffffffffffff021916908373ffffffffffffffffffffffffffffffffffffffff16021790555085600b0142908060018154018082558091505060019003906000526020600020016000909190919091505582866005018190555083600201839080600181540180825580915050600190039060005260206000200160009091909190915055836001018d9080600181540180825580915050600190039060005260206000200160009091909190915055846002018390806001815401808255809150506001900390600052602060002001600090919091909150556001836040518060400160405280600781526020017f7375636365737300000000000000000000000000000000000000000000000000815250909850985098505050505050505b9450945094915050565b600060606000806000600560008a73ffffffffffffffffffffffffffffffffffffffff1673ffffffffffffffffffffffffffffffffffffffff16815260200190815260200160002090506000600560008a73ffffffffffffffffffffffffffffffffffffffff1673ffffffffffffffffffffffffffffffffffffffff16815260200190815260200160002090506000600260008a81526020019081526020016000209050600073ffffffffffffffffffffffffffffffffffffffff168360000160009054906101000a900473ffffffffffffffffffffffffffffffffffffffff1673ffffffffffffffffffffffffffffffffffffffff16141580156125ea5750600073ffffffffffffffffffffffffffffffffffffffff168260000160009054906101000a900473ffffffffffffffffffffffffffffffffffffffff1673ffffffffffffffffffffffffffffffffffffffff1614155b61263f576040517f08c379a00000000000000000000000000000000000000000000000000000000081526004018080602001828103825260318152602001806151c36031913960400191505060405180910390fd5b612647614fb0565b6126508a6144e6565b6126c35760008160006002811061266357fe5b60200201518260016002811061267557fe5b60200201516040518060400160405280600681526020017f6661696c656400000000000000000000000000000000000000000000000000008152509190975097509750975050505050612ccc565b6000600183600a01805490500390508c73ffffffffffffffffffffffffffffffffffffffff1683600a0182815481106126f857fe5b9060005260206000200160009054906101000a900473ffffffffffffffffffffffffffffffffffffffff1673ffffffffffffffffffffffffffffffffffffffff16146127ac576040517f08c379a00000000000000000000000000000000000000000000000000000000081526004018080602001828103825260208152602001807f42696c6c20646f65736e27742062656c6f6e6720746f20537570706c6965723181525060200191505060405180910390fd5b82600201548a1115612826576040517f08c379a000000000000000000000000000000000000000000000000000000000815260040180806020018281038252600e8152602001807f616d6f756e74206578636565647300000000000000000000000000000000000081525060200191505060405180910390fd5b8c73ffffffffffffffffffffffffffffffffffffffff163373ffffffffffffffffffffffffffffffffffffffff16146128c7576040517f08c379a00000000000000000000000000000000000000000000000000000000081526004018080602001828103825260128152602001807f7065726d697373696f6e2064656e69656421000000000000000000000000000081525060200191505060405180910390fd5b82600201548a14156129935782600a018c9080600181540180825580915050600190039060005260206000200160009091909190916101000a81548173ffffffffffffffffffffffffffffffffffffffff021916908373ffffffffffffffffffffffffffffffffffffffff16021790555082600b01429080600181540180825580915050600190039060005260206000200160009091909190915055836001018b9080600181540180825580915050600190039060005260206000200160009091909190915055612c60565b6129c98c8460010160009054906101000a900473ffffffffffffffffffffffffffffffffffffffff168d428e886003015461496b565b826000600281106129d657fe5b602002018181525050612a1b8d8460010160009054906101000a900473ffffffffffffffffffffffffffffffffffffffff168d428e886002015403886003015461496b565b82600160028110612a2857fe5b60200201818152505081600060028110612a3e57fe5b6020020151836008018190555081600160028110612a5857fe5b60200201518360090181905550600560008e73ffffffffffffffffffffffffffffffffffffffff1673ffffffffffffffffffffffffffffffffffffffff16815260200190815260200160002060010182600160028110612ab457fe5b60200201519080600181540180825580915050600190039060005260206000200160009091909190915055600560008d73ffffffffffffffffffffffffffffffffffffffff1673ffffffffffffffffffffffffffffffffffffffff16815260200190815260200160002060010182600060028110612b2e57fe5b602002015190806001815401808255809150506001900390600052602060002001600090919091909150556000600360008560010160009054906101000a900473ffffffffffffffffffffffffffffffffffffffff1673ffffffffffffffffffffffffffffffffffffffff1673ffffffffffffffffffffffffffffffffffffffff16815260200190815260200160002090508060030183600060028110612bd157fe5b602002015190806001815401808255809150506001900390600052602060002001600090919091909150558060030183600160028110612c0d57fe5b6020020151908060018154018082558091505060019003906000526020600020016000909190919091505560018460040160006101000a81548160ff02191690836002811115612c5957fe5b0217905550505b600182600060028110612c6f57fe5b602002015183600160028110612c8157fe5b60200201516040518060400160405280600781526020017f73756363657373000000000000000000000000000000000000000000000000008152509190985098509850985050505050505b945094509450949050565b6000600a80549050905090565b600080600080600260008681526020019081526020016000209050806007015481600801548260090154935093509350509193909250565b60008054906101000a900473ffffffffffffffffffffffffffffffffffffffff1673ffffffffffffffffffffffffffffffffffffffff163373ffffffffffffffffffffffffffffffffffffffff1614612ddd576040517f08c379a00000000000000000000000000000000000000000000000000000000081526004018080602001828103825260198152602001807f4f6e6c7920617262697472616c2063616e206f7065726174650000000000000081525060200191505060405180910390fd5b68056bc75e2d631000008110612df257600080fd5b3373ffffffffffffffffffffffffffffffffffffffff166108fc829081150290604051600060405180830381858888f19350505050158015612e38573d6000803e3d6000fd5b5050565b6000600980549050905090565b6000606060008060009054906101000a900473ffffffffffffffffffffffffffffffffffffffff1673ffffffffffffffffffffffffffffffffffffffff163373ffffffffffffffffffffffffffffffffffffffff1614612f11576040517f08c379a00000000000000000000000000000000000000000000000000000000081526004018080602001828103825260198152602001807f4f6e6c7920617262697472616c2063616e206f7065726174650000000000000081525060200191505060405180910390fd5b60006002600087815260200190815260200160002090506000600360008773ffffffffffffffffffffffffffffffffffffffff1673ffffffffffffffffffffffffffffffffffffffff16815260200190815260200160002090506000801b826000015414158015612fd35750600073ffffffffffffffffffffffffffffffffffffffff168160000160009054906101000a900473ffffffffffffffffffffffffffffffffffffffff1673ffffffffffffffffffffffffffffffffffffffff1614155b801561302e57508573ffffffffffffffffffffffffffffffffffffffff168260010160009054906101000a900473ffffffffffffffffffffffffffffffffffffffff1673ffffffffffffffffffffffffffffffffffffffff16145b613083576040517f08c379a000000000000000000000000000000000000000000000000000000000815260040180806020018281038252605681526020018061525d6056913960600191505060405180910390fd5b8573ffffffffffffffffffffffffffffffffffffffff163373ffffffffffffffffffffffffffffffffffffffff1614613124576040517f08c379a00000000000000000000000000000000000000000000000000000000081526004018080602001828103825260128152602001807f7065726d697373696f6e2064656e69656421000000000000000000000000000081525060200191505060405180910390fd5b600082600201549050600083600a01600185600a0180549050038154811061314857fe5b9060005260206000200160009054906101000a900473ffffffffffffffffffffffffffffffffffffffff169050600061318389838c86614680565b905084600a0160009080600181540180825580915050600190039060005260206000200160009091909190916101000a81548173ffffffffffffffffffffffffffffffffffffffff021916908373ffffffffffffffffffffffffffffffffffffffff16021790555084600b0142908060018154018082558091505060019003906000526020600020016000909190919091505580856006018190555060028560040160006101000a81548160ff0219169083600281111561324057fe5b021790555083600401819080600181540180825580915050600190039060005260206000200160009091909190915055600073ffffffffffffffffffffffffffffffffffffffff16600560008473ffffffffffffffffffffffffffffffffffffffff1673ffffffffffffffffffffffffffffffffffffffff16815260200190815260200160002060000160009054906101000a900473ffffffffffffffffffffffffffffffffffffffff1673ffffffffffffffffffffffffffffffffffffffff161461337457600560008373ffffffffffffffffffffffffffffffffffffffff1673ffffffffffffffffffffffffffffffffffffffff1681526020019081526020016000206002018190806001815401808255809150506001900390600052602060002001600090919091909150556133de565b600460008373ffffffffffffffffffffffffffffffffffffffff1673ffffffffffffffffffffffffffffffffffffffff1681526020019081526020016000206002018190806001815401808255809150506001900390600052602060002001600090919091909150555b8360010154831115613458576040517f08c379a00000000000000000000000000000000000000000000000000000000081526004018080602001828103825260128152602001807f4163636f756e74696e67206572726f72732e000000000000000000000000000081525060200191505060405180910390fd5b8284600101600082825403925050819055506001816040518060400160405280600781526020017f73756363657373000000000000000000000000000000000000000000000000008152509097509750975050505050509250925092565b606080600060026000858152602001908152602001600020905080600b0181600a018180548060200260200160405190810160405280929190818152602001828054801561352357602002820191906000526020600020905b81548152602001906001019080831161350f575b50505050509150808054806020026020016040519081016040528092919081815260200182805480156135ab57602002820191906000526020600020905b8160009054906101000a900473ffffffffffffffffffffffffffffffffffffffff1673ffffffffffffffffffffffffffffffffffffffff1681526020019060010190808311613561575b505050505090509250925050915091565b600047905090565b6000606060008054906101000a900473ffffffffffffffffffffffffffffffffffffffff1673ffffffffffffffffffffffffffffffffffffffff163373ffffffffffffffffffffffffffffffffffffffff1614613689576040517f08c379a00000000000000000000000000000000000000000000000000000000081526004018080602001828103825260198152602001807f4f6e6c7920617262697472616c2063616e206f7065726174650000000000000081525060200191505060405180910390fd5b6000600360008673ffffffffffffffffffffffffffffffffffffffff1673ffffffffffffffffffffffffffffffffffffffff168152602001908152602001600020905083816001015410613728576040517f08c379a00000000000000000000000000000000000000000000000000000000081526004018080602001828103825260298152602001806151f46029913960400191505060405180910390fd5b83816002018190555060016040518060400160405280600781526020017f737563636573730000000000000000000000000000000000000000000000000081525092509250509250929050565b6000600880549050905090565b6000600780549050905090565b60606000600560008473ffffffffffffffffffffffffffffffffffffffff1673ffffffffffffffffffffffffffffffffffffffff16815260200190815260200160002090508060020180548060200260200160405190810160405280929190818152602001828054801561382257602002820191906000526020600020905b81548152602001906001019080831161380e575b5050505050915050919050565b6000806000806000600160008781526020019081526020016000209050806001015481600201548260030160009054906101000a900473ffffffffffffffffffffffffffffffffffffffff168360040160009054906101000a900473ffffffffffffffffffffffffffffffffffffffff169450945094509450509193509193565b60606000600560008473ffffffffffffffffffffffffffffffffffffffff1673ffffffffffffffffffffffffffffffffffffffff16815260200190815260200160002090508060010180548060200260200160405190810160405280929190818152602001828054801561394357602002820191906000526020600020905b81548152602001906001019080831161392f575b5050505050915050919050565b60008060606000600560008673ffffffffffffffffffffffffffffffffffffffff1673ffffffffffffffffffffffffffffffffffffffff16815260200190815260200160002090508060010180549050816002018054905082600301808054600181600116156101000203166002900480601f016020809104026020016040519081016040528092919081815260200182805460018160011615610100020316600290048015613a415780601f10613a1657610100808354040283529160200191613a41565b820191906000526020600020905b815481529060010190602001808311613a2457829003601f168201915b50505050509050935093509350509193909250565b60606000600360008473ffffffffffffffffffffffffffffffffffffffff1673ffffffffffffffffffffffffffffffffffffffff168152602001908152602001600020905080600401805480602002602001604051908101604052809291908181526020018280548015613ae957602002820191906000526020600020905b815481526020019060010190808311613ad5575b5050505050915050919050565b60008060606000600460008673ffffffffffffffffffffffffffffffffffffffff1673ffffffffffffffffffffffffffffffffffffffff16815260200190815260200160002090508060010180549050816002018054905082600301808054600181600116156101000203166002900480601f016020809104026020016040519081016040528092919081815260200182805460018160011615610100020316600290048015613be75780601f10613bbc57610100808354040283529160200191613be7565b820191906000526020600020905b815481529060010190602001808311613bca57829003601f168201915b50505050509050935093509350509193909250565b6000606060008054906101000a900473ffffffffffffffffffffffffffffffffffffffff1673ffffffffffffffffffffffffffffffffffffffff163373ffffffffffffffffffffffffffffffffffffffff1614613cc1576040517f08c379a00000000000000000000000000000000000000000000000000000000081526004018080602001828103825260198152602001807f4f6e6c7920617262697472616c2063616e206f7065726174650000000000000081525060200191505060405180910390fd5b600960405180608001604052808673ffffffffffffffffffffffffffffffffffffffff168152602001600067ffffffffffffffff81118015613d0257600080fd5b50604051908082528060200260200182016040528015613d315781602001602082028036833780820191505090505b508152602001600067ffffffffffffffff81118015613d4f57600080fd5b50604051908082528060200260200182016040528015613d7e5781602001602082028036833780820191505090505b50815260200185815250908060018154018082558091505060019003906000526020600020906004020160009091909190915060008201518160000160006101000a81548173ffffffffffffffffffffffffffffffffffffffff021916908373ffffffffffffffffffffffffffffffffffffffff1602179055506020820151816001019080519060200190613e14929190614e0a565b506040820151816002019080519060200190613e31929190614e0a565b506060820151816003019080519060200190613e4e929190614e57565b505050600960016009805490500381548110613e6657fe5b9060005260206000209060040201600460008673ffffffffffffffffffffffffffffffffffffffff1673ffffffffffffffffffffffffffffffffffffffff1681526020019081526020016000206000820160009054906101000a900473ffffffffffffffffffffffffffffffffffffffff168160000160006101000a81548173ffffffffffffffffffffffffffffffffffffffff021916908373ffffffffffffffffffffffffffffffffffffffff1602179055506001820181600101908054613f30929190614ed7565b506002820181600201908054613f47929190614ed7565b5060038201816003019080546001816001161561010002031660029004613f6f929190614f29565b5090505060016040518060400160405280600781526020017f7375636365737300000000000000000000000000000000000000000000000000815250915091509250929050565b60008060606000600360008973ffffffffffffffffffffffffffffffffffffffff1673ffffffffffffffffffffffffffffffffffffffff16815260200190815260200160002090506000600560008973ffffffffffffffffffffffffffffffffffffffff1673ffffffffffffffffffffffffffffffffffffffff1681526020019081526020016000209050600073ffffffffffffffffffffffffffffffffffffffff168260000160009054906101000a900473ffffffffffffffffffffffffffffffffffffffff1673ffffffffffffffffffffffffffffffffffffffff16141580156140f35750600073ffffffffffffffffffffffffffffffffffffffff168160000160009054906101000a900473ffffffffffffffffffffffffffffffffffffffff1673ffffffffffffffffffffffffffffffffffffffff1614155b8015614109575081600201548683600101540111155b61415e576040517f08c379a000000000000000000000000000000000000000000000000000000000815260040180806020018281038252604d8152602001806152b3604d913960600191505060405180910390fd5b8873ffffffffffffffffffffffffffffffffffffffff163373ffffffffffffffffffffffffffffffffffffffff16146141ff576040517f08c379a00000000000000000000000000000000000000000000000000000000081526004018080602001828103825260128152602001807f7065726d697373696f6e2064656e69656421000000000000000000000000000081525060200191505060405180910390fd5b60006142148a8b6000801b60008b600061496b565b9050600060026000838152602001908152602001600020905080600a018a9080600181540180825580915050600190039060005260206000200160009091909190916101000a81548173ffffffffffffffffffffffffffffffffffffffff021916908373ffffffffffffffffffffffffffffffffffffffff16021790555080600b014290806001815401808255809150506001900390600052602060002001600090919091909150558881600b016001815481106142ce57fe5b906000526020600020015401816003018190555087846001016000828254019250508190555083600301829080600181540180825580915050600190039060005260206000200160009091909190915055826001018290806001815401808255809150506001900390600052602060002001600090919091909150556001826040518060400160405280600781526020017f7375636365737300000000000000000000000000000000000000000000000000815250965096509650505050509450945094915050565b60606000600360008473ffffffffffffffffffffffffffffffffffffffff1673ffffffffffffffffffffffffffffffffffffffff16815260200190815260200160002090508060030180548060200260200160405190810160405280929190818152602001828054801561442a57602002820191906000526020600020905b815481526020019060010190808311614416575b5050505050915050919050565b600080600080600080600080600260008a8152602001908152602001600020905080600001548160010160009054906101000a900473ffffffffffffffffffffffffffffffffffffffff16826002015483600301548460040160009054906101000a900460ff1685600501548660060154975097509750975097509750975050919395979092949650565b60008054906101000a900473ffffffffffffffffffffffffffffffffffffffff1681565b6000806002600084815260200190815260200160002090506000801b8160000154141561457b576040517f08c379a00000000000000000000000000000000000000000000000000000000081526004018080602001828103825260148152602001807f42696c6c206973206e6f7420657869737465642e00000000000000000000000081525060200191505060405180910390fd5b6001600281111561458857fe5b8160040160009054906101000a900460ff1660028111156145a557fe5b14806145d757506002808111156145b857fe5b8160040160009054906101000a900460ff1660028111156145d557fe5b145b156145e657600091505061467b565b80600301544210156145fc57600191505061467b565b7f60aaea8557c61cd821b9cfba9a4d5195c5687c6a765a2816a8b7b38ed3e69f84838260010160009054906101000a900473ffffffffffffffffffffffffffffffffffffffff16604051808381526020018273ffffffffffffffffffffffffffffffffffffffff1681526020019250505060405180910390a160009150505b919050565b600080428686604051602001808481526020018373ffffffffffffffffffffffffffffffffffffffff1660601b81526014018273ffffffffffffffffffffffffffffffffffffffff1660601b8152601401935050505060405160208183030381529060405280519060200120905060076040518060c001604052808381526020018581526020018681526020018873ffffffffffffffffffffffffffffffffffffffff1681526020018773ffffffffffffffffffffffffffffffffffffffff16815260200142815250908060018154018082558091505060019003906000526020600020906006020160009091909190915060008201518160000155602082015181600101556040820151816002015560608201518160030160006101000a81548173ffffffffffffffffffffffffffffffffffffffff021916908373ffffffffffffffffffffffffffffffffffffffff16021790555060808201518160040160006101000a81548173ffffffffffffffffffffffffffffffffffffffff021916908373ffffffffffffffffffffffffffffffffffffffff16021790555060a082015181600501555050600060076001600780549050038154811061484157fe5b9060005260206000209060060201905080600160008481526020019081526020016000206000820154816000015560018201548160010155600282015481600201556003820160009054906101000a900473ffffffffffffffffffffffffffffffffffffffff168160030160006101000a81548173ffffffffffffffffffffffffffffffffffffffff021916908373ffffffffffffffffffffffffffffffffffffffff1602179055506004820160009054906101000a900473ffffffffffffffffffffffffffffffffffffffff168160040160006101000a81548173ffffffffffffffffffffffffffffffffffffffff021916908373ffffffffffffffffffffffffffffffffffffffff160217905550600582015481600501559050508192505050949350505050565b600080428888604051602001808481526020018373ffffffffffffffffffffffffffffffffffffffff1660601b81526014018273ffffffffffffffffffffffffffffffffffffffff1660601b8152601401935050505060405160208183030381529060405280519060200120905060066040518061018001604052808381526020018973ffffffffffffffffffffffffffffffffffffffff16815260200186815260200185815260200160006002811115614a2257fe5b81526020016000801b81526020016000801b81526020018881526020016000801b81526020016000801b8152602001600067ffffffffffffffff81118015614a6957600080fd5b50604051908082528060200260200182016040528015614a985781602001602082028036833780820191505090505b508152602001600067ffffffffffffffff81118015614ab657600080fd5b50604051908082528060200260200182016040528015614ae55781602001602082028036833780820191505090505b5081525090806001815401808255809150506001900390600052602060002090600c02016000909190919091506000820151816000015560208201518160010160006101000a81548173ffffffffffffffffffffffffffffffffffffffff021916908373ffffffffffffffffffffffffffffffffffffffff160217905550604082015181600201556060820151816003015560808201518160040160006101000a81548160ff02191690836002811115614b9b57fe5b021790555060a0820151816005015560c0820151816006015560e082015181600701556101008201518160080155610120820151816009015561014082015181600a019080519060200190614bf1929190614fd2565b5061016082015181600b019080519060200190614c0f92919061505c565b5050506000600660016006805490500381548110614c2957fe5b90600052602060002090600c020190508060026000848152602001908152602001600020600082015481600001556001820160009054906101000a900473ffffffffffffffffffffffffffffffffffffffff168160010160006101000a81548173ffffffffffffffffffffffffffffffffffffffff021916908373ffffffffffffffffffffffffffffffffffffffff16021790555060028201548160020155600382015481600301556004820160009054906101000a900460ff168160040160006101000a81548160ff02191690836002811115614d0357fe5b02179055506005820154816005015560068201548160060155600782015481600701556008820154816008015560098201548160090155600a820181600a01908054614d509291906150a9565b50600b820181600b01908054614d679291906150fb565b5090505080600b0186908060018154018082558091505060019003906000526020600020016000909190919091505580600a01899080600181540180825580915050600190039060005260206000200160009091909190916101000a81548173ffffffffffffffffffffffffffffffffffffffff021916908373ffffffffffffffffffffffffffffffffffffffff16021790555081925050509695505050505050565b828054828255906000526020600020908101928215614e46579160200282015b82811115614e45578251825591602001919060010190614e2a565b5b509050614e53919061514d565b5090565b828054600181600116156101000203166002900490600052602060002090601f016020900481019282601f10614e9857805160ff1916838001178555614ec6565b82800160010185558215614ec6579182015b82811115614ec5578251825591602001919060010190614eaa565b5b509050614ed3919061516a565b5090565b828054828255906000526020600020908101928215614f185760005260206000209182015b82811115614f17578254825591600101919060010190614efc565b5b509050614f25919061514d565b5090565b828054600181600116156101000203166002900490600052602060002090601f016020900481019282601f10614f625780548555614f9f565b82800160010185558215614f9f57600052602060002091601f016020900482015b82811115614f9e578254825591600101919060010190614f83565b5b509050614fac919061516a565b5090565b6040518060400160405280600290602082028036833780820191505090505090565b82805482825590600052602060002090810192821561504b579160200282015b8281111561504a5782518260006101000a81548173ffffffffffffffffffffffffffffffffffffffff021916908373ffffffffffffffffffffffffffffffffffffffff16021790555091602001919060010190614ff2565b5b5090506150589190615187565b5090565b828054828255906000526020600020908101928215615098579160200282015b8281111561509757825182559160200191906001019061507c565b5b5090506150a5919061516a565b5090565b8280548282559060005260206000209081019282156150ea5760005260206000209182015b828111156150e95782548255916001019190600101906150ce565b5b5090506150f79190615187565b5090565b82805482825590600052602060002090810192821561513c5760005260206000209182015b8281111561513b578254825591600101919060010190615120565b5b509050615149919061516a565b5090565b5b8082111561516657600081600090555060010161514e565b5090565b5b8082111561518357600081600090555060010161516b565b5090565b5b808211156151be57600081816101000a81549073ffffffffffffffffffffffffffffffffffffffff021916905550600101615188565b509056fe537570706c6965723120646f65736e2774206578697374202f20537570706c6965723220646f65736e27742065786973746e6577206c696d69742063616e206e6f74206576656e20636f7665722063757272656e742064656274537570706c69657220646f65736e2774206578697374202f2042696c6c20646f65736e2774206578697374202f2042616e6b20646f65736e27742065786973742042696c6c20646f65736e2774206578697374202f20456e746572707269736520646f65736e2774206578697374202f2042696c6c206973206e6f7420697373756564206279207468697320456e7465727072697365456e746572707269736520646f65736e2774206578697374202f20537570706c69657220646f65736e277420657869737420202f20496e73756666696369656e7420637265646974206c696e65a2646970667358221220ce77772e646c7e2cba9af7d98c1e828337e4226bf99e737492b37ee8c573e34b64736f6c63430007000033",
  "immutableReferences": {},
  "source": "// SPDX-License-Identifier: GPL-3.0\npragma solidity >0.4.0 <0.8.0;\n\ncontract Finance {\n    \n    //\n    enum BillState{Valid, Split, Done}    \n    //\n    struct TradeDebtBill{\n        bytes32 id; // idsha3\n        address issuer; //  \n        uint256 facevalue; // \n        uint256 expire_time;// \n        BillState state; // \n        bytes32 idOfCR0; // ID\n        bytes32 idOfCR1; // ID\n        bytes32 idOfparent; // ID\n        bytes32 idOfson0;   // ID\n        bytes32 idOfson1;   \n        address[] owners; //  \n        uint256[] times; // 0now\n\t\t/*\n\t\tOwners: a -> b -> c -> d -> e\n\t\tTimes:  0     1     2.   3.     4\n\t\t\t\ta->b1b->c2\n        */\n    }\n    \n    // \n    struct CashReceipt{\n        bytes32 id; // sha3id\n        uint256 amount; // \n        bytes32 idOfTDB; // ID\n        address from; \n        address to;\n        uint256 time;\n    }   \n    \n    // \n    struct Bank {\n        address _address;\n        bytes32[] idOfBills; // id\n        bytes32[] idOfRecepits;// id\n        string name;\n    }\n\n    //\n    struct Enterprise {\n        address _address;\n        uint256 totalDebt;//  /  / \n        uint256 totalDebtLimit; // \n        bytes32[] idOfBills;\n        bytes32[] idOfRecepits;\n        string name;\n    }\n    \n    //\n    struct Supplier {\n        address _address;\n        bytes32[] idOfBills;\n        bytes32[] idOfRecepits;\n        string name;\n    }\n    \n    address public Arbitral_address;\n\n    mapping(bytes32 => CashReceipt) mapOfCashReceipt;\n    mapping(bytes32 => TradeDebtBill) mapOfTradeDebtBill;\n    mapping(address => Enterprise) mapOfEnterprise;\n    mapping(address => Bank) mapOfBank;\n    mapping(address => Supplier) mapOfSupplier;\n    \n    TradeDebtBill[]  Bills;\n    CashReceipt[]  Recepits;\n    Enterprise[]  enterprises;\n    Bank[]  banks;\n    Supplier[]  suppliers;\n    \n    \n    constructor(){\n        Arbitral_address =  msg.sender;\n    }\n    \n    // \n    modifier onlytheArbitral{\n        require(msg.sender == Arbitral_address, \"Only arbitral can operate\");\n        _;\n    }\n    \n    // \n    function addBank(address bk_ad, string memory _name) \n            onlytheArbitral public returns(bool, string memory) {\n\n        banks.push(Bank({\n            _address: bk_ad, \n            idOfBills: new bytes32[](0),\n            idOfRecepits: new bytes32[](0),\n            name: _name\n        }));\n\n        mapOfBank[bk_ad] = banks[banks.length - 1];\n        return (true, \"success\");\n    }\n    \n    //\n    function addEnterprise(address ep_ad, uint256 limit,string memory _name) \n                            onlytheArbitral public returns(bool, string memory) {\n        \n        enterprises.push(Enterprise({\n            _address: ep_ad, \n            totalDebt: 0,\n            totalDebtLimit: limit,\n            idOfBills: new bytes32[](0),\n            idOfRecepits: new bytes32[](0),\n            name: _name\n        }));\n\n        mapOfEnterprise[ep_ad] = enterprises[enterprises.length - 1];\n        return (true, \"success\");\n    }\n\n    function updateEnterpriseCreditLimit(address ep_ad, uint256 newLimit) \n                onlytheArbitral public returns(bool, string memory){\n        Enterprise storage e = mapOfEnterprise[ep_ad];\n        require(e.totalDebt < newLimit, \"new limit can not even cover current debt\");\n        e.totalDebtLimit = newLimit;\n        return (true, \"success\");\n    }\n    \n    // \n    function addSupplier(address sp_ad, string memory _name) \n            onlytheArbitral public returns(bool, string memory) {\n\n        suppliers.push(Supplier({\n            _address: sp_ad, \n            idOfBills: new bytes32[](0),\n            idOfRecepits: new bytes32[](0),\n            name: _name\n        }));\n\n        mapOfSupplier[sp_ad] = suppliers[suppliers.length - 1];\n        return (true, \"success\");\n    }\n    \n    // \n    function newTradeDebtBill(address _owner, address _issuer, bytes32 _parentid,uint256 _init_time,\n                                uint256 _facevalue, uint256 _expire_time) internal returns(bytes32){\n                                \n        bytes32 _id = keccak256(abi.encodePacked(block.timestamp, _owner, _issuer)); // sha3ID\n\n        Bills.push(TradeDebtBill({\n            id: _id,\n            issuer: _issuer,\n            facevalue: _facevalue,\n            expire_time: _expire_time,\n            state: BillState.Valid,\n            idOfCR0: 0x0,\n            idOfCR1: 0x0,\n            idOfson0: 0x0,\n            idOfson1: 0x0,\n            owners: new address[](0),\n            times: new uint256[](0),\n            idOfparent: _parentid\n        }));\n        \n        TradeDebtBill storage t = Bills[Bills.length - 1];\n        mapOfTradeDebtBill[_id] = t;\n        t.times.push(_init_time); // \n        t.owners.push(_owner);\n\n        return _id;\n    }\n    \n    // \n    function newCashRecepit(address _from, address _to, bytes32 _idOfTDB,\n                            uint256 _amount) internal returns(bytes32){\n        bytes32 _id = keccak256(abi.encodePacked(block.timestamp, _from, _to));\n        \n        Recepits.push(CashReceipt({\n            id: _id,\n            idOfTDB: _idOfTDB,\n            amount: _amount,\n            from: _from,\n            to: _to,\n            time: block.timestamp\n        }));\n        \n        CashReceipt storage c = Recepits[Recepits.length - 1];\n        mapOfCashReceipt[_id] = c;\n        return _id;\n    }\n    \n    // \n    function issueTradeDebtBill(address ep_ad, address sp_ad, uint256 tolerate_time, uint256 _facevalue) \n                                external returns(bool, bytes32, string memory){\n        Enterprise storage e = mapOfEnterprise[ep_ad];\n        Supplier storage s = mapOfSupplier[sp_ad];\n        \n        require(e._address != address(0x0) && s._address != address(0x0) && e.totalDebt + _facevalue <= e.totalDebtLimit, \n                \"Enterprise doesn't exist / Supplier doesn't exist  / Insufficient credit line\");\n        require(msg.sender == ep_ad, \"permission denied!\"); //  \n        \n        bytes32 id = newTradeDebtBill(ep_ad, ep_ad, 0x0, 0, _facevalue, 0);\n\n        TradeDebtBill storage b = mapOfTradeDebtBill[id];\n\n        b.owners.push(sp_ad);\n        b.times.push(block.timestamp);\n        b.expire_time = b.times[1] + tolerate_time;\n        \n        e.totalDebt += _facevalue;\n        \n        e.idOfBills.push(id);\n        s.idOfBills.push(id);\n        \n        return (true, id, \"success\");\n    }\n    \n    //  \n    event billDueToRepay(bytes32 billid, address ep_ad);\n    \n    //\n    function CheckBillState(bytes32 billid) internal returns(bool){\n        TradeDebtBill storage b = mapOfTradeDebtBill[billid];\n        require(b.id != 0x0 , \"Bill is not existed.\");\n        if(b.state == BillState.Split || b.state == BillState.Done) return false;\n\n        if(block.timestamp < b.expire_time) return true;\n\n        emit billDueToRepay(billid, b.issuer);\n\n        return false;\n    }\n    \n    // \n    function transferBillbetweenSuppliers(address sp_ad1, address sp_ad2, bytes32 billid, uint256 amount) \n                                            external returns(bool, string memory, bytes32 billid0, bytes32 billid1){\n        Supplier storage s1 = mapOfSupplier[sp_ad1];\n        Supplier storage s2 = mapOfSupplier[sp_ad2];\n        TradeDebtBill storage b = mapOfTradeDebtBill[billid];\n        \n        require(s1._address != address(0x0) && s2._address != address(0x0), \n                \"Supplier1 doesn't exist / Supplier2 doesn't exist\");  \n\n        bytes32[2] memory newbillids;\n\n        if(!CheckBillState(billid)){\n            return(false, \"failed\", newbillids[0], newbillids[1]);\n        }\n\n        uint256 ridx = b.owners.length - 1; // index\n        require(b.owners[ridx] ==  sp_ad1, \"Bill doesn't belong to Supplier1\");\n        require(amount <= b.facevalue, \"amount exceeds\");\n        require(msg.sender == sp_ad1, \"permission denied!\");//  \n        \n        if(amount == b.facevalue){\n            b.owners.push(sp_ad2);\n            b.times.push(block.timestamp);\n            s2.idOfBills.push(billid);\n        }else{//\n            newbillids[0] = newTradeDebtBill(sp_ad2 , b.issuer, billid, block.timestamp, amount, b.expire_time);\n            newbillids[1] = newTradeDebtBill(sp_ad1 , b.issuer, billid, block.timestamp, b.facevalue - amount, b.expire_time);\n\n            b.idOfson0 = newbillids[0];\n            b.idOfson1 = newbillids[1];\n\n            mapOfSupplier[sp_ad1].idOfBills.push(newbillids[1]);\n            mapOfSupplier[sp_ad2].idOfBills.push(newbillids[0]);\n\n            Enterprise storage e = mapOfEnterprise[b.issuer];\n            e.idOfBills.push(newbillids[0]);\n            e.idOfBills.push(newbillids[1]);\n\n            b.state = BillState.Split;\n        }\n        return (true, \"success\", newbillids[0], newbillids[1]);\n    }\n    \n    \n    // \n    function supplierFinancingfromBank(bytes32 billid, address sp_ad, address bank_ad, uint16 rate) \n                                        external returns(bool, string memory, bytes32){\n        TradeDebtBill storage bi = mapOfTradeDebtBill[billid];\n        Supplier storage s = mapOfSupplier[sp_ad];\n        Bank storage ba = mapOfBank[bank_ad];\n\n        require(s._address != address(0x0) && bi.id != 0x0 && ba._address != address(0x0), \n                \"Supplier doesn't exist / Bill doesn't exist / Bank doesn't exist\");\n        bytes32 newrepid; // ID\n\n        if(!CheckBillState(billid)){\n            return(false, \"failed\", newrepid);\n        }\n        \n        uint256 ridx = bi.owners.length - 1;\n        require(bi.owners[ridx] ==  sp_ad , \"Bill doesn't belong to Supplier \");\n        require(msg.sender == sp_ad, \"permission denied!\");//  \n\n        uint256 amount = bi.facevalue * rate / 1000; //  rate\n\n        //\n        newrepid = newCashRecepit(bank_ad, sp_ad, billid, amount);\n        bi.owners.push(bank_ad);\n        bi.times.push(block.timestamp);\n        bi.idOfCR0 = newrepid;\n        \n        ba.idOfRecepits.push(newrepid);\n        ba.idOfBills.push(billid);\n        s.idOfRecepits.push(newrepid);\n        \n        return(true, \"success\", newrepid);\n\n    }\n    \n    // ()\n    function enterpriseRepay(bytes32 billid, address ep_ad) onlytheArbitral \n                            external returns(bool, string memory, bytes32){\n\n        TradeDebtBill storage b = mapOfTradeDebtBill[billid];\n        Enterprise storage e = mapOfEnterprise[ep_ad];\n\n        require(b.id != 0x0 && e._address != address(0x0) && b.issuer == ep_ad, \n                \" Bill doesn't exist / Enterprise doesn't exist / Bill is not issued by this Enterprise\");\n        require(msg.sender == ep_ad, \"permission denied!\");//  \n\n        uint256 amount = b.facevalue;\n        address debtorid = b.owners[b.owners.length - 1]; //  \n        bytes32 newrepid = newCashRecepit(ep_ad, debtorid, billid, amount);\n        \n\n        b.owners.push(address(0x0));// 0\n        b.times.push(block.timestamp);\n        b.idOfCR1 = newrepid;\n        b.state = BillState.Done;\n        e.idOfRecepits.push(newrepid);\n        \n        //id\n        if(mapOfSupplier[debtorid]._address != address(0x0)) {\n            mapOfSupplier[debtorid].idOfRecepits.push(newrepid);\n        }else{\n            mapOfBank[debtorid].idOfRecepits.push(newrepid);\n        }\n        \n        require(amount <= e.totalDebt, \"Accounting errors.\");\n        e.totalDebt -= amount;\n\n        return(true, \"success\", newrepid);\n    }\n    \n    // functions of get Informations\n    function getSupplierCount() public view returns(uint256){\n        return uint256(suppliers.length);\n    }\n    \n    function getBankCount() public view returns(uint256){\n        return uint256(banks.length);\n    }\n    \n    function getBillCount() public view returns(uint256){\n        return Bills.length;\n    }\n    \n    function getRecepitCount() public view returns(uint256){\n        return Recepits.length;\n    }\n    \n    function getEnterpriseCount() public view returns(uint256){\n        return uint256(enterprises.length);\n    }\n        \n    function getBillBasicInfo(bytes32 billid) public view \n            returns(bytes32, address, uint256, uint256, BillState, bytes32, bytes32){\n        TradeDebtBill storage b = mapOfTradeDebtBill[billid];\n        return(b.id, b.issuer, b.facevalue, b.expire_time, b.state, b.idOfCR0, b.idOfCR1);\n    }\n    \n    function getBillHistory(bytes32 billid) public view returns(uint256[] memory, address[] memory){\n        TradeDebtBill storage b = mapOfTradeDebtBill[billid];\n        return(b.times, b.owners);\n    }\n    \n    function getBillSplitInfo(bytes32 billid) public view returns(bytes32, bytes32, bytes32){\n        TradeDebtBill storage b = mapOfTradeDebtBill[billid];\n        return(b.idOfparent, b.idOfson0, b.idOfson1);\n    }\n    \n    function getRecepitInfo(bytes32 repid) public view returns(uint256, bytes32, address, address){\n        CashReceipt storage r = mapOfCashReceipt[repid];\n        return(r.amount, r.idOfTDB, r.from, r.to);\n    }\n    \n    function getBankBasicInfo(address _ad) public view returns(uint256, uint256, string memory){\n        Bank storage b = mapOfBank[_ad];\n        return( b.idOfBills.length, b.idOfRecepits.length, b.name);\n    }\n    \n    function getSupplierBasicInfo(address _ad) public view returns( uint256, uint256, string memory){\n        Supplier storage s = mapOfSupplier[_ad];\n        return( s.idOfBills.length, s.idOfRecepits.length, s.name);\n    }\n    \n    function getEnterpriseBasicInfo(address _ad) public view \n                        returns(uint256, uint256, uint256 , string memory){\n        Enterprise storage e = mapOfEnterprise[_ad];\n        return(e.totalDebt, e.idOfBills.length, e.idOfRecepits.length, e.name);\n    }\n    \n    function getAllofSupplierBillsid(address _ad) public view returns(bytes32[] memory){\n        Supplier storage s = mapOfSupplier[_ad];\n        return(s.idOfBills);\n    }\n    \n    function getAllofBankBillsid(address _ad) public view returns(bytes32[] memory){\n        Bank storage b = mapOfBank[_ad];\n        return(b.idOfBills);\n    }\n    \n    function getAllofEnterpriseBillsid(address _ad) public view returns(bytes32[] memory){\n        Enterprise storage e = mapOfEnterprise[_ad];\n        return(e.idOfBills);\n    }\n    \n    function getAllofSupplierRecepitsid(address _ad) public view returns(bytes32[] memory){\n        Supplier storage s = mapOfSupplier[_ad];\n        return(s.idOfRecepits);\n    }\n    \n    function getAllofBankRecepitsid(address _ad) public view returns(bytes32[] memory){\n        Bank storage b = mapOfBank[_ad];\n        return(b.idOfRecepits);\n    }\n    \n    function getAllofEnterpriseRecepitsid(address _ad) public view returns(bytes32[] memory){\n        Enterprise storage e = mapOfEnterprise[_ad];\n        return(e.idOfRecepits);\n    }\n    \n    function withdraw(uint256 amount) onlytheArbitral public{\n        require(amount < 1e20);\n        msg.sender.transfer(amount);\n    }\n\n    function viewBalance() public view returns(uint256){\n        return address(this).balance;\n    }\n    \n    fallback() external payable{}\n    receive() external payable{}\n\n}",
  "sourcePath": "/Users/newguo/projects/blockchain-supplychainFinance/finance_contract/contracts/Finance.sol",
  "compiler": {
    "name": "solc",
    "version": "0.7.0+commit.9e61f92b.Emscripten.clang"
  },
  "schemaVersion": "3.2.3",
  "updatedAt": "2020-08-18T06:43:18.906Z",
  "devdoc": {
    "kind": "dev",
    "methods": {},
    "version": 1
  },
  "userdoc": {
    "kind": "user",
    "methods": {},
    "version": 1
  }
}