{
  "contractName": "Finance",
  "abi": [
    {
      "inputs": [
        {
          "internalType": "bytes32",
          "name": "id",
          "type": "bytes32"
        }
      ],
      "stateMutability": "nonpayable",
      "type": "constructor"
    },
    {
      "anonymous": false,
      "inputs": [
        {
          "indexed": false,
          "internalType": "bytes32",
          "name": "billid",
          "type": "bytes32"
        },
        {
          "indexed": false,
          "internalType": "bytes32",
          "name": "epid",
          "type": "bytes32"
        }
      ],
      "name": "billDueToRepay",
      "type": "event"
    },
    {
      "stateMutability": "payable",
      "type": "fallback"
    },
    {
      "inputs": [],
      "name": "theArbitral",
      "outputs": [
        {
          "internalType": "bytes32",
          "name": "_id",
          "type": "bytes32"
        },
        {
          "internalType": "address",
          "name": "_address",
          "type": "address"
        }
      ],
      "stateMutability": "view",
      "type": "function"
    },
    {
      "stateMutability": "payable",
      "type": "receive"
    },
    {
      "inputs": [
        {
          "internalType": "bytes32",
          "name": "bankid",
          "type": "bytes32"
        },
        {
          "internalType": "string",
          "name": "_name",
          "type": "string"
        }
      ],
      "name": "addBank",
      "outputs": [
        {
          "internalType": "bool",
          "name": "",
          "type": "bool"
        },
        {
          "internalType": "string",
          "name": "",
          "type": "string"
        }
      ],
      "stateMutability": "nonpayable",
      "type": "function"
    },
    {
      "inputs": [
        {
          "internalType": "bytes32",
          "name": "epid",
          "type": "bytes32"
        },
        {
          "internalType": "string",
          "name": "_name",
          "type": "string"
        }
      ],
      "name": "addEnterprise",
      "outputs": [
        {
          "internalType": "bool",
          "name": "",
          "type": "bool"
        },
        {
          "internalType": "string",
          "name": "",
          "type": "string"
        }
      ],
      "stateMutability": "nonpayable",
      "type": "function"
    },
    {
      "inputs": [
        {
          "internalType": "bytes32",
          "name": "spid",
          "type": "bytes32"
        },
        {
          "internalType": "uint8",
          "name": "_level",
          "type": "uint8"
        },
        {
          "internalType": "string",
          "name": "_name",
          "type": "string"
        }
      ],
      "name": "addSupplier",
      "outputs": [
        {
          "internalType": "bool",
          "name": "",
          "type": "bool"
        },
        {
          "internalType": "string",
          "name": "",
          "type": "string"
        }
      ],
      "stateMutability": "nonpayable",
      "type": "function"
    },
    {
      "inputs": [
        {
          "internalType": "bytes32",
          "name": "epid",
          "type": "bytes32"
        },
        {
          "internalType": "bytes32",
          "name": "spid",
          "type": "bytes32"
        },
        {
          "internalType": "uint256",
          "name": "tolerate_time",
          "type": "uint256"
        },
        {
          "internalType": "uint256",
          "name": "_facevalue",
          "type": "uint256"
        }
      ],
      "name": "issueTradeDebtBill",
      "outputs": [
        {
          "internalType": "bool",
          "name": "",
          "type": "bool"
        },
        {
          "internalType": "bytes32",
          "name": "",
          "type": "bytes32"
        },
        {
          "internalType": "string",
          "name": "",
          "type": "string"
        }
      ],
      "stateMutability": "nonpayable",
      "type": "function"
    },
    {
      "inputs": [
        {
          "internalType": "bytes32",
          "name": "spid1",
          "type": "bytes32"
        },
        {
          "internalType": "bytes32",
          "name": "spid2",
          "type": "bytes32"
        },
        {
          "internalType": "bytes32",
          "name": "billid",
          "type": "bytes32"
        }
      ],
      "name": "transferBillbetweenSuppliers",
      "outputs": [
        {
          "internalType": "bool",
          "name": "",
          "type": "bool"
        },
        {
          "internalType": "string",
          "name": "",
          "type": "string"
        }
      ],
      "stateMutability": "nonpayable",
      "type": "function"
    },
    {
      "inputs": [
        {
          "internalType": "bytes32",
          "name": "billid",
          "type": "bytes32"
        },
        {
          "internalType": "bytes32",
          "name": "spid",
          "type": "bytes32"
        },
        {
          "internalType": "uint256[]",
          "name": "ways",
          "type": "uint256[]"
        }
      ],
      "name": "billSplitBySupplier",
      "outputs": [
        {
          "internalType": "bool",
          "name": "",
          "type": "bool"
        },
        {
          "internalType": "string",
          "name": "",
          "type": "string"
        },
        {
          "internalType": "bytes32[10]",
          "name": "",
          "type": "bytes32[10]"
        }
      ],
      "stateMutability": "nonpayable",
      "type": "function"
    },
    {
      "inputs": [
        {
          "internalType": "bytes32",
          "name": "billid",
          "type": "bytes32"
        },
        {
          "internalType": "bytes32",
          "name": "spid",
          "type": "bytes32"
        },
        {
          "internalType": "bytes32",
          "name": "bankid",
          "type": "bytes32"
        },
        {
          "internalType": "uint256",
          "name": "rate",
          "type": "uint256"
        }
      ],
      "name": "supplierFinancingfromBank",
      "outputs": [
        {
          "internalType": "bool",
          "name": "",
          "type": "bool"
        },
        {
          "internalType": "string",
          "name": "",
          "type": "string"
        },
        {
          "internalType": "bytes32",
          "name": "",
          "type": "bytes32"
        }
      ],
      "stateMutability": "nonpayable",
      "type": "function"
    },
    {
      "inputs": [
        {
          "internalType": "bytes32",
          "name": "billid",
          "type": "bytes32"
        },
        {
          "internalType": "bytes32",
          "name": "epid",
          "type": "bytes32"
        }
      ],
      "name": "enterpriseRepay",
      "outputs": [
        {
          "internalType": "bool",
          "name": "",
          "type": "bool"
        },
        {
          "internalType": "string",
          "name": "",
          "type": "string"
        },
        {
          "internalType": "bytes32",
          "name": "",
          "type": "bytes32"
        }
      ],
      "stateMutability": "nonpayable",
      "type": "function"
    },
    {
      "inputs": [],
      "name": "getSupplierCount",
      "outputs": [
        {
          "internalType": "uint256",
          "name": "",
          "type": "uint256"
        }
      ],
      "stateMutability": "view",
      "type": "function"
    },
    {
      "inputs": [],
      "name": "getBankCount",
      "outputs": [
        {
          "internalType": "uint256",
          "name": "",
          "type": "uint256"
        }
      ],
      "stateMutability": "view",
      "type": "function"
    },
    {
      "inputs": [],
      "name": "getBillCount",
      "outputs": [
        {
          "internalType": "uint256",
          "name": "",
          "type": "uint256"
        }
      ],
      "stateMutability": "view",
      "type": "function"
    },
    {
      "inputs": [],
      "name": "getRecepitCount",
      "outputs": [
        {
          "internalType": "uint256",
          "name": "",
          "type": "uint256"
        }
      ],
      "stateMutability": "view",
      "type": "function"
    },
    {
      "inputs": [],
      "name": "getEnterpriseCount",
      "outputs": [
        {
          "internalType": "uint256",
          "name": "",
          "type": "uint256"
        }
      ],
      "stateMutability": "view",
      "type": "function"
    },
    {
      "inputs": [
        {
          "internalType": "bytes32",
          "name": "billid",
          "type": "bytes32"
        }
      ],
      "name": "getBillBasicInfo",
      "outputs": [
        {
          "internalType": "bytes32",
          "name": "",
          "type": "bytes32"
        },
        {
          "internalType": "bytes32",
          "name": "",
          "type": "bytes32"
        },
        {
          "internalType": "uint256",
          "name": "",
          "type": "uint256"
        },
        {
          "internalType": "uint256",
          "name": "",
          "type": "uint256"
        },
        {
          "internalType": "enum Finance.BillState",
          "name": "",
          "type": "uint8"
        },
        {
          "internalType": "bytes32",
          "name": "",
          "type": "bytes32"
        }
      ],
      "stateMutability": "nonpayable",
      "type": "function"
    },
    {
      "inputs": [
        {
          "internalType": "bytes32",
          "name": "billid",
          "type": "bytes32"
        }
      ],
      "name": "getBillHistory",
      "outputs": [
        {
          "internalType": "uint256[]",
          "name": "",
          "type": "uint256[]"
        },
        {
          "internalType": "bytes32[]",
          "name": "",
          "type": "bytes32[]"
        },
        {
          "internalType": "bytes32[]",
          "name": "",
          "type": "bytes32[]"
        }
      ],
      "stateMutability": "nonpayable",
      "type": "function"
    },
    {
      "inputs": [
        {
          "internalType": "bytes32",
          "name": "billid",
          "type": "bytes32"
        }
      ],
      "name": "getBillSplitInfo",
      "outputs": [
        {
          "internalType": "bytes32",
          "name": "",
          "type": "bytes32"
        },
        {
          "internalType": "bytes32[]",
          "name": "",
          "type": "bytes32[]"
        }
      ],
      "stateMutability": "nonpayable",
      "type": "function"
    },
    {
      "inputs": [
        {
          "internalType": "bytes32",
          "name": "repid",
          "type": "bytes32"
        }
      ],
      "name": "getRecepitInfo",
      "outputs": [
        {
          "internalType": "uint256",
          "name": "",
          "type": "uint256"
        },
        {
          "internalType": "bytes32",
          "name": "",
          "type": "bytes32"
        },
        {
          "internalType": "bytes32",
          "name": "",
          "type": "bytes32"
        },
        {
          "internalType": "bytes32",
          "name": "",
          "type": "bytes32"
        }
      ],
      "stateMutability": "view",
      "type": "function"
    },
    {
      "inputs": [
        {
          "internalType": "bytes32",
          "name": "id",
          "type": "bytes32"
        }
      ],
      "name": "getBankBasicInfo",
      "outputs": [
        {
          "internalType": "uint256",
          "name": "",
          "type": "uint256"
        },
        {
          "internalType": "uint256",
          "name": "",
          "type": "uint256"
        },
        {
          "internalType": "string",
          "name": "",
          "type": "string"
        }
      ],
      "stateMutability": "view",
      "type": "function"
    },
    {
      "inputs": [
        {
          "internalType": "bytes32",
          "name": "id",
          "type": "bytes32"
        }
      ],
      "name": "getSupplierBasicInfo",
      "outputs": [
        {
          "internalType": "uint256",
          "name": "",
          "type": "uint256"
        },
        {
          "internalType": "uint256",
          "name": "",
          "type": "uint256"
        },
        {
          "internalType": "uint256",
          "name": "",
          "type": "uint256"
        },
        {
          "internalType": "string",
          "name": "",
          "type": "string"
        }
      ],
      "stateMutability": "view",
      "type": "function"
    },
    {
      "inputs": [
        {
          "internalType": "bytes32",
          "name": "id",
          "type": "bytes32"
        }
      ],
      "name": "getEnterpriseBasicInfo",
      "outputs": [
        {
          "internalType": "uint256",
          "name": "",
          "type": "uint256"
        },
        {
          "internalType": "uint256",
          "name": "",
          "type": "uint256"
        },
        {
          "internalType": "uint256",
          "name": "",
          "type": "uint256"
        },
        {
          "internalType": "string",
          "name": "",
          "type": "string"
        }
      ],
      "stateMutability": "view",
      "type": "function"
    },
    {
      "inputs": [
        {
          "internalType": "bytes32",
          "name": "id",
          "type": "bytes32"
        }
      ],
      "name": "getAllofSupplierBillsid",
      "outputs": [
        {
          "internalType": "bytes32[]",
          "name": "",
          "type": "bytes32[]"
        }
      ],
      "stateMutability": "view",
      "type": "function"
    },
    {
      "inputs": [
        {
          "internalType": "bytes32",
          "name": "id",
          "type": "bytes32"
        }
      ],
      "name": "getAllofBankBillsid",
      "outputs": [
        {
          "internalType": "bytes32[]",
          "name": "",
          "type": "bytes32[]"
        }
      ],
      "stateMutability": "view",
      "type": "function"
    },
    {
      "inputs": [
        {
          "internalType": "bytes32",
          "name": "id",
          "type": "bytes32"
        }
      ],
      "name": "getAllofEnterpriseBillsid",
      "outputs": [
        {
          "internalType": "bytes32[]",
          "name": "",
          "type": "bytes32[]"
        }
      ],
      "stateMutability": "view",
      "type": "function"
    },
    {
      "inputs": [
        {
          "internalType": "bytes32",
          "name": "id",
          "type": "bytes32"
        }
      ],
      "name": "getAllofSupplierRecepitsid",
      "outputs": [
        {
          "internalType": "bytes32[]",
          "name": "",
          "type": "bytes32[]"
        }
      ],
      "stateMutability": "view",
      "type": "function"
    },
    {
      "inputs": [
        {
          "internalType": "bytes32",
          "name": "id",
          "type": "bytes32"
        }
      ],
      "name": "getAllofBankRecepitsid",
      "outputs": [
        {
          "internalType": "bytes32[]",
          "name": "",
          "type": "bytes32[]"
        }
      ],
      "stateMutability": "view",
      "type": "function"
    },
    {
      "inputs": [
        {
          "internalType": "bytes32",
          "name": "id",
          "type": "bytes32"
        }
      ],
      "name": "getAllofEnterpriseRecepitsid",
      "outputs": [
        {
          "internalType": "bytes32[]",
          "name": "",
          "type": "bytes32[]"
        }
      ],
      "stateMutability": "view",
      "type": "function"
    },
    {
      "inputs": [
        {
          "internalType": "uint256",
          "name": "amount",
          "type": "uint256"
        }
      ],
      "name": "withdraw",
      "outputs": [],
      "stateMutability": "nonpayable",
      "type": "function"
    }
  ],
  "bytecode": "0x608060405234801561001057600080fd5b5060405162004902380380620049028339818101604052602081101561003557600080fd5b810190808051906020019092919050505060405180604001604052808281526020013373ffffffffffffffffffffffffffffffffffffffff16815250600080820151816000015560208201518160010160006101000a81548173ffffffffffffffffffffffffffffffffffffffff021916908373ffffffffffffffffffffffffffffffffffffffff1602179055509050505061482b80620000d76000396000f3fe6080604052600436106101bb5760003560e01c80637386c9a7116100ec578063ba25a5f71161008a578063ef0ddc0c11610064578063ef0ddc0c1461114f578063f185e300146111df578063f7a992a11461126f578063fc94d051146112ff576101c2565b8063ba25a5f714610f74578063c0a2f30414611004578063c90edbfa146110d2576101c2565b80638c7977ed116100c65780638c7977ed14610cb05780639f3ef7e314610d92578063b10b733914610e5b578063b353334914610f2c576101c2565b80637386c9a714610b2c57806375a010c914610b905780638936f96a14610c20576101c2565b80632e44715d116101595780633db8ec07116101335780633db8ec07146107f85780634af999b31461094c57806352d07cd014610ad65780635b89707514610b01576101c2565b80632e44715d146105cb57806333a5522b146105f65780633b8e661d146106d8576101c2565b806326cf81a71161019557806326cf81a7146102e35780632b78c076146103a55780632c4a7e5a1461043c5780632e1a7d4d14610590576101c2565b80631883c7cc146101c457806323218e5f146101ef57806326cb93c51461021a576101c2565b366101c257005b005b3480156101d057600080fd5b506101d9611460565b6040518082815260200191505060405180910390f35b3480156101fb57600080fd5b5061020461146d565b6040518082815260200191505060405180910390f35b34801561022657600080fd5b506102536004803603602081101561023d57600080fd5b810190808035906020019092919050505061147a565b6040518085815260200184815260200183815260200180602001828103825283818151815260200191508051906020019080838360005b838110156102a557808201518184015260208101905061028a565b50505050905090810190601f1680156102d25780820380516001836020036101000a031916815260200191505b509550505050505060405180910390f35b3480156102ef57600080fd5b5061031c6004803603602081101561030657600080fd5b8101908080359060200190929190505050611570565b6040518084815260200183815260200180602001828103825283818151815260200191508051906020019080838360005b8381101561036857808201518184015260208101905061034d565b50505050905090810190601f1680156103955780820380516001836020036101000a031916815260200191505b5094505050505060405180910390f35b3480156103b157600080fd5b506103de600480360360208110156103c857600080fd5b810190808035906020019092919050505061164a565b6040518083815260200180602001828103825283818151815260200191508051906020019060200280838360005b8381101561042757808201518184015260208101905061040c565b50505050905001935050505060405180910390f35b34801561044857600080fd5b5061050c6004803603604081101561045f57600080fd5b81019080803590602001909291908035906020019064010000000081111561048657600080fd5b82018360208201111561049857600080fd5b803590602001918460018302840111640100000000831117156104ba57600080fd5b91908080601f016020809104026020016040519081016040528093929190818152602001838380828437600081840152601f19601f8201169050808301925050505050505091929192905050506116d4565b60405180831515815260200180602001828103825283818151815260200191508051906020019080838360005b83811015610554578082015181840152602081019050610539565b50505050905090810190601f1680156105815780820380516001836020036101000a031916815260200191505b50935050505060405180910390f35b34801561059c57600080fd5b506105c9600480360360208110156105b357600080fd5b81019080803590602001909291905050506119d2565b005b3480156105d757600080fd5b506105e0611af7565b6040518082815260200191505060405180910390f35b34801561060257600080fd5b5061064d6004803603608081101561061957600080fd5b8101908080359060200190929190803590602001909291908035906020019092919080359060200190929190505050611b04565b60405180841515815260200180602001838152602001828103825284818151815260200191508051906020019080838360005b8381101561069b578082015181840152602081019050610680565b50505050905090810190601f1680156106c85780820380516001836020036101000a031916815260200191505b5094505050505060405180910390f35b3480156106e457600080fd5b50610711600480360360208110156106fb57600080fd5b8101908080359060200190929190505050611fad565b60405180806020018060200180602001848103845287818151815260200191508051906020019060200280838360005b8381101561075c578082015181840152602081019050610741565b50505050905001848103835286818151815260200191508051906020019060200280838360005b8381101561079e578082015181840152602081019050610783565b50505050905001848103825285818151815260200191508051906020019060200280838360005b838110156107e05780820151818401526020810190506107c5565b50505050905001965050505050505060405180910390f35b34801561080457600080fd5b506108c86004803603604081101561081b57600080fd5b81019080803590602001909291908035906020019064010000000081111561084257600080fd5b82018360208201111561085457600080fd5b8035906020019184600183028401116401000000008311171561087657600080fd5b91908080601f016020809104026020016040519081016040528093929190818152602001838380828437600081840152601f19601f8201169050808301925050505050505091929192905050506120e3565b60405180831515815260200180602001828103825283818151815260200191508051906020019080838360005b838110156109105780820151818401526020810190506108f5565b50505050905090810190601f16801561093d5780820380516001836020036101000a031916815260200191505b50935050505060405180910390f35b34801561095857600080fd5b50610a236004803603606081101561096f57600080fd5b810190808035906020019092919080359060200190929190803590602001906401000000008111156109a057600080fd5b8201836020820111156109b257600080fd5b803590602001918460208302840111640100000000831117156109d457600080fd5b919080806020026020016040519081016040528093929190818152602001838360200280828437600081840152601f19601f8201169050808301925050505050505091929192905050506123c6565b6040518084151581526020018060200183600a60200280838360005b83811015610a5a578082015181840152602081019050610a3f565b50505050905001828103825284818151815260200191508051906020019080838360005b83811015610a99578082015181840152602081019050610a7e565b50505050905090810190601f168015610ac65780820380516001836020036101000a031916815260200191505b5094505050505060405180910390f35b348015610ae257600080fd5b50610aeb61298c565b6040518082815260200191505060405180910390f35b348015610b0d57600080fd5b50610b16612999565b6040518082815260200191505060405180910390f35b348015610b3857600080fd5b50610b6560048036036020811015610b4f57600080fd5b81019080803590602001909291905050506129a6565b6040518085815260200184815260200183815260200182815260200194505050505060405180910390f35b348015610b9c57600080fd5b50610bc960048036036020811015610bb357600080fd5b81019080803590602001909291905050506129e7565b6040518080602001828103825283818151815260200191508051906020019060200280838360005b83811015610c0c578082015181840152602081019050610bf1565b505050509050019250505060405180910390f35b348015610c2c57600080fd5b50610c5960048036036020811015610c4357600080fd5b8101908080359060200190929190505050612a5b565b6040518080602001828103825283818151815260200191508051906020019060200280838360005b83811015610c9c578082015181840152602081019050610c81565b505050509050019250505060405180910390f35b348015610cbc57600080fd5b50610d0760048036036080811015610cd357600080fd5b8101908080359060200190929190803590602001909291908035906020019092919080359060200190929190505050612acf565b60405180841515815260200183815260200180602001828103825283818151815260200191508051906020019080838360005b83811015610d55578082015181840152602081019050610d3a565b50505050905090810190601f168015610d825780820380516001836020036101000a031916815260200191505b5094505050505060405180910390f35b348015610d9e57600080fd5b50610dcb60048036036020811015610db557600080fd5b8101908080359060200190929190505050612d27565b6040518085815260200184815260200183815260200180602001828103825283818151815260200191508051906020019080838360005b83811015610e1d578082015181840152602081019050610e02565b50505050905090810190601f168015610e4a5780820380516001836020036101000a031916815260200191505b509550505050505060405180910390f35b348015610e6757600080fd5b50610ea860048036036060811015610e7e57600080fd5b81019080803590602001909291908035906020019092919080359060200190929190505050612e0a565b60405180831515815260200180602001828103825283818151815260200191508051906020019080838360005b83811015610ef0578082015181840152602081019050610ed5565b50505050905090810190601f168015610f1d5780820380516001836020036101000a031916815260200191505b50935050505060405180910390f35b348015610f3857600080fd5b50610f4161320d565b604051808381526020018273ffffffffffffffffffffffffffffffffffffffff1681526020019250505060405180910390f35b348015610f8057600080fd5b50610fad60048036036020811015610f9757600080fd5b810190808035906020019092919050505061323f565b6040518080602001828103825283818151815260200191508051906020019060200280838360005b83811015610ff0578082015181840152602081019050610fd5565b505050509050019250505060405180910390f35b34801561101057600080fd5b506110476004803603604081101561102757600080fd5b8101908080359060200190929190803590602001909291905050506132b3565b60405180841515815260200180602001838152602001828103825284818151815260200191508051906020019080838360005b8381101561109557808201518184015260208101905061107a565b50505050905090810190601f1680156110c25780820380516001836020036101000a031916815260200191505b5094505050505060405180910390f35b3480156110de57600080fd5b5061110b600480360360208110156110f557600080fd5b8101908080359060200190929190505050613700565b6040518087815260200186815260200185815260200184815260200183600381111561113357fe5b8152602001828152602001965050505050505060405180910390f35b34801561115b57600080fd5b506111886004803603602081101561117257600080fd5b810190808035906020019092919050505061376b565b6040518080602001828103825283818151815260200191508051906020019060200280838360005b838110156111cb5780820151818401526020810190506111b0565b505050509050019250505060405180910390f35b3480156111eb57600080fd5b506112186004803603602081101561120257600080fd5b81019080803590602001909291905050506137df565b6040518080602001828103825283818151815260200191508051906020019060200280838360005b8381101561125b578082015181840152602081019050611240565b505050509050019250505060405180910390f35b34801561127b57600080fd5b506112a86004803603602081101561129257600080fd5b8101908080359060200190929190505050613853565b6040518080602001828103825283818151815260200191508051906020019060200280838360005b838110156112eb5780820151818401526020810190506112d0565b505050509050019250505060405180910390f35b34801561130b57600080fd5b506113dc6004803603606081101561132257600080fd5b8101908080359060200190929190803560ff1690602001909291908035906020019064010000000081111561135657600080fd5b82018360208201111561136857600080fd5b8035906020019184600183028401116401000000008311171561138a57600080fd5b91908080601f016020809104026020016040519081016040528093929190818152602001838380828437600081840152601f19601f8201169050808301925050505050505091929192905050506138c7565b60405180831515815260200180602001828103825283818151815260200191508051906020019080838360005b83811015611424578082015181840152602081019050611409565b50505050905090810190601f1680156114515780820380516001836020036101000a031916815260200191505b50935050505060405180910390f35b6000600780549050905090565b6000600b80549050905090565b6000806000606060006006600087815260200190815260200160002090508060010160009054906101000a900460ff1681600201805490508260030180549050836004018360ff169350808054600181600116156101000203166002900480601f0160208091040260200160405190810160405280929190818152602001828054600181600116156101000203166002900480156115595780601f1061152e57610100808354040283529160200191611559565b820191906000526020600020905b81548152906001019060200180831161153c57829003601f168201915b505050505090509450945094509450509193509193565b600080606060006005600086815260200190815260200160002090508060010180549050816002018054905082600301808054600181600116156101000203166002900480601f0160208091040260200160405190810160405280929190818152602001828054600181600116156101000203166002900480156116355780601f1061160a57610100808354040283529160200191611635565b820191906000526020600020905b81548152906001019060200180831161161857829003601f168201915b50505050509050935093509350509193909250565b6000606061165783613c03565b506000600360008581526020019081526020016000209050806006015481600701808054806020026020016040519081016040528092919081815260200182805480156116c357602002820191906000526020600020905b8154815260200190600101908083116116af575b505050505090509250925050915091565b60006060600060010160009054906101000a900473ffffffffffffffffffffffffffffffffffffffff1673ffffffffffffffffffffffffffffffffffffffff163373ffffffffffffffffffffffffffffffffffffffff161461179e576040517f08c379a00000000000000000000000000000000000000000000000000000000081526004018080602001828103825260198152602001807f4f6e6c7920617262697472616c2063616e206f7065726174650000000000000081525060200191505060405180910390fd5b60096040518060a0016040528086815260200160008152602001600067ffffffffffffffff811180156117d057600080fd5b506040519080825280602002602001820160405280156117ff5781602001602082028036833780820191505090505b508152602001600067ffffffffffffffff8111801561181d57600080fd5b5060405190808252806020026020018201604052801561184c5781602001602082028036833780820191505090505b508152602001858152509080600181540180825580915050600190039060005260206000209060050201600090919091909150600082015181600001556020820151816001015560408201518160020190805190602001906118af9291906143fd565b5060608201518160030190805190602001906118cc9291906143fd565b5060808201518160040190805190602001906118e992919061444a565b50505060096001600980549050038154811061190157fe5b9060005260206000209060050201600460008681526020019081526020016000206000820154816000015560018201548160010155600282018160020190805461194c9291906144ca565b5060038201816003019080546119639291906144ca565b506004820181600401908054600181600116156101000203166002900461198b92919061451c565b5090505060016040518060400160405280600781526020017f7375636365737300000000000000000000000000000000000000000000000000815250915091509250929050565b600060010160009054906101000a900473ffffffffffffffffffffffffffffffffffffffff1673ffffffffffffffffffffffffffffffffffffffff163373ffffffffffffffffffffffffffffffffffffffff1614611a98576040517f08c379a00000000000000000000000000000000000000000000000000000000081526004018080602001828103825260198152602001807f4f6e6c7920617262697472616c2063616e206f7065726174650000000000000081525060200191505060405180910390fd5b68056bc75e2d631000008110611aad57600080fd5b3373ffffffffffffffffffffffffffffffffffffffff166108fc829081150290604051600060405180830381858888f19350505050158015611af3573d6000803e3d6000fd5b5050565b6000600a80549050905090565b6000606060008060010160009054906101000a900473ffffffffffffffffffffffffffffffffffffffff1673ffffffffffffffffffffffffffffffffffffffff163373ffffffffffffffffffffffffffffffffffffffff1614611bcf576040517f08c379a00000000000000000000000000000000000000000000000000000000081526004018080602001828103825260198152602001807f4f6e6c7920617262697472616c2063616e206f7065726174650000000000000081525060200191505060405180910390fd5b6000600360008981526020019081526020016000209050600060066000898152602001908152602001600020905060006005600089815260200190815260200160002090506000801b826000015414158015611c3257506000801b836000015414155b8015611c4557506000801b816000015414155b611c9a576040517f08c379a00000000000000000000000000000000000000000000000000000000081526004018080602001828103825260408152602001806147256040913960400191505060405180910390fd5b6000611ca58b613c03565b611cf2576000816040518060400160405280600681526020017f6661696c656400000000000000000000000000000000000000000000000000008152509096509650965050505050611fa3565b60016003811115611cff57fe5b8460040160009054906101000a900460ff166003811115611d1c57fe5b1415611d90576040517f08c379a000000000000000000000000000000000000000000000000000000000815260040180806020018281038252600d8152602001807f42696c6c2069732053706c69740000000000000000000000000000000000000081525060200191505060405180910390fd5b6000600185600801805490500390508a856009018281548110611daf57fe5b906000526020600020015414611e2d576040517f08c379a00000000000000000000000000000000000000000000000000000000081526004018080602001828103825260208152602001807f42696c6c20646f65736e27742062656c6f6e6720746f20537570706c6965722081525060200191505060405180910390fd5b60006103e88a87600201540281611e4057fe5b049050611e4f8b8d8f84613e4b565b9250856008018c9080600181540180825580915050600190039060005260206000200160009091909190915055856009018b908060018154018082558091505060019003906000526020600020016000909190919091505585600a0142908060018154018082558091505060019003906000526020600020016000909190919091505582866005018190555083600201839080600181540180825580915050600190039060005260206000200160009091909190915055836001018d9080600181540180825580915050600190039060005260206000200160009091909190915055846003018390806001815401808255809150506001900390600052602060002001600090919091909150556001836040518060400160405280600781526020017f7375636365737300000000000000000000000000000000000000000000000000815250909850985098505050505050505b9450945094915050565b6060806060611fbb84613c03565b50600060036000868152602001908152602001600020905080600a0181600801826009018280548060200260200160405190810160405280929190818152602001828054801561202a57602002820191906000526020600020905b815481526020019060010190808311612016575b505050505092508180548060200260200160405190810160405280929190818152602001828054801561207c57602002820191906000526020600020905b815481526020019060010190808311612068575b50505050509150808054806020026020016040519081016040528092919081815260200182805480156120ce57602002820191906000526020600020905b8154815260200190600101908083116120ba575b50505050509050935093509350509193909250565b60006060600060010160009054906101000a900473ffffffffffffffffffffffffffffffffffffffff1673ffffffffffffffffffffffffffffffffffffffff163373ffffffffffffffffffffffffffffffffffffffff16146121ad576040517f08c379a00000000000000000000000000000000000000000000000000000000081526004018080602001828103825260198152602001807f4f6e6c7920617262697472616c2063616e206f7065726174650000000000000081525060200191505060405180910390fd5b600a6040518060800160405280868152602001600067ffffffffffffffff811180156121d857600080fd5b506040519080825280602002602001820160405280156122075781602001602082028036833780820191505090505b508152602001600067ffffffffffffffff8111801561222557600080fd5b506040519080825280602002602001820160405280156122545781602001602082028036833780820191505090505b5081526020018581525090806001815401808255809150506001900390600052602060002090600402016000909190919091506000820151816000015560208201518160010190805190602001906122ad9291906143fd565b5060408201518160020190805190602001906122ca9291906143fd565b5060608201518160030190805190602001906122e792919061444a565b505050600a6001600a8054905003815481106122ff57fe5b9060005260206000209060040201600560008681526020019081526020016000206000820154816000015560018201816001019080546123409291906144ca565b5060028201816002019080546123579291906144ca565b506003820181600301908054600181600116156101000203166002900461237f92919061451c565b5090505060016040518060400160405280600781526020017f7375636365737300000000000000000000000000000000000000000000000000815250915091509250929050565b600060606123d26145a3565b600060010160009054906101000a900473ffffffffffffffffffffffffffffffffffffffff1673ffffffffffffffffffffffffffffffffffffffff163373ffffffffffffffffffffffffffffffffffffffff1614612498576040517f08c379a00000000000000000000000000000000000000000000000000000000081526004018080602001828103825260198152602001807f4f6e6c7920617262697472616c2063616e206f7065726174650000000000000081525060200191505060405180910390fd5b600060036000888152602001908152602001600020905060006006600088815260200190815260200160002090506124ce6145a3565b6000801b8260000154141561254b576040517f08c379a00000000000000000000000000000000000000000000000000000000081526004018080602001828103825260168152602001807f537570706c69657220646f65736e27742065786973740000000000000000000081525060200191505060405180910390fd5b61255489613c03565b6125a0576000816040518060400160405280600681526020017f6661696c6564000000000000000000000000000000000000000000000000000081525090955095509550505050612983565b600160038111156125ad57fe5b8360040160009054906101000a900460ff1660038111156125ca57fe5b141561263e576040517f08c379a000000000000000000000000000000000000000000000000000000000815260040180806020018281038252600d8152602001807f42696c6c2069732053706c69740000000000000000000000000000000000000081525060200191505060405180910390fd5b6000600184600801805490500390508884600901828154811061265d57fe5b90600052602060002001541480156126775750600a885111155b6126cc576040517f08c379a000000000000000000000000000000000000000000000000000000000815260040180806020018281038252603b815260200180614765603b913960400191505060405180910390fd5b6000805b89518110156127875760008a82815181106126e757fe5b602002602001015111612762576040517f08c379a00000000000000000000000000000000000000000000000000000000081526004018080602001828103825260198152602001807f73706c6974207761792069736e2774206665617369626c652e0000000000000081525060200191505060405180910390fd5b89818151811061276e57fe5b60200260200101518201915080806001019150506126d0565b5084600201548114612801576040517f08c379a00000000000000000000000000000000000000000000000000000000081526004018080602001828103825260198152602001807f73706c6974207761792069736e2774206665617369626c652e0000000000000081525060200191505060405180910390fd5b60008560030154905060008660010154905060008d905060008d905060008960080160018b60080180549050038154811061283857fe5b9060005260206000200154905060005b8e518110156129115760008f828151811061285f57fe5b602002602001015190506128788385888842868d613fa4565b8a83600a811061288457fe5b6020020181815250508b6007018a83600a811061289d57fe5b602002015190806001815401808255809150506001900390600052602060002001600090919091909150558a6002018a83600a81106128d857fe5b60200201519080600181540180825580915050600190039060005260206000200160009091909190915055508080600101915050612848565b5060018a60040160006101000a81548160ff0219169083600381111561293357fe5b02179055506001886040518060400160405280600781526020017f7375636365737300000000000000000000000000000000000000000000000000815250909c509c509c50505050505050505050505b93509350939050565b6000600980549050905090565b6000600880549050905090565b600080600080600060026000878152602001908152602001600020905080600101548160020154826003015483600401549450945094509450509193509193565b6060600060056000848152602001908152602001600020905080600201805480602002602001604051908101604052809291908181526020018280548015612a4e57602002820191906000526020600020905b815481526020019060010190808311612a3a575b5050505050915050919050565b6060600060046000848152602001908152602001600020905080600201805480602002602001604051908101604052809291908181526020018280548015612ac257602002820191906000526020600020905b815481526020019060010190808311612aae575b5050505050915050919050565b6000806060600060010160009054906101000a900473ffffffffffffffffffffffffffffffffffffffff1673ffffffffffffffffffffffffffffffffffffffff163373ffffffffffffffffffffffffffffffffffffffff1614612b9a576040517f08c379a00000000000000000000000000000000000000000000000000000000081526004018080602001828103825260198152602001807f4f6e6c7920617262697472616c2063616e206f7065726174650000000000000081525060200191505060405180910390fd5b600060046000898152602001908152602001600020905060006006600089815260200190815260200160002090506000801b826000015414158015612be657506000801b816000015414155b8015612c06575060018160010160009054906101000a900460ff1660ff16145b612c5b576040517f08c379a00000000000000000000000000000000000000000000000000000000081526004018080602001828103825260548152602001806146d16054913960600191505060405180910390fd5b6000612c718a8a8c6000801b428c8e4201613fa4565b905086836001016000828254019250508190555082600201819080600181540180825580915050600190039060005260206000200160009091909190915055816002018190806001815401808255809150506001900390600052602060002001600090919091909150556001816040518060400160405280600781526020017f73756363657373000000000000000000000000000000000000000000000000008152509550955095505050509450945094915050565b60008060006060600060046000878152602001908152602001600020905080600101548160020180549050826003018054905083600401808054600181600116156101000203166002900480601f016020809104026020016040519081016040528092919081815260200182805460018160011615610100020316600290048015612df35780601f10612dc857610100808354040283529160200191612df3565b820191906000526020600020905b815481529060010190602001808311612dd657829003601f168201915b505050505090509450945094509450509193509193565b60006060600060010160009054906101000a900473ffffffffffffffffffffffffffffffffffffffff1673ffffffffffffffffffffffffffffffffffffffff163373ffffffffffffffffffffffffffffffffffffffff1614612ed4576040517f08c379a00000000000000000000000000000000000000000000000000000000081526004018080602001828103825260198152602001807f4f6e6c7920617262697472616c2063616e206f7065726174650000000000000081525060200191505060405180910390fd5b6000600660008781526020019081526020016000209050600060066000878152602001908152602001600020905060006003600087815260200190815260200160002090506000801b836000015414158015612f3757506000801b826000015414155b612f8c576040517f08c379a00000000000000000000000000000000000000000000000000000000081526004018080602001828103825260318152602001806146a06031913960400191505060405180910390fd5b612f9586613c03565b612fdd5760006040518060400160405280600681526020017f6661696c6564000000000000000000000000000000000000000000000000000081525094509450505050613205565b60016003811115612fea57fe5b8160040160009054906101000a900460ff16600381111561300757fe5b141561307b576040517f08c379a000000000000000000000000000000000000000000000000000000000815260040180806020018281038252600d8152602001807f42696c6c2069732053706c69740000000000000000000000000000000000000081525060200191505060405180910390fd5b6000600182600801805490500390508882600901828154811061309a57fe5b906000526020600020015414613118576040517f08c379a00000000000000000000000000000000000000000000000000000000081526004018080602001828103825260208152602001807f42696c6c20646f65736e27742062656c6f6e6720746f20537570706c6965723181525060200191505060405180910390fd5b816008018990806001815401808255809150506001900390600052602060002001600090919091909150558160090188908060018154018082558091505060019003906000526020600020016000909190919091505581600a014290806001815401808255809150506001900390600052602060002001600090919091909150558260020187908060018154018082558091505060019003906000526020600020016000909190919091505560016040518060400160405280600781526020017f737563636573730000000000000000000000000000000000000000000000000081525095509550505050505b935093915050565b60008060000154908060010160009054906101000a900473ffffffffffffffffffffffffffffffffffffffff16905082565b60606000600660008481526020019081526020016000209050806003018054806020026020016040519081016040528092919081815260200182805480156132a657602002820191906000526020600020905b815481526020019060010190808311613292575b5050505050915050919050565b6000606060008060010160009054906101000a900473ffffffffffffffffffffffffffffffffffffffff1673ffffffffffffffffffffffffffffffffffffffff163373ffffffffffffffffffffffffffffffffffffffff161461337e576040517f08c379a00000000000000000000000000000000000000000000000000000000081526004018080602001828103825260198152602001807f4f6e6c7920617262697472616c2063616e206f7065726174650000000000000081525060200191505060405180910390fd5b600060036000878152602001908152602001600020905060006004600087815260200190815260200160002090506000801b8260000154141580156133ca57506000801b816000015414155b80156133d95750858260010154145b61342e576040517f08c379a00000000000000000000000000000000000000000000000000000000081526004018080602001828103825260568152602001806147a06056913960600191505060405180910390fd5b60008260020154905060008360090160018560090180549050038154811061345257fe5b90600052602060002001549050600061346d89838c86613e4b565b905084600801829080600181540180825580915050600190039060005260206000200160009091909190915055846009016000908060018154018082558091505060019003906000526020600020016000909160001b90919091505584600a0142908060018154018082558091505060019003906000526020600020016000909190919091505580856005018190555060038560040160006101000a81548160ff0219169083600381111561351e57fe5b0217905550836003018190806001815401808255809150506001900390600052602060002001600090919091909150556000801b85600601541461358857836002018a90806001815401808255809150506001900390600052602060002001600090919091909150555b6000801b6006600084815260200190815260200160002060000154146135ea5760066000838152602001908152602001600020600301819080600181540180825580915050600190039060005260206000200160009091909190915055613628565b600560008381526020019081526020016000206002018190806001815401808255809150506001900390600052602060002001600090919091909150555b83600101548311156136a2576040517f08c379a00000000000000000000000000000000000000000000000000000000081526004018080602001828103825260128152602001807f4163636f756e74696e67206572726f72732e000000000000000000000000000081525060200191505060405180910390fd5b8284600101600082825403925050819055506001816040518060400160405280600781526020017f73756363657373000000000000000000000000000000000000000000000000008152509097509750975050505050509250925092565b60008060008060008061371287613c03565b50600060036000898152602001908152602001600020905080600001548160010154826002015483600301548460040160009054906101000a900460ff1685600501549650965096509650965096505091939550919395565b60606000600660008481526020019081526020016000209050806002018054806020026020016040519081016040528092919081815260200182805480156137d257602002820191906000526020600020905b8154815260200190600101908083116137be575b5050505050915050919050565b606060006004600084815260200190815260200160002090508060030180548060200260200160405190810160405280929190818152602001828054801561384657602002820191906000526020600020905b815481526020019060010190808311613832575b5050505050915050919050565b60606000600560008481526020019081526020016000209050806001018054806020026020016040519081016040528092919081815260200182805480156138ba57602002820191906000526020600020905b8154815260200190600101908083116138a6575b5050505050915050919050565b60006060600060010160009054906101000a900473ffffffffffffffffffffffffffffffffffffffff1673ffffffffffffffffffffffffffffffffffffffff163373ffffffffffffffffffffffffffffffffffffffff1614613991576040517f08c379a00000000000000000000000000000000000000000000000000000000081526004018080602001828103825260198152602001807f4f6e6c7920617262697472616c2063616e206f7065726174650000000000000081525060200191505060405180910390fd5b600b6040518060a001604052808781526020018660ff168152602001600067ffffffffffffffff811180156139c557600080fd5b506040519080825280602002602001820160405280156139f45781602001602082028036833780820191505090505b508152602001600067ffffffffffffffff81118015613a1257600080fd5b50604051908082528060200260200182016040528015613a415781602001602082028036833780820191505090505b5081526020018581525090806001815401808255809150506001900390600052602060002090600502016000909190919091506000820151816000015560208201518160010160006101000a81548160ff021916908360ff1602179055506040820151816002019080519060200190613abb9291906143fd565b506060820151816003019080519060200190613ad89291906143fd565b506080820151816004019080519060200190613af592919061444a565b505050600b6001600b805490500381548110613b0d57fe5b906000526020600020906005020160066000878152602001908152602001600020600082015481600001556001820160009054906101000a900460ff168160010160006101000a81548160ff021916908360ff1602179055506002820181600201908054613b7c9291906144ca565b506003820181600301908054613b939291906144ca565b5060048201816004019080546001816001161561010002031660029004613bbb92919061451c565b5090505060016040518060400160405280600781526020017f737563636573730000000000000000000000000000000000000000000000000081525091509150935093915050565b60008060010160009054906101000a900473ffffffffffffffffffffffffffffffffffffffff1673ffffffffffffffffffffffffffffffffffffffff163373ffffffffffffffffffffffffffffffffffffffff1614613cca576040517f08c379a00000000000000000000000000000000000000000000000000000000081526004018080602001828103825260198152602001807f4f6e6c7920617262697472616c2063616e206f7065726174650000000000000081525060200191505060405180910390fd5b60006003600084815260200190815260200160002090506000801b81600001541415613d5e576040517f08c379a00000000000000000000000000000000000000000000000000000000081526004018080602001828103825260148152602001807f42696c6c206973206e6f7420657869737465642e00000000000000000000000081525060200191505060405180910390fd5b8060030154421015613d74576001915050613e46565b60006003811115613d8157fe5b8160040160009054906101000a900460ff166003811115613d9e57fe5b1480613dd1575060026003811115613db257fe5b8160040160009054906101000a900460ff166003811115613dcf57fe5b145b15613e405760028160040160006101000a81548160ff02191690836003811115613df757fe5b02179055507f08654ce5265a228148184007620cec585adccfc16241c136beabe78b4ced7ae7838260010154604051808381526020018281526020019250505060405180910390a15b60009150505b919050565b60008042868660405160200180848152602001838152602001828152602001935050505060405160208183030381529060405280519060200120905060086040518060c00160405280838152602001858152602001868152602001888152602001878152602001428152509080600181540180825580915050600190039060005260206000209060060201600090919091909150600082015181600001556020820151816001015560408201518160020155606082015181600301556080820151816004015560a0820151816005015550506000600860016008805490500381548110613f3457fe5b9060005260206000209060060201905080600260008481526020019081526020016000206000820154816000015560018201548160010155600282015481600201556003820154816003015560048201548160040155600582015481600501559050508192505050949350505050565b60008042898960405160200180848152602001838152602001828152602001935050505060405160208183030381529060405280519060200120905060076040518061016001604052808381526020018981526020018681526020018581526020016000600381111561401357fe5b81526020016000801b8152602001888152602001600067ffffffffffffffff8111801561403f57600080fd5b5060405190808252806020026020018201604052801561406e5781602001602082028036833780820191505090505b508152602001600067ffffffffffffffff8111801561408c57600080fd5b506040519080825280602002602001820160405280156140bb5781602001602082028036833780820191505090505b508152602001600067ffffffffffffffff811180156140d957600080fd5b506040519080825280602002602001820160405280156141085781602001602082028036833780820191505090505b508152602001600067ffffffffffffffff8111801561412657600080fd5b506040519080825280602002602001820160405280156141555781602001602082028036833780820191505090505b5081525090806001815401808255809150506001900390600052602060002090600b02016000909190919091506000820151816000015560208201518160010155604082015181600201556060820151816003015560808201518160040160006101000a81548160ff021916908360038111156141ce57fe5b021790555060a0820151816005015560c0820151816006015560e08201518160070190805190602001906142039291906143fd565b506101008201518160080190805190602001906142219291906143fd565b5061012082015181600901908051906020019061423f9291906143fd565b5061014082015181600a01908051906020019061425d9291906145c6565b505050600060076001600780549050038154811061427757fe5b90600052602060002090600b020190508060036000848152602001908152602001600020600082015481600001556001820154816001015560028201548160020155600382015481600301556004820160009054906101000a900460ff168160040160006101000a81548160ff021916908360038111156142f457fe5b0217905550600582015481600501556006820154816006015560078201816007019080546143239291906144ca565b50600882018160080190805461433a9291906144ca565b5060098201816009019080546143519291906144ca565b50600a820181600a01908054614368929190614613565b5090505080600a01869080600181540180825580915050600190039060005260206000200160009091909190915055806008018a9080600181540180825580915050600190039060005260206000200160009091909190915055806009018990806001815401808255809150506001900390600052602060002001600090919091909150558192505050979650505050505050565b828054828255906000526020600020908101928215614439579160200282015b8281111561443857825182559160200191906001019061441d565b5b5090506144469190614665565b5090565b828054600181600116156101000203166002900490600052602060002090601f016020900481019282601f1061448b57805160ff19168380011785556144b9565b828001600101855582156144b9579182015b828111156144b857825182559160200191906001019061449d565b5b5090506144c69190614682565b5090565b82805482825590600052602060002090810192821561450b5760005260206000209182015b8281111561450a5782548255916001019190600101906144ef565b5b5090506145189190614665565b5090565b828054600181600116156101000203166002900490600052602060002090601f016020900481019282601f106145555780548555614592565b8280016001018555821561459257600052602060002091601f016020900482015b82811115614591578254825591600101919060010190614576565b5b50905061459f9190614682565b5090565b604051806101400160405280600a90602082028036833780820191505090505090565b828054828255906000526020600020908101928215614602579160200282015b828111156146015782518255916020019190600101906145e6565b5b50905061460f9190614682565b5090565b8280548282559060005260206000209081019282156146545760005260206000209182015b82811115614653578254825591600101919060010190614638565b5b5090506146619190614682565b5090565b5b8082111561467e576000816000905550600101614666565b5090565b5b8082111561469b576000816000905550600101614683565b509056fe537570706c6965723120646f65736e2774206578697374202f20537570706c6965723220646f65736e2774206578697374456e746572707269736520646f65736e2774206578697374202f20537570706c69657220646f65736e2774206578697374202f20537570706c6965722773206c6576656c20646f65736e27742073756666696365537570706c69657220646f65736e2774206578697374202f2042696c6c20646f65736e2774206578697374202f2042616e6b20646f65736e277420657869737442696c6c20646f65736e27742062656c6f6e6720746f20537570706c696572202f2073706c6974207761792069736e2774206665617369626c652e2042696c6c20646f65736e2774206578697374202f20456e746572707269736520646f65736e2774206578697374202f2042696c6c206973206e6f7420697373756564206279207468697320456e7465727072697365a264697066735822122037bc92333a9d5d166ecbcafa3dba468211017a631d9f10c2b963ca3c15cd755b64736f6c63430007000033",
  "immutableReferences": {},
  "source": "// SPDX-License-Identifier: GPL-3.0\npragma solidity >0.4.0 <0.8.0;\n\ncontract Finance {\n    \n    //\n    enum BillState{Valid, Split, Expired, Done} // Expired: not not writed off yet ; Done: already writed off.\n    \n    //\n    struct TradeDebtBill{\n        bytes32 id;\n        bytes32 issuer; //  \n        uint facevalue; // \n        uint expire_time;// \n        BillState state;\n        bytes32 idOfCR; // ID\n        bytes32 idOfparent; \n        bytes32[] idOfsons; // if it is split, store id of its sons to here.  \n        bytes32[] froms; //  \n        bytes32[] tos; // \n        uint[] times;\n    }\n    \n    // \n    struct CashReceipt{\n        bytes32 id;\n        uint amount;\n        bytes32 idOfTDB; // ID\n        bytes32 from;\n        bytes32 to;\n        uint time;\n    }   \n    \n    // \n    struct Arbitral {\n        bytes32 _id;\n        address _address;\n    }\n    \n    // \n    struct Bank {\n        bytes32 id;\n        bytes32[] idOfBills; // id\n        bytes32[] idOfRecepits;// id\n        string name;\n    }\n\n    //\n    struct Enterprise {\n        bytes32 id;\n        uint totalDebt;//  = \n        bytes32[] idOfBills;\n        bytes32[] idOfRecepits;\n        string name;\n    }\n    \n    //\n    struct Supplier {\n        bytes32 id;\n        uint8 level; // \n        bytes32[] idOfBills;\n        bytes32[] idOfRecepits;\n        string name;\n    }\n    \n    Arbitral public theArbitral;\n\n    mapping(bytes32 => CashReceipt) mapOfCashReceipt;\n    mapping(bytes32 => TradeDebtBill) mapOfTradeDebtBill;\n    mapping(bytes32 => Enterprise) mapOfEnterprise;\n    mapping(bytes32 => Bank) mapOfBank;\n    mapping(bytes32 => Supplier) mapOfSupplier;\n    \n    TradeDebtBill[]  Bills;\n    // TradeDebtBill[] public doneBills;\n    CashReceipt[]  Recepits;\n    Enterprise[]  enterprises;\n    Bank[]  banks;\n    Supplier[]  suppliers;\n    \n    \n    constructor(bytes32 id){\n        theArbitral = Arbitral({\n            _id: id,\n            _address: msg.sender\n        });\n    }\n    \n    // \n    modifier onlytheArbitral{\n        require(msg.sender == theArbitral._address, \"Only arbitral can operate\");\n        _;\n    }\n    \n    // \n    function addBank(bytes32 bankid, string memory _name) onlytheArbitral public returns(bool, string memory) {\n\n        banks.push(Bank({\n            id: bankid, \n            idOfBills: new bytes32[](0),\n            idOfRecepits: new bytes32[](0),\n            name: _name\n        }));\n\n        mapOfBank[bankid] = banks[banks.length - 1];\n        return (true, \"success\");\n    }\n    \n    //\n    function addEnterprise(bytes32 epid, string memory _name) onlytheArbitral public returns(bool, string memory) {\n        \n        enterprises.push(Enterprise({\n            id: epid, \n            totalDebt: 0,\n            idOfBills: new bytes32[](0),\n            idOfRecepits: new bytes32[](0),\n            name: _name\n        }));\n\n        mapOfEnterprise[epid] = enterprises[enterprises.length - 1];\n        return (true, \"success\");\n    }\n    \n    // \n    function addSupplier(bytes32 spid, uint8 _level, string memory _name) onlytheArbitral public returns(bool, string memory) {\n\n        suppliers.push(Supplier({\n            id: spid, \n            level:_level,\n            idOfBills: new bytes32[](0),\n            idOfRecepits: new bytes32[](0),\n            name: _name\n        }));\n\n        mapOfSupplier[spid] = suppliers[suppliers.length - 1];\n        return (true, \"success\");\n    }\n    \n    // \n    function newTradeDebtBill(bytes32 _from, bytes32 _to, bytes32 _issuer, bytes32 _parentid,\n                            uint _init_time, uint _facevalue, uint _expire_time) internal returns(bytes32){\n                                \n        bytes32 _id = keccak256(abi.encodePacked(block.timestamp, _from, _to)); // sha3ID\n\n        Bills.push(TradeDebtBill({\n            id: _id,\n            issuer: _issuer,\n            facevalue: _facevalue,\n            expire_time: _expire_time,\n            state: BillState.Valid,\n            idOfCR: 0x0,\n            idOfsons: new bytes32[](0),\n            froms: new bytes32[](0),\n            tos: new bytes32[](0),\n            times: new uint[](0),\n            idOfparent: _parentid\n        }));\n        \n        TradeDebtBill storage t = Bills[Bills.length - 1];\n        mapOfTradeDebtBill[_id] = t;\n        t.times.push(_init_time); // \n        t.froms.push(_from);\n        t.tos.push(_to);\n\n        return _id;\n    }\n    \n    // \n    function newCashRecepit(bytes32 _from, bytes32 _to, bytes32 _idOfTDB, uint _amount) internal returns(bytes32){\n        bytes32 _id = keccak256(abi.encodePacked(block.timestamp, _from, _to));\n        \n        Recepits.push(CashReceipt({\n            id: _id,\n            idOfTDB: _idOfTDB,\n            amount: _amount,\n            from: _from,\n            to: _to,\n            time: block.timestamp\n        }));\n        \n        CashReceipt storage c = Recepits[Recepits.length - 1];\n        mapOfCashReceipt[_id] = c;\n        return _id;\n    }\n    \n    // \n    function issueTradeDebtBill(bytes32 epid, bytes32 spid, uint tolerate_time, uint _facevalue) onlytheArbitral external returns(bool, bytes32, string memory){\n        Enterprise storage e = mapOfEnterprise[epid];\n        Supplier storage s = mapOfSupplier[spid];\n        \n        require(e.id != 0x0 && s.id != 0x0 && s.level == 1, \n                \"Enterprise doesn't exist / Supplier doesn't exist / Supplier's level doesn't suffice\");\n        \n        bytes32 id = newTradeDebtBill(epid, spid, epid, 0x0, block.timestamp, _facevalue, block.timestamp + tolerate_time);\n        \n        e.totalDebt += _facevalue;\n        \n        e.idOfBills.push(id);\n        s.idOfBills.push(id);\n        \n        return (true, id, \"success\");\n    }\n    \n    //  \n    event billDueToRepay(bytes32 billid, bytes32 epid);\n    \n    //\n    function CheckUpdateBillState(bytes32 billid) onlytheArbitral internal returns(bool){\n        TradeDebtBill storage b = mapOfTradeDebtBill[billid];\n\n        require(b.id != 0x0 , \"Bill is not existed.\");\n\n        if(block.timestamp < b.expire_time) return true;\n\n        if(b.state == BillState.Valid || b.state == BillState.Expired){\n            b.state = BillState.Expired;\n            emit billDueToRepay(billid, b.issuer);\n        }\n\n        return false;\n    }\n    \n    // \n    function transferBillbetweenSuppliers(bytes32 spid1, bytes32 spid2, bytes32 billid) onlytheArbitral external returns(bool, string memory){\n        Supplier storage s1 = mapOfSupplier[spid1];\n        Supplier storage s2 = mapOfSupplier[spid2];\n        TradeDebtBill storage b = mapOfTradeDebtBill[billid];\n        \n        require(s1.id != 0x0 && s2.id != 0x0, \"Supplier1 doesn't exist / Supplier2 doesn't exist\");  \n\n        if(!CheckUpdateBillState(billid)){\n            return(false, \"failed\");\n        }\n\n        require(b.state != BillState.Split, \"Bill is Split\");\n\n        uint ridx = b.froms.length - 1; // index\n        require(b.tos[ridx] ==  spid1, \"Bill doesn't belong to Supplier1\");\n\n        b.froms.push(spid1); // \n        b.tos.push(spid2);\n        b.times.push(block.timestamp);\n        \n        s2.idOfBills.push(billid);\n\n        return (true, \"success\");\n    }\n    \n    // \n    function billSplitBySupplier(bytes32 billid, bytes32 spid, uint[] memory ways) onlytheArbitral external returns(bool, string memory, bytes32[10] memory){\n        TradeDebtBill storage b = mapOfTradeDebtBill[billid];\n        Supplier storage s = mapOfSupplier[spid];\n        bytes32[10] memory newbillids; // ID 10\n        \n        require(s.id != 0x0 , \"Supplier doesn't exist\");  \n        if(!CheckUpdateBillState(billid)){\n            return(false, \"failed\", newbillids);\n        }\n        require(b.state != BillState.Split, \"Bill is Split\");\n        \n\n        uint ridx = b.froms.length - 1;\n        require(b.tos[ridx] ==  spid && ways.length <= 10, \"Bill doesn't belong to Supplier / split way isn't feasible.\");\n\n        //\n        uint sum = 0;\n        for(uint i = 0; i < ways.length; i++){\n            require(ways[i] > 0, \"split way isn't feasible.\");\n            sum += ways[i];\n        }\n        require(sum == b.facevalue, \"split way isn't feasible.\");\n\n        //  stack too deep\n        uint expire_time = b.expire_time;\n        bytes32 issuer = b.issuer;\n        bytes32 bid = billid;\n        bytes32 sid = spid;\n        bytes32 _from = b.froms[b.froms.length - 1];\n        \n        //\n        for(uint i = 0; i < ways.length; i++){\n            uint v = ways[i];\n            newbillids[i] = newTradeDebtBill(_from,sid,issuer,bid,block.timestamp,v,expire_time);\n            b.idOfsons.push(newbillids[i]);\n            s.idOfBills.push(newbillids[i]);\n        }\n\n        b.state = BillState.Split;\n        \n        //ID\n        return(true, \"success\", newbillids);\n        \n    }\n    \n    \n    // \n    function supplierFinancingfromBank(bytes32 billid, bytes32 spid, bytes32 bankid, uint rate) onlytheArbitral external returns(bool, string memory, bytes32){\n        TradeDebtBill storage bi = mapOfTradeDebtBill[billid];\n        Supplier storage s = mapOfSupplier[spid];\n        Bank storage ba = mapOfBank[bankid];\n\n        require(s.id != 0x0 && bi.id != 0x0 && ba.id != 0x0, \n                \"Supplier doesn't exist / Bill doesn't exist / Bank doesn't exist\");\n        bytes32 newrepid; // ID\n\n        if(!CheckUpdateBillState(billid)){\n            return(false, \"failed\", newrepid);\n        }\n        require(bi.state != BillState.Split, \"Bill is Split\");\n        \n        \n        uint ridx = bi.froms.length - 1;\n        require(bi.tos[ridx] ==  spid , \"Bill doesn't belong to Supplier \");\n\n        uint amount = bi.facevalue * rate / 1000; //  rate\n\n        //\n        newrepid = newCashRecepit(bankid, spid, billid, amount);\n        bi.froms.push(spid);\n        bi.tos.push(bankid);\n        bi.times.push(block.timestamp);\n        bi.idOfCR = newrepid;\n        \n        ba.idOfRecepits.push(newrepid);\n        ba.idOfBills.push(billid);\n        s.idOfRecepits.push(newrepid);\n        \n        return(true, \"success\", newrepid);\n\n    }\n    \n    // \n    function enterpriseRepay(bytes32 billid, bytes32 epid) onlytheArbitral external returns(bool, string memory, bytes32){\n\n        TradeDebtBill storage b = mapOfTradeDebtBill[billid];\n        Enterprise storage e = mapOfEnterprise[epid];\n\n        require(b.id != 0x0 && e.id != 0x0 && b.issuer == epid, \" Bill doesn't exist / Enterprise doesn't exist / Bill is not issued by this Enterprise\");\n\n        uint amount = b.facevalue;\n        bytes32 debtorid = b.tos[b.tos.length - 1]; //  \n        bytes32 newrepid = newCashRecepit(epid, debtorid, billid, amount);\n        \n\n        b.froms.push(debtorid);\n        b.tos.push(0x0);// 0\n        b.times.push(block.timestamp);\n        b.idOfCR = newrepid;\n        b.state = BillState.Done;\n        e.idOfRecepits.push(newrepid);\n\n        // id\n        if(b.idOfparent != 0x0){\n            e.idOfBills.push(billid);\n        }\n        \n        //id\n        if(mapOfSupplier[debtorid].id != 0x0){\n            mapOfSupplier[debtorid].idOfRecepits.push(newrepid);\n        }else{\n            mapOfBank[debtorid].idOfRecepits.push(newrepid);\n        }\n        \n        require(amount <= e.totalDebt, \"Accounting errors.\");\n        e.totalDebt -= amount;\n\n        return(true, \"success\", newrepid);\n    }\n    \n    // functions of get Informations\n    function getSupplierCount() public view returns(uint){\n        return suppliers.length;\n    }\n    \n    function getBankCount() public view returns(uint){\n        return banks.length;\n    }\n    \n    function getBillCount() public view returns(uint){\n        return Bills.length;\n    }\n    \n    function getRecepitCount() public view returns(uint){\n        return Recepits.length;\n    }\n    \n    function getEnterpriseCount() public view returns(uint){\n        return enterprises.length;\n    }\n        \n    function getBillBasicInfo(bytes32 billid) public returns(bytes32, bytes32, uint, uint, BillState, bytes32){\n        CheckUpdateBillState(billid);\n        TradeDebtBill storage b = mapOfTradeDebtBill[billid];\n        return(b.id, b.issuer, b.facevalue, b.expire_time, b.state, b.idOfCR);\n    }\n    \n    function getBillHistory(bytes32 billid) public returns(uint[] memory, bytes32[] memory, bytes32[] memory){\n        CheckUpdateBillState(billid);\n        TradeDebtBill storage b = mapOfTradeDebtBill[billid];\n        return(b.times, b.froms, b.tos);\n    }\n    \n    function getBillSplitInfo(bytes32 billid) public returns(bytes32, bytes32[]memory){\n        CheckUpdateBillState(billid);\n        TradeDebtBill storage b = mapOfTradeDebtBill[billid];\n        return(b.idOfparent, b.idOfsons);\n    }\n    \n    function getRecepitInfo(bytes32 repid) public view returns(uint, bytes32, bytes32, bytes32){\n        CashReceipt storage r = mapOfCashReceipt[repid];\n        return(r.amount, r.idOfTDB, r.from, r.to);\n    }\n    \n    function getBankBasicInfo(bytes32 id) public view returns(uint, uint, string memory){\n        Bank storage b = mapOfBank[id];\n        return( b.idOfBills.length, b.idOfRecepits.length, b.name);\n    }\n    \n    function getSupplierBasicInfo(bytes32 id) public view returns(uint, uint, uint, string memory){\n        Supplier storage s = mapOfSupplier[id];\n        return(s.level, s.idOfBills.length, s.idOfRecepits.length, s.name);\n    }\n    \n    function getEnterpriseBasicInfo(bytes32 id) public view returns(uint, uint, uint , string memory){\n        Enterprise storage e = mapOfEnterprise[id];\n        return(e.totalDebt, e.idOfBills.length, e.idOfRecepits.length, e.name);\n    }\n    \n    function getAllofSupplierBillsid(bytes32 id) public view returns(bytes32[] memory){\n        Supplier storage s = mapOfSupplier[id];\n        return(s.idOfBills);\n    }\n    \n    function getAllofBankBillsid(bytes32 id) public view returns(bytes32[] memory){\n        Bank storage b = mapOfBank[id];\n        return(b.idOfBills);\n    }\n    \n    function getAllofEnterpriseBillsid(bytes32 id) public view returns(bytes32[] memory){\n        Enterprise storage e = mapOfEnterprise[id];\n        return(e.idOfBills);\n    }\n    \n    function getAllofSupplierRecepitsid(bytes32 id) public view returns(bytes32[] memory){\n        Supplier storage s = mapOfSupplier[id];\n        return(s.idOfRecepits);\n    }\n    \n    function getAllofBankRecepitsid(bytes32 id) public view returns(bytes32[] memory){\n        Bank storage b = mapOfBank[id];\n        return(b.idOfRecepits);\n    }\n    \n    function getAllofEnterpriseRecepitsid(bytes32 id) public view returns(bytes32[] memory){\n        Enterprise storage e = mapOfEnterprise[id];\n        return(e.idOfRecepits);\n    }\n    \n\n    function withdraw(uint amount) onlytheArbitral public{\n        require(amount < 1e20);\n        msg.sender.transfer(amount);\n    }\n    \n    fallback() external payable{}\n    receive() external payable{}\n\n}",
  "sourcePath": "/Users/newguo/projects/blockchain-supplychainFinance/supplychain_finance/contracts/Finance.sol",
  "compiler": {
    "name": "solc",
    "version": "0.7.0+commit.9e61f92b.Emscripten.clang"
  },
  "schemaVersion": "3.2.3",
  "updatedAt": "2020-08-14T12:01:11.012Z",
  "devdoc": {
    "kind": "dev",
    "methods": {},
    "version": 1
  },
  "userdoc": {
    "kind": "user",
    "methods": {},
    "version": 1
  }
}