{
  "contractName": "Finance",
  "abi": [
    {
      "inputs": [
        {
          "internalType": "bytes32",
          "name": "id",
          "type": "bytes32"
        }
      ],
      "stateMutability": "nonpayable",
      "type": "constructor"
    },
    {
      "anonymous": false,
      "inputs": [
        {
          "indexed": false,
          "internalType": "bytes32",
          "name": "billid",
          "type": "bytes32"
        },
        {
          "indexed": false,
          "internalType": "bytes32",
          "name": "epid",
          "type": "bytes32"
        }
      ],
      "name": "billDueToRepay",
      "type": "event"
    },
    {
      "stateMutability": "payable",
      "type": "fallback",
      "payable": true
    },
    {
      "inputs": [],
      "name": "theArbitral",
      "outputs": [
        {
          "internalType": "bytes32",
          "name": "_id",
          "type": "bytes32"
        },
        {
          "internalType": "address",
          "name": "_address",
          "type": "address"
        }
      ],
      "stateMutability": "view",
      "type": "function",
      "constant": true
    },
    {
      "stateMutability": "payable",
      "type": "receive",
      "payable": true
    },
    {
      "inputs": [
        {
          "internalType": "bytes32",
          "name": "bankid",
          "type": "bytes32"
        },
        {
          "internalType": "uint256",
          "name": "r",
          "type": "uint256"
        },
        {
          "internalType": "string",
          "name": "_name",
          "type": "string"
        }
      ],
      "name": "addBank",
      "outputs": [
        {
          "internalType": "bool",
          "name": "",
          "type": "bool"
        },
        {
          "internalType": "string",
          "name": "",
          "type": "string"
        }
      ],
      "stateMutability": "nonpayable",
      "type": "function"
    },
    {
      "inputs": [
        {
          "internalType": "bytes32",
          "name": "epid",
          "type": "bytes32"
        },
        {
          "internalType": "string",
          "name": "_name",
          "type": "string"
        }
      ],
      "name": "addEnterprise",
      "outputs": [
        {
          "internalType": "bool",
          "name": "",
          "type": "bool"
        },
        {
          "internalType": "string",
          "name": "",
          "type": "string"
        }
      ],
      "stateMutability": "nonpayable",
      "type": "function"
    },
    {
      "inputs": [
        {
          "internalType": "bytes32",
          "name": "spid",
          "type": "bytes32"
        },
        {
          "internalType": "uint8",
          "name": "_level",
          "type": "uint8"
        },
        {
          "internalType": "string",
          "name": "_name",
          "type": "string"
        }
      ],
      "name": "addSupplier",
      "outputs": [
        {
          "internalType": "bool",
          "name": "",
          "type": "bool"
        },
        {
          "internalType": "string",
          "name": "",
          "type": "string"
        }
      ],
      "stateMutability": "nonpayable",
      "type": "function"
    },
    {
      "inputs": [
        {
          "internalType": "bytes32",
          "name": "epid",
          "type": "bytes32"
        },
        {
          "internalType": "bytes32",
          "name": "spid",
          "type": "bytes32"
        },
        {
          "internalType": "uint256",
          "name": "tolerate_time",
          "type": "uint256"
        },
        {
          "internalType": "uint256",
          "name": "_facevalue",
          "type": "uint256"
        }
      ],
      "name": "issueTradeDebtBill",
      "outputs": [
        {
          "internalType": "bool",
          "name": "",
          "type": "bool"
        },
        {
          "internalType": "bytes32",
          "name": "",
          "type": "bytes32"
        },
        {
          "internalType": "string",
          "name": "",
          "type": "string"
        }
      ],
      "stateMutability": "nonpayable",
      "type": "function"
    },
    {
      "inputs": [
        {
          "internalType": "bytes32",
          "name": "spid1",
          "type": "bytes32"
        },
        {
          "internalType": "bytes32",
          "name": "spid2",
          "type": "bytes32"
        },
        {
          "internalType": "bytes32",
          "name": "billid",
          "type": "bytes32"
        }
      ],
      "name": "transferBillbetweenSuppliers",
      "outputs": [
        {
          "internalType": "bool",
          "name": "",
          "type": "bool"
        },
        {
          "internalType": "string",
          "name": "",
          "type": "string"
        }
      ],
      "stateMutability": "nonpayable",
      "type": "function"
    },
    {
      "inputs": [
        {
          "internalType": "bytes32",
          "name": "billid",
          "type": "bytes32"
        },
        {
          "internalType": "bytes32",
          "name": "spid",
          "type": "bytes32"
        },
        {
          "internalType": "uint256[]",
          "name": "ways",
          "type": "uint256[]"
        }
      ],
      "name": "billSplitBySupplier",
      "outputs": [
        {
          "internalType": "bool",
          "name": "",
          "type": "bool"
        },
        {
          "internalType": "string",
          "name": "",
          "type": "string"
        },
        {
          "internalType": "bytes32[10]",
          "name": "",
          "type": "bytes32[10]"
        }
      ],
      "stateMutability": "nonpayable",
      "type": "function"
    },
    {
      "inputs": [
        {
          "internalType": "bytes32",
          "name": "billid",
          "type": "bytes32"
        },
        {
          "internalType": "bytes32",
          "name": "spid",
          "type": "bytes32"
        },
        {
          "internalType": "bytes32",
          "name": "bankid",
          "type": "bytes32"
        }
      ],
      "name": "supplierFinancingfromBank",
      "outputs": [
        {
          "internalType": "bool",
          "name": "",
          "type": "bool"
        },
        {
          "internalType": "string",
          "name": "",
          "type": "string"
        },
        {
          "internalType": "bytes32",
          "name": "",
          "type": "bytes32"
        }
      ],
      "stateMutability": "nonpayable",
      "type": "function"
    },
    {
      "inputs": [
        {
          "internalType": "bytes32",
          "name": "billid",
          "type": "bytes32"
        },
        {
          "internalType": "bytes32",
          "name": "epid",
          "type": "bytes32"
        }
      ],
      "name": "enterpriseRepay",
      "outputs": [
        {
          "internalType": "bool",
          "name": "",
          "type": "bool"
        },
        {
          "internalType": "string",
          "name": "",
          "type": "string"
        },
        {
          "internalType": "bytes32",
          "name": "",
          "type": "bytes32"
        }
      ],
      "stateMutability": "nonpayable",
      "type": "function"
    },
    {
      "inputs": [],
      "name": "getSupplierCount",
      "outputs": [
        {
          "internalType": "uint256",
          "name": "",
          "type": "uint256"
        }
      ],
      "stateMutability": "view",
      "type": "function",
      "constant": true
    },
    {
      "inputs": [],
      "name": "getBankCount",
      "outputs": [
        {
          "internalType": "uint256",
          "name": "",
          "type": "uint256"
        }
      ],
      "stateMutability": "view",
      "type": "function",
      "constant": true
    },
    {
      "inputs": [],
      "name": "getBillCount",
      "outputs": [
        {
          "internalType": "uint256",
          "name": "",
          "type": "uint256"
        }
      ],
      "stateMutability": "view",
      "type": "function",
      "constant": true
    },
    {
      "inputs": [],
      "name": "getRecepitCount",
      "outputs": [
        {
          "internalType": "uint256",
          "name": "",
          "type": "uint256"
        }
      ],
      "stateMutability": "view",
      "type": "function",
      "constant": true
    },
    {
      "inputs": [],
      "name": "getEnterpriseCount",
      "outputs": [
        {
          "internalType": "uint256",
          "name": "",
          "type": "uint256"
        }
      ],
      "stateMutability": "view",
      "type": "function",
      "constant": true
    },
    {
      "inputs": [
        {
          "internalType": "bytes32",
          "name": "billid",
          "type": "bytes32"
        }
      ],
      "name": "getBillBasicInfo",
      "outputs": [
        {
          "internalType": "bytes32",
          "name": "",
          "type": "bytes32"
        },
        {
          "internalType": "bytes32",
          "name": "",
          "type": "bytes32"
        },
        {
          "internalType": "uint256",
          "name": "",
          "type": "uint256"
        },
        {
          "internalType": "uint256",
          "name": "",
          "type": "uint256"
        },
        {
          "internalType": "enum Finance.BillState",
          "name": "",
          "type": "uint8"
        },
        {
          "internalType": "bytes32",
          "name": "",
          "type": "bytes32"
        }
      ],
      "stateMutability": "nonpayable",
      "type": "function"
    },
    {
      "inputs": [
        {
          "internalType": "bytes32",
          "name": "billid",
          "type": "bytes32"
        }
      ],
      "name": "getBillHistory",
      "outputs": [
        {
          "internalType": "uint256[]",
          "name": "",
          "type": "uint256[]"
        },
        {
          "internalType": "bytes32[]",
          "name": "",
          "type": "bytes32[]"
        },
        {
          "internalType": "bytes32[]",
          "name": "",
          "type": "bytes32[]"
        }
      ],
      "stateMutability": "nonpayable",
      "type": "function"
    },
    {
      "inputs": [
        {
          "internalType": "bytes32",
          "name": "billid",
          "type": "bytes32"
        }
      ],
      "name": "getBillSplitInfo",
      "outputs": [
        {
          "internalType": "bytes32",
          "name": "",
          "type": "bytes32"
        },
        {
          "internalType": "bytes32[]",
          "name": "",
          "type": "bytes32[]"
        }
      ],
      "stateMutability": "nonpayable",
      "type": "function"
    },
    {
      "inputs": [
        {
          "internalType": "bytes32",
          "name": "repid",
          "type": "bytes32"
        }
      ],
      "name": "getRecepitInfo",
      "outputs": [
        {
          "internalType": "uint256",
          "name": "",
          "type": "uint256"
        },
        {
          "internalType": "bytes32",
          "name": "",
          "type": "bytes32"
        },
        {
          "internalType": "bytes32",
          "name": "",
          "type": "bytes32"
        },
        {
          "internalType": "bytes32",
          "name": "",
          "type": "bytes32"
        }
      ],
      "stateMutability": "view",
      "type": "function",
      "constant": true
    },
    {
      "inputs": [
        {
          "internalType": "bytes32",
          "name": "id",
          "type": "bytes32"
        }
      ],
      "name": "getBankBasicInfo",
      "outputs": [
        {
          "internalType": "uint256",
          "name": "",
          "type": "uint256"
        },
        {
          "internalType": "uint256",
          "name": "",
          "type": "uint256"
        },
        {
          "internalType": "uint256",
          "name": "",
          "type": "uint256"
        },
        {
          "internalType": "string",
          "name": "",
          "type": "string"
        }
      ],
      "stateMutability": "view",
      "type": "function",
      "constant": true
    },
    {
      "inputs": [
        {
          "internalType": "bytes32",
          "name": "id",
          "type": "bytes32"
        }
      ],
      "name": "getSupplierBasicInfo",
      "outputs": [
        {
          "internalType": "uint256",
          "name": "",
          "type": "uint256"
        },
        {
          "internalType": "uint256",
          "name": "",
          "type": "uint256"
        },
        {
          "internalType": "uint256",
          "name": "",
          "type": "uint256"
        },
        {
          "internalType": "string",
          "name": "",
          "type": "string"
        }
      ],
      "stateMutability": "view",
      "type": "function",
      "constant": true
    },
    {
      "inputs": [
        {
          "internalType": "bytes32",
          "name": "id",
          "type": "bytes32"
        }
      ],
      "name": "getEnterpriseBasicInfo",
      "outputs": [
        {
          "internalType": "uint256",
          "name": "",
          "type": "uint256"
        },
        {
          "internalType": "uint256",
          "name": "",
          "type": "uint256"
        },
        {
          "internalType": "uint256",
          "name": "",
          "type": "uint256"
        },
        {
          "internalType": "string",
          "name": "",
          "type": "string"
        }
      ],
      "stateMutability": "view",
      "type": "function",
      "constant": true
    },
    {
      "inputs": [
        {
          "internalType": "bytes32",
          "name": "id",
          "type": "bytes32"
        }
      ],
      "name": "getAllofSupplierBillsid",
      "outputs": [
        {
          "internalType": "bytes32[]",
          "name": "",
          "type": "bytes32[]"
        }
      ],
      "stateMutability": "view",
      "type": "function",
      "constant": true
    },
    {
      "inputs": [
        {
          "internalType": "bytes32",
          "name": "id",
          "type": "bytes32"
        }
      ],
      "name": "getAllofBankBillsid",
      "outputs": [
        {
          "internalType": "bytes32[]",
          "name": "",
          "type": "bytes32[]"
        }
      ],
      "stateMutability": "view",
      "type": "function",
      "constant": true
    },
    {
      "inputs": [
        {
          "internalType": "bytes32",
          "name": "id",
          "type": "bytes32"
        }
      ],
      "name": "getAllofEnterpriseBillsid",
      "outputs": [
        {
          "internalType": "bytes32[]",
          "name": "",
          "type": "bytes32[]"
        }
      ],
      "stateMutability": "view",
      "type": "function",
      "constant": true
    },
    {
      "inputs": [
        {
          "internalType": "bytes32",
          "name": "id",
          "type": "bytes32"
        }
      ],
      "name": "getAllofSupplierRecepitsid",
      "outputs": [
        {
          "internalType": "bytes32[]",
          "name": "",
          "type": "bytes32[]"
        }
      ],
      "stateMutability": "view",
      "type": "function",
      "constant": true
    },
    {
      "inputs": [
        {
          "internalType": "bytes32",
          "name": "id",
          "type": "bytes32"
        }
      ],
      "name": "getAllofBankRecepitsid",
      "outputs": [
        {
          "internalType": "bytes32[]",
          "name": "",
          "type": "bytes32[]"
        }
      ],
      "stateMutability": "view",
      "type": "function",
      "constant": true
    },
    {
      "inputs": [
        {
          "internalType": "bytes32",
          "name": "id",
          "type": "bytes32"
        }
      ],
      "name": "getAllofEnterpriseRecepitsid",
      "outputs": [
        {
          "internalType": "bytes32[]",
          "name": "",
          "type": "bytes32[]"
        }
      ],
      "stateMutability": "view",
      "type": "function",
      "constant": true
    }
  ],
  "bytecode": "0x608060405234801561001057600080fd5b50604051620047b4380380620047b48339818101604052602081101561003557600080fd5b810190808051906020019092919050505060405180604001604052808281526020013373ffffffffffffffffffffffffffffffffffffffff16815250600080820151816000015560208201518160010160006101000a81548173ffffffffffffffffffffffffffffffffffffffff021916908373ffffffffffffffffffffffffffffffffffffffff160217905550905050506146dd80620000d76000396000f3fe6080604052600436106101a05760003560e01c80637386c9a7116100ec578063ba25a5f71161008a578063ef0ddc0c11610064578063ef0ddc0c14611100578063f185e30014611190578063f7a992a114611220578063fc94d051146112b0576101a7565b8063ba25a5f714610f25578063c0a2f30414610fb5578063c90edbfa14611083576101a7565b80638c7977ed116100c65780638c7977ed14610c615780639f3ef7e314610d43578063b10b733914610e0c578063b353334914610edd576101a7565b80637386c9a714610add57806375a010c914610b415780638936f96a14610bd1576101a7565b80632e44715d116101595780634af999b3116101335780634af999b31461082557806352d07cd0146109af578063583ea555146109da5780635b89707514610ab2576101a7565b80632e44715d1461057c57806336ed731a146105a75780633b8e661d14610705576101a7565b80631883c7cc146101a957806323218e5f146101d457806326cb93c5146101ff57806326cf81a7146102c85780632b78c076146103915780632c4a7e5a14610428576101a7565b366101a757005b005b3480156101b557600080fd5b506101be611411565b6040518082815260200191505060405180910390f35b3480156101e057600080fd5b506101e961141e565b6040518082815260200191505060405180910390f35b34801561020b57600080fd5b506102386004803603602081101561022257600080fd5b810190808035906020019092919050505061142b565b6040518085815260200184815260200183815260200180602001828103825283818151815260200191508051906020019080838360005b8381101561028a57808201518184015260208101905061026f565b50505050905090810190601f1680156102b75780820380516001836020036101000a031916815260200191505b509550505050505060405180910390f35b3480156102d457600080fd5b50610301600480360360208110156102eb57600080fd5b8101908080359060200190929190505050611521565b6040518085815260200184815260200183815260200180602001828103825283818151815260200191508051906020019080838360005b83811015610353578082015181840152602081019050610338565b50505050905090810190601f1680156103805780820380516001836020036101000a031916815260200191505b509550505050505060405180910390f35b34801561039d57600080fd5b506103ca600480360360208110156103b457600080fd5b8101908080359060200190929190505050611604565b6040518083815260200180602001828103825283818151815260200191508051906020019060200280838360005b838110156104135780820151818401526020810190506103f8565b50505050905001935050505060405180910390f35b34801561043457600080fd5b506104f86004803603604081101561044b57600080fd5b81019080803590602001909291908035906020019064010000000081111561047257600080fd5b82018360208201111561048457600080fd5b803590602001918460018302840111640100000000831117156104a657600080fd5b91908080601f016020809104026020016040519081016040528093929190818152602001838380828437600081840152601f19601f82011690508083019250505050505050919291929050505061168e565b60405180831515815260200180602001828103825283818151815260200191508051906020019080838360005b83811015610540578082015181840152602081019050610525565b50505050905090810190601f16801561056d5780820380516001836020036101000a031916815260200191505b50935050505060405180910390f35b34801561058857600080fd5b5061059161198c565b6040518082815260200191505060405180910390f35b3480156105b357600080fd5b50610681600480360360608110156105ca57600080fd5b810190808035906020019092919080359060200190929190803590602001906401000000008111156105fb57600080fd5b82018360208201111561060d57600080fd5b8035906020019184600183028401116401000000008311171561062f57600080fd5b91908080601f016020809104026020016040519081016040528093929190818152602001838380828437600081840152601f19601f820116905080830192505050505050509192919290505050611999565b60405180831515815260200180602001828103825283818151815260200191508051906020019080838360005b838110156106c95780820151818401526020810190506106ae565b50505050905090810190601f1680156106f65780820380516001836020036101000a031916815260200191505b50935050505060405180910390f35b34801561071157600080fd5b5061073e6004803603602081101561072857600080fd5b8101908080359060200190929190505050611c97565b60405180806020018060200180602001848103845287818151815260200191508051906020019060200280838360005b8381101561078957808201518184015260208101905061076e565b50505050905001848103835286818151815260200191508051906020019060200280838360005b838110156107cb5780820151818401526020810190506107b0565b50505050905001848103825285818151815260200191508051906020019060200280838360005b8381101561080d5780820151818401526020810190506107f2565b50505050905001965050505050505060405180910390f35b34801561083157600080fd5b506108fc6004803603606081101561084857600080fd5b8101908080359060200190929190803590602001909291908035906020019064010000000081111561087957600080fd5b82018360208201111561088b57600080fd5b803590602001918460208302840111640100000000831117156108ad57600080fd5b919080806020026020016040519081016040528093929190818152602001838360200280828437600081840152601f19601f820116905080830192505050505050509192919290505050611dcd565b6040518084151581526020018060200183600a60200280838360005b83811015610933578082015181840152602081019050610918565b50505050905001828103825284818151815260200191508051906020019080838360005b83811015610972578082015181840152602081019050610957565b50505050905090810190601f16801561099f5780820380516001836020036101000a031916815260200191505b5094505050505060405180910390f35b3480156109bb57600080fd5b506109c4612393565b6040518082815260200191505060405180910390f35b3480156109e657600080fd5b50610a27600480360360608110156109fd57600080fd5b810190808035906020019092919080359060200190929190803590602001909291905050506123a0565b60405180841515815260200180602001838152602001828103825284818151815260200191508051906020019080838360005b83811015610a75578082015181840152602081019050610a5a565b50505050905090810190601f168015610aa25780820380516001836020036101000a031916815260200191505b5094505050505060405180910390f35b348015610abe57600080fd5b50610ac761284b565b6040518082815260200191505060405180910390f35b348015610ae957600080fd5b50610b1660048036036020811015610b0057600080fd5b8101908080359060200190929190505050612858565b6040518085815260200184815260200183815260200182815260200194505050505060405180910390f35b348015610b4d57600080fd5b50610b7a60048036036020811015610b6457600080fd5b8101908080359060200190929190505050612899565b6040518080602001828103825283818151815260200191508051906020019060200280838360005b83811015610bbd578082015181840152602081019050610ba2565b505050509050019250505060405180910390f35b348015610bdd57600080fd5b50610c0a60048036036020811015610bf457600080fd5b810190808035906020019092919050505061290d565b6040518080602001828103825283818151815260200191508051906020019060200280838360005b83811015610c4d578082015181840152602081019050610c32565b505050509050019250505060405180910390f35b348015610c6d57600080fd5b50610cb860048036036080811015610c8457600080fd5b8101908080359060200190929190803590602001909291908035906020019092919080359060200190929190505050612981565b60405180841515815260200183815260200180602001828103825283818151815260200191508051906020019080838360005b83811015610d06578082015181840152602081019050610ceb565b50505050905090810190601f168015610d335780820380516001836020036101000a031916815260200191505b5094505050505060405180910390f35b348015610d4f57600080fd5b50610d7c60048036036020811015610d6657600080fd5b8101908080359060200190929190505050612bd9565b6040518085815260200184815260200183815260200180602001828103825283818151815260200191508051906020019080838360005b83811015610dce578082015181840152602081019050610db3565b50505050905090810190601f168015610dfb5780820380516001836020036101000a031916815260200191505b509550505050505060405180910390f35b348015610e1857600080fd5b50610e5960048036036060811015610e2f57600080fd5b81019080803590602001909291908035906020019092919080359060200190929190505050612cbc565b60405180831515815260200180602001828103825283818151815260200191508051906020019080838360005b83811015610ea1578082015181840152602081019050610e86565b50505050905090810190601f168015610ece5780820380516001836020036101000a031916815260200191505b50935050505060405180910390f35b348015610ee957600080fd5b50610ef26130bf565b604051808381526020018273ffffffffffffffffffffffffffffffffffffffff1681526020019250505060405180910390f35b348015610f3157600080fd5b50610f5e60048036036020811015610f4857600080fd5b81019080803590602001909291905050506130f1565b6040518080602001828103825283818151815260200191508051906020019060200280838360005b83811015610fa1578082015181840152602081019050610f86565b505050509050019250505060405180910390f35b348015610fc157600080fd5b50610ff860048036036040811015610fd857600080fd5b810190808035906020019092919080359060200190929190505050613165565b60405180841515815260200180602001838152602001828103825284818151815260200191508051906020019080838360005b8381101561104657808201518184015260208101905061102b565b50505050905090810190601f1680156110735780820380516001836020036101000a031916815260200191505b5094505050505060405180910390f35b34801561108f57600080fd5b506110bc600480360360208110156110a657600080fd5b81019080803590602001909291905050506135b2565b604051808781526020018681526020018581526020018481526020018360038111156110e457fe5b8152602001828152602001965050505050505060405180910390f35b34801561110c57600080fd5b506111396004803603602081101561112357600080fd5b810190808035906020019092919050505061361d565b6040518080602001828103825283818151815260200191508051906020019060200280838360005b8381101561117c578082015181840152602081019050611161565b505050509050019250505060405180910390f35b34801561119c57600080fd5b506111c9600480360360208110156111b357600080fd5b8101908080359060200190929190505050613691565b6040518080602001828103825283818151815260200191508051906020019060200280838360005b8381101561120c5780820151818401526020810190506111f1565b505050509050019250505060405180910390f35b34801561122c57600080fd5b506112596004803603602081101561124357600080fd5b8101908080359060200190929190505050613705565b6040518080602001828103825283818151815260200191508051906020019060200280838360005b8381101561129c578082015181840152602081019050611281565b505050509050019250505060405180910390f35b3480156112bc57600080fd5b5061138d600480360360608110156112d357600080fd5b8101908080359060200190929190803560ff1690602001909291908035906020019064010000000081111561130757600080fd5b82018360208201111561131957600080fd5b8035906020019184600183028401116401000000008311171561133b57600080fd5b91908080601f016020809104026020016040519081016040528093929190818152602001838380828437600081840152601f19601f820116905080830192505050505050509192919290505050613779565b60405180831515815260200180602001828103825283818151815260200191508051906020019080838360005b838110156113d55780820151818401526020810190506113ba565b50505050905090810190601f1680156114025780820380516001836020036101000a031916815260200191505b50935050505060405180910390f35b6000600780549050905090565b6000600b80549050905090565b6000806000606060006006600087815260200190815260200160002090508060010160009054906101000a900460ff1681600201805490508260030180549050836004018360ff169350808054600181600116156101000203166002900480601f01602080910402602001604051908101604052809291908181526020018280546001816001161561010002031660029004801561150a5780601f106114df5761010080835404028352916020019161150a565b820191906000526020600020905b8154815290600101906020018083116114ed57829003601f168201915b505050505090509450945094509450509193509193565b60008060006060600060056000878152602001908152602001600020905080600101548160020180549050826003018054905083600401808054600181600116156101000203166002900480601f0160208091040260200160405190810160405280929190818152602001828054600181600116156101000203166002900480156115ed5780601f106115c2576101008083540402835291602001916115ed565b820191906000526020600020905b8154815290600101906020018083116115d057829003601f168201915b505050505090509450945094509450509193509193565b6000606061161183613ab5565b5060006003600085815260200190815260200160002090508060060154816007018080548060200260200160405190810160405280929190818152602001828054801561167d57602002820191906000526020600020905b815481526020019060010190808311611669575b505050505090509250925050915091565b60006060600060010160009054906101000a900473ffffffffffffffffffffffffffffffffffffffff1673ffffffffffffffffffffffffffffffffffffffff163373ffffffffffffffffffffffffffffffffffffffff1614611758576040517f08c379a00000000000000000000000000000000000000000000000000000000081526004018080602001828103825260198152602001807f4f6e6c7920617262697472616c2063616e206f7065726174650000000000000081525060200191505060405180910390fd5b60096040518060a0016040528086815260200160008152602001600067ffffffffffffffff8111801561178a57600080fd5b506040519080825280602002602001820160405280156117b95781602001602082028036833780820191505090505b508152602001600067ffffffffffffffff811180156117d757600080fd5b506040519080825280602002602001820160405280156118065781602001602082028036833780820191505090505b508152602001858152509080600181540180825580915050600190039060005260206000209060050201600090919091909150600082015181600001556020820151816001015560408201518160020190805190602001906118699291906142af565b5060608201518160030190805190602001906118869291906142af565b5060808201518160040190805190602001906118a39291906142fc565b5050506009600160098054905003815481106118bb57fe5b9060005260206000209060050201600460008681526020019081526020016000206000820154816000015560018201548160010155600282018160020190805461190692919061437c565b50600382018160030190805461191d92919061437c565b50600482018160040190805460018160011615610100020316600290046119459291906143ce565b5090505060016040518060400160405280600781526020017f7375636365737300000000000000000000000000000000000000000000000000815250915091509250929050565b6000600a80549050905090565b60006060600060010160009054906101000a900473ffffffffffffffffffffffffffffffffffffffff1673ffffffffffffffffffffffffffffffffffffffff163373ffffffffffffffffffffffffffffffffffffffff1614611a63576040517f08c379a00000000000000000000000000000000000000000000000000000000081526004018080602001828103825260198152602001807f4f6e6c7920617262697472616c2063616e206f7065726174650000000000000081525060200191505060405180910390fd5b600a6040518060a00160405280878152602001868152602001600067ffffffffffffffff81118015611a9457600080fd5b50604051908082528060200260200182016040528015611ac35781602001602082028036833780820191505090505b508152602001600067ffffffffffffffff81118015611ae157600080fd5b50604051908082528060200260200182016040528015611b105781602001602082028036833780820191505090505b50815260200185815250908060018154018082558091505060019003906000526020600020906005020160009091909190915060008201518160000155602082015181600101556040820151816002019080519060200190611b739291906142af565b506060820151816003019080519060200190611b909291906142af565b506080820151816004019080519060200190611bad9291906142fc565b505050600a6001600a805490500381548110611bc557fe5b90600052602060002090600502016005600087815260200190815260200160002060008201548160000155600182015481600101556002820181600201908054611c1092919061437c565b506003820181600301908054611c2792919061437c565b5060048201816004019080546001816001161561010002031660029004611c4f9291906143ce565b5090505060016040518060400160405280600781526020017f737563636573730000000000000000000000000000000000000000000000000081525091509150935093915050565b6060806060611ca584613ab5565b50600060036000868152602001908152602001600020905080600a01816008018260090182805480602002602001604051908101604052809291908181526020018280548015611d1457602002820191906000526020600020905b815481526020019060010190808311611d00575b5050505050925081805480602002602001604051908101604052809291908181526020018280548015611d6657602002820191906000526020600020905b815481526020019060010190808311611d52575b5050505050915080805480602002602001604051908101604052809291908181526020018280548015611db857602002820191906000526020600020905b815481526020019060010190808311611da4575b50505050509050935093509350509193909250565b60006060611dd9614455565b600060010160009054906101000a900473ffffffffffffffffffffffffffffffffffffffff1673ffffffffffffffffffffffffffffffffffffffff163373ffffffffffffffffffffffffffffffffffffffff1614611e9f576040517f08c379a00000000000000000000000000000000000000000000000000000000081526004018080602001828103825260198152602001807f4f6e6c7920617262697472616c2063616e206f7065726174650000000000000081525060200191505060405180910390fd5b60006003600088815260200190815260200160002090506000600660008881526020019081526020016000209050611ed5614455565b6000801b82600001541415611f52576040517f08c379a00000000000000000000000000000000000000000000000000000000081526004018080602001828103825260168152602001807f537570706c69657220646f65736e27742065786973740000000000000000000081525060200191505060405180910390fd5b611f5b89613ab5565b611fa7576000816040518060400160405280600681526020017f6661696c656400000000000000000000000000000000000000000000000000008152509095509550955050505061238a565b60016003811115611fb457fe5b8360040160009054906101000a900460ff166003811115611fd157fe5b1415612045576040517f08c379a000000000000000000000000000000000000000000000000000000000815260040180806020018281038252600d8152602001807f42696c6c2069732053706c69740000000000000000000000000000000000000081525060200191505060405180910390fd5b6000600184600801805490500390508884600901828154811061206457fe5b906000526020600020015414801561207e5750600a885111155b6120d3576040517f08c379a000000000000000000000000000000000000000000000000000000000815260040180806020018281038252603b815260200180614617603b913960400191505060405180910390fd5b6000805b895181101561218e5760008a82815181106120ee57fe5b602002602001015111612169576040517f08c379a00000000000000000000000000000000000000000000000000000000081526004018080602001828103825260198152602001807f73706c6974207761792069736e2774206665617369626c652e0000000000000081525060200191505060405180910390fd5b89818151811061217557fe5b60200260200101518201915080806001019150506120d7565b5084600201548114612208576040517f08c379a00000000000000000000000000000000000000000000000000000000081526004018080602001828103825260198152602001807f73706c6974207761792069736e2774206665617369626c652e0000000000000081525060200191505060405180910390fd5b60008560030154905060008660010154905060008d905060008d905060008960080160018b60080180549050038154811061223f57fe5b9060005260206000200154905060005b8e518110156123185760008f828151811061226657fe5b6020026020010151905061227f8385888842868d613cfd565b8a83600a811061228b57fe5b6020020181815250508b6007018a83600a81106122a457fe5b602002015190806001815401808255809150506001900390600052602060002001600090919091909150558a6002018a83600a81106122df57fe5b6020020151908060018154018082558091505060019003906000526020600020016000909190919091505550808060010191505061224f565b5060018a60040160006101000a81548160ff0219169083600381111561233a57fe5b02179055506001886040518060400160405280600781526020017f7375636365737300000000000000000000000000000000000000000000000000815250909c509c509c50505050505050505050505b93509350939050565b6000600980549050905090565b6000606060008060010160009054906101000a900473ffffffffffffffffffffffffffffffffffffffff1673ffffffffffffffffffffffffffffffffffffffff163373ffffffffffffffffffffffffffffffffffffffff161461246b576040517f08c379a00000000000000000000000000000000000000000000000000000000081526004018080602001828103825260198152602001807f4f6e6c7920617262697472616c2063616e206f7065726174650000000000000081525060200191505060405180910390fd5b6000600360008881526020019081526020016000209050600060066000888152602001908152602001600020905060006005600088815260200190815260200160002090506000801b8260000154141580156124ce57506000801b836000015414155b80156124e157506000801b816000015414155b612536576040517f08c379a00000000000000000000000000000000000000000000000000000000081526004018080602001828103825260408152602001806145d76040913960400191505060405180910390fd5b60006125418a613ab5565b61258e576000816040518060400160405280600681526020017f6661696c656400000000000000000000000000000000000000000000000000008152509096509650965050505050612842565b6001600381111561259b57fe5b8460040160009054906101000a900460ff1660038111156125b857fe5b141561262c576040517f08c379a000000000000000000000000000000000000000000000000000000000815260040180806020018281038252600d8152602001807f42696c6c2069732053706c69740000000000000000000000000000000000000081525060200191505060405180910390fd5b6000600185600801805490500390508985600901828154811061264b57fe5b9060005260206000200154146126c9576040517f08c379a00000000000000000000000000000000000000000000000000000000081526004018080602001828103825260208152602001807f42696c6c20646f65736e27742062656c6f6e6720746f20537570706c6965722081525060200191505060405180910390fd5b600060648460010154876002015402816126df57fe5b0490506126ee8a8c8e84614156565b9250856008018b9080600181540180825580915050600190039060005260206000200160009091909190915055856009018a908060018154018082558091505060019003906000526020600020016000909190919091505585600a0142908060018154018082558091505060019003906000526020600020016000909190919091505582866005018190555083600301839080600181540180825580915050600190039060005260206000200160009091909190915055836002018c9080600181540180825580915050600190039060005260206000200160009091909190915055846003018390806001815401808255809150506001900390600052602060002001600090919091909150556001836040518060400160405280600781526020017f7375636365737300000000000000000000000000000000000000000000000000815250909850985098505050505050505b93509350939050565b6000600880549050905090565b600080600080600060026000878152602001908152602001600020905080600101548160020154826003015483600401549450945094509450509193509193565b606060006005600084815260200190815260200160002090508060030180548060200260200160405190810160405280929190818152602001828054801561290057602002820191906000526020600020905b8154815260200190600101908083116128ec575b5050505050915050919050565b606060006004600084815260200190815260200160002090508060020180548060200260200160405190810160405280929190818152602001828054801561297457602002820191906000526020600020905b815481526020019060010190808311612960575b5050505050915050919050565b6000806060600060010160009054906101000a900473ffffffffffffffffffffffffffffffffffffffff1673ffffffffffffffffffffffffffffffffffffffff163373ffffffffffffffffffffffffffffffffffffffff1614612a4c576040517f08c379a00000000000000000000000000000000000000000000000000000000081526004018080602001828103825260198152602001807f4f6e6c7920617262697472616c2063616e206f7065726174650000000000000081525060200191505060405180910390fd5b600060046000898152602001908152602001600020905060006006600089815260200190815260200160002090506000801b826000015414158015612a9857506000801b816000015414155b8015612ab8575060018160010160009054906101000a900460ff1660ff16145b612b0d576040517f08c379a00000000000000000000000000000000000000000000000000000000081526004018080602001828103825260548152602001806145836054913960600191505060405180910390fd5b6000612b238a8a8c6000801b428c8e4201613cfd565b905086836001016000828254019250508190555082600201819080600181540180825580915050600190039060005260206000200160009091909190915055816002018190806001815401808255809150506001900390600052602060002001600090919091909150556001816040518060400160405280600781526020017f73756363657373000000000000000000000000000000000000000000000000008152509550955095505050509450945094915050565b60008060006060600060046000878152602001908152602001600020905080600101548160020180549050826003018054905083600401808054600181600116156101000203166002900480601f016020809104026020016040519081016040528092919081815260200182805460018160011615610100020316600290048015612ca55780601f10612c7a57610100808354040283529160200191612ca5565b820191906000526020600020905b815481529060010190602001808311612c8857829003601f168201915b505050505090509450945094509450509193509193565b60006060600060010160009054906101000a900473ffffffffffffffffffffffffffffffffffffffff1673ffffffffffffffffffffffffffffffffffffffff163373ffffffffffffffffffffffffffffffffffffffff1614612d86576040517f08c379a00000000000000000000000000000000000000000000000000000000081526004018080602001828103825260198152602001807f4f6e6c7920617262697472616c2063616e206f7065726174650000000000000081525060200191505060405180910390fd5b6000600660008781526020019081526020016000209050600060066000878152602001908152602001600020905060006003600087815260200190815260200160002090506000801b836000015414158015612de957506000801b826000015414155b612e3e576040517f08c379a00000000000000000000000000000000000000000000000000000000081526004018080602001828103825260318152602001806145526031913960400191505060405180910390fd5b612e4786613ab5565b612e8f5760006040518060400160405280600681526020017f6661696c65640000000000000000000000000000000000000000000000000000815250945094505050506130b7565b60016003811115612e9c57fe5b8160040160009054906101000a900460ff166003811115612eb957fe5b1415612f2d576040517f08c379a000000000000000000000000000000000000000000000000000000000815260040180806020018281038252600d8152602001807f42696c6c2069732053706c69740000000000000000000000000000000000000081525060200191505060405180910390fd5b60006001826008018054905003905088826009018281548110612f4c57fe5b906000526020600020015414612fca576040517f08c379a00000000000000000000000000000000000000000000000000000000081526004018080602001828103825260208152602001807f42696c6c20646f65736e27742062656c6f6e6720746f20537570706c6965723181525060200191505060405180910390fd5b816008018990806001815401808255809150506001900390600052602060002001600090919091909150558160090188908060018154018082558091505060019003906000526020600020016000909190919091505581600a014290806001815401808255809150506001900390600052602060002001600090919091909150558260020187908060018154018082558091505060019003906000526020600020016000909190919091505560016040518060400160405280600781526020017f737563636573730000000000000000000000000000000000000000000000000081525095509550505050505b935093915050565b60008060000154908060010160009054906101000a900473ffffffffffffffffffffffffffffffffffffffff16905082565b606060006006600084815260200190815260200160002090508060030180548060200260200160405190810160405280929190818152602001828054801561315857602002820191906000526020600020905b815481526020019060010190808311613144575b5050505050915050919050565b6000606060008060010160009054906101000a900473ffffffffffffffffffffffffffffffffffffffff1673ffffffffffffffffffffffffffffffffffffffff163373ffffffffffffffffffffffffffffffffffffffff1614613230576040517f08c379a00000000000000000000000000000000000000000000000000000000081526004018080602001828103825260198152602001807f4f6e6c7920617262697472616c2063616e206f7065726174650000000000000081525060200191505060405180910390fd5b600060036000878152602001908152602001600020905060006004600087815260200190815260200160002090506000801b82600001541415801561327c57506000801b816000015414155b801561328b5750858260010154145b6132e0576040517f08c379a00000000000000000000000000000000000000000000000000000000081526004018080602001828103825260568152602001806146526056913960600191505060405180910390fd5b60008260020154905060008360090160018560090180549050038154811061330457fe5b90600052602060002001549050600061331f89838c86614156565b905084600801829080600181540180825580915050600190039060005260206000200160009091909190915055846009016000908060018154018082558091505060019003906000526020600020016000909160001b90919091505584600a0142908060018154018082558091505060019003906000526020600020016000909190919091505580856005018190555060038560040160006101000a81548160ff021916908360038111156133d057fe5b0217905550836003018190806001815401808255809150506001900390600052602060002001600090919091909150556000801b85600601541461343a57836002018a90806001815401808255809150506001900390600052602060002001600090919091909150555b6000801b60066000848152602001908152602001600020600001541461349c57600660008381526020019081526020016000206003018190806001815401808255809150506001900390600052602060002001600090919091909150556134da565b600560008381526020019081526020016000206003018190806001815401808255809150506001900390600052602060002001600090919091909150555b8360010154831115613554576040517f08c379a00000000000000000000000000000000000000000000000000000000081526004018080602001828103825260128152602001807f4163636f756e74696e67206572726f72732e000000000000000000000000000081525060200191505060405180910390fd5b8284600101600082825403925050819055506001816040518060400160405280600781526020017f73756363657373000000000000000000000000000000000000000000000000008152509097509750975050505050509250925092565b6000806000806000806135c487613ab5565b50600060036000898152602001908152602001600020905080600001548160010154826002015483600301548460040160009054906101000a900460ff1685600501549650965096509650965096505091939550919395565b606060006006600084815260200190815260200160002090508060020180548060200260200160405190810160405280929190818152602001828054801561368457602002820191906000526020600020905b815481526020019060010190808311613670575b5050505050915050919050565b60606000600460008481526020019081526020016000209050806003018054806020026020016040519081016040528092919081815260200182805480156136f857602002820191906000526020600020905b8154815260200190600101908083116136e4575b5050505050915050919050565b606060006005600084815260200190815260200160002090508060020180548060200260200160405190810160405280929190818152602001828054801561376c57602002820191906000526020600020905b815481526020019060010190808311613758575b5050505050915050919050565b60006060600060010160009054906101000a900473ffffffffffffffffffffffffffffffffffffffff1673ffffffffffffffffffffffffffffffffffffffff163373ffffffffffffffffffffffffffffffffffffffff1614613843576040517f08c379a00000000000000000000000000000000000000000000000000000000081526004018080602001828103825260198152602001807f4f6e6c7920617262697472616c2063616e206f7065726174650000000000000081525060200191505060405180910390fd5b600b6040518060a001604052808781526020018660ff168152602001600067ffffffffffffffff8111801561387757600080fd5b506040519080825280602002602001820160405280156138a65781602001602082028036833780820191505090505b508152602001600067ffffffffffffffff811180156138c457600080fd5b506040519080825280602002602001820160405280156138f35781602001602082028036833780820191505090505b5081526020018581525090806001815401808255809150506001900390600052602060002090600502016000909190919091506000820151816000015560208201518160010160006101000a81548160ff021916908360ff160217905550604082015181600201908051906020019061396d9291906142af565b50606082015181600301908051906020019061398a9291906142af565b5060808201518160040190805190602001906139a79291906142fc565b505050600b6001600b8054905003815481106139bf57fe5b906000526020600020906005020160066000878152602001908152602001600020600082015481600001556001820160009054906101000a900460ff168160010160006101000a81548160ff021916908360ff1602179055506002820181600201908054613a2e92919061437c565b506003820181600301908054613a4592919061437c565b5060048201816004019080546001816001161561010002031660029004613a6d9291906143ce565b5090505060016040518060400160405280600781526020017f737563636573730000000000000000000000000000000000000000000000000081525091509150935093915050565b60008060010160009054906101000a900473ffffffffffffffffffffffffffffffffffffffff1673ffffffffffffffffffffffffffffffffffffffff163373ffffffffffffffffffffffffffffffffffffffff1614613b7c576040517f08c379a00000000000000000000000000000000000000000000000000000000081526004018080602001828103825260198152602001807f4f6e6c7920617262697472616c2063616e206f7065726174650000000000000081525060200191505060405180910390fd5b60006003600084815260200190815260200160002090506000801b81600001541415613c10576040517f08c379a00000000000000000000000000000000000000000000000000000000081526004018080602001828103825260148152602001807f42696c6c206973206e6f7420657869737465642e00000000000000000000000081525060200191505060405180910390fd5b8060030154421015613c26576001915050613cf8565b60006003811115613c3357fe5b8160040160009054906101000a900460ff166003811115613c5057fe5b1480613c83575060026003811115613c6457fe5b8160040160009054906101000a900460ff166003811115613c8157fe5b145b15613cf25760028160040160006101000a81548160ff02191690836003811115613ca957fe5b02179055507f08654ce5265a228148184007620cec585adccfc16241c136beabe78b4ced7ae7838260010154604051808381526020018281526020019250505060405180910390a15b60009150505b919050565b600080428989604051602001808481526020018381526020018281526020019350505050604051602081830303815290604052805190602001209050600760405180610160016040528083815260200189815260200186815260200185815260200160006003811115613d6c57fe5b81526020016000801b8152602001888152602001600067ffffffffffffffff81118015613d9857600080fd5b50604051908082528060200260200182016040528015613dc75781602001602082028036833780820191505090505b508152602001600067ffffffffffffffff81118015613de557600080fd5b50604051908082528060200260200182016040528015613e145781602001602082028036833780820191505090505b508152602001600067ffffffffffffffff81118015613e3257600080fd5b50604051908082528060200260200182016040528015613e615781602001602082028036833780820191505090505b508152602001600067ffffffffffffffff81118015613e7f57600080fd5b50604051908082528060200260200182016040528015613eae5781602001602082028036833780820191505090505b5081525090806001815401808255809150506001900390600052602060002090600b02016000909190919091506000820151816000015560208201518160010155604082015181600201556060820151816003015560808201518160040160006101000a81548160ff02191690836003811115613f2757fe5b021790555060a0820151816005015560c0820151816006015560e0820151816007019080519060200190613f5c9291906142af565b50610100820151816008019080519060200190613f7a9291906142af565b50610120820151816009019080519060200190613f989291906142af565b5061014082015181600a019080519060200190613fb6929190614478565b5050506000600760016007805490500381548110613fd057fe5b90600052602060002090600b020190508060036000848152602001908152602001600020600082015481600001556001820154816001015560028201548160020155600382015481600301556004820160009054906101000a900460ff168160040160006101000a81548160ff0219169083600381111561404d57fe5b02179055506005820154816005015560068201548160060155600782018160070190805461407c92919061437c565b50600882018160080190805461409392919061437c565b5060098201816009019080546140aa92919061437c565b50600a820181600a019080546140c19291906144c5565b5090505080600a01869080600181540180825580915050600190039060005260206000200160009091909190915055806008018a9080600181540180825580915050600190039060005260206000200160009091909190915055806009018990806001815401808255809150506001900390600052602060002001600090919091909150558192505050979650505050505050565b60008042868660405160200180848152602001838152602001828152602001935050505060405160208183030381529060405280519060200120905060086040518060c00160405280838152602001858152602001868152602001888152602001878152602001428152509080600181540180825580915050600190039060005260206000209060060201600090919091909150600082015181600001556020820151816001015560408201518160020155606082015181600301556080820151816004015560a082015181600501555050600060086001600880549050038154811061423f57fe5b9060005260206000209060060201905080600260008481526020019081526020016000206000820154816000015560018201548160010155600282015481600201556003820154816003015560048201548160040155600582015481600501559050508192505050949350505050565b8280548282559060005260206000209081019282156142eb579160200282015b828111156142ea5782518255916020019190600101906142cf565b5b5090506142f89190614517565b5090565b828054600181600116156101000203166002900490600052602060002090601f016020900481019282601f1061433d57805160ff191683800117855561436b565b8280016001018555821561436b579182015b8281111561436a57825182559160200191906001019061434f565b5b5090506143789190614534565b5090565b8280548282559060005260206000209081019282156143bd5760005260206000209182015b828111156143bc5782548255916001019190600101906143a1565b5b5090506143ca9190614517565b5090565b828054600181600116156101000203166002900490600052602060002090601f016020900481019282601f106144075780548555614444565b8280016001018555821561444457600052602060002091601f016020900482015b82811115614443578254825591600101919060010190614428565b5b5090506144519190614534565b5090565b604051806101400160405280600a90602082028036833780820191505090505090565b8280548282559060005260206000209081019282156144b4579160200282015b828111156144b3578251825591602001919060010190614498565b5b5090506144c19190614534565b5090565b8280548282559060005260206000209081019282156145065760005260206000209182015b828111156145055782548255916001019190600101906144ea565b5b5090506145139190614534565b5090565b5b80821115614530576000816000905550600101614518565b5090565b5b8082111561454d576000816000905550600101614535565b509056fe537570706c6965723120646f65736e2774206578697374202f20537570706c6965723220646f65736e2774206578697374456e746572707269736520646f65736e2774206578697374202f20537570706c69657220646f65736e2774206578697374202f20537570706c6965722773206c6576656c20646f65736e27742073756666696365537570706c69657220646f65736e2774206578697374202f2042696c6c20646f65736e2774206578697374202f2042616e6b20646f65736e277420657869737442696c6c20646f65736e27742062656c6f6e6720746f20537570706c696572202f2073706c6974207761792069736e2774206665617369626c652e2042696c6c20646f65736e2774206578697374202f20456e746572707269736520646f65736e2774206578697374202f2042696c6c206973206e6f7420697373756564206279207468697320456e7465727072697365a2646970667358221220b74caa1dcd4dd5b580674a85eb2e9297f5fb5565f899ef9538d1e4fadbe8841364736f6c63430007000033",
  "immutableReferences": {},
  "source": "// SPDX-License-Identifier: GPL-3.0\npragma solidity >0.4.0 <0.8.0;\n\ncontract Finance {\n    \n    //\n    enum BillState{Valid, Split, Expired, Done} // Expired: not not writed off yet ; Done: already writed off.\n    \n    //\n    struct TradeDebtBill{\n        bytes32 id;\n        bytes32 issuer; //  \n        uint facevalue; // \n        uint expire_time;// \n        BillState state;\n        bytes32 idOfCR; // ID\n        bytes32 idOfparent; \n        bytes32[] idOfsons; // if it is split, store id of its sons to here.  \n        bytes32[] froms; //  \n        bytes32[] tos; // \n        uint[] times;\n    }\n    \n    // \n    struct CashReceipt{\n        bytes32 id;\n        uint amount;\n        bytes32 idOfTDB; // ID\n        bytes32 from;\n        bytes32 to;\n        uint time;\n    }   \n    \n    // \n    struct Arbitral {\n        bytes32 _id;\n        address _address;\n    }\n    \n    // \n    struct Bank {\n        bytes32 id;\n        uint rate; // (* rate / 100) =   solidity\n        bytes32[] idOfBills; // id\n        bytes32[] idOfRecepits;// id\n        string name;\n    }\n\n    //\n    struct Enterprise {\n        bytes32 id;\n        uint totalDebt;//  = \n        bytes32[] idOfBills;\n        bytes32[] idOfRecepits;\n        string name;\n    }\n    \n    //\n    struct Supplier {\n        bytes32 id;\n        uint8 level; // \n        bytes32[] idOfBills;\n        bytes32[] idOfRecepits;\n        string name;\n    }\n    \n    Arbitral public theArbitral;\n\n    mapping(bytes32 => CashReceipt) mapOfCashReceipt;\n    mapping(bytes32 => TradeDebtBill) mapOfTradeDebtBill;\n    mapping(bytes32 => Enterprise) mapOfEnterprise;\n    mapping(bytes32 => Bank) mapOfBank;\n    mapping(bytes32 => Supplier) mapOfSupplier;\n    \n    TradeDebtBill[]  Bills;\n    // TradeDebtBill[] public doneBills;\n    CashReceipt[]  Recepits;\n    Enterprise[]  enterprises;\n    Bank[]  banks;\n    Supplier[]  suppliers;\n    \n    \n    constructor(bytes32 id){\n        theArbitral = Arbitral({\n            _id: id,\n            _address: msg.sender\n        });\n    }\n    \n    // \n    modifier onlytheArbitral{\n        require(msg.sender == theArbitral._address, \"Only arbitral can operate\");\n        _;\n    }\n    \n    // \n    function addBank(bytes32 bankid, uint r, string memory _name) onlytheArbitral public returns(bool, string memory) {\n\n        banks.push(Bank({\n            id: bankid, \n            rate: r,\n            idOfBills: new bytes32[](0),\n            idOfRecepits: new bytes32[](0),\n            name: _name\n        }));\n\n        mapOfBank[bankid] = banks[banks.length - 1];\n        return (true, \"success\");\n    }\n    \n    //\n    function addEnterprise(bytes32 epid, string memory _name) onlytheArbitral public returns(bool, string memory) {\n        \n        enterprises.push(Enterprise({\n            id: epid, \n            totalDebt: 0,\n            idOfBills: new bytes32[](0),\n            idOfRecepits: new bytes32[](0),\n            name: _name\n        }));\n\n        mapOfEnterprise[epid] = enterprises[enterprises.length - 1];\n        return (true, \"success\");\n    }\n    \n    // \n    function addSupplier(bytes32 spid, uint8 _level, string memory _name) onlytheArbitral public returns(bool, string memory) {\n\n        suppliers.push(Supplier({\n            id: spid, \n            level:_level,\n            idOfBills: new bytes32[](0),\n            idOfRecepits: new bytes32[](0),\n            name: _name\n        }));\n\n        mapOfSupplier[spid] = suppliers[suppliers.length - 1];\n        return (true, \"success\");\n    }\n    \n    // \n    function newTradeDebtBill(bytes32 _from, bytes32 _to, bytes32 _issuer, bytes32 _parentid,\n                            uint _init_time, uint _facevalue, uint _expire_time) internal returns(bytes32){\n                                \n        bytes32 _id = keccak256(abi.encodePacked(block.timestamp, _from, _to)); // sha3ID\n\n        Bills.push(TradeDebtBill({\n            id: _id,\n            issuer: _issuer,\n            facevalue: _facevalue,\n            expire_time: _expire_time,\n            state: BillState.Valid,\n            idOfCR: 0x0,\n            idOfsons: new bytes32[](0),\n            froms: new bytes32[](0),\n            tos: new bytes32[](0),\n            times: new uint[](0),\n            idOfparent: _parentid\n        }));\n        \n        TradeDebtBill storage t = Bills[Bills.length - 1];\n        mapOfTradeDebtBill[_id] = t;\n        t.times.push(_init_time); // \n        t.froms.push(_from);\n        t.tos.push(_to);\n\n        return _id;\n    }\n    \n    // \n    function newCashRecepit(bytes32 _from, bytes32 _to, bytes32 _idOfTDB, uint _amount) internal returns(bytes32){\n        bytes32 _id = keccak256(abi.encodePacked(block.timestamp, _from, _to));\n        \n        Recepits.push(CashReceipt({\n            id: _id,\n            idOfTDB: _idOfTDB,\n            amount: _amount,\n            from: _from,\n            to: _to,\n            time: block.timestamp\n        }));\n        \n        CashReceipt storage c = Recepits[Recepits.length - 1];\n        mapOfCashReceipt[_id] = c;\n        return _id;\n    }\n    \n    // \n    function issueTradeDebtBill(bytes32 epid, bytes32 spid, uint tolerate_time, uint _facevalue) onlytheArbitral external returns(bool, bytes32, string memory){\n        Enterprise storage e = mapOfEnterprise[epid];\n        Supplier storage s = mapOfSupplier[spid];\n        \n        require(e.id != 0x0 && s.id != 0x0 && s.level == 1, \n                \"Enterprise doesn't exist / Supplier doesn't exist / Supplier's level doesn't suffice\");\n        \n        bytes32 id = newTradeDebtBill(epid, spid, epid, 0x0, block.timestamp, _facevalue, block.timestamp + tolerate_time);\n        \n        e.totalDebt += _facevalue;\n        \n        e.idOfBills.push(id);\n        s.idOfBills.push(id);\n        \n        return (true, id, \"success\");\n    }\n    \n    //  \n    event billDueToRepay(bytes32 billid, bytes32 epid);\n    \n    //\n    function CheckUpdateBillState(bytes32 billid) onlytheArbitral internal returns(bool){\n        TradeDebtBill storage b = mapOfTradeDebtBill[billid];\n\n        require(b.id != 0x0 , \"Bill is not existed.\");\n\n        if(block.timestamp < b.expire_time) return true;\n\n        if(b.state == BillState.Valid || b.state == BillState.Expired){\n            b.state = BillState.Expired;\n            emit billDueToRepay(billid, b.issuer);\n        }\n\n        return false;\n    }\n    \n    // \n    function transferBillbetweenSuppliers(bytes32 spid1, bytes32 spid2, bytes32 billid) onlytheArbitral external returns(bool, string memory){\n        Supplier storage s1 = mapOfSupplier[spid1];\n        Supplier storage s2 = mapOfSupplier[spid2];\n        TradeDebtBill storage b = mapOfTradeDebtBill[billid];\n        \n        require(s1.id != 0x0 && s2.id != 0x0, \"Supplier1 doesn't exist / Supplier2 doesn't exist\");  \n\n        if(!CheckUpdateBillState(billid)){\n            return(false, \"failed\");\n        }\n\n        require(b.state != BillState.Split, \"Bill is Split\");\n\n        uint ridx = b.froms.length - 1; // index\n        require(b.tos[ridx] ==  spid1, \"Bill doesn't belong to Supplier1\");\n\n        b.froms.push(spid1); // \n        b.tos.push(spid2);\n        b.times.push(block.timestamp);\n        \n        s2.idOfBills.push(billid);\n\n        return (true, \"success\");\n    }\n    \n    // \n    function billSplitBySupplier(bytes32 billid, bytes32 spid, uint[] memory ways) onlytheArbitral external returns(bool, string memory, bytes32[10] memory){\n        TradeDebtBill storage b = mapOfTradeDebtBill[billid];\n        Supplier storage s = mapOfSupplier[spid];\n        bytes32[10] memory newbillids; // ID 10\n        \n        require(s.id != 0x0 , \"Supplier doesn't exist\");  \n        if(!CheckUpdateBillState(billid)){\n            return(false, \"failed\", newbillids);\n        }\n        require(b.state != BillState.Split, \"Bill is Split\");\n        \n\n        uint ridx = b.froms.length - 1;\n        require(b.tos[ridx] ==  spid && ways.length <= 10, \"Bill doesn't belong to Supplier / split way isn't feasible.\");\n\n        //\n        uint sum = 0;\n        for(uint i = 0; i < ways.length; i++){\n            require(ways[i] > 0, \"split way isn't feasible.\");\n            sum += ways[i];\n        }\n        require(sum == b.facevalue, \"split way isn't feasible.\");\n\n        //  stack too deep\n        uint expire_time = b.expire_time;\n        bytes32 issuer = b.issuer;\n        bytes32 bid = billid;\n        bytes32 sid = spid;\n        bytes32 _from = b.froms[b.froms.length - 1];\n        \n        //\n        for(uint i = 0; i < ways.length; i++){\n            uint v = ways[i];\n            newbillids[i] = newTradeDebtBill(_from,sid,issuer,bid,block.timestamp,v,expire_time);\n            b.idOfsons.push(newbillids[i]);\n            s.idOfBills.push(newbillids[i]);\n        }\n\n        b.state = BillState.Split;\n        \n        //ID\n        return(true, \"success\", newbillids);\n        \n    }\n    \n    \n    // \n    function supplierFinancingfromBank(bytes32 billid, bytes32 spid, bytes32 bankid) onlytheArbitral external returns(bool, string memory, bytes32){\n        TradeDebtBill storage bi = mapOfTradeDebtBill[billid];\n        Supplier storage s = mapOfSupplier[spid];\n        Bank storage ba = mapOfBank[bankid];\n\n        require(s.id != 0x0 && bi.id != 0x0 && ba.id != 0x0, \n                \"Supplier doesn't exist / Bill doesn't exist / Bank doesn't exist\");\n        bytes32 newrepid; // ID\n\n        if(!CheckUpdateBillState(billid)){\n            return(false, \"failed\", newrepid);\n        }\n        require(bi.state != BillState.Split, \"Bill is Split\");\n        \n        \n        uint ridx = bi.froms.length - 1;\n        require(bi.tos[ridx] ==  spid , \"Bill doesn't belong to Supplier \");\n\n        uint amount = bi.facevalue * ba.rate / 100; // \n\n        //\n        newrepid = newCashRecepit(bankid, spid, billid, amount);\n        bi.froms.push(spid);\n        bi.tos.push(bankid);\n        bi.times.push(block.timestamp);\n        bi.idOfCR = newrepid;\n        \n        ba.idOfRecepits.push(newrepid);\n        ba.idOfBills.push(billid);\n        s.idOfRecepits.push(newrepid);\n        \n        return(true, \"success\", newrepid);\n\n    }\n    \n    // \n    function enterpriseRepay(bytes32 billid, bytes32 epid) onlytheArbitral external returns(bool, string memory, bytes32){\n\n        TradeDebtBill storage b = mapOfTradeDebtBill[billid];\n        Enterprise storage e = mapOfEnterprise[epid];\n\n        require(b.id != 0x0 && e.id != 0x0 && b.issuer == epid, \" Bill doesn't exist / Enterprise doesn't exist / Bill is not issued by this Enterprise\");\n\n        uint amount = b.facevalue;\n        bytes32 debtorid = b.tos[b.tos.length - 1]; //  \n        bytes32 newrepid = newCashRecepit(epid, debtorid, billid, amount);\n        \n\n        b.froms.push(debtorid);\n        b.tos.push(0x0);// 0\n        b.times.push(block.timestamp);\n        b.idOfCR = newrepid;\n        b.state = BillState.Done;\n        e.idOfRecepits.push(newrepid);\n\n        // id\n        if(b.idOfparent != 0x0){\n            e.idOfBills.push(billid);\n        }\n        \n        //id\n        if(mapOfSupplier[debtorid].id != 0x0){\n            mapOfSupplier[debtorid].idOfRecepits.push(newrepid);\n        }else{\n            mapOfBank[debtorid].idOfRecepits.push(newrepid);\n        }\n        \n        require(amount <= e.totalDebt, \"Accounting errors.\");\n        e.totalDebt -= amount;\n\n        return(true, \"success\", newrepid);\n    }\n    \n    // functions of get Informations\n    function getSupplierCount() public view returns(uint){\n        return suppliers.length;\n    }\n    \n    function getBankCount() public view returns(uint){\n        return banks.length;\n    }\n    \n    function getBillCount() public view returns(uint){\n        return Bills.length;\n    }\n    \n    function getRecepitCount() public view returns(uint){\n        return Recepits.length;\n    }\n    \n    function getEnterpriseCount() public view returns(uint){\n        return enterprises.length;\n    }\n        \n    function getBillBasicInfo(bytes32 billid) public returns(bytes32, bytes32, uint, uint, BillState, bytes32){\n        CheckUpdateBillState(billid);\n        TradeDebtBill storage b = mapOfTradeDebtBill[billid];\n        return(b.id, b.issuer, b.facevalue, b.expire_time, b.state, b.idOfCR);\n    }\n    \n    function getBillHistory(bytes32 billid) public returns(uint[] memory, bytes32[] memory, bytes32[] memory){\n        CheckUpdateBillState(billid);\n        TradeDebtBill storage b = mapOfTradeDebtBill[billid];\n        return(b.times, b.froms, b.tos);\n    }\n    \n    function getBillSplitInfo(bytes32 billid) public returns(bytes32, bytes32[]memory){\n        CheckUpdateBillState(billid);\n        TradeDebtBill storage b = mapOfTradeDebtBill[billid];\n        return(b.idOfparent, b.idOfsons);\n    }\n    \n    function getRecepitInfo(bytes32 repid) public view returns(uint, bytes32, bytes32, bytes32){\n        CashReceipt storage r = mapOfCashReceipt[repid];\n        return(r.amount, r.idOfTDB, r.from, r.to);\n    }\n    \n    function getBankBasicInfo(bytes32 id) public view returns(uint, uint, uint, string memory){\n        Bank storage b = mapOfBank[id];\n        return(b.rate, b.idOfBills.length, b.idOfRecepits.length, b.name);\n    }\n    \n    function getSupplierBasicInfo(bytes32 id) public view returns(uint, uint, uint, string memory){\n        Supplier storage s = mapOfSupplier[id];\n        return(s.level, s.idOfBills.length, s.idOfRecepits.length, s.name);\n    }\n    \n    function getEnterpriseBasicInfo(bytes32 id) public view returns(uint, uint, uint , string memory){\n        Enterprise storage e = mapOfEnterprise[id];\n        return(e.totalDebt, e.idOfBills.length, e.idOfRecepits.length, e.name);\n    }\n    \n    function getAllofSupplierBillsid(bytes32 id) public view returns(bytes32[] memory){\n        Supplier storage s = mapOfSupplier[id];\n        return(s.idOfBills);\n    }\n    \n    function getAllofBankBillsid(bytes32 id) public view returns(bytes32[] memory){\n        Bank storage b = mapOfBank[id];\n        return(b.idOfBills);\n    }\n    \n    function getAllofEnterpriseBillsid(bytes32 id) public view returns(bytes32[] memory){\n        Enterprise storage e = mapOfEnterprise[id];\n        return(e.idOfBills);\n    }\n    \n    function getAllofSupplierRecepitsid(bytes32 id) public view returns(bytes32[] memory){\n        Supplier storage s = mapOfSupplier[id];\n        return(s.idOfRecepits);\n    }\n    \n    function getAllofBankRecepitsid(bytes32 id) public view returns(bytes32[] memory){\n        Bank storage b = mapOfBank[id];\n        return(b.idOfRecepits);\n    }\n    \n    function getAllofEnterpriseRecepitsid(bytes32 id) public view returns(bytes32[] memory){\n        Enterprise storage e = mapOfEnterprise[id];\n        return(e.idOfRecepits);\n    }\n    \n    \n\n    fallback() external payable{}\n    receive() external payable{}\n\n}",
  "sourcePath": "/Users/newguo/projects/blockchain-supplychainFinance/supplychain_finance/contracts/Finance.sol",
  "compiler": {
    "name": "solc",
    "version": "0.7.0+commit.9e61f92b.Emscripten.clang"
  },
  "schemaVersion": "3.2.3",
  "updatedAt": "2020-08-14T10:26:11.877Z",
  "networkType": "ethereum",
  "devdoc": {
    "kind": "dev",
    "methods": {},
    "version": 1
  },
  "userdoc": {
    "kind": "user",
    "methods": {},
    "version": 1
  }
}