{
  "contractName": "Finance",
  "abi": [
    {
      "inputs": [
        {
          "internalType": "bytes32",
          "name": "id",
          "type": "bytes32"
        }
      ],
      "stateMutability": "nonpayable",
      "type": "constructor"
    },
    {
      "anonymous": false,
      "inputs": [
        {
          "indexed": false,
          "internalType": "bytes32",
          "name": "billid",
          "type": "bytes32"
        },
        {
          "indexed": false,
          "internalType": "bytes32",
          "name": "epid",
          "type": "bytes32"
        }
      ],
      "name": "billDueToRepay",
      "type": "event"
    },
    {
      "stateMutability": "payable",
      "type": "fallback"
    },
    {
      "inputs": [],
      "name": "theArbitral",
      "outputs": [
        {
          "internalType": "bytes32",
          "name": "_id",
          "type": "bytes32"
        },
        {
          "internalType": "address",
          "name": "_address",
          "type": "address"
        }
      ],
      "stateMutability": "view",
      "type": "function"
    },
    {
      "stateMutability": "payable",
      "type": "receive"
    },
    {
      "inputs": [
        {
          "internalType": "bytes32",
          "name": "bankid",
          "type": "bytes32"
        },
        {
          "internalType": "string",
          "name": "_name",
          "type": "string"
        }
      ],
      "name": "addBank",
      "outputs": [
        {
          "internalType": "bool",
          "name": "",
          "type": "bool"
        },
        {
          "internalType": "string",
          "name": "",
          "type": "string"
        }
      ],
      "stateMutability": "nonpayable",
      "type": "function"
    },
    {
      "inputs": [
        {
          "internalType": "bytes32",
          "name": "epid",
          "type": "bytes32"
        },
        {
          "internalType": "uint256",
          "name": "limit",
          "type": "uint256"
        },
        {
          "internalType": "string",
          "name": "_name",
          "type": "string"
        }
      ],
      "name": "addEnterprise",
      "outputs": [
        {
          "internalType": "bool",
          "name": "",
          "type": "bool"
        },
        {
          "internalType": "string",
          "name": "",
          "type": "string"
        }
      ],
      "stateMutability": "nonpayable",
      "type": "function"
    },
    {
      "inputs": [
        {
          "internalType": "bytes32",
          "name": "eid",
          "type": "bytes32"
        },
        {
          "internalType": "uint256",
          "name": "newLimit",
          "type": "uint256"
        }
      ],
      "name": "updateEnterpriseCreditLimit",
      "outputs": [
        {
          "internalType": "bool",
          "name": "",
          "type": "bool"
        },
        {
          "internalType": "string",
          "name": "",
          "type": "string"
        }
      ],
      "stateMutability": "nonpayable",
      "type": "function"
    },
    {
      "inputs": [
        {
          "internalType": "bytes32",
          "name": "spid",
          "type": "bytes32"
        },
        {
          "internalType": "string",
          "name": "_name",
          "type": "string"
        }
      ],
      "name": "addSupplier",
      "outputs": [
        {
          "internalType": "bool",
          "name": "",
          "type": "bool"
        },
        {
          "internalType": "string",
          "name": "",
          "type": "string"
        }
      ],
      "stateMutability": "nonpayable",
      "type": "function"
    },
    {
      "inputs": [
        {
          "internalType": "bytes32",
          "name": "epid",
          "type": "bytes32"
        },
        {
          "internalType": "bytes32",
          "name": "spid",
          "type": "bytes32"
        },
        {
          "internalType": "uint256",
          "name": "tolerate_time",
          "type": "uint256"
        },
        {
          "internalType": "uint256",
          "name": "_facevalue",
          "type": "uint256"
        }
      ],
      "name": "issueTradeDebtBill",
      "outputs": [
        {
          "internalType": "bool",
          "name": "",
          "type": "bool"
        },
        {
          "internalType": "bytes32",
          "name": "",
          "type": "bytes32"
        },
        {
          "internalType": "string",
          "name": "",
          "type": "string"
        }
      ],
      "stateMutability": "nonpayable",
      "type": "function"
    },
    {
      "inputs": [
        {
          "internalType": "bytes32",
          "name": "spid1",
          "type": "bytes32"
        },
        {
          "internalType": "bytes32",
          "name": "spid2",
          "type": "bytes32"
        },
        {
          "internalType": "bytes32",
          "name": "billid",
          "type": "bytes32"
        },
        {
          "internalType": "uint256",
          "name": "amount",
          "type": "uint256"
        }
      ],
      "name": "transferBillbetweenSuppliers",
      "outputs": [
        {
          "internalType": "bool",
          "name": "",
          "type": "bool"
        },
        {
          "internalType": "string",
          "name": "",
          "type": "string"
        }
      ],
      "stateMutability": "nonpayable",
      "type": "function"
    },
    {
      "inputs": [
        {
          "internalType": "bytes32",
          "name": "billid",
          "type": "bytes32"
        },
        {
          "internalType": "bytes32",
          "name": "spid",
          "type": "bytes32"
        },
        {
          "internalType": "bytes32",
          "name": "bankid",
          "type": "bytes32"
        },
        {
          "internalType": "uint256",
          "name": "rate",
          "type": "uint256"
        }
      ],
      "name": "supplierFinancingfromBank",
      "outputs": [
        {
          "internalType": "bool",
          "name": "",
          "type": "bool"
        },
        {
          "internalType": "string",
          "name": "",
          "type": "string"
        },
        {
          "internalType": "bytes32",
          "name": "",
          "type": "bytes32"
        }
      ],
      "stateMutability": "nonpayable",
      "type": "function"
    },
    {
      "inputs": [
        {
          "internalType": "bytes32",
          "name": "billid",
          "type": "bytes32"
        },
        {
          "internalType": "bytes32",
          "name": "epid",
          "type": "bytes32"
        }
      ],
      "name": "enterpriseRepay",
      "outputs": [
        {
          "internalType": "bool",
          "name": "",
          "type": "bool"
        },
        {
          "internalType": "string",
          "name": "",
          "type": "string"
        },
        {
          "internalType": "bytes32",
          "name": "",
          "type": "bytes32"
        }
      ],
      "stateMutability": "nonpayable",
      "type": "function"
    },
    {
      "inputs": [],
      "name": "getSupplierCount",
      "outputs": [
        {
          "internalType": "uint256",
          "name": "",
          "type": "uint256"
        }
      ],
      "stateMutability": "view",
      "type": "function"
    },
    {
      "inputs": [],
      "name": "getBankCount",
      "outputs": [
        {
          "internalType": "uint256",
          "name": "",
          "type": "uint256"
        }
      ],
      "stateMutability": "view",
      "type": "function"
    },
    {
      "inputs": [],
      "name": "getBillCount",
      "outputs": [
        {
          "internalType": "uint256",
          "name": "",
          "type": "uint256"
        }
      ],
      "stateMutability": "view",
      "type": "function"
    },
    {
      "inputs": [],
      "name": "getRecepitCount",
      "outputs": [
        {
          "internalType": "uint256",
          "name": "",
          "type": "uint256"
        }
      ],
      "stateMutability": "view",
      "type": "function"
    },
    {
      "inputs": [],
      "name": "getEnterpriseCount",
      "outputs": [
        {
          "internalType": "uint256",
          "name": "",
          "type": "uint256"
        }
      ],
      "stateMutability": "view",
      "type": "function"
    },
    {
      "inputs": [
        {
          "internalType": "bytes32",
          "name": "billid",
          "type": "bytes32"
        }
      ],
      "name": "getBillBasicInfo",
      "outputs": [
        {
          "internalType": "bytes32",
          "name": "",
          "type": "bytes32"
        },
        {
          "internalType": "bytes32",
          "name": "",
          "type": "bytes32"
        },
        {
          "internalType": "uint256",
          "name": "",
          "type": "uint256"
        },
        {
          "internalType": "uint256",
          "name": "",
          "type": "uint256"
        },
        {
          "internalType": "enum Finance.BillState",
          "name": "",
          "type": "uint8"
        },
        {
          "internalType": "bytes32",
          "name": "",
          "type": "bytes32"
        },
        {
          "internalType": "bytes32",
          "name": "",
          "type": "bytes32"
        }
      ],
      "stateMutability": "view",
      "type": "function"
    },
    {
      "inputs": [
        {
          "internalType": "bytes32",
          "name": "billid",
          "type": "bytes32"
        }
      ],
      "name": "getBillHistory",
      "outputs": [
        {
          "internalType": "uint256[]",
          "name": "",
          "type": "uint256[]"
        },
        {
          "internalType": "bytes32[]",
          "name": "",
          "type": "bytes32[]"
        }
      ],
      "stateMutability": "view",
      "type": "function"
    },
    {
      "inputs": [
        {
          "internalType": "bytes32",
          "name": "billid",
          "type": "bytes32"
        }
      ],
      "name": "getBillSplitInfo",
      "outputs": [
        {
          "internalType": "bytes32",
          "name": "",
          "type": "bytes32"
        },
        {
          "internalType": "bytes32",
          "name": "",
          "type": "bytes32"
        },
        {
          "internalType": "bytes32",
          "name": "",
          "type": "bytes32"
        }
      ],
      "stateMutability": "view",
      "type": "function"
    },
    {
      "inputs": [
        {
          "internalType": "bytes32",
          "name": "repid",
          "type": "bytes32"
        }
      ],
      "name": "getRecepitInfo",
      "outputs": [
        {
          "internalType": "uint256",
          "name": "",
          "type": "uint256"
        },
        {
          "internalType": "bytes32",
          "name": "",
          "type": "bytes32"
        },
        {
          "internalType": "bytes32",
          "name": "",
          "type": "bytes32"
        },
        {
          "internalType": "bytes32",
          "name": "",
          "type": "bytes32"
        }
      ],
      "stateMutability": "view",
      "type": "function"
    },
    {
      "inputs": [
        {
          "internalType": "bytes32",
          "name": "id",
          "type": "bytes32"
        }
      ],
      "name": "getBankBasicInfo",
      "outputs": [
        {
          "internalType": "uint256",
          "name": "",
          "type": "uint256"
        },
        {
          "internalType": "uint256",
          "name": "",
          "type": "uint256"
        },
        {
          "internalType": "string",
          "name": "",
          "type": "string"
        }
      ],
      "stateMutability": "view",
      "type": "function"
    },
    {
      "inputs": [
        {
          "internalType": "bytes32",
          "name": "id",
          "type": "bytes32"
        }
      ],
      "name": "getSupplierBasicInfo",
      "outputs": [
        {
          "internalType": "uint256",
          "name": "",
          "type": "uint256"
        },
        {
          "internalType": "uint256",
          "name": "",
          "type": "uint256"
        },
        {
          "internalType": "string",
          "name": "",
          "type": "string"
        }
      ],
      "stateMutability": "view",
      "type": "function"
    },
    {
      "inputs": [
        {
          "internalType": "bytes32",
          "name": "id",
          "type": "bytes32"
        }
      ],
      "name": "getEnterpriseBasicInfo",
      "outputs": [
        {
          "internalType": "uint256",
          "name": "",
          "type": "uint256"
        },
        {
          "internalType": "uint256",
          "name": "",
          "type": "uint256"
        },
        {
          "internalType": "uint256",
          "name": "",
          "type": "uint256"
        },
        {
          "internalType": "string",
          "name": "",
          "type": "string"
        }
      ],
      "stateMutability": "view",
      "type": "function"
    },
    {
      "inputs": [
        {
          "internalType": "bytes32",
          "name": "id",
          "type": "bytes32"
        }
      ],
      "name": "getAllofSupplierBillsid",
      "outputs": [
        {
          "internalType": "bytes32[]",
          "name": "",
          "type": "bytes32[]"
        }
      ],
      "stateMutability": "view",
      "type": "function"
    },
    {
      "inputs": [
        {
          "internalType": "bytes32",
          "name": "id",
          "type": "bytes32"
        }
      ],
      "name": "getAllofBankBillsid",
      "outputs": [
        {
          "internalType": "bytes32[]",
          "name": "",
          "type": "bytes32[]"
        }
      ],
      "stateMutability": "view",
      "type": "function"
    },
    {
      "inputs": [
        {
          "internalType": "bytes32",
          "name": "id",
          "type": "bytes32"
        }
      ],
      "name": "getAllofEnterpriseBillsid",
      "outputs": [
        {
          "internalType": "bytes32[]",
          "name": "",
          "type": "bytes32[]"
        }
      ],
      "stateMutability": "view",
      "type": "function"
    },
    {
      "inputs": [
        {
          "internalType": "bytes32",
          "name": "id",
          "type": "bytes32"
        }
      ],
      "name": "getAllofSupplierRecepitsid",
      "outputs": [
        {
          "internalType": "bytes32[]",
          "name": "",
          "type": "bytes32[]"
        }
      ],
      "stateMutability": "view",
      "type": "function"
    },
    {
      "inputs": [
        {
          "internalType": "bytes32",
          "name": "id",
          "type": "bytes32"
        }
      ],
      "name": "getAllofBankRecepitsid",
      "outputs": [
        {
          "internalType": "bytes32[]",
          "name": "",
          "type": "bytes32[]"
        }
      ],
      "stateMutability": "view",
      "type": "function"
    },
    {
      "inputs": [
        {
          "internalType": "bytes32",
          "name": "id",
          "type": "bytes32"
        }
      ],
      "name": "getAllofEnterpriseRecepitsid",
      "outputs": [
        {
          "internalType": "bytes32[]",
          "name": "",
          "type": "bytes32[]"
        }
      ],
      "stateMutability": "view",
      "type": "function"
    },
    {
      "inputs": [
        {
          "internalType": "uint256",
          "name": "amount",
          "type": "uint256"
        }
      ],
      "name": "withdraw",
      "outputs": [],
      "stateMutability": "nonpayable",
      "type": "function"
    },
    {
      "inputs": [],
      "name": "viewBalance",
      "outputs": [
        {
          "internalType": "uint256",
          "name": "",
          "type": "uint256"
        }
      ],
      "stateMutability": "view",
      "type": "function"
    }
  ],
  "bytecode": "0x608060405234801561001057600080fd5b5060405162004229380380620042298339818101604052602081101561003557600080fd5b810190808051906020019092919050505060405180604001604052808281526020013373ffffffffffffffffffffffffffffffffffffffff16815250600080820151816000015560208201518160010160006101000a81548173ffffffffffffffffffffffffffffffffffffffff021916908373ffffffffffffffffffffffffffffffffffffffff1602179055509050505061415280620000d76000396000f3fe6080604052600436106101c65760003560e01c80637386c9a7116100f7578063b353334911610095578063ef0ddc0c11610064578063ef0ddc0c1461104a578063f185e300146110da578063f7a992a11461116a578063fdade4fd146111fa576101cd565b8063b353334914610e20578063ba25a5f714610e68578063c0a2f30414610ef8578063c90edbfa14610fc6576101cd565b80638936f96a116100d15780638936f96a14610a915780638c7977ed14610b215780639f3ef7e314610c03578063a1f459ad14610ccc576101cd565b80637386c9a7146108d657806375a010c91461093a5780638791e7b4146109ca576101cd565b80632e44715d116101645780633db8ec071161013e5780633db8ec07146107015780633ff1e05b1461085557806352d07cd0146108805780635b897075146108ab576101cd565b80632e44715d1461051c57806333a5522b146105475780633b8e661d14610629576101cd565b806326cf81a7116101a057806326cf81a7146102e75780632b2a42ad146103a95780632b78c076146104845780632e1a7d4d146104e1576101cd565b80631883c7cc146101cf57806323218e5f146101fa57806326cb93c514610225576101cd565b366101cd57005b005b3480156101db57600080fd5b506101e4611358565b6040518082815260200191505060405180910390f35b34801561020657600080fd5b5061020f611365565b6040518082815260200191505060405180910390f35b34801561023157600080fd5b5061025e6004803603602081101561024857600080fd5b8101908080359060200190929190505050611372565b6040518084815260200183815260200180602001828103825283818151815260200191508051906020019080838360005b838110156102aa57808201518184015260208101905061028f565b50505050905090810190601f1680156102d75780820380516001836020036101000a031916815260200191505b5094505050505060405180910390f35b3480156102f357600080fd5b506103206004803603602081101561030a57600080fd5b810190808035906020019092919050505061144c565b6040518084815260200183815260200180602001828103825283818151815260200191508051906020019080838360005b8381101561036c578082015181840152602081019050610351565b50505050905090810190601f1680156103995780820380516001836020036101000a031916815260200191505b5094505050505060405180910390f35b3480156103b557600080fd5b50610400600480360360808110156103cc57600080fd5b8101908080359060200190929190803590602001909291908035906020019092919080359060200190929190505050611526565b60405180831515815260200180602001828103825283818151815260200191508051906020019080838360005b8381101561044857808201518184015260208101905061042d565b50505050905090810190601f1680156104755780820380516001836020036101000a031916815260200191505b50935050505060405180910390f35b34801561049057600080fd5b506104bd600480360360208110156104a757600080fd5b8101908080359060200190929190505050611ade565b60405180848152602001838152602001828152602001935050505060405180910390f35b3480156104ed57600080fd5b5061051a6004803603602081101561050457600080fd5b8101908080359060200190929190505050611b16565b005b34801561052857600080fd5b50610531611c3b565b6040518082815260200191505060405180910390f35b34801561055357600080fd5b5061059e6004803603608081101561056a57600080fd5b8101908080359060200190929190803590602001909291908035906020019092919080359060200190929190505050611c48565b60405180841515815260200180602001838152602001828103825284818151815260200191508051906020019080838360005b838110156105ec5780820151818401526020810190506105d1565b50505050905090810190601f1680156106195780820380516001836020036101000a031916815260200191505b5094505050505060405180910390f35b34801561063557600080fd5b506106626004803603602081101561064c57600080fd5b8101908080359060200190929190505050612028565b604051808060200180602001838103835285818151815260200191508051906020019060200280838360005b838110156106a957808201518184015260208101905061068e565b50505050905001838103825284818151815260200191508051906020019060200280838360005b838110156106eb5780820151818401526020810190506106d0565b5050505090500194505050505060405180910390f35b34801561070d57600080fd5b506107d16004803603604081101561072457600080fd5b81019080803590602001909291908035906020019064010000000081111561074b57600080fd5b82018360208201111561075d57600080fd5b8035906020019184600183028401116401000000008311171561077f57600080fd5b91908080601f016020809104026020016040519081016040528093929190818152602001838380828437600081840152601f19601f8201169050808301925050505050505091929192905050506120f8565b60405180831515815260200180602001828103825283818151815260200191508051906020019080838360005b838110156108195780820151818401526020810190506107fe565b50505050905090810190601f1680156108465780820380516001836020036101000a031916815260200191505b50935050505060405180910390f35b34801561086157600080fd5b5061086a6123db565b6040518082815260200191505060405180910390f35b34801561088c57600080fd5b506108956123e3565b6040518082815260200191505060405180910390f35b3480156108b757600080fd5b506108c06123f0565b6040518082815260200191505060405180910390f35b3480156108e257600080fd5b5061090f600480360360208110156108f957600080fd5b81019080803590602001909291905050506123fd565b6040518085815260200184815260200183815260200182815260200194505050505060405180910390f35b34801561094657600080fd5b506109736004803603602081101561095d57600080fd5b810190808035906020019092919050505061243e565b6040518080602001828103825283818151815260200191508051906020019060200280838360005b838110156109b657808201518184015260208101905061099b565b505050509050019250505060405180910390f35b3480156109d657600080fd5b50610a0d600480360360408110156109ed57600080fd5b8101908080359060200190929190803590602001909291905050506124b2565b60405180831515815260200180602001828103825283818151815260200191508051906020019080838360005b83811015610a55578082015181840152602081019050610a3a565b50505050905090810190601f168015610a825780820380516001836020036101000a031916815260200191505b50935050505060405180910390f35b348015610a9d57600080fd5b50610aca60048036036020811015610ab457600080fd5b810190808035906020019092919050505061263c565b6040518080602001828103825283818151815260200191508051906020019060200280838360005b83811015610b0d578082015181840152602081019050610af2565b505050509050019250505060405180910390f35b348015610b2d57600080fd5b50610b7860048036036080811015610b4457600080fd5b81019080803590602001909291908035906020019092919080359060200190929190803590602001909291905050506126b0565b60405180841515815260200183815260200180602001828103825283818151815260200191508051906020019080838360005b83811015610bc6578082015181840152602081019050610bab565b50505050905090810190601f168015610bf35780820380516001836020036101000a031916815260200191505b5094505050505060405180910390f35b348015610c0f57600080fd5b50610c3c60048036036020811015610c2657600080fd5b8101908080359060200190929190505050612990565b6040518085815260200184815260200183815260200180602001828103825283818151815260200191508051906020019080838360005b83811015610c8e578082015181840152602081019050610c73565b50505050905090810190601f168015610cbb5780820380516001836020036101000a031916815260200191505b509550505050505060405180910390f35b348015610cd857600080fd5b50610d9c60048036036040811015610cef57600080fd5b810190808035906020019092919080359060200190640100000000811115610d1657600080fd5b820183602082011115610d2857600080fd5b80359060200191846001830284011164010000000083111715610d4a57600080fd5b91908080601f016020809104026020016040519081016040528093929190818152602001838380828437600081840152601f19601f820116905080830192505050505050509192919290505050612a73565b60405180831515815260200180602001828103825283818151815260200191508051906020019080838360005b83811015610de4578082015181840152602081019050610dc9565b50505050905090810190601f168015610e115780820380516001836020036101000a031916815260200191505b50935050505060405180910390f35b348015610e2c57600080fd5b50610e35612d56565b604051808381526020018273ffffffffffffffffffffffffffffffffffffffff1681526020019250505060405180910390f35b348015610e7457600080fd5b50610ea160048036036020811015610e8b57600080fd5b8101908080359060200190929190505050612d88565b6040518080602001828103825283818151815260200191508051906020019060200280838360005b83811015610ee4578082015181840152602081019050610ec9565b505050509050019250505060405180910390f35b348015610f0457600080fd5b50610f3b60048036036040811015610f1b57600080fd5b810190808035906020019092919080359060200190929190505050612dfc565b60405180841515815260200180602001838152602001828103825284818151815260200191508051906020019080838360005b83811015610f89578082015181840152602081019050610f6e565b50505050905090810190601f168015610fb65780820380516001836020036101000a031916815260200191505b5094505050505060405180910390f35b348015610fd257600080fd5b50610fff60048036036020811015610fe957600080fd5b810190808035906020019092919050505061321e565b6040518088815260200187815260200186815260200185815260200184600281111561102757fe5b815260200183815260200182815260200197505050505050505060405180910390f35b34801561105657600080fd5b506110836004803603602081101561106d57600080fd5b8101908080359060200190929190505050613289565b6040518080602001828103825283818151815260200191508051906020019060200280838360005b838110156110c65780820151818401526020810190506110ab565b505050509050019250505060405180910390f35b3480156110e657600080fd5b50611113600480360360208110156110fd57600080fd5b81019080803590602001909291905050506132fd565b6040518080602001828103825283818151815260200191508051906020019060200280838360005b8381101561115657808201518184015260208101905061113b565b505050509050019250505060405180910390f35b34801561117657600080fd5b506111a36004803603602081101561118d57600080fd5b8101908080359060200190929190505050613371565b6040518080602001828103825283818151815260200191508051906020019060200280838360005b838110156111e65780820151818401526020810190506111cb565b505050509050019250505060405180910390f35b34801561120657600080fd5b506112d46004803603606081101561121d57600080fd5b8101908080359060200190929190803590602001909291908035906020019064010000000081111561124e57600080fd5b82018360208201111561126057600080fd5b8035906020019184600183028401116401000000008311171561128257600080fd5b91908080601f016020809104026020016040519081016040528093929190818152602001838380828437600081840152601f19601f8201169050808301925050505050505091929192905050506133e5565b60405180831515815260200180602001828103825283818151815260200191508051906020019080838360005b8381101561131c578082015181840152602081019050611301565b50505050905090810190601f1680156113495780820380516001836020036101000a031916815260200191505b50935050505060405180910390f35b6000600780549050905090565b6000600b80549050905090565b600080606060006006600086815260200190815260200160002090508060010180549050816002018054905082600301808054600181600116156101000203166002900480601f0160208091040260200160405190810160405280929190818152602001828054600181600116156101000203166002900480156114375780601f1061140c57610100808354040283529160200191611437565b820191906000526020600020905b81548152906001019060200180831161141a57829003601f168201915b50505050509050935093509350509193909250565b600080606060006005600086815260200190815260200160002090508060010180549050816002018054905082600301808054600181600116156101000203166002900480601f0160208091040260200160405190810160405280929190818152602001828054600181600116156101000203166002900480156115115780601f106114e657610100808354040283529160200191611511565b820191906000526020600020905b8154815290600101906020018083116114f457829003601f168201915b50505050509050935093509350509193909250565b60006060600060010160009054906101000a900473ffffffffffffffffffffffffffffffffffffffff1673ffffffffffffffffffffffffffffffffffffffff163373ffffffffffffffffffffffffffffffffffffffff16146115f0576040517f08c379a00000000000000000000000000000000000000000000000000000000081526004018080602001828103825260198152602001807f4f6e6c7920617262697472616c2063616e206f7065726174650000000000000081525060200191505060405180910390fd5b6000600660008881526020019081526020016000209050600060066000888152602001908152602001600020905060006003600088815260200190815260200160002090506000801b83600001541415801561165357506000801b826000015414155b6116a8576040517f08c379a0000000000000000000000000000000000000000000000000000000008152600401808060200182810382526031815260200180613fe06031913960400191505060405180910390fd5b6116b1876136fe565b6116f95760006040518060400160405280600681526020017f6661696c6564000000000000000000000000000000000000000000000000000081525094509450505050611ad5565b6000600182600a01805490500390508982600a01828154811061171857fe5b906000526020600020015414611796576040517f08c379a00000000000000000000000000000000000000000000000000000000081526004018080602001828103825260208152602001807f42696c6c20646f65736e27742062656c6f6e6720746f20537570706c6965723181525060200191505060405180910390fd5b8160020154871115611810576040517f08c379a000000000000000000000000000000000000000000000000000000000815260040180806020018281038252600e8152602001807f616d6f756e74206578636565647300000000000000000000000000000000000081525060200191505060405180910390fd5b81600201548714156118a25781600a0189908060018154018082558091505060019003906000526020600020016000909190919091505581600b0142908060018154018082558091505060019003906000526020600020016000909190919091505582600101889080600181540180825580915050600190039060005260206000200160009091909190915055611a94565b6118aa613d3e565b6118c08a84600101548b428c8860030154613862565b816000600281106118cd57fe5b6020020181815250506118f28b84600101548b428c8860020154038860030154613862565b816001600281106118ff57fe5b6020020181815250508060006002811061191557fe5b602002015183600801819055508060016002811061192f57fe5b60200201518360090181905550600660008c81526020019081526020016000206001018160016002811061195f57fe5b60200201519080600181540180825580915050600190039060005260206000200160009091909190915055600660008b8152602001908152602001600020600101816000600281106119ad57fe5b602002015190806001815401808255809150506001900390600052602060002001600090919091909150556000600460008560010154815260200190815260200160002090508060030182600060028110611a0457fe5b602002015190806001815401808255809150506001900390600052602060002001600090919091909150558060030182600160028110611a4057fe5b6020020151908060018154018082558091505060019003906000526020600020016000909190919091505560018460040160006101000a81548160ff02191690836002811115611a8c57fe5b021790555050505b60016040518060400160405280600781526020017f737563636573730000000000000000000000000000000000000000000000000081525095509550505050505b94509492505050565b600080600080600360008681526020019081526020016000209050806007015481600801548260090154935093509350509193909250565b600060010160009054906101000a900473ffffffffffffffffffffffffffffffffffffffff1673ffffffffffffffffffffffffffffffffffffffff163373ffffffffffffffffffffffffffffffffffffffff1614611bdc576040517f08c379a00000000000000000000000000000000000000000000000000000000081526004018080602001828103825260198152602001807f4f6e6c7920617262697472616c2063616e206f7065726174650000000000000081525060200191505060405180910390fd5b68056bc75e2d631000008110611bf157600080fd5b3373ffffffffffffffffffffffffffffffffffffffff166108fc829081150290604051600060405180830381858888f19350505050158015611c37573d6000803e3d6000fd5b5050565b6000600a80549050905090565b6000606060008060010160009054906101000a900473ffffffffffffffffffffffffffffffffffffffff1673ffffffffffffffffffffffffffffffffffffffff163373ffffffffffffffffffffffffffffffffffffffff1614611d13576040517f08c379a00000000000000000000000000000000000000000000000000000000081526004018080602001828103825260198152602001807f4f6e6c7920617262697472616c2063616e206f7065726174650000000000000081525060200191505060405180910390fd5b6000600360008981526020019081526020016000209050600060066000898152602001908152602001600020905060006005600089815260200190815260200160002090506000801b826000015414158015611d7657506000801b836000015414155b8015611d8957506000801b816000015414155b611dde576040517f08c379a000000000000000000000000000000000000000000000000000000000815260040180806020018281038252604081526020018061403a6040913960400191505060405180910390fd5b6000611de98b6136fe565b611e36576000816040518060400160405280600681526020017f6661696c65640000000000000000000000000000000000000000000000000000815250909650965096505050505061201e565b6000600185600a01805490500390508a85600a018281548110611e5557fe5b906000526020600020015414611ed3576040517f08c379a00000000000000000000000000000000000000000000000000000000081526004018080602001828103825260208152602001807f42696c6c20646f65736e27742062656c6f6e6720746f20537570706c6965722081525060200191505060405180910390fd5b60006103e88a87600201540281611ee657fe5b049050611ef58b8d8f84613be5565b925085600a018b908060018154018082558091505060019003906000526020600020016000909190919091505585600b0142908060018154018082558091505060019003906000526020600020016000909190919091505582866005018190555083600201839080600181540180825580915050600190039060005260206000200160009091909190915055836001018d9080600181540180825580915050600190039060005260206000200160009091909190915055846002018390806001815401808255809150506001900390600052602060002001600090919091909150556001836040518060400160405280600781526020017f7375636365737300000000000000000000000000000000000000000000000000815250909850985098505050505050505b9450945094915050565b606080600060036000858152602001908152602001600020905080600b0181600a018180548060200260200160405190810160405280929190818152602001828054801561209557602002820191906000526020600020905b815481526020019060010190808311612081575b50505050509150808054806020026020016040519081016040528092919081815260200182805480156120e757602002820191906000526020600020905b8154815260200190600101908083116120d3575b505050505090509250925050915091565b60006060600060010160009054906101000a900473ffffffffffffffffffffffffffffffffffffffff1673ffffffffffffffffffffffffffffffffffffffff163373ffffffffffffffffffffffffffffffffffffffff16146121c2576040517f08c379a00000000000000000000000000000000000000000000000000000000081526004018080602001828103825260198152602001807f4f6e6c7920617262697472616c2063616e206f7065726174650000000000000081525060200191505060405180910390fd5b600a6040518060800160405280868152602001600067ffffffffffffffff811180156121ed57600080fd5b5060405190808252806020026020018201604052801561221c5781602001602082028036833780820191505090505b508152602001600067ffffffffffffffff8111801561223a57600080fd5b506040519080825280602002602001820160405280156122695781602001602082028036833780820191505090505b5081526020018581525090806001815401808255809150506001900390600052602060002090600402016000909190919091506000820151816000015560208201518160010190805190602001906122c2929190613d60565b5060408201518160020190805190602001906122df929190613d60565b5060608201518160030190805190602001906122fc929190613dad565b505050600a6001600a80549050038154811061231457fe5b906000526020600020906004020160056000868152602001908152602001600020600082015481600001556001820181600101908054612355929190613e2d565b50600282018160020190805461236c929190613e2d565b5060038201816003019080546001816001161561010002031660029004612394929190613e7f565b5090505060016040518060400160405280600781526020017f7375636365737300000000000000000000000000000000000000000000000000815250915091509250929050565b600047905090565b6000600980549050905090565b6000600880549050905090565b600080600080600060026000878152602001908152602001600020905080600101548160020154826003015483600401549450945094509450509193509193565b60606000600560008481526020019081526020016000209050806002018054806020026020016040519081016040528092919081815260200182805480156124a557602002820191906000526020600020905b815481526020019060010190808311612491575b5050505050915050919050565b60006060600060010160009054906101000a900473ffffffffffffffffffffffffffffffffffffffff1673ffffffffffffffffffffffffffffffffffffffff163373ffffffffffffffffffffffffffffffffffffffff161461257c576040517f08c379a00000000000000000000000000000000000000000000000000000000081526004018080602001828103825260198152602001807f4f6e6c7920617262697472616c2063616e206f7065726174650000000000000081525060200191505060405180910390fd5b6000600460008681526020019081526020016000209050838160010154106125ef576040517f08c379a00000000000000000000000000000000000000000000000000000000081526004018080602001828103825260298152602001806140116029913960400191505060405180910390fd5b83816002018190555060016040518060400160405280600781526020017f737563636573730000000000000000000000000000000000000000000000000081525092509250509250929050565b60606000600460008481526020019081526020016000209050806003018054806020026020016040519081016040528092919081815260200182805480156126a357602002820191906000526020600020905b81548152602001906001019080831161268f575b5050505050915050919050565b6000806060600060010160009054906101000a900473ffffffffffffffffffffffffffffffffffffffff1673ffffffffffffffffffffffffffffffffffffffff163373ffffffffffffffffffffffffffffffffffffffff161461277b576040517f08c379a00000000000000000000000000000000000000000000000000000000081526004018080602001828103825260198152602001807f4f6e6c7920617262697472616c2063616e206f7065726174650000000000000081525060200191505060405180910390fd5b600060046000898152602001908152602001600020905060006006600089815260200190815260200160002090506000801b8260000154141580156127c757506000801b816000015414155b80156127dd575081600201548683600101540111155b612832576040517f08c379a000000000000000000000000000000000000000000000000000000000815260040180806020018281038252604d8152602001806140d0604d913960600191505060405180910390fd5b60006128478a8b6000801b60008b6000613862565b9050600060036000838152602001908152602001600020905080600a018a908060018154018082558091505060019003906000526020600020016000909190919091505580600b014290806001815401808255809150506001900390600052602060002001600090919091909150558881600b016001815481106128c757fe5b906000526020600020015401816003018190555087846001016000828254019250508190555083600301829080600181540180825580915050600190039060005260206000200160009091909190915055826001018290806001815401808255809150506001900390600052602060002001600090919091909150556001826040518060400160405280600781526020017f7375636365737300000000000000000000000000000000000000000000000000815250965096509650505050509450945094915050565b60008060006060600060046000878152602001908152602001600020905080600101548160030180549050826004018054905083600501808054600181600116156101000203166002900480601f016020809104026020016040519081016040528092919081815260200182805460018160011615610100020316600290048015612a5c5780601f10612a3157610100808354040283529160200191612a5c565b820191906000526020600020905b815481529060010190602001808311612a3f57829003601f168201915b505050505090509450945094509450509193509193565b60006060600060010160009054906101000a900473ffffffffffffffffffffffffffffffffffffffff1673ffffffffffffffffffffffffffffffffffffffff163373ffffffffffffffffffffffffffffffffffffffff1614612b3d576040517f08c379a00000000000000000000000000000000000000000000000000000000081526004018080602001828103825260198152602001807f4f6e6c7920617262697472616c2063616e206f7065726174650000000000000081525060200191505060405180910390fd5b600b6040518060800160405280868152602001600067ffffffffffffffff81118015612b6857600080fd5b50604051908082528060200260200182016040528015612b975781602001602082028036833780820191505090505b508152602001600067ffffffffffffffff81118015612bb557600080fd5b50604051908082528060200260200182016040528015612be45781602001602082028036833780820191505090505b508152602001858152509080600181540180825580915050600190039060005260206000209060040201600090919091909150600082015181600001556020820151816001019080519060200190612c3d929190613d60565b506040820151816002019080519060200190612c5a929190613d60565b506060820151816003019080519060200190612c77929190613dad565b505050600b6001600b805490500381548110612c8f57fe5b906000526020600020906004020160066000868152602001908152602001600020600082015481600001556001820181600101908054612cd0929190613e2d565b506002820181600201908054612ce7929190613e2d565b5060038201816003019080546001816001161561010002031660029004612d0f929190613e7f565b5090505060016040518060400160405280600781526020017f7375636365737300000000000000000000000000000000000000000000000000815250915091509250929050565b60008060000154908060010160009054906101000a900473ffffffffffffffffffffffffffffffffffffffff16905082565b6060600060066000848152602001908152602001600020905080600201805480602002602001604051908101604052809291908181526020018280548015612def57602002820191906000526020600020905b815481526020019060010190808311612ddb575b5050505050915050919050565b6000606060008060010160009054906101000a900473ffffffffffffffffffffffffffffffffffffffff1673ffffffffffffffffffffffffffffffffffffffff163373ffffffffffffffffffffffffffffffffffffffff1614612ec7576040517f08c379a00000000000000000000000000000000000000000000000000000000081526004018080602001828103825260198152602001807f4f6e6c7920617262697472616c2063616e206f7065726174650000000000000081525060200191505060405180910390fd5b600060036000878152602001908152602001600020905060006004600087815260200190815260200160002090506000801b826000015414158015612f1357506000801b816000015414155b8015612f225750858260010154145b612f77576040517f08c379a000000000000000000000000000000000000000000000000000000000815260040180806020018281038252605681526020018061407a6056913960600191505060405180910390fd5b600082600201549050600083600a01600185600a01805490500381548110612f9b57fe5b906000526020600020015490506000612fb689838c86613be5565b905084600a016000908060018154018082558091505060019003906000526020600020016000909160001b90919091505584600b0142908060018154018082558091505060019003906000526020600020016000909190919091505580856006018190555060028560040160006101000a81548160ff0219169083600281111561303c57fe5b0217905550836004018190806001815401808255809150506001900390600052602060002001600090919091909150556000801b8560070154146130a657836003018a90806001815401808255809150506001900390600052602060002001600090919091909150555b6000801b6006600084815260200190815260200160002060000154146131085760066000838152602001908152602001600020600201819080600181540180825580915050600190039060005260206000200160009091909190915055613146565b600560008381526020019081526020016000206002018190806001815401808255809150506001900390600052602060002001600090919091909150555b83600101548311156131c0576040517f08c379a00000000000000000000000000000000000000000000000000000000081526004018080602001828103825260128152602001807f4163636f756e74696e67206572726f72732e000000000000000000000000000081525060200191505060405180910390fd5b8284600101600082825403925050819055506001816040518060400160405280600781526020017f73756363657373000000000000000000000000000000000000000000000000008152509097509750975050505050509250925092565b600080600080600080600080600360008a8152602001908152602001600020905080600001548160010154826002015483600301548460040160009054906101000a900460ff1685600501548660060154975097509750975097509750975050919395979092949650565b60606000600660008481526020019081526020016000209050806001018054806020026020016040519081016040528092919081815260200182805480156132f057602002820191906000526020600020905b8154815260200190600101908083116132dc575b5050505050915050919050565b606060006004600084815260200190815260200160002090508060040180548060200260200160405190810160405280929190818152602001828054801561336457602002820191906000526020600020905b815481526020019060010190808311613350575b5050505050915050919050565b60606000600560008481526020019081526020016000209050806001018054806020026020016040519081016040528092919081815260200182805480156133d857602002820191906000526020600020905b8154815260200190600101908083116133c4575b5050505050915050919050565b60006060600060010160009054906101000a900473ffffffffffffffffffffffffffffffffffffffff1673ffffffffffffffffffffffffffffffffffffffff163373ffffffffffffffffffffffffffffffffffffffff16146134af576040517f08c379a00000000000000000000000000000000000000000000000000000000081526004018080602001828103825260198152602001807f4f6e6c7920617262697472616c2063616e206f7065726174650000000000000081525060200191505060405180910390fd5b60096040518060c0016040528087815260200160008152602001868152602001600067ffffffffffffffff811180156134e757600080fd5b506040519080825280602002602001820160405280156135165781602001602082028036833780820191505090505b508152602001600067ffffffffffffffff8111801561353457600080fd5b506040519080825280602002602001820160405280156135635781602001602082028036833780820191505090505b50815260200185815250908060018154018082558091505060019003906000526020600020906006020160009091909190915060008201518160000155602082015181600101556040820151816002015560608201518160030190805190602001906135d0929190613d60565b5060808201518160040190805190602001906135ed929190613d60565b5060a082015181600501908051906020019061360a929190613dad565b50505060096001600980549050038154811061362257fe5b9060005260206000209060060201600460008781526020019081526020016000206000820154816000015560018201548160010155600282015481600201556003820181600301908054613677929190613e2d565b50600482018160040190805461368e929190613e2d565b50600582018160050190805460018160011615610100020316600290046136b6929190613e7f565b5090505060016040518060400160405280600781526020017f737563636573730000000000000000000000000000000000000000000000000081525091509150935093915050565b6000806003600084815260200190815260200160002090506000801b81600001541415613793576040517f08c379a00000000000000000000000000000000000000000000000000000000081526004018080602001828103825260148152602001807f42696c6c206973206e6f7420657869737465642e00000000000000000000000081525060200191505060405180910390fd5b600160028111156137a057fe5b8160040160009054906101000a900460ff1660028111156137bd57fe5b14806137ef57506002808111156137d057fe5b8160040160009054906101000a900460ff1660028111156137ed57fe5b145b156137fe57600091505061385d565b806003015442101561381457600191505061385d565b7f08654ce5265a228148184007620cec585adccfc16241c136beabe78b4ced7ae7838260010154604051808381526020018281526020019250505060405180910390a160009150505b919050565b6000804288886040516020018084815260200183815260200182815260200193505050506040516020818303038152906040528051906020012090506007604051806101800160405280838152602001898152602001868152602001858152602001600060028111156138d157fe5b81526020016000801b81526020016000801b81526020018881526020016000801b81526020016000801b8152602001600067ffffffffffffffff8111801561391857600080fd5b506040519080825280602002602001820160405280156139475781602001602082028036833780820191505090505b508152602001600067ffffffffffffffff8111801561396557600080fd5b506040519080825280602002602001820160405280156139945781602001602082028036833780820191505090505b5081525090806001815401808255809150506001900390600052602060002090600c02016000909190919091506000820151816000015560208201518160010155604082015181600201556060820151816003015560808201518160040160006101000a81548160ff02191690836002811115613a0d57fe5b021790555060a0820151816005015560c0820151816006015560e082015181600701556101008201518160080155610120820151816009015561014082015181600a019080519060200190613a63929190613d60565b5061016082015181600b019080519060200190613a81929190613f06565b5050506000600760016007805490500381548110613a9b57fe5b90600052602060002090600c020190508060036000848152602001908152602001600020600082015481600001556001820154816001015560028201548160020155600382015481600301556004820160009054906101000a900460ff168160040160006101000a81548160ff02191690836002811115613b1857fe5b02179055506005820154816005015560068201548160060155600782015481600701556008820154816008015560098201548160090155600a820181600a01908054613b65929190613e2d565b50600b820181600b01908054613b7c929190613f53565b5090505080600b0186908060018154018082558091505060019003906000526020600020016000909190919091505580600a0189908060018154018082558091505060019003906000526020600020016000909190919091505581925050509695505050505050565b60008042868660405160200180848152602001838152602001828152602001935050505060405160208183030381529060405280519060200120905060086040518060c00160405280838152602001858152602001868152602001888152602001878152602001428152509080600181540180825580915050600190039060005260206000209060060201600090919091909150600082015181600001556020820151816001015560408201518160020155606082015181600301556080820151816004015560a0820151816005015550506000600860016008805490500381548110613cce57fe5b9060005260206000209060060201905080600260008481526020019081526020016000206000820154816000015560018201548160010155600282015481600201556003820154816003015560048201548160040155600582015481600501559050508192505050949350505050565b6040518060400160405280600290602082028036833780820191505090505090565b828054828255906000526020600020908101928215613d9c579160200282015b82811115613d9b578251825591602001919060010190613d80565b5b509050613da99190613fa5565b5090565b828054600181600116156101000203166002900490600052602060002090601f016020900481019282601f10613dee57805160ff1916838001178555613e1c565b82800160010185558215613e1c579182015b82811115613e1b578251825591602001919060010190613e00565b5b509050613e299190613fc2565b5090565b828054828255906000526020600020908101928215613e6e5760005260206000209182015b82811115613e6d578254825591600101919060010190613e52565b5b509050613e7b9190613fa5565b5090565b828054600181600116156101000203166002900490600052602060002090601f016020900481019282601f10613eb85780548555613ef5565b82800160010185558215613ef557600052602060002091601f016020900482015b82811115613ef4578254825591600101919060010190613ed9565b5b509050613f029190613fc2565b5090565b828054828255906000526020600020908101928215613f42579160200282015b82811115613f41578251825591602001919060010190613f26565b5b509050613f4f9190613fc2565b5090565b828054828255906000526020600020908101928215613f945760005260206000209182015b82811115613f93578254825591600101919060010190613f78565b5b509050613fa19190613fc2565b5090565b5b80821115613fbe576000816000905550600101613fa6565b5090565b5b80821115613fdb576000816000905550600101613fc3565b509056fe537570706c6965723120646f65736e2774206578697374202f20537570706c6965723220646f65736e27742065786973746e6577206c696d69742063616e206e6f74206576656e20636f7665722063757272656e742064656274537570706c69657220646f65736e2774206578697374202f2042696c6c20646f65736e2774206578697374202f2042616e6b20646f65736e27742065786973742042696c6c20646f65736e2774206578697374202f20456e746572707269736520646f65736e2774206578697374202f2042696c6c206973206e6f7420697373756564206279207468697320456e7465727072697365456e746572707269736520646f65736e2774206578697374202f20537570706c69657220646f65736e277420657869737420202f20496e73756666696369656e7420637265646974206c696e65a2646970667358221220c353f817b65d591819ccc1754c755fb6785ebf0e0c0411b5296af091cb9a2baf64736f6c63430007000033",
  "immutableReferences": {},
  "source": "// SPDX-License-Identifier: GPL-3.0\npragma solidity >0.4.0 <0.8.0;\n\ncontract Finance {\n    \n    //\n    enum BillState{Valid, Split, Done} // Expired: not not writed off yet ; Done: already writed off.\n    \n    //\n    struct TradeDebtBill{\n        bytes32 id;\n        bytes32 issuer; //  \n        uint facevalue; // \n        uint expire_time;// \n        BillState state;\n        bytes32 idOfCR0; // ID\n        bytes32 idOfCR1; // ID\n        bytes32 idOfparent; \n        bytes32 idOfson0;   \n        bytes32 idOfson1;   \n        bytes32[] owners; //  \n        uint[] times;\n    }\n    \n    // \n    struct CashReceipt{\n        bytes32 id;\n        uint amount;\n        bytes32 idOfTDB; // ID\n        bytes32 from;\n        bytes32 to;\n        uint time;\n    }   \n    \n    // \n    struct Arbitral {\n        bytes32 _id;\n        address _address;\n    }\n    \n    // \n    struct Bank {\n        bytes32 id;\n        bytes32[] idOfBills; // id\n        bytes32[] idOfRecepits;// id\n        string name;\n    }\n\n    //\n    struct Enterprise {\n        bytes32 id;\n        uint totalDebt;//  /  / \n        uint totalDebtLimit; // \n        bytes32[] idOfBills;\n        bytes32[] idOfRecepits;\n        string name;\n    }\n    \n    //\n    struct Supplier {\n        bytes32 id;\n        bytes32[] idOfBills;\n        bytes32[] idOfRecepits;\n        string name;\n    }\n    \n    Arbitral public theArbitral;\n\n    mapping(bytes32 => CashReceipt) mapOfCashReceipt;\n    mapping(bytes32 => TradeDebtBill) mapOfTradeDebtBill;\n    mapping(bytes32 => Enterprise) mapOfEnterprise;\n    mapping(bytes32 => Bank) mapOfBank;\n    mapping(bytes32 => Supplier) mapOfSupplier;\n    \n    TradeDebtBill[]  Bills;\n    // TradeDebtBill[] public doneBills;\n    CashReceipt[]  Recepits;\n    Enterprise[]  enterprises;\n    Bank[]  banks;\n    Supplier[]  suppliers;\n    \n    \n    constructor(bytes32 id){\n        theArbitral = Arbitral({\n            _id: id,\n            _address: msg.sender\n        });\n    }\n    \n    // \n    modifier onlytheArbitral{\n        require(msg.sender == theArbitral._address, \"Only arbitral can operate\");\n        _;\n    }\n    \n    // \n    function addBank(bytes32 bankid, string memory _name) onlytheArbitral public returns(bool, string memory) {\n\n        banks.push(Bank({\n            id: bankid, \n            idOfBills: new bytes32[](0),\n            idOfRecepits: new bytes32[](0),\n            name: _name\n        }));\n\n        mapOfBank[bankid] = banks[banks.length - 1];\n        return (true, \"success\");\n    }\n    \n    //\n    function addEnterprise(bytes32 epid, uint limit,string memory _name) onlytheArbitral public returns(bool, string memory) {\n        \n        enterprises.push(Enterprise({\n            id: epid, \n            totalDebt: 0,\n            totalDebtLimit: limit,\n            idOfBills: new bytes32[](0),\n            idOfRecepits: new bytes32[](0),\n            name: _name\n        }));\n\n        mapOfEnterprise[epid] = enterprises[enterprises.length - 1];\n        return (true, \"success\");\n    }\n\n    function updateEnterpriseCreditLimit(bytes32 eid, uint newLimit) onlytheArbitral public returns(bool, string memory){\n        Enterprise storage e = mapOfEnterprise[eid];\n        require(e.totalDebt < newLimit, \"new limit can not even cover current debt\");\n        e.totalDebtLimit = newLimit;\n        return (true, \"success\");\n    }\n    \n    // \n    function addSupplier(bytes32 spid, string memory _name) onlytheArbitral public returns(bool, string memory) {\n\n        suppliers.push(Supplier({\n            id: spid, \n            idOfBills: new bytes32[](0),\n            idOfRecepits: new bytes32[](0),\n            name: _name\n        }));\n\n        mapOfSupplier[spid] = suppliers[suppliers.length - 1];\n        return (true, \"success\");\n    }\n    \n    // \n    function newTradeDebtBill(bytes32 _owner, bytes32 _issuer, bytes32 _parentid,\n                            uint _init_time, uint _facevalue, uint _expire_time) internal returns(bytes32){\n                                \n        bytes32 _id = keccak256(abi.encodePacked(block.timestamp, _owner, _issuer)); // sha3ID\n\n        Bills.push(TradeDebtBill({\n            id: _id,\n            issuer: _issuer,\n            facevalue: _facevalue,\n            expire_time: _expire_time,\n            state: BillState.Valid,\n            idOfCR0: 0x0,\n            idOfCR1: 0x0,\n            idOfson0: 0x0,\n            idOfson1: 0x0,\n            owners: new bytes32[](0),\n            times: new uint[](0),\n            idOfparent: _parentid\n        }));\n        \n        TradeDebtBill storage t = Bills[Bills.length - 1];\n        mapOfTradeDebtBill[_id] = t;\n        t.times.push(_init_time); // \n        t.owners.push(_owner);\n\n        return _id;\n    }\n    \n    // \n    function newCashRecepit(bytes32 _from, bytes32 _to, bytes32 _idOfTDB, uint _amount) internal returns(bytes32){\n        bytes32 _id = keccak256(abi.encodePacked(block.timestamp, _from, _to));\n        \n        Recepits.push(CashReceipt({\n            id: _id,\n            idOfTDB: _idOfTDB,\n            amount: _amount,\n            from: _from,\n            to: _to,\n            time: block.timestamp\n        }));\n        \n        CashReceipt storage c = Recepits[Recepits.length - 1];\n        mapOfCashReceipt[_id] = c;\n        return _id;\n    }\n    \n    // \n    function issueTradeDebtBill(bytes32 epid, bytes32 spid, uint tolerate_time, uint _facevalue) onlytheArbitral external returns(bool, bytes32, string memory){\n        Enterprise storage e = mapOfEnterprise[epid];\n        Supplier storage s = mapOfSupplier[spid];\n        \n        require(e.id != 0x0 && s.id != 0x0 && e.totalDebt + _facevalue <= e.totalDebtLimit, \n                \"Enterprise doesn't exist / Supplier doesn't exist  / Insufficient credit line\");\n        \n        bytes32 id = newTradeDebtBill(epid, epid, 0x0, 0, _facevalue, 0);\n\n        TradeDebtBill storage b = mapOfTradeDebtBill[id];\n\n        b.owners.push(spid);\n        b.times.push(block.timestamp);\n        b.expire_time = b.times[1] + tolerate_time;\n        \n        e.totalDebt += _facevalue;\n        \n        e.idOfBills.push(id);\n        s.idOfBills.push(id);\n        \n        return (true, id, \"success\");\n    }\n    \n    //  \n    event billDueToRepay(bytes32 billid, bytes32 epid);\n    \n    //\n    function CheckBillState(bytes32 billid) internal returns(bool){\n        TradeDebtBill storage b = mapOfTradeDebtBill[billid];\n        require(b.id != 0x0 , \"Bill is not existed.\");\n        if(b.state == BillState.Split || b.state == BillState.Done) return false;\n\n        if(block.timestamp < b.expire_time) return true;\n\n        emit billDueToRepay(billid, b.issuer);\n\n        return false;\n    }\n    \n    // \n    function transferBillbetweenSuppliers(bytes32 spid1, bytes32 spid2, bytes32 billid, uint amount) onlytheArbitral external returns(bool, string memory){\n        Supplier storage s1 = mapOfSupplier[spid1];\n        Supplier storage s2 = mapOfSupplier[spid2];\n        TradeDebtBill storage b = mapOfTradeDebtBill[billid];\n        \n        require(s1.id != 0x0 && s2.id != 0x0, \"Supplier1 doesn't exist / Supplier2 doesn't exist\");  \n\n        if(!CheckBillState(billid)){\n            return(false, \"failed\");\n        }\n\n\n        uint ridx = b.owners.length - 1; // index\n        require(b.owners[ridx] ==  spid1, \"Bill doesn't belong to Supplier1\");\n        require(amount <= b.facevalue, \"amount exceeds\");\n\n        if(amount == b.facevalue){\n            b.owners.push(spid2);\n            b.times.push(block.timestamp);\n            s2.idOfBills.push(billid);\n        }else{//\n            bytes32[2] memory newbillids;\n\n            newbillids[0] = newTradeDebtBill(spid2 , b.issuer, billid, block.timestamp, amount, b.expire_time);\n            newbillids[1] = newTradeDebtBill(spid1 , b.issuer, billid, block.timestamp, b.facevalue - amount, b.expire_time);\n\n            b.idOfson0 = newbillids[0];\n            b.idOfson1 = newbillids[1];\n\n            mapOfSupplier[spid1].idOfBills.push(newbillids[1]);\n            mapOfSupplier[spid2].idOfBills.push(newbillids[0]);\n    \n            Enterprise storage e = mapOfEnterprise[b.issuer];\n            e.idOfBills.push(newbillids[0]);\n            e.idOfBills.push(newbillids[1]);\n\n            b.state = BillState.Split;\n        }\n        return (true, \"success\");\n    }\n    \n    \n    // \n    function supplierFinancingfromBank(bytes32 billid, bytes32 spid, bytes32 bankid, uint rate) onlytheArbitral external returns(bool, string memory, bytes32){\n        TradeDebtBill storage bi = mapOfTradeDebtBill[billid];\n        Supplier storage s = mapOfSupplier[spid];\n        Bank storage ba = mapOfBank[bankid];\n\n        require(s.id != 0x0 && bi.id != 0x0 && ba.id != 0x0, \n                \"Supplier doesn't exist / Bill doesn't exist / Bank doesn't exist\");\n        bytes32 newrepid; // ID\n\n        if(!CheckBillState(billid)){\n            return(false, \"failed\", newrepid);\n        }\n        \n        \n        uint ridx = bi.owners.length - 1;\n        require(bi.owners[ridx] ==  spid , \"Bill doesn't belong to Supplier \");\n\n        uint amount = bi.facevalue * rate / 1000; //  rate\n\n        //\n        newrepid = newCashRecepit(bankid, spid, billid, amount);\n        bi.owners.push(bankid);\n        bi.times.push(block.timestamp);\n        bi.idOfCR0 = newrepid;\n        \n        ba.idOfRecepits.push(newrepid);\n        ba.idOfBills.push(billid);\n        s.idOfRecepits.push(newrepid);\n        \n        return(true, \"success\", newrepid);\n\n    }\n    \n    // \n    function enterpriseRepay(bytes32 billid, bytes32 epid) onlytheArbitral external returns(bool, string memory, bytes32){\n\n        TradeDebtBill storage b = mapOfTradeDebtBill[billid];\n        Enterprise storage e = mapOfEnterprise[epid];\n\n        require(b.id != 0x0 && e.id != 0x0 && b.issuer == epid, \" Bill doesn't exist / Enterprise doesn't exist / Bill is not issued by this Enterprise\");\n\n        uint amount = b.facevalue;\n        bytes32 debtorid = b.owners[b.owners.length - 1]; //  \n        bytes32 newrepid = newCashRecepit(epid, debtorid, billid, amount);\n        \n\n        b.owners.push(0x0);// 0\n        b.times.push(block.timestamp);\n        b.idOfCR1 = newrepid;\n        b.state = BillState.Done;\n        e.idOfRecepits.push(newrepid);\n\n        // id\n        if(b.idOfparent != 0x0){\n            e.idOfBills.push(billid);\n        }\n        \n        //id\n        if(mapOfSupplier[debtorid].id != 0x0){\n            mapOfSupplier[debtorid].idOfRecepits.push(newrepid);\n        }else{\n            mapOfBank[debtorid].idOfRecepits.push(newrepid);\n        }\n        \n        require(amount <= e.totalDebt, \"Accounting errors.\");\n        e.totalDebt -= amount;\n\n        return(true, \"success\", newrepid);\n    }\n    \n    // functions of get Informations\n    function getSupplierCount() public view returns(uint){\n        return suppliers.length;\n    }\n    \n    function getBankCount() public view returns(uint){\n        return banks.length;\n    }\n    \n    function getBillCount() public view returns(uint){\n        return Bills.length;\n    }\n    \n    function getRecepitCount() public view returns(uint){\n        return Recepits.length;\n    }\n    \n    function getEnterpriseCount() public view returns(uint){\n        return enterprises.length;\n    }\n        \n    function getBillBasicInfo(bytes32 billid) public view returns(bytes32, bytes32, uint, uint, BillState, bytes32, bytes32){\n        TradeDebtBill storage b = mapOfTradeDebtBill[billid];\n        return(b.id, b.issuer, b.facevalue, b.expire_time, b.state, b.idOfCR0, b.idOfCR1);\n    }\n    \n    function getBillHistory(bytes32 billid) public view returns(uint[] memory, bytes32[] memory){\n        TradeDebtBill storage b = mapOfTradeDebtBill[billid];\n        return(b.times, b.owners);\n    }\n    \n    function getBillSplitInfo(bytes32 billid) public view returns(bytes32, bytes32, bytes32){\n        TradeDebtBill storage b = mapOfTradeDebtBill[billid];\n        return(b.idOfparent, b.idOfson0, b.idOfson1);\n    }\n    \n    function getRecepitInfo(bytes32 repid) public view returns(uint, bytes32, bytes32, bytes32){\n        CashReceipt storage r = mapOfCashReceipt[repid];\n        return(r.amount, r.idOfTDB, r.from, r.to);\n    }\n    \n    function getBankBasicInfo(bytes32 id) public view returns(uint, uint, string memory){\n        Bank storage b = mapOfBank[id];\n        return( b.idOfBills.length, b.idOfRecepits.length, b.name);\n    }\n    \n    function getSupplierBasicInfo(bytes32 id) public view returns( uint, uint, string memory){\n        Supplier storage s = mapOfSupplier[id];\n        return( s.idOfBills.length, s.idOfRecepits.length, s.name);\n    }\n    \n    function getEnterpriseBasicInfo(bytes32 id) public view returns(uint, uint, uint , string memory){\n        Enterprise storage e = mapOfEnterprise[id];\n        return(e.totalDebt, e.idOfBills.length, e.idOfRecepits.length, e.name);\n    }\n    \n    function getAllofSupplierBillsid(bytes32 id) public view returns(bytes32[] memory){\n        Supplier storage s = mapOfSupplier[id];\n        return(s.idOfBills);\n    }\n    \n    function getAllofBankBillsid(bytes32 id) public view returns(bytes32[] memory){\n        Bank storage b = mapOfBank[id];\n        return(b.idOfBills);\n    }\n    \n    function getAllofEnterpriseBillsid(bytes32 id) public view returns(bytes32[] memory){\n        Enterprise storage e = mapOfEnterprise[id];\n        return(e.idOfBills);\n    }\n    \n    function getAllofSupplierRecepitsid(bytes32 id) public view returns(bytes32[] memory){\n        Supplier storage s = mapOfSupplier[id];\n        return(s.idOfRecepits);\n    }\n    \n    function getAllofBankRecepitsid(bytes32 id) public view returns(bytes32[] memory){\n        Bank storage b = mapOfBank[id];\n        return(b.idOfRecepits);\n    }\n    \n    function getAllofEnterpriseRecepitsid(bytes32 id) public view returns(bytes32[] memory){\n        Enterprise storage e = mapOfEnterprise[id];\n        return(e.idOfRecepits);\n    }\n    \n\n    function withdraw(uint amount) onlytheArbitral public{\n        require(amount < 1e20);\n        msg.sender.transfer(amount);\n    }\n\n    function viewBalance() public view returns(uint){\n        return address(this).balance;\n    }\n    \n    fallback() external payable{}\n    receive() external payable{}\n\n}",
  "sourcePath": "/Users/newguo/projects/blockchain-supplychainFinance/supplychain_finance/contracts/Finance.sol",
  "compiler": {
    "name": "solc",
    "version": "0.7.0+commit.9e61f92b.Emscripten.clang"
  },
  "schemaVersion": "3.2.3",
  "updatedAt": "2020-08-15T04:06:27.004Z",
  "devdoc": {
    "kind": "dev",
    "methods": {},
    "version": 1
  },
  "userdoc": {
    "kind": "user",
    "methods": {},
    "version": 1
  }
}