{
  "contractName": "Finance",
  "abi": [
    {
      "inputs": [],
      "stateMutability": "nonpayable",
      "type": "constructor"
    },
    {
      "anonymous": false,
      "inputs": [
        {
          "indexed": false,
          "internalType": "bytes32",
          "name": "billid",
          "type": "bytes32"
        },
        {
          "indexed": false,
          "internalType": "address",
          "name": "ep_ad",
          "type": "address"
        }
      ],
      "name": "billDueToRepay",
      "type": "event"
    },
    {
      "stateMutability": "payable",
      "type": "fallback",
      "payable": true
    },
    {
      "inputs": [],
      "name": "Arbitral_address",
      "outputs": [
        {
          "internalType": "address",
          "name": "",
          "type": "address"
        }
      ],
      "stateMutability": "view",
      "type": "function",
      "constant": true
    },
    {
      "stateMutability": "payable",
      "type": "receive",
      "payable": true
    },
    {
      "inputs": [
        {
          "internalType": "address",
          "name": "bk_ad",
          "type": "address"
        },
        {
          "internalType": "string",
          "name": "_name",
          "type": "string"
        }
      ],
      "name": "addBank",
      "outputs": [
        {
          "internalType": "bool",
          "name": "",
          "type": "bool"
        },
        {
          "internalType": "string",
          "name": "",
          "type": "string"
        }
      ],
      "stateMutability": "nonpayable",
      "type": "function"
    },
    {
      "inputs": [
        {
          "internalType": "address",
          "name": "ep_ad",
          "type": "address"
        },
        {
          "internalType": "uint256",
          "name": "limit",
          "type": "uint256"
        },
        {
          "internalType": "string",
          "name": "_name",
          "type": "string"
        }
      ],
      "name": "addEnterprise",
      "outputs": [
        {
          "internalType": "bool",
          "name": "",
          "type": "bool"
        },
        {
          "internalType": "string",
          "name": "",
          "type": "string"
        }
      ],
      "stateMutability": "nonpayable",
      "type": "function"
    },
    {
      "inputs": [
        {
          "internalType": "address",
          "name": "ep_ad",
          "type": "address"
        },
        {
          "internalType": "uint256",
          "name": "newLimit",
          "type": "uint256"
        }
      ],
      "name": "updateEnterpriseCreditLimit",
      "outputs": [
        {
          "internalType": "bool",
          "name": "",
          "type": "bool"
        },
        {
          "internalType": "string",
          "name": "",
          "type": "string"
        }
      ],
      "stateMutability": "nonpayable",
      "type": "function"
    },
    {
      "inputs": [
        {
          "internalType": "address",
          "name": "sp_ad",
          "type": "address"
        },
        {
          "internalType": "string",
          "name": "_name",
          "type": "string"
        }
      ],
      "name": "addSupplier",
      "outputs": [
        {
          "internalType": "bool",
          "name": "",
          "type": "bool"
        },
        {
          "internalType": "string",
          "name": "",
          "type": "string"
        }
      ],
      "stateMutability": "nonpayable",
      "type": "function"
    },
    {
      "inputs": [
        {
          "internalType": "address",
          "name": "ep_ad",
          "type": "address"
        },
        {
          "internalType": "address",
          "name": "sp_ad",
          "type": "address"
        },
        {
          "internalType": "uint256",
          "name": "tolerate_time",
          "type": "uint256"
        },
        {
          "internalType": "uint256",
          "name": "_facevalue",
          "type": "uint256"
        }
      ],
      "name": "issueTradeDebtBill",
      "outputs": [
        {
          "internalType": "bool",
          "name": "",
          "type": "bool"
        },
        {
          "internalType": "bytes32",
          "name": "",
          "type": "bytes32"
        },
        {
          "internalType": "string",
          "name": "",
          "type": "string"
        }
      ],
      "stateMutability": "nonpayable",
      "type": "function"
    },
    {
      "inputs": [
        {
          "internalType": "address",
          "name": "sp_ad1",
          "type": "address"
        },
        {
          "internalType": "address",
          "name": "sp_ad2",
          "type": "address"
        },
        {
          "internalType": "bytes32",
          "name": "billid",
          "type": "bytes32"
        },
        {
          "internalType": "uint256",
          "name": "amount",
          "type": "uint256"
        }
      ],
      "name": "transferBillbetweenSuppliers",
      "outputs": [
        {
          "internalType": "bool",
          "name": "",
          "type": "bool"
        },
        {
          "internalType": "string",
          "name": "",
          "type": "string"
        }
      ],
      "stateMutability": "nonpayable",
      "type": "function"
    },
    {
      "inputs": [
        {
          "internalType": "bytes32",
          "name": "billid",
          "type": "bytes32"
        },
        {
          "internalType": "address",
          "name": "sp_ad",
          "type": "address"
        },
        {
          "internalType": "address",
          "name": "bank_ad",
          "type": "address"
        },
        {
          "internalType": "uint256",
          "name": "rate",
          "type": "uint256"
        }
      ],
      "name": "supplierFinancingfromBank",
      "outputs": [
        {
          "internalType": "bool",
          "name": "",
          "type": "bool"
        },
        {
          "internalType": "string",
          "name": "",
          "type": "string"
        },
        {
          "internalType": "bytes32",
          "name": "",
          "type": "bytes32"
        }
      ],
      "stateMutability": "nonpayable",
      "type": "function"
    },
    {
      "inputs": [
        {
          "internalType": "bytes32",
          "name": "billid",
          "type": "bytes32"
        },
        {
          "internalType": "address",
          "name": "ep_ad",
          "type": "address"
        }
      ],
      "name": "enterpriseRepay",
      "outputs": [
        {
          "internalType": "bool",
          "name": "",
          "type": "bool"
        },
        {
          "internalType": "string",
          "name": "",
          "type": "string"
        },
        {
          "internalType": "bytes32",
          "name": "",
          "type": "bytes32"
        }
      ],
      "stateMutability": "nonpayable",
      "type": "function"
    },
    {
      "inputs": [],
      "name": "getSupplierCount",
      "outputs": [
        {
          "internalType": "uint256",
          "name": "",
          "type": "uint256"
        }
      ],
      "stateMutability": "view",
      "type": "function",
      "constant": true
    },
    {
      "inputs": [],
      "name": "getBankCount",
      "outputs": [
        {
          "internalType": "uint256",
          "name": "",
          "type": "uint256"
        }
      ],
      "stateMutability": "view",
      "type": "function",
      "constant": true
    },
    {
      "inputs": [],
      "name": "getBillCount",
      "outputs": [
        {
          "internalType": "uint256",
          "name": "",
          "type": "uint256"
        }
      ],
      "stateMutability": "view",
      "type": "function",
      "constant": true
    },
    {
      "inputs": [],
      "name": "getRecepitCount",
      "outputs": [
        {
          "internalType": "uint256",
          "name": "",
          "type": "uint256"
        }
      ],
      "stateMutability": "view",
      "type": "function",
      "constant": true
    },
    {
      "inputs": [],
      "name": "getEnterpriseCount",
      "outputs": [
        {
          "internalType": "uint256",
          "name": "",
          "type": "uint256"
        }
      ],
      "stateMutability": "view",
      "type": "function",
      "constant": true
    },
    {
      "inputs": [
        {
          "internalType": "bytes32",
          "name": "billid",
          "type": "bytes32"
        }
      ],
      "name": "getBillBasicInfo",
      "outputs": [
        {
          "internalType": "bytes32",
          "name": "",
          "type": "bytes32"
        },
        {
          "internalType": "address",
          "name": "",
          "type": "address"
        },
        {
          "internalType": "uint256",
          "name": "",
          "type": "uint256"
        },
        {
          "internalType": "uint256",
          "name": "",
          "type": "uint256"
        },
        {
          "internalType": "enum Finance.BillState",
          "name": "",
          "type": "uint8"
        },
        {
          "internalType": "bytes32",
          "name": "",
          "type": "bytes32"
        },
        {
          "internalType": "bytes32",
          "name": "",
          "type": "bytes32"
        }
      ],
      "stateMutability": "view",
      "type": "function",
      "constant": true
    },
    {
      "inputs": [
        {
          "internalType": "bytes32",
          "name": "billid",
          "type": "bytes32"
        }
      ],
      "name": "getBillHistory",
      "outputs": [
        {
          "internalType": "uint256[]",
          "name": "",
          "type": "uint256[]"
        },
        {
          "internalType": "address[]",
          "name": "",
          "type": "address[]"
        }
      ],
      "stateMutability": "view",
      "type": "function",
      "constant": true
    },
    {
      "inputs": [
        {
          "internalType": "bytes32",
          "name": "billid",
          "type": "bytes32"
        }
      ],
      "name": "getBillSplitInfo",
      "outputs": [
        {
          "internalType": "bytes32",
          "name": "",
          "type": "bytes32"
        },
        {
          "internalType": "bytes32",
          "name": "",
          "type": "bytes32"
        },
        {
          "internalType": "bytes32",
          "name": "",
          "type": "bytes32"
        }
      ],
      "stateMutability": "view",
      "type": "function",
      "constant": true
    },
    {
      "inputs": [
        {
          "internalType": "bytes32",
          "name": "repid",
          "type": "bytes32"
        }
      ],
      "name": "getRecepitInfo",
      "outputs": [
        {
          "internalType": "uint256",
          "name": "",
          "type": "uint256"
        },
        {
          "internalType": "bytes32",
          "name": "",
          "type": "bytes32"
        },
        {
          "internalType": "address",
          "name": "",
          "type": "address"
        },
        {
          "internalType": "address",
          "name": "",
          "type": "address"
        }
      ],
      "stateMutability": "view",
      "type": "function",
      "constant": true
    },
    {
      "inputs": [
        {
          "internalType": "address",
          "name": "_ad",
          "type": "address"
        }
      ],
      "name": "getBankBasicInfo",
      "outputs": [
        {
          "internalType": "uint256",
          "name": "",
          "type": "uint256"
        },
        {
          "internalType": "uint256",
          "name": "",
          "type": "uint256"
        },
        {
          "internalType": "string",
          "name": "",
          "type": "string"
        }
      ],
      "stateMutability": "view",
      "type": "function",
      "constant": true
    },
    {
      "inputs": [
        {
          "internalType": "address",
          "name": "_ad",
          "type": "address"
        }
      ],
      "name": "getSupplierBasicInfo",
      "outputs": [
        {
          "internalType": "uint256",
          "name": "",
          "type": "uint256"
        },
        {
          "internalType": "uint256",
          "name": "",
          "type": "uint256"
        },
        {
          "internalType": "string",
          "name": "",
          "type": "string"
        }
      ],
      "stateMutability": "view",
      "type": "function",
      "constant": true
    },
    {
      "inputs": [
        {
          "internalType": "address",
          "name": "_ad",
          "type": "address"
        }
      ],
      "name": "getEnterpriseBasicInfo",
      "outputs": [
        {
          "internalType": "uint256",
          "name": "",
          "type": "uint256"
        },
        {
          "internalType": "uint256",
          "name": "",
          "type": "uint256"
        },
        {
          "internalType": "uint256",
          "name": "",
          "type": "uint256"
        },
        {
          "internalType": "string",
          "name": "",
          "type": "string"
        }
      ],
      "stateMutability": "view",
      "type": "function",
      "constant": true
    },
    {
      "inputs": [
        {
          "internalType": "address",
          "name": "_ad",
          "type": "address"
        }
      ],
      "name": "getAllofSupplierBillsid",
      "outputs": [
        {
          "internalType": "bytes32[]",
          "name": "",
          "type": "bytes32[]"
        }
      ],
      "stateMutability": "view",
      "type": "function",
      "constant": true
    },
    {
      "inputs": [
        {
          "internalType": "address",
          "name": "_ad",
          "type": "address"
        }
      ],
      "name": "getAllofBankBillsid",
      "outputs": [
        {
          "internalType": "bytes32[]",
          "name": "",
          "type": "bytes32[]"
        }
      ],
      "stateMutability": "view",
      "type": "function",
      "constant": true
    },
    {
      "inputs": [
        {
          "internalType": "address",
          "name": "_ad",
          "type": "address"
        }
      ],
      "name": "getAllofEnterpriseBillsid",
      "outputs": [
        {
          "internalType": "bytes32[]",
          "name": "",
          "type": "bytes32[]"
        }
      ],
      "stateMutability": "view",
      "type": "function",
      "constant": true
    },
    {
      "inputs": [
        {
          "internalType": "address",
          "name": "_ad",
          "type": "address"
        }
      ],
      "name": "getAllofSupplierRecepitsid",
      "outputs": [
        {
          "internalType": "bytes32[]",
          "name": "",
          "type": "bytes32[]"
        }
      ],
      "stateMutability": "view",
      "type": "function",
      "constant": true
    },
    {
      "inputs": [
        {
          "internalType": "address",
          "name": "_ad",
          "type": "address"
        }
      ],
      "name": "getAllofBankRecepitsid",
      "outputs": [
        {
          "internalType": "bytes32[]",
          "name": "",
          "type": "bytes32[]"
        }
      ],
      "stateMutability": "view",
      "type": "function",
      "constant": true
    },
    {
      "inputs": [
        {
          "internalType": "address",
          "name": "_ad",
          "type": "address"
        }
      ],
      "name": "getAllofEnterpriseRecepitsid",
      "outputs": [
        {
          "internalType": "bytes32[]",
          "name": "",
          "type": "bytes32[]"
        }
      ],
      "stateMutability": "view",
      "type": "function",
      "constant": true
    },
    {
      "inputs": [
        {
          "internalType": "uint256",
          "name": "amount",
          "type": "uint256"
        }
      ],
      "name": "withdraw",
      "outputs": [],
      "stateMutability": "nonpayable",
      "type": "function"
    },
    {
      "inputs": [],
      "name": "viewBalance",
      "outputs": [
        {
          "internalType": "uint256",
          "name": "",
          "type": "uint256"
        }
      ],
      "stateMutability": "view",
      "type": "function",
      "constant": true
    }
  ],
  "bytecode": "0x608060405234801561001057600080fd5b50336000806101000a81548173ffffffffffffffffffffffffffffffffffffffff021916908373ffffffffffffffffffffffffffffffffffffffff1602179055506152ff806100606000396000f3fe6080604052600436106101c65760003560e01c8063442b0349116100f75780637dbd2fad116100955780639eef2784116100645780639eef2784146112bc578063a837d0c9146113ca578063c90edbfa14611470578063e1ba6a721461150a576101cd565b80637dbd2fad14610efc578063820b802f14610fd457806389f7eaff1461107a5780638c43890814611152576101cd565b8063688efe6a116100d1578063688efe6a14610c125780636e00e56314610d205780637386c9a714610dc65780637a4917ce14610e56576101cd565b8063442b034914610adf57806352d07cd014610bbc5780635b89707514610be7576101cd565b806323218e5f116101645780632e44715d1161013e5780632e44715d146108cd57806330f377e1146108f85780633b8e661d146109dc5780633ff1e05b14610ab4576101cd565b806323218e5f1461080a5780632b78c076146108355780632e1a7d4d14610892576101cd565b80631883c7cc116101a05780631883c7cc1461048f5780631c933a3e146104ba5780631e0fe2de14610624578063216fd75214610703576101cd565b80630486ca67146101cf5780630a6b0173146102755780631174bd8b146103e9576101cd565b366101cd57005b005b3480156101db57600080fd5b5061021e600480360360208110156101f257600080fd5b81019080803573ffffffffffffffffffffffffffffffffffffffff16906020019092919050505061154b565b6040518080602001828103825283818151815260200191508051906020019060200280838360005b83811015610261578082015181840152602081019050610246565b505050509050019250505060405180910390f35b34801561028157600080fd5b506103656004803603606081101561029857600080fd5b81019080803573ffffffffffffffffffffffffffffffffffffffff16906020019092919080359060200190929190803590602001906401000000008111156102df57600080fd5b8201836020820111156102f157600080fd5b8035906020019184600183028401116401000000008311171561031357600080fd5b91908080601f016020809104026020016040519081016040528093929190818152602001838380828437600081840152601f19601f8201169050808301925050505050505091929192905050506115eb565b60405180831515815260200180602001828103825283818151815260200191508051906020019080838360005b838110156103ad578082015181840152602081019050610392565b50505050905090810190601f1680156103da5780820380516001836020036101000a031916815260200191505b50935050505060405180910390f35b3480156103f557600080fd5b506104386004803603602081101561040c57600080fd5b81019080803573ffffffffffffffffffffffffffffffffffffffff1690602001909291905050506119db565b6040518080602001828103825283818151815260200191508051906020019060200280838360005b8381101561047b578082015181840152602081019050610460565b505050509050019250505060405180910390f35b34801561049b57600080fd5b506104a4611a7b565b6040518082815260200191505060405180910390f35b3480156104c657600080fd5b506105a0600480360360408110156104dd57600080fd5b81019080803573ffffffffffffffffffffffffffffffffffffffff1690602001909291908035906020019064010000000081111561051a57600080fd5b82018360208201111561052c57600080fd5b8035906020019184600183028401116401000000008311171561054e57600080fd5b91908080601f016020809104026020016040519081016040528093929190818152602001838380828437600081840152601f19601f820116905080830192505050505050509192919290505050611a88565b60405180831515815260200180602001828103825283818151815260200191508051906020019080838360005b838110156105e85780820151818401526020810190506105cd565b50505050905090810190601f1680156106155780820380516001836020036101000a031916815260200191505b50935050505060405180910390f35b34801561063057600080fd5b506106736004803603602081101561064757600080fd5b81019080803573ffffffffffffffffffffffffffffffffffffffff169060200190929190505050611e42565b6040518085815260200184815260200183815260200180602001828103825283818151815260200191508051906020019080838360005b838110156106c55780820151818401526020810190506106aa565b50505050905090810190601f1680156106f25780820380516001836020036101000a031916815260200191505b509550505050505060405180910390f35b34801561070f57600080fd5b506107866004803603608081101561072657600080fd5b81019080803573ffffffffffffffffffffffffffffffffffffffff169060200190929190803573ffffffffffffffffffffffffffffffffffffffff1690602001909291908035906020019092919080359060200190929190505050611f51565b60405180831515815260200180602001828103825283818151815260200191508051906020019080838360005b838110156107ce5780820151818401526020810190506107b3565b50505050905090810190601f1680156107fb5780820380516001836020036101000a031916815260200191505b50935050505060405180910390f35b34801561081657600080fd5b5061081f61273a565b6040518082815260200191505060405180910390f35b34801561084157600080fd5b5061086e6004803603602081101561085857600080fd5b8101908080359060200190929190505050612747565b60405180848152602001838152602001828152602001935050505060405180910390f35b34801561089e57600080fd5b506108cb600480360360208110156108b557600080fd5b810190808035906020019092919050505061277f565b005b3480156108d957600080fd5b506108e261289f565b6040518082815260200191505060405180910390f35b34801561090457600080fd5b506109516004803603604081101561091b57600080fd5b8101908080359060200190929190803573ffffffffffffffffffffffffffffffffffffffff1690602001909291905050506128ac565b60405180841515815260200180602001838152602001828103825284818151815260200191508051906020019080838360005b8381101561099f578082015181840152602081019050610984565b50505050905090810190601f1680156109cc5780820380516001836020036101000a031916815260200191505b5094505050505060405180910390f35b3480156109e857600080fd5b50610a15600480360360208110156109ff57600080fd5b8101908080359060200190929190505050612f53565b604051808060200180602001838103835285818151815260200191508051906020019060200280838360005b83811015610a5c578082015181840152602081019050610a41565b50505050905001838103825284818151815260200191508051906020019060200280838360005b83811015610a9e578082015181840152602081019050610a83565b5050505090500194505050505060405180910390f35b348015610ac057600080fd5b50610ac9613059565b6040518082815260200191505060405180910390f35b348015610aeb57600080fd5b50610b3860048036036040811015610b0257600080fd5b81019080803573ffffffffffffffffffffffffffffffffffffffff16906020019092919080359060200190929190505050613061565b60405180831515815260200180602001828103825283818151815260200191508051906020019080838360005b83811015610b80578082015181840152602081019050610b65565b50505050905090810190601f168015610bad5780820380516001836020036101000a031916815260200191505b50935050505060405180910390f35b348015610bc857600080fd5b50610bd1613212565b6040518082815260200191505060405180910390f35b348015610bf357600080fd5b50610bfc61321f565b6040518082815260200191505060405180910390f35b348015610c1e57600080fd5b50610c9560048036036080811015610c3557600080fd5b8101908080359060200190929190803573ffffffffffffffffffffffffffffffffffffffff169060200190929190803573ffffffffffffffffffffffffffffffffffffffff1690602001909291908035906020019092919050505061322c565b60405180841515815260200180602001838152602001828103825284818151815260200191508051906020019080838360005b83811015610ce3578082015181840152602081019050610cc8565b50505050905090810190601f168015610d105780820380516001836020036101000a031916815260200191505b5094505050505060405180910390f35b348015610d2c57600080fd5b50610d6f60048036036020811015610d4357600080fd5b81019080803573ffffffffffffffffffffffffffffffffffffffff169060200190929190505050613759565b6040518080602001828103825283818151815260200191508051906020019060200280838360005b83811015610db2578082015181840152602081019050610d97565b505050509050019250505060405180910390f35b348015610dd257600080fd5b50610dff60048036036020811015610de957600080fd5b81019080803590602001909291905050506137f9565b604051808581526020018481526020018373ffffffffffffffffffffffffffffffffffffffff1681526020018273ffffffffffffffffffffffffffffffffffffffff16815260200194505050505060405180910390f35b348015610e6257600080fd5b50610ea560048036036020811015610e7957600080fd5b81019080803573ffffffffffffffffffffffffffffffffffffffff16906020019092919050505061387a565b6040518080602001828103825283818151815260200191508051906020019060200280838360005b83811015610ee8578082015181840152602081019050610ecd565b505050509050019250505060405180910390f35b348015610f0857600080fd5b50610f4b60048036036020811015610f1f57600080fd5b81019080803573ffffffffffffffffffffffffffffffffffffffff16906020019092919050505061391a565b6040518084815260200183815260200180602001828103825283818151815260200191508051906020019080838360005b83811015610f97578082015181840152602081019050610f7c565b50505050905090810190601f168015610fc45780820380516001836020036101000a031916815260200191505b5094505050505060405180910390f35b348015610fe057600080fd5b5061102360048036036020811015610ff757600080fd5b81019080803573ffffffffffffffffffffffffffffffffffffffff169060200190929190505050613a20565b6040518080602001828103825283818151815260200191508051906020019060200280838360005b8381101561106657808201518184015260208101905061104b565b505050509050019250505060405180910390f35b34801561108657600080fd5b506110c96004803603602081101561109d57600080fd5b81019080803573ffffffffffffffffffffffffffffffffffffffff169060200190929190505050613ac0565b6040518084815260200183815260200180602001828103825283818151815260200191508051906020019080838360005b838110156111155780820151818401526020810190506110fa565b50505050905090810190601f1680156111425780820380516001836020036101000a031916815260200191505b5094505050505060405180910390f35b34801561115e57600080fd5b506112386004803603604081101561117557600080fd5b81019080803573ffffffffffffffffffffffffffffffffffffffff169060200190929190803590602001906401000000008111156111b257600080fd5b8201836020820111156111c457600080fd5b803590602001918460018302840111640100000000831117156111e657600080fd5b91908080601f016020809104026020016040519081016040528093929190818152602001838380828437600081840152601f19601f820116905080830192505050505050509192919290505050613bc6565b60405180831515815260200180602001828103825283818151815260200191508051906020019080838360005b83811015611280578082015181840152602081019050611265565b50505050905090810190601f1680156112ad5780820380516001836020036101000a031916815260200191505b50935050505060405180910390f35b3480156112c857600080fd5b5061133f600480360360808110156112df57600080fd5b81019080803573ffffffffffffffffffffffffffffffffffffffff169060200190929190803573ffffffffffffffffffffffffffffffffffffffff1690602001909291908035906020019092919080359060200190929190505050613f80565b60405180841515815260200183815260200180602001828103825283818151815260200191508051906020019080838360005b8381101561138d578082015181840152602081019050611372565b50505050905090810190601f1680156113ba5780820380516001836020036101000a031916815260200191505b5094505050505060405180910390f35b3480156113d657600080fd5b50611419600480360360208110156113ed57600080fd5b81019080803573ffffffffffffffffffffffffffffffffffffffff169060200190929190505050614361565b6040518080602001828103825283818151815260200191508051906020019060200280838360005b8381101561145c578082015181840152602081019050611441565b505050509050019250505060405180910390f35b34801561147c57600080fd5b506114a96004803603602081101561149357600080fd5b8101908080359060200190929190505050614401565b604051808881526020018773ffffffffffffffffffffffffffffffffffffffff1681526020018681526020018581526020018460028111156114e757fe5b815260200183815260200182815260200197505050505050505060405180910390f35b34801561151657600080fd5b5061151f61448c565b604051808273ffffffffffffffffffffffffffffffffffffffff16815260200191505060405180910390f35b60606000600460008473ffffffffffffffffffffffffffffffffffffffff1673ffffffffffffffffffffffffffffffffffffffff1681526020019081526020016000209050806001018054806020026020016040519081016040528092919081815260200182805480156115de57602002820191906000526020600020905b8154815260200190600101908083116115ca575b5050505050915050919050565b6000606060008054906101000a900473ffffffffffffffffffffffffffffffffffffffff1673ffffffffffffffffffffffffffffffffffffffff163373ffffffffffffffffffffffffffffffffffffffff16146116b0576040517f08c379a00000000000000000000000000000000000000000000000000000000081526004018080602001828103825260198152602001807f4f6e6c7920617262697472616c2063616e206f7065726174650000000000000081525060200191505060405180910390fd5b60086040518060c001604052808773ffffffffffffffffffffffffffffffffffffffff16815260200160008152602001868152602001600067ffffffffffffffff811180156116fe57600080fd5b5060405190808252806020026020018201604052801561172d5781602001602082028036833780820191505090505b508152602001600067ffffffffffffffff8111801561174b57600080fd5b5060405190808252806020026020018201604052801561177a5781602001602082028036833780820191505090505b50815260200185815250908060018154018082558091505060019003906000526020600020906006020160009091909190915060008201518160000160006101000a81548173ffffffffffffffffffffffffffffffffffffffff021916908373ffffffffffffffffffffffffffffffffffffffff16021790555060208201518160010155604082015181600201556060820151816003019080519060200190611824929190614dd4565b506080820151816004019080519060200190611841929190614dd4565b5060a082015181600501908051906020019061185e929190614e21565b50505060086001600880549050038154811061187657fe5b9060005260206000209060060201600360008773ffffffffffffffffffffffffffffffffffffffff1673ffffffffffffffffffffffffffffffffffffffff1681526020019081526020016000206000820160009054906101000a900473ffffffffffffffffffffffffffffffffffffffff168160000160006101000a81548173ffffffffffffffffffffffffffffffffffffffff021916908373ffffffffffffffffffffffffffffffffffffffff16021790555060018201548160010155600282015481600201556003820181600301908054611954929190614ea1565b50600482018160040190805461196b929190614ea1565b5060058201816005019080546001816001161561010002031660029004611993929190614ef3565b5090505060016040518060400160405280600781526020017f737563636573730000000000000000000000000000000000000000000000000081525091509150935093915050565b60606000600460008473ffffffffffffffffffffffffffffffffffffffff1673ffffffffffffffffffffffffffffffffffffffff168152602001908152602001600020905080600201805480602002602001604051908101604052809291908181526020018280548015611a6e57602002820191906000526020600020905b815481526020019060010190808311611a5a575b5050505050915050919050565b6000600680549050905090565b6000606060008054906101000a900473ffffffffffffffffffffffffffffffffffffffff1673ffffffffffffffffffffffffffffffffffffffff163373ffffffffffffffffffffffffffffffffffffffff1614611b4d576040517f08c379a00000000000000000000000000000000000000000000000000000000081526004018080602001828103825260198152602001807f4f6e6c7920617262697472616c2063616e206f7065726174650000000000000081525060200191505060405180910390fd5b600a60405180608001604052808673ffffffffffffffffffffffffffffffffffffffff168152602001600067ffffffffffffffff81118015611b8e57600080fd5b50604051908082528060200260200182016040528015611bbd5781602001602082028036833780820191505090505b508152602001600067ffffffffffffffff81118015611bdb57600080fd5b50604051908082528060200260200182016040528015611c0a5781602001602082028036833780820191505090505b50815260200185815250908060018154018082558091505060019003906000526020600020906004020160009091909190915060008201518160000160006101000a81548173ffffffffffffffffffffffffffffffffffffffff021916908373ffffffffffffffffffffffffffffffffffffffff1602179055506020820151816001019080519060200190611ca0929190614dd4565b506040820151816002019080519060200190611cbd929190614dd4565b506060820151816003019080519060200190611cda929190614e21565b505050600a6001600a805490500381548110611cf257fe5b9060005260206000209060040201600560008673ffffffffffffffffffffffffffffffffffffffff1673ffffffffffffffffffffffffffffffffffffffff1681526020019081526020016000206000820160009054906101000a900473ffffffffffffffffffffffffffffffffffffffff168160000160006101000a81548173ffffffffffffffffffffffffffffffffffffffff021916908373ffffffffffffffffffffffffffffffffffffffff1602179055506001820181600101908054611dbc929190614ea1565b506002820181600201908054611dd3929190614ea1565b5060038201816003019080546001816001161561010002031660029004611dfb929190614ef3565b5090505060016040518060400160405280600781526020017f7375636365737300000000000000000000000000000000000000000000000000815250915091509250929050565b600080600060606000600360008773ffffffffffffffffffffffffffffffffffffffff1673ffffffffffffffffffffffffffffffffffffffff168152602001908152602001600020905080600101548160030180549050826004018054905083600501808054600181600116156101000203166002900480601f016020809104026020016040519081016040528092919081815260200182805460018160011615610100020316600290048015611f3a5780601f10611f0f57610100808354040283529160200191611f3a565b820191906000526020600020905b815481529060010190602001808311611f1d57829003601f168201915b505050505090509450945094509450509193509193565b600060606000600560008873ffffffffffffffffffffffffffffffffffffffff1673ffffffffffffffffffffffffffffffffffffffff16815260200190815260200160002090506000600560008873ffffffffffffffffffffffffffffffffffffffff1673ffffffffffffffffffffffffffffffffffffffff16815260200190815260200160002090506000600260008881526020019081526020016000209050600073ffffffffffffffffffffffffffffffffffffffff168360000160009054906101000a900473ffffffffffffffffffffffffffffffffffffffff1673ffffffffffffffffffffffffffffffffffffffff16141580156120a45750600073ffffffffffffffffffffffffffffffffffffffff168260000160009054906101000a900473ffffffffffffffffffffffffffffffffffffffff1673ffffffffffffffffffffffffffffffffffffffff1614155b6120f9576040517f08c379a000000000000000000000000000000000000000000000000000000000815260040180806020018281038252603181526020018061518d6031913960400191505060405180910390fd5b612102876144b0565b61214a5760006040518060400160405280600681526020017f6661696c6564000000000000000000000000000000000000000000000000000081525094509450505050612731565b6000600182600a01805490500390508973ffffffffffffffffffffffffffffffffffffffff1682600a01828154811061217f57fe5b9060005260206000200160009054906101000a900473ffffffffffffffffffffffffffffffffffffffff1673ffffffffffffffffffffffffffffffffffffffff1614612233576040517f08c379a00000000000000000000000000000000000000000000000000000000081526004018080602001828103825260208152602001807f42696c6c20646f65736e27742062656c6f6e6720746f20537570706c6965723181525060200191505060405180910390fd5b81600201548711156122ad576040517f08c379a000000000000000000000000000000000000000000000000000000000815260040180806020018281038252600e8152602001807f616d6f756e74206578636565647300000000000000000000000000000000000081525060200191505060405180910390fd5b8973ffffffffffffffffffffffffffffffffffffffff163373ffffffffffffffffffffffffffffffffffffffff161461234e576040517f08c379a00000000000000000000000000000000000000000000000000000000081526004018080602001828103825260128152602001807f7065726d697373696f6e2064656e69656421000000000000000000000000000081525060200191505060405180910390fd5b816002015487141561241a5781600a01899080600181540180825580915050600190039060005260206000200160009091909190916101000a81548173ffffffffffffffffffffffffffffffffffffffff021916908373ffffffffffffffffffffffffffffffffffffffff16021790555081600b01429080600181540180825580915050600190039060005260206000200160009091909190915055826001018890806001815401808255809150506001900390600052602060002001600090919091909150556126f0565b612422614f7a565b6124588a8460010160009054906101000a900473ffffffffffffffffffffffffffffffffffffffff168b428c886003015461464a565b8160006002811061246557fe5b6020020181815250506124aa8b8460010160009054906101000a900473ffffffffffffffffffffffffffffffffffffffff168b428c886002015403886003015461464a565b816001600281106124b757fe5b602002018181525050806000600281106124cd57fe5b60200201518360080181905550806001600281106124e757fe5b60200201518360090181905550600560008c73ffffffffffffffffffffffffffffffffffffffff1673ffffffffffffffffffffffffffffffffffffffff1681526020019081526020016000206001018160016002811061254357fe5b60200201519080600181540180825580915050600190039060005260206000200160009091909190915055600560008b73ffffffffffffffffffffffffffffffffffffffff1673ffffffffffffffffffffffffffffffffffffffff168152602001908152602001600020600101816000600281106125bd57fe5b602002015190806001815401808255809150506001900390600052602060002001600090919091909150556000600360008560010160009054906101000a900473ffffffffffffffffffffffffffffffffffffffff1673ffffffffffffffffffffffffffffffffffffffff1673ffffffffffffffffffffffffffffffffffffffff1681526020019081526020016000209050806003018260006002811061266057fe5b60200201519080600181540180825580915050600190039060005260206000200160009091909190915055806003018260016002811061269c57fe5b6020020151908060018154018082558091505060019003906000526020600020016000909190919091505560018460040160006101000a81548160ff021916908360028111156126e857fe5b021790555050505b60016040518060400160405280600781526020017f737563636573730000000000000000000000000000000000000000000000000081525095509550505050505b94509492505050565b6000600a80549050905090565b600080600080600260008681526020019081526020016000209050806007015481600801548260090154935093509350509193909250565b60008054906101000a900473ffffffffffffffffffffffffffffffffffffffff1673ffffffffffffffffffffffffffffffffffffffff163373ffffffffffffffffffffffffffffffffffffffff1614612840576040517f08c379a00000000000000000000000000000000000000000000000000000000081526004018080602001828103825260198152602001807f4f6e6c7920617262697472616c2063616e206f7065726174650000000000000081525060200191505060405180910390fd5b68056bc75e2d63100000811061285557600080fd5b3373ffffffffffffffffffffffffffffffffffffffff166108fc829081150290604051600060405180830381858888f1935050505015801561289b573d6000803e3d6000fd5b5050565b6000600980549050905090565b6000606060008060009054906101000a900473ffffffffffffffffffffffffffffffffffffffff1673ffffffffffffffffffffffffffffffffffffffff163373ffffffffffffffffffffffffffffffffffffffff1614612974576040517f08c379a00000000000000000000000000000000000000000000000000000000081526004018080602001828103825260198152602001807f4f6e6c7920617262697472616c2063616e206f7065726174650000000000000081525060200191505060405180910390fd5b60006002600087815260200190815260200160002090506000600360008773ffffffffffffffffffffffffffffffffffffffff1673ffffffffffffffffffffffffffffffffffffffff16815260200190815260200160002090506000801b826000015414158015612a365750600073ffffffffffffffffffffffffffffffffffffffff168160000160009054906101000a900473ffffffffffffffffffffffffffffffffffffffff1673ffffffffffffffffffffffffffffffffffffffff1614155b8015612a9157508573ffffffffffffffffffffffffffffffffffffffff168260010160009054906101000a900473ffffffffffffffffffffffffffffffffffffffff1673ffffffffffffffffffffffffffffffffffffffff16145b612ae6576040517f08c379a00000000000000000000000000000000000000000000000000000000081526004018080602001828103825260568152602001806152276056913960600191505060405180910390fd5b8573ffffffffffffffffffffffffffffffffffffffff163373ffffffffffffffffffffffffffffffffffffffff1614612b87576040517f08c379a00000000000000000000000000000000000000000000000000000000081526004018080602001828103825260128152602001807f7065726d697373696f6e2064656e69656421000000000000000000000000000081525060200191505060405180910390fd5b600082600201549050600083600a01600185600a01805490500381548110612bab57fe5b9060005260206000200160009054906101000a900473ffffffffffffffffffffffffffffffffffffffff1690506000612be689838c86614ae9565b905084600a0160009080600181540180825580915050600190039060005260206000200160009091909190916101000a81548173ffffffffffffffffffffffffffffffffffffffff021916908373ffffffffffffffffffffffffffffffffffffffff16021790555084600b0142908060018154018082558091505060019003906000526020600020016000909190919091505580856006018190555060028560040160006101000a81548160ff02191690836002811115612ca357fe5b0217905550836004018190806001815401808255809150506001900390600052602060002001600090919091909150556000801b856007015414612d0d57836003018a90806001815401808255809150506001900390600052602060002001600090919091909150555b600073ffffffffffffffffffffffffffffffffffffffff16600560008473ffffffffffffffffffffffffffffffffffffffff1673ffffffffffffffffffffffffffffffffffffffff16815260200190815260200160002060000160009054906101000a900473ffffffffffffffffffffffffffffffffffffffff1673ffffffffffffffffffffffffffffffffffffffff1614612e1157600560008373ffffffffffffffffffffffffffffffffffffffff1673ffffffffffffffffffffffffffffffffffffffff168152602001908152602001600020600201819080600181540180825580915050600190039060005260206000200160009091909190915055612e7b565b600460008373ffffffffffffffffffffffffffffffffffffffff1673ffffffffffffffffffffffffffffffffffffffff1681526020019081526020016000206002018190806001815401808255809150506001900390600052602060002001600090919091909150555b8360010154831115612ef5576040517f08c379a00000000000000000000000000000000000000000000000000000000081526004018080602001828103825260128152602001807f4163636f756e74696e67206572726f72732e000000000000000000000000000081525060200191505060405180910390fd5b8284600101600082825403925050819055506001816040518060400160405280600781526020017f73756363657373000000000000000000000000000000000000000000000000008152509097509750975050505050509250925092565b606080600060026000858152602001908152602001600020905080600b0181600a0181805480602002602001604051908101604052809291908181526020018280548015612fc057602002820191906000526020600020905b815481526020019060010190808311612fac575b505050505091508080548060200260200160405190810160405280929190818152602001828054801561304857602002820191906000526020600020905b8160009054906101000a900473ffffffffffffffffffffffffffffffffffffffff1673ffffffffffffffffffffffffffffffffffffffff1681526020019060010190808311612ffe575b505050505090509250925050915091565b600047905090565b6000606060008054906101000a900473ffffffffffffffffffffffffffffffffffffffff1673ffffffffffffffffffffffffffffffffffffffff163373ffffffffffffffffffffffffffffffffffffffff1614613126576040517f08c379a00000000000000000000000000000000000000000000000000000000081526004018080602001828103825260198152602001807f4f6e6c7920617262697472616c2063616e206f7065726174650000000000000081525060200191505060405180910390fd5b6000600360008673ffffffffffffffffffffffffffffffffffffffff1673ffffffffffffffffffffffffffffffffffffffff1681526020019081526020016000209050838160010154106131c5576040517f08c379a00000000000000000000000000000000000000000000000000000000081526004018080602001828103825260298152602001806151be6029913960400191505060405180910390fd5b83816002018190555060016040518060400160405280600781526020017f737563636573730000000000000000000000000000000000000000000000000081525092509250509250929050565b6000600880549050905090565b6000600780549050905090565b600060606000806002600089815260200190815260200160002090506000600560008973ffffffffffffffffffffffffffffffffffffffff1673ffffffffffffffffffffffffffffffffffffffff16815260200190815260200160002090506000600460008973ffffffffffffffffffffffffffffffffffffffff1673ffffffffffffffffffffffffffffffffffffffff1681526020019081526020016000209050600073ffffffffffffffffffffffffffffffffffffffff168260000160009054906101000a900473ffffffffffffffffffffffffffffffffffffffff1673ffffffffffffffffffffffffffffffffffffffff161415801561333657506000801b836000015414155b80156133935750600073ffffffffffffffffffffffffffffffffffffffff168160000160009054906101000a900473ffffffffffffffffffffffffffffffffffffffff1673ffffffffffffffffffffffffffffffffffffffff1614155b6133e8576040517f08c379a00000000000000000000000000000000000000000000000000000000081526004018080602001828103825260408152602001806151e76040913960400191505060405180910390fd5b60006133f38b6144b0565b613440576000816040518060400160405280600681526020017f6661696c65640000000000000000000000000000000000000000000000000000815250909650965096505050505061374f565b6000600185600a01805490500390508a73ffffffffffffffffffffffffffffffffffffffff1685600a01828154811061347557fe5b9060005260206000200160009054906101000a900473ffffffffffffffffffffffffffffffffffffffff1673ffffffffffffffffffffffffffffffffffffffff1614613529576040517f08c379a00000000000000000000000000000000000000000000000000000000081526004018080602001828103825260208152602001807f42696c6c20646f65736e27742062656c6f6e6720746f20537570706c6965722081525060200191505060405180910390fd5b8a73ffffffffffffffffffffffffffffffffffffffff163373ffffffffffffffffffffffffffffffffffffffff16146135ca576040517f08c379a00000000000000000000000000000000000000000000000000000000081526004018080602001828103825260128152602001807f7065726d697373696f6e2064656e69656421000000000000000000000000000081525060200191505060405180910390fd5b60006103e88a876002015402816135dd57fe5b0490506135ec8b8d8f84614ae9565b925085600a018b9080600181540180825580915050600190039060005260206000200160009091909190916101000a81548173ffffffffffffffffffffffffffffffffffffffff021916908373ffffffffffffffffffffffffffffffffffffffff16021790555085600b0142908060018154018082558091505060019003906000526020600020016000909190919091505582866005018190555083600201839080600181540180825580915050600190039060005260206000200160009091909190915055836001018d9080600181540180825580915050600190039060005260206000200160009091909190915055846002018390806001815401808255809150506001900390600052602060002001600090919091909150556001836040518060400160405280600781526020017f7375636365737300000000000000000000000000000000000000000000000000815250909850985098505050505050505b9450945094915050565b60606000600560008473ffffffffffffffffffffffffffffffffffffffff1673ffffffffffffffffffffffffffffffffffffffff1681526020019081526020016000209050806002018054806020026020016040519081016040528092919081815260200182805480156137ec57602002820191906000526020600020905b8154815260200190600101908083116137d8575b5050505050915050919050565b6000806000806000600160008781526020019081526020016000209050806001015481600201548260030160009054906101000a900473ffffffffffffffffffffffffffffffffffffffff168360040160009054906101000a900473ffffffffffffffffffffffffffffffffffffffff169450945094509450509193509193565b60606000600560008473ffffffffffffffffffffffffffffffffffffffff1673ffffffffffffffffffffffffffffffffffffffff16815260200190815260200160002090508060010180548060200260200160405190810160405280929190818152602001828054801561390d57602002820191906000526020600020905b8154815260200190600101908083116138f9575b5050505050915050919050565b60008060606000600560008673ffffffffffffffffffffffffffffffffffffffff1673ffffffffffffffffffffffffffffffffffffffff16815260200190815260200160002090508060010180549050816002018054905082600301808054600181600116156101000203166002900480601f016020809104026020016040519081016040528092919081815260200182805460018160011615610100020316600290048015613a0b5780601f106139e057610100808354040283529160200191613a0b565b820191906000526020600020905b8154815290600101906020018083116139ee57829003601f168201915b50505050509050935093509350509193909250565b60606000600360008473ffffffffffffffffffffffffffffffffffffffff1673ffffffffffffffffffffffffffffffffffffffff168152602001908152602001600020905080600401805480602002602001604051908101604052809291908181526020018280548015613ab357602002820191906000526020600020905b815481526020019060010190808311613a9f575b5050505050915050919050565b60008060606000600460008673ffffffffffffffffffffffffffffffffffffffff1673ffffffffffffffffffffffffffffffffffffffff16815260200190815260200160002090508060010180549050816002018054905082600301808054600181600116156101000203166002900480601f016020809104026020016040519081016040528092919081815260200182805460018160011615610100020316600290048015613bb15780601f10613b8657610100808354040283529160200191613bb1565b820191906000526020600020905b815481529060010190602001808311613b9457829003601f168201915b50505050509050935093509350509193909250565b6000606060008054906101000a900473ffffffffffffffffffffffffffffffffffffffff1673ffffffffffffffffffffffffffffffffffffffff163373ffffffffffffffffffffffffffffffffffffffff1614613c8b576040517f08c379a00000000000000000000000000000000000000000000000000000000081526004018080602001828103825260198152602001807f4f6e6c7920617262697472616c2063616e206f7065726174650000000000000081525060200191505060405180910390fd5b600960405180608001604052808673ffffffffffffffffffffffffffffffffffffffff168152602001600067ffffffffffffffff81118015613ccc57600080fd5b50604051908082528060200260200182016040528015613cfb5781602001602082028036833780820191505090505b508152602001600067ffffffffffffffff81118015613d1957600080fd5b50604051908082528060200260200182016040528015613d485781602001602082028036833780820191505090505b50815260200185815250908060018154018082558091505060019003906000526020600020906004020160009091909190915060008201518160000160006101000a81548173ffffffffffffffffffffffffffffffffffffffff021916908373ffffffffffffffffffffffffffffffffffffffff1602179055506020820151816001019080519060200190613dde929190614dd4565b506040820151816002019080519060200190613dfb929190614dd4565b506060820151816003019080519060200190613e18929190614e21565b505050600960016009805490500381548110613e3057fe5b9060005260206000209060040201600460008673ffffffffffffffffffffffffffffffffffffffff1673ffffffffffffffffffffffffffffffffffffffff1681526020019081526020016000206000820160009054906101000a900473ffffffffffffffffffffffffffffffffffffffff168160000160006101000a81548173ffffffffffffffffffffffffffffffffffffffff021916908373ffffffffffffffffffffffffffffffffffffffff1602179055506001820181600101908054613efa929190614ea1565b506002820181600201908054613f11929190614ea1565b5060038201816003019080546001816001161561010002031660029004613f39929190614ef3565b5090505060016040518060400160405280600781526020017f7375636365737300000000000000000000000000000000000000000000000000815250915091509250929050565b60008060606000600360008973ffffffffffffffffffffffffffffffffffffffff1673ffffffffffffffffffffffffffffffffffffffff16815260200190815260200160002090506000600560008973ffffffffffffffffffffffffffffffffffffffff1673ffffffffffffffffffffffffffffffffffffffff1681526020019081526020016000209050600073ffffffffffffffffffffffffffffffffffffffff168260000160009054906101000a900473ffffffffffffffffffffffffffffffffffffffff1673ffffffffffffffffffffffffffffffffffffffff16141580156140bd5750600073ffffffffffffffffffffffffffffffffffffffff168160000160009054906101000a900473ffffffffffffffffffffffffffffffffffffffff1673ffffffffffffffffffffffffffffffffffffffff1614155b80156140d3575081600201548683600101540111155b614128576040517f08c379a000000000000000000000000000000000000000000000000000000000815260040180806020018281038252604d81526020018061527d604d913960600191505060405180910390fd5b8873ffffffffffffffffffffffffffffffffffffffff163373ffffffffffffffffffffffffffffffffffffffff16146141c9576040517f08c379a00000000000000000000000000000000000000000000000000000000081526004018080602001828103825260128152602001807f7065726d697373696f6e2064656e69656421000000000000000000000000000081525060200191505060405180910390fd5b60006141de8a8b6000801b60008b600061464a565b9050600060026000838152602001908152602001600020905080600a018a9080600181540180825580915050600190039060005260206000200160009091909190916101000a81548173ffffffffffffffffffffffffffffffffffffffff021916908373ffffffffffffffffffffffffffffffffffffffff16021790555080600b014290806001815401808255809150506001900390600052602060002001600090919091909150558881600b0160018154811061429857fe5b906000526020600020015401816003018190555087846001016000828254019250508190555083600301829080600181540180825580915050600190039060005260206000200160009091909190915055826001018290806001815401808255809150506001900390600052602060002001600090919091909150556001826040518060400160405280600781526020017f7375636365737300000000000000000000000000000000000000000000000000815250965096509650505050509450945094915050565b60606000600360008473ffffffffffffffffffffffffffffffffffffffff1673ffffffffffffffffffffffffffffffffffffffff1681526020019081526020016000209050806003018054806020026020016040519081016040528092919081815260200182805480156143f457602002820191906000526020600020905b8154815260200190600101908083116143e0575b5050505050915050919050565b600080600080600080600080600260008a8152602001908152602001600020905080600001548160010160009054906101000a900473ffffffffffffffffffffffffffffffffffffffff16826002015483600301548460040160009054906101000a900460ff1685600501548660060154975097509750975097509750975050919395979092949650565b60008054906101000a900473ffffffffffffffffffffffffffffffffffffffff1681565b6000806002600084815260200190815260200160002090506000801b81600001541415614545576040517f08c379a00000000000000000000000000000000000000000000000000000000081526004018080602001828103825260148152602001807f42696c6c206973206e6f7420657869737465642e00000000000000000000000081525060200191505060405180910390fd5b6001600281111561455257fe5b8160040160009054906101000a900460ff16600281111561456f57fe5b14806145a1575060028081111561458257fe5b8160040160009054906101000a900460ff16600281111561459f57fe5b145b156145b0576000915050614645565b80600301544210156145c6576001915050614645565b7f60aaea8557c61cd821b9cfba9a4d5195c5687c6a765a2816a8b7b38ed3e69f84838260010160009054906101000a900473ffffffffffffffffffffffffffffffffffffffff16604051808381526020018273ffffffffffffffffffffffffffffffffffffffff1681526020019250505060405180910390a160009150505b919050565b600080428888604051602001808481526020018373ffffffffffffffffffffffffffffffffffffffff1660601b81526014018273ffffffffffffffffffffffffffffffffffffffff1660601b8152601401935050505060405160208183030381529060405280519060200120905060066040518061018001604052808381526020018973ffffffffffffffffffffffffffffffffffffffff1681526020018681526020018581526020016000600281111561470157fe5b81526020016000801b81526020016000801b81526020018881526020016000801b81526020016000801b8152602001600067ffffffffffffffff8111801561474857600080fd5b506040519080825280602002602001820160405280156147775781602001602082028036833780820191505090505b508152602001600067ffffffffffffffff8111801561479557600080fd5b506040519080825280602002602001820160405280156147c45781602001602082028036833780820191505090505b5081525090806001815401808255809150506001900390600052602060002090600c02016000909190919091506000820151816000015560208201518160010160006101000a81548173ffffffffffffffffffffffffffffffffffffffff021916908373ffffffffffffffffffffffffffffffffffffffff160217905550604082015181600201556060820151816003015560808201518160040160006101000a81548160ff0219169083600281111561487a57fe5b021790555060a0820151816005015560c0820151816006015560e082015181600701556101008201518160080155610120820151816009015561014082015181600a0190805190602001906148d0929190614f9c565b5061016082015181600b0190805190602001906148ee929190615026565b505050600060066001600680549050038154811061490857fe5b90600052602060002090600c020190508060026000848152602001908152602001600020600082015481600001556001820160009054906101000a900473ffffffffffffffffffffffffffffffffffffffff168160010160006101000a81548173ffffffffffffffffffffffffffffffffffffffff021916908373ffffffffffffffffffffffffffffffffffffffff16021790555060028201548160020155600382015481600301556004820160009054906101000a900460ff168160040160006101000a81548160ff021916908360028111156149e257fe5b02179055506005820154816005015560068201548160060155600782015481600701556008820154816008015560098201548160090155600a820181600a01908054614a2f929190615073565b50600b820181600b01908054614a469291906150c5565b5090505080600b0186908060018154018082558091505060019003906000526020600020016000909190919091505580600a01899080600181540180825580915050600190039060005260206000200160009091909190916101000a81548173ffffffffffffffffffffffffffffffffffffffff021916908373ffffffffffffffffffffffffffffffffffffffff16021790555081925050509695505050505050565b600080428686604051602001808481526020018373ffffffffffffffffffffffffffffffffffffffff1660601b81526014018273ffffffffffffffffffffffffffffffffffffffff1660601b8152601401935050505060405160208183030381529060405280519060200120905060076040518060c001604052808381526020018581526020018681526020018873ffffffffffffffffffffffffffffffffffffffff1681526020018773ffffffffffffffffffffffffffffffffffffffff16815260200142815250908060018154018082558091505060019003906000526020600020906006020160009091909190915060008201518160000155602082015181600101556040820151816002015560608201518160030160006101000a81548173ffffffffffffffffffffffffffffffffffffffff021916908373ffffffffffffffffffffffffffffffffffffffff16021790555060808201518160040160006101000a81548173ffffffffffffffffffffffffffffffffffffffff021916908373ffffffffffffffffffffffffffffffffffffffff16021790555060a0820151816005015550506000600760016007805490500381548110614caa57fe5b9060005260206000209060060201905080600160008481526020019081526020016000206000820154816000015560018201548160010155600282015481600201556003820160009054906101000a900473ffffffffffffffffffffffffffffffffffffffff168160030160006101000a81548173ffffffffffffffffffffffffffffffffffffffff021916908373ffffffffffffffffffffffffffffffffffffffff1602179055506004820160009054906101000a900473ffffffffffffffffffffffffffffffffffffffff168160040160006101000a81548173ffffffffffffffffffffffffffffffffffffffff021916908373ffffffffffffffffffffffffffffffffffffffff160217905550600582015481600501559050508192505050949350505050565b828054828255906000526020600020908101928215614e10579160200282015b82811115614e0f578251825591602001919060010190614df4565b5b509050614e1d9190615117565b5090565b828054600181600116156101000203166002900490600052602060002090601f016020900481019282601f10614e6257805160ff1916838001178555614e90565b82800160010185558215614e90579182015b82811115614e8f578251825591602001919060010190614e74565b5b509050614e9d9190615134565b5090565b828054828255906000526020600020908101928215614ee25760005260206000209182015b82811115614ee1578254825591600101919060010190614ec6565b5b509050614eef9190615117565b5090565b828054600181600116156101000203166002900490600052602060002090601f016020900481019282601f10614f2c5780548555614f69565b82800160010185558215614f6957600052602060002091601f016020900482015b82811115614f68578254825591600101919060010190614f4d565b5b509050614f769190615134565b5090565b6040518060400160405280600290602082028036833780820191505090505090565b828054828255906000526020600020908101928215615015579160200282015b828111156150145782518260006101000a81548173ffffffffffffffffffffffffffffffffffffffff021916908373ffffffffffffffffffffffffffffffffffffffff16021790555091602001919060010190614fbc565b5b5090506150229190615151565b5090565b828054828255906000526020600020908101928215615062579160200282015b82811115615061578251825591602001919060010190615046565b5b50905061506f9190615134565b5090565b8280548282559060005260206000209081019282156150b45760005260206000209182015b828111156150b3578254825591600101919060010190615098565b5b5090506150c19190615151565b5090565b8280548282559060005260206000209081019282156151065760005260206000209182015b828111156151055782548255916001019190600101906150ea565b5b5090506151139190615134565b5090565b5b80821115615130576000816000905550600101615118565b5090565b5b8082111561514d576000816000905550600101615135565b5090565b5b8082111561518857600081816101000a81549073ffffffffffffffffffffffffffffffffffffffff021916905550600101615152565b509056fe537570706c6965723120646f65736e2774206578697374202f20537570706c6965723220646f65736e27742065786973746e6577206c696d69742063616e206e6f74206576656e20636f7665722063757272656e742064656274537570706c69657220646f65736e2774206578697374202f2042696c6c20646f65736e2774206578697374202f2042616e6b20646f65736e27742065786973742042696c6c20646f65736e2774206578697374202f20456e746572707269736520646f65736e2774206578697374202f2042696c6c206973206e6f7420697373756564206279207468697320456e7465727072697365456e746572707269736520646f65736e2774206578697374202f20537570706c69657220646f65736e277420657869737420202f20496e73756666696369656e7420637265646974206c696e65a26469706673582212207a74625e812379dd38f6ca23baf62e09044e49711aea90bf9c41971a3853680864736f6c63430007000033",
  "immutableReferences": {},
  "source": "// SPDX-License-Identifier: GPL-3.0\npragma solidity >0.4.0 <0.8.0;\n\ncontract Finance {\n    \n    //\n    enum BillState{Valid, Split, Done}    \n    //\n    struct TradeDebtBill{\n        bytes32 id; // idsha3\n        address issuer; //  \n        uint facevalue; // \n        uint expire_time;// \n        BillState state; // \n        bytes32 idOfCR0; // ID\n        bytes32 idOfCR1; // ID\n        bytes32 idOfparent; // ID\n        bytes32 idOfson0;   // ID\n        bytes32 idOfson1;   \n        address[] owners; //  \n        uint[] times; // 0now\n\t\t/*\n\t\tOwners: a -> b -> c -> d -> e\n\t\tTimes:  0     1     2.   3.     4\n\t\t\t\ta->b1b->c2\n        */\n    }\n    \n    // \n    struct CashReceipt{\n        bytes32 id; // sha3id\n        uint amount; // \n        bytes32 idOfTDB; // ID\n        address from; \n        address to;\n        uint time;\n    }   \n    \n    // \n    struct Bank {\n        address _address;\n        bytes32[] idOfBills; // id\n        bytes32[] idOfRecepits;// id\n        string name;\n    }\n\n    //\n    struct Enterprise {\n        address _address;\n        uint totalDebt;//  /  / \n        uint totalDebtLimit; // \n        bytes32[] idOfBills;\n        bytes32[] idOfRecepits;\n        string name;\n    }\n    \n    //\n    struct Supplier {\n        address _address;\n        bytes32[] idOfBills;\n        bytes32[] idOfRecepits;\n        string name;\n    }\n    \n    address public Arbitral_address;\n\n    mapping(bytes32 => CashReceipt) mapOfCashReceipt;\n    mapping(bytes32 => TradeDebtBill) mapOfTradeDebtBill;\n    mapping(address => Enterprise) mapOfEnterprise;\n    mapping(address => Bank) mapOfBank;\n    mapping(address => Supplier) mapOfSupplier;\n    \n    TradeDebtBill[]  Bills;\n    CashReceipt[]  Recepits;\n    Enterprise[]  enterprises;\n    Bank[]  banks;\n    Supplier[]  suppliers;\n    \n    \n    constructor(){\n        Arbitral_address =  msg.sender;\n    }\n    \n    // \n    modifier onlytheArbitral{\n        require(msg.sender == Arbitral_address, \"Only arbitral can operate\");\n        _;\n    }\n    \n    // \n    function addBank(address bk_ad, string memory _name) \n            onlytheArbitral public returns(bool, string memory) {\n\n        banks.push(Bank({\n            _address: bk_ad, \n            idOfBills: new bytes32[](0),\n            idOfRecepits: new bytes32[](0),\n            name: _name\n        }));\n\n        mapOfBank[bk_ad] = banks[banks.length - 1];\n        return (true, \"success\");\n    }\n    \n    //\n    function addEnterprise(address ep_ad, uint limit,string memory _name) \n                            onlytheArbitral public returns(bool, string memory) {\n        \n        enterprises.push(Enterprise({\n            _address: ep_ad, \n            totalDebt: 0,\n            totalDebtLimit: limit,\n            idOfBills: new bytes32[](0),\n            idOfRecepits: new bytes32[](0),\n            name: _name\n        }));\n\n        mapOfEnterprise[ep_ad] = enterprises[enterprises.length - 1];\n        return (true, \"success\");\n    }\n\n    function updateEnterpriseCreditLimit(address ep_ad, uint newLimit) \n                onlytheArbitral public returns(bool, string memory){\n        Enterprise storage e = mapOfEnterprise[ep_ad];\n        require(e.totalDebt < newLimit, \"new limit can not even cover current debt\");\n        e.totalDebtLimit = newLimit;\n        return (true, \"success\");\n    }\n    \n    // \n    function addSupplier(address sp_ad, string memory _name) \n            onlytheArbitral public returns(bool, string memory) {\n\n        suppliers.push(Supplier({\n            _address: sp_ad, \n            idOfBills: new bytes32[](0),\n            idOfRecepits: new bytes32[](0),\n            name: _name\n        }));\n\n        mapOfSupplier[sp_ad] = suppliers[suppliers.length - 1];\n        return (true, \"success\");\n    }\n    \n    // \n    function newTradeDebtBill(address _owner, address _issuer, bytes32 _parentid,uint _init_time,\n                                uint _facevalue, uint _expire_time) internal returns(bytes32){\n                                \n        bytes32 _id = keccak256(abi.encodePacked(block.timestamp, _owner, _issuer)); // sha3ID\n\n        Bills.push(TradeDebtBill({\n            id: _id,\n            issuer: _issuer,\n            facevalue: _facevalue,\n            expire_time: _expire_time,\n            state: BillState.Valid,\n            idOfCR0: 0x0,\n            idOfCR1: 0x0,\n            idOfson0: 0x0,\n            idOfson1: 0x0,\n            owners: new address[](0),\n            times: new uint[](0),\n            idOfparent: _parentid\n        }));\n        \n        TradeDebtBill storage t = Bills[Bills.length - 1];\n        mapOfTradeDebtBill[_id] = t;\n        t.times.push(_init_time); // \n        t.owners.push(_owner);\n\n        return _id;\n    }\n    \n    // \n    function newCashRecepit(address _from, address _to, bytes32 _idOfTDB,\n                            uint _amount) internal returns(bytes32){\n        bytes32 _id = keccak256(abi.encodePacked(block.timestamp, _from, _to));\n        \n        Recepits.push(CashReceipt({\n            id: _id,\n            idOfTDB: _idOfTDB,\n            amount: _amount,\n            from: _from,\n            to: _to,\n            time: block.timestamp\n        }));\n        \n        CashReceipt storage c = Recepits[Recepits.length - 1];\n        mapOfCashReceipt[_id] = c;\n        return _id;\n    }\n    \n    // \n    function issueTradeDebtBill(address ep_ad, address sp_ad, uint tolerate_time, uint _facevalue) \n                                external returns(bool, bytes32, string memory){\n        Enterprise storage e = mapOfEnterprise[ep_ad];\n        Supplier storage s = mapOfSupplier[sp_ad];\n        \n        require(e._address != address(0x0) && s._address != address(0x0) && e.totalDebt + _facevalue <= e.totalDebtLimit, \n                \"Enterprise doesn't exist / Supplier doesn't exist  / Insufficient credit line\");\n        require(msg.sender == ep_ad, \"permission denied!\"); //  \n        \n        bytes32 id = newTradeDebtBill(ep_ad, ep_ad, 0x0, 0, _facevalue, 0);\n\n        TradeDebtBill storage b = mapOfTradeDebtBill[id];\n\n        b.owners.push(sp_ad);\n        b.times.push(block.timestamp);\n        b.expire_time = b.times[1] + tolerate_time;\n        \n        e.totalDebt += _facevalue;\n        \n        e.idOfBills.push(id);\n        s.idOfBills.push(id);\n        \n        return (true, id, \"success\");\n    }\n    \n    //  \n    event billDueToRepay(bytes32 billid, address ep_ad);\n    \n    //\n    function CheckBillState(bytes32 billid) internal returns(bool){\n        TradeDebtBill storage b = mapOfTradeDebtBill[billid];\n        require(b.id != 0x0 , \"Bill is not existed.\");\n        if(b.state == BillState.Split || b.state == BillState.Done) return false;\n\n        if(block.timestamp < b.expire_time) return true;\n\n        emit billDueToRepay(billid, b.issuer);\n\n        return false;\n    }\n    \n    // \n    function transferBillbetweenSuppliers(address sp_ad1, address sp_ad2, bytes32 billid, uint amount) \n                                            external returns(bool, string memory){\n        Supplier storage s1 = mapOfSupplier[sp_ad1];\n        Supplier storage s2 = mapOfSupplier[sp_ad2];\n        TradeDebtBill storage b = mapOfTradeDebtBill[billid];\n        \n        require(s1._address != address(0x0) && s2._address != address(0x0), \n                \"Supplier1 doesn't exist / Supplier2 doesn't exist\");  \n\n        if(!CheckBillState(billid)){\n            return(false, \"failed\");\n        }\n\n        uint ridx = b.owners.length - 1; // index\n        require(b.owners[ridx] ==  sp_ad1, \"Bill doesn't belong to Supplier1\");\n        require(amount <= b.facevalue, \"amount exceeds\");\n        require(msg.sender == sp_ad1, \"permission denied!\");//  \n\n        if(amount == b.facevalue){\n            b.owners.push(sp_ad2);\n            b.times.push(block.timestamp);\n            s2.idOfBills.push(billid);\n        }else{//\n            bytes32[2] memory newbillids;\n\n            newbillids[0] = newTradeDebtBill(sp_ad2 , b.issuer, billid, block.timestamp, amount, b.expire_time);\n            newbillids[1] = newTradeDebtBill(sp_ad1 , b.issuer, billid, block.timestamp, b.facevalue - amount, b.expire_time);\n\n            b.idOfson0 = newbillids[0];\n            b.idOfson1 = newbillids[1];\n\n            mapOfSupplier[sp_ad1].idOfBills.push(newbillids[1]);\n            mapOfSupplier[sp_ad2].idOfBills.push(newbillids[0]);\n\n            Enterprise storage e = mapOfEnterprise[b.issuer];\n            e.idOfBills.push(newbillids[0]);\n            e.idOfBills.push(newbillids[1]);\n\n            b.state = BillState.Split;\n        }\n        return (true, \"success\");\n    }\n    \n    \n    // \n    function supplierFinancingfromBank(bytes32 billid, address sp_ad, address bank_ad, uint rate) \n                                        external returns(bool, string memory, bytes32){\n        TradeDebtBill storage bi = mapOfTradeDebtBill[billid];\n        Supplier storage s = mapOfSupplier[sp_ad];\n        Bank storage ba = mapOfBank[bank_ad];\n\n        require(s._address != address(0x0) && bi.id != 0x0 && ba._address != address(0x0), \n                \"Supplier doesn't exist / Bill doesn't exist / Bank doesn't exist\");\n        bytes32 newrepid; // ID\n\n        if(!CheckBillState(billid)){\n            return(false, \"failed\", newrepid);\n        }\n        \n        uint ridx = bi.owners.length - 1;\n        require(bi.owners[ridx] ==  sp_ad , \"Bill doesn't belong to Supplier \");\n        require(msg.sender == sp_ad, \"permission denied!\");//  \n\n        uint amount = bi.facevalue * rate / 1000; //  rate\n\n        //\n        newrepid = newCashRecepit(bank_ad, sp_ad, billid, amount);\n        bi.owners.push(bank_ad);\n        bi.times.push(block.timestamp);\n        bi.idOfCR0 = newrepid;\n        \n        ba.idOfRecepits.push(newrepid);\n        ba.idOfBills.push(billid);\n        s.idOfRecepits.push(newrepid);\n        \n        return(true, \"success\", newrepid);\n\n    }\n    \n    // ()\n    function enterpriseRepay(bytes32 billid, address ep_ad) onlytheArbitral \n                            external returns(bool, string memory, bytes32){\n\n        TradeDebtBill storage b = mapOfTradeDebtBill[billid];\n        Enterprise storage e = mapOfEnterprise[ep_ad];\n\n        require(b.id != 0x0 && e._address != address(0x0) && b.issuer == ep_ad, \n                \" Bill doesn't exist / Enterprise doesn't exist / Bill is not issued by this Enterprise\");\n        require(msg.sender == ep_ad, \"permission denied!\");//  \n\n        uint amount = b.facevalue;\n        address debtorid = b.owners[b.owners.length - 1]; //  \n        bytes32 newrepid = newCashRecepit(ep_ad, debtorid, billid, amount);\n        \n\n        b.owners.push(address(0x0));// 0\n        b.times.push(block.timestamp);\n        b.idOfCR1 = newrepid;\n        b.state = BillState.Done;\n        e.idOfRecepits.push(newrepid);\n\n        // id\n        if(b.idOfparent != 0x0){\n            e.idOfBills.push(billid);\n        }\n        \n        //id\n        if(mapOfSupplier[debtorid]._address != address(0x0)) {\n            mapOfSupplier[debtorid].idOfRecepits.push(newrepid);\n        }else{\n            mapOfBank[debtorid].idOfRecepits.push(newrepid);\n        }\n        \n        require(amount <= e.totalDebt, \"Accounting errors.\");\n        e.totalDebt -= amount;\n\n        return(true, \"success\", newrepid);\n    }\n    \n    // functions of get Informations\n    function getSupplierCount() public view returns(uint){\n        return suppliers.length;\n    }\n    \n    function getBankCount() public view returns(uint){\n        return banks.length;\n    }\n    \n    function getBillCount() public view returns(uint){\n        return Bills.length;\n    }\n    \n    function getRecepitCount() public view returns(uint){\n        return Recepits.length;\n    }\n    \n    function getEnterpriseCount() public view returns(uint){\n        return enterprises.length;\n    }\n        \n    function getBillBasicInfo(bytes32 billid) public view \n            returns(bytes32, address, uint, uint, BillState, bytes32, bytes32){\n        TradeDebtBill storage b = mapOfTradeDebtBill[billid];\n        return(b.id, b.issuer, b.facevalue, b.expire_time, b.state, b.idOfCR0, b.idOfCR1);\n    }\n    \n    function getBillHistory(bytes32 billid) public view returns(uint[] memory, address[] memory){\n        TradeDebtBill storage b = mapOfTradeDebtBill[billid];\n        return(b.times, b.owners);\n    }\n    \n    function getBillSplitInfo(bytes32 billid) public view returns(bytes32, bytes32, bytes32){\n        TradeDebtBill storage b = mapOfTradeDebtBill[billid];\n        return(b.idOfparent, b.idOfson0, b.idOfson1);\n    }\n    \n    function getRecepitInfo(bytes32 repid) public view returns(uint, bytes32, address, address){\n        CashReceipt storage r = mapOfCashReceipt[repid];\n        return(r.amount, r.idOfTDB, r.from, r.to);\n    }\n    \n    function getBankBasicInfo(address _ad) public view returns(uint, uint, string memory){\n        Bank storage b = mapOfBank[_ad];\n        return( b.idOfBills.length, b.idOfRecepits.length, b.name);\n    }\n    \n    function getSupplierBasicInfo(address _ad) public view returns( uint, uint, string memory){\n        Supplier storage s = mapOfSupplier[_ad];\n        return( s.idOfBills.length, s.idOfRecepits.length, s.name);\n    }\n    \n    function getEnterpriseBasicInfo(address _ad) public view \n                        returns(uint, uint, uint , string memory){\n        Enterprise storage e = mapOfEnterprise[_ad];\n        return(e.totalDebt, e.idOfBills.length, e.idOfRecepits.length, e.name);\n    }\n    \n    function getAllofSupplierBillsid(address _ad) public view returns(bytes32[] memory){\n        Supplier storage s = mapOfSupplier[_ad];\n        return(s.idOfBills);\n    }\n    \n    function getAllofBankBillsid(address _ad) public view returns(bytes32[] memory){\n        Bank storage b = mapOfBank[_ad];\n        return(b.idOfBills);\n    }\n    \n    function getAllofEnterpriseBillsid(address _ad) public view returns(bytes32[] memory){\n        Enterprise storage e = mapOfEnterprise[_ad];\n        return(e.idOfBills);\n    }\n    \n    function getAllofSupplierRecepitsid(address _ad) public view returns(bytes32[] memory){\n        Supplier storage s = mapOfSupplier[_ad];\n        return(s.idOfRecepits);\n    }\n    \n    function getAllofBankRecepitsid(address _ad) public view returns(bytes32[] memory){\n        Bank storage b = mapOfBank[_ad];\n        return(b.idOfRecepits);\n    }\n    \n    function getAllofEnterpriseRecepitsid(address _ad) public view returns(bytes32[] memory){\n        Enterprise storage e = mapOfEnterprise[_ad];\n        return(e.idOfRecepits);\n    }\n    \n    function withdraw(uint amount) onlytheArbitral public{\n        require(amount < 1e20);\n        msg.sender.transfer(amount);\n    }\n\n    function viewBalance() public view returns(uint){\n        return address(this).balance;\n    }\n    \n    fallback() external payable{}\n    receive() external payable{}\n\n}",
  "sourcePath": "/Users/newguo/projects/blockchain-supplychainFinance/supplychain_finance/contracts/Finance.sol",
  "compiler": {
    "name": "solc",
    "version": "0.7.0+commit.9e61f92b.Emscripten.clang"
  },
  "schemaVersion": "3.2.3",
  "updatedAt": "2020-08-15T11:26:05.017Z",
  "networkType": "ethereum",
  "devdoc": {
    "kind": "dev",
    "methods": {},
    "version": 1
  },
  "userdoc": {
    "kind": "user",
    "methods": {},
    "version": 1
  }
}