{
  "contractName": "Finance",
  "abi": [
    {
      "inputs": [
        {
          "internalType": "bytes32",
          "name": "id",
          "type": "bytes32"
        }
      ],
      "stateMutability": "nonpayable",
      "type": "constructor"
    },
    {
      "anonymous": false,
      "inputs": [
        {
          "indexed": false,
          "internalType": "bytes32",
          "name": "billid",
          "type": "bytes32"
        },
        {
          "indexed": false,
          "internalType": "bytes32",
          "name": "epid",
          "type": "bytes32"
        }
      ],
      "name": "billDueToRepay",
      "type": "event"
    },
    {
      "stateMutability": "payable",
      "type": "fallback",
      "payable": true
    },
    {
      "inputs": [],
      "name": "theArbitral",
      "outputs": [
        {
          "internalType": "bytes32",
          "name": "_id",
          "type": "bytes32"
        },
        {
          "internalType": "address",
          "name": "_address",
          "type": "address"
        }
      ],
      "stateMutability": "view",
      "type": "function",
      "constant": true
    },
    {
      "stateMutability": "payable",
      "type": "receive",
      "payable": true
    },
    {
      "inputs": [
        {
          "internalType": "bytes32",
          "name": "bankid",
          "type": "bytes32"
        },
        {
          "internalType": "string",
          "name": "_name",
          "type": "string"
        }
      ],
      "name": "addBank",
      "outputs": [
        {
          "internalType": "bool",
          "name": "",
          "type": "bool"
        },
        {
          "internalType": "string",
          "name": "",
          "type": "string"
        }
      ],
      "stateMutability": "nonpayable",
      "type": "function"
    },
    {
      "inputs": [
        {
          "internalType": "bytes32",
          "name": "epid",
          "type": "bytes32"
        },
        {
          "internalType": "uint256",
          "name": "limit",
          "type": "uint256"
        },
        {
          "internalType": "string",
          "name": "_name",
          "type": "string"
        }
      ],
      "name": "addEnterprise",
      "outputs": [
        {
          "internalType": "bool",
          "name": "",
          "type": "bool"
        },
        {
          "internalType": "string",
          "name": "",
          "type": "string"
        }
      ],
      "stateMutability": "nonpayable",
      "type": "function"
    },
    {
      "inputs": [
        {
          "internalType": "bytes32",
          "name": "eid",
          "type": "bytes32"
        },
        {
          "internalType": "uint256",
          "name": "newLimit",
          "type": "uint256"
        }
      ],
      "name": "updateEnterpriseCreditLimit",
      "outputs": [
        {
          "internalType": "bool",
          "name": "",
          "type": "bool"
        },
        {
          "internalType": "string",
          "name": "",
          "type": "string"
        }
      ],
      "stateMutability": "nonpayable",
      "type": "function"
    },
    {
      "inputs": [
        {
          "internalType": "bytes32",
          "name": "spid",
          "type": "bytes32"
        },
        {
          "internalType": "uint8",
          "name": "_level",
          "type": "uint8"
        },
        {
          "internalType": "string",
          "name": "_name",
          "type": "string"
        }
      ],
      "name": "addSupplier",
      "outputs": [
        {
          "internalType": "bool",
          "name": "",
          "type": "bool"
        },
        {
          "internalType": "string",
          "name": "",
          "type": "string"
        }
      ],
      "stateMutability": "nonpayable",
      "type": "function"
    },
    {
      "inputs": [
        {
          "internalType": "bytes32",
          "name": "epid",
          "type": "bytes32"
        },
        {
          "internalType": "bytes32",
          "name": "spid",
          "type": "bytes32"
        },
        {
          "internalType": "uint256",
          "name": "tolerate_time",
          "type": "uint256"
        },
        {
          "internalType": "uint256",
          "name": "_facevalue",
          "type": "uint256"
        }
      ],
      "name": "issueTradeDebtBill",
      "outputs": [
        {
          "internalType": "bool",
          "name": "",
          "type": "bool"
        },
        {
          "internalType": "bytes32",
          "name": "",
          "type": "bytes32"
        },
        {
          "internalType": "string",
          "name": "",
          "type": "string"
        }
      ],
      "stateMutability": "nonpayable",
      "type": "function"
    },
    {
      "inputs": [
        {
          "internalType": "bytes32",
          "name": "spid1",
          "type": "bytes32"
        },
        {
          "internalType": "bytes32",
          "name": "spid2",
          "type": "bytes32"
        },
        {
          "internalType": "bytes32",
          "name": "billid",
          "type": "bytes32"
        }
      ],
      "name": "transferBillbetweenSuppliers",
      "outputs": [
        {
          "internalType": "bool",
          "name": "",
          "type": "bool"
        },
        {
          "internalType": "string",
          "name": "",
          "type": "string"
        }
      ],
      "stateMutability": "nonpayable",
      "type": "function"
    },
    {
      "inputs": [
        {
          "internalType": "bytes32",
          "name": "billid",
          "type": "bytes32"
        },
        {
          "internalType": "bytes32",
          "name": "spid",
          "type": "bytes32"
        },
        {
          "internalType": "uint256[]",
          "name": "ways",
          "type": "uint256[]"
        }
      ],
      "name": "billSplitBySupplier",
      "outputs": [
        {
          "internalType": "bool",
          "name": "",
          "type": "bool"
        },
        {
          "internalType": "string",
          "name": "",
          "type": "string"
        },
        {
          "internalType": "bytes32[10]",
          "name": "",
          "type": "bytes32[10]"
        }
      ],
      "stateMutability": "nonpayable",
      "type": "function"
    },
    {
      "inputs": [
        {
          "internalType": "bytes32",
          "name": "billid",
          "type": "bytes32"
        },
        {
          "internalType": "bytes32",
          "name": "spid",
          "type": "bytes32"
        },
        {
          "internalType": "bytes32",
          "name": "bankid",
          "type": "bytes32"
        },
        {
          "internalType": "uint256",
          "name": "rate",
          "type": "uint256"
        }
      ],
      "name": "supplierFinancingfromBank",
      "outputs": [
        {
          "internalType": "bool",
          "name": "",
          "type": "bool"
        },
        {
          "internalType": "string",
          "name": "",
          "type": "string"
        },
        {
          "internalType": "bytes32",
          "name": "",
          "type": "bytes32"
        }
      ],
      "stateMutability": "nonpayable",
      "type": "function"
    },
    {
      "inputs": [
        {
          "internalType": "bytes32",
          "name": "billid",
          "type": "bytes32"
        },
        {
          "internalType": "bytes32",
          "name": "epid",
          "type": "bytes32"
        }
      ],
      "name": "enterpriseRepay",
      "outputs": [
        {
          "internalType": "bool",
          "name": "",
          "type": "bool"
        },
        {
          "internalType": "string",
          "name": "",
          "type": "string"
        },
        {
          "internalType": "bytes32",
          "name": "",
          "type": "bytes32"
        }
      ],
      "stateMutability": "nonpayable",
      "type": "function"
    },
    {
      "inputs": [],
      "name": "getSupplierCount",
      "outputs": [
        {
          "internalType": "uint256",
          "name": "",
          "type": "uint256"
        }
      ],
      "stateMutability": "view",
      "type": "function",
      "constant": true
    },
    {
      "inputs": [],
      "name": "getBankCount",
      "outputs": [
        {
          "internalType": "uint256",
          "name": "",
          "type": "uint256"
        }
      ],
      "stateMutability": "view",
      "type": "function",
      "constant": true
    },
    {
      "inputs": [],
      "name": "getBillCount",
      "outputs": [
        {
          "internalType": "uint256",
          "name": "",
          "type": "uint256"
        }
      ],
      "stateMutability": "view",
      "type": "function",
      "constant": true
    },
    {
      "inputs": [],
      "name": "getRecepitCount",
      "outputs": [
        {
          "internalType": "uint256",
          "name": "",
          "type": "uint256"
        }
      ],
      "stateMutability": "view",
      "type": "function",
      "constant": true
    },
    {
      "inputs": [],
      "name": "getEnterpriseCount",
      "outputs": [
        {
          "internalType": "uint256",
          "name": "",
          "type": "uint256"
        }
      ],
      "stateMutability": "view",
      "type": "function",
      "constant": true
    },
    {
      "inputs": [
        {
          "internalType": "bytes32",
          "name": "billid",
          "type": "bytes32"
        }
      ],
      "name": "getBillBasicInfo",
      "outputs": [
        {
          "internalType": "bytes32",
          "name": "",
          "type": "bytes32"
        },
        {
          "internalType": "bytes32",
          "name": "",
          "type": "bytes32"
        },
        {
          "internalType": "uint256",
          "name": "",
          "type": "uint256"
        },
        {
          "internalType": "uint256",
          "name": "",
          "type": "uint256"
        },
        {
          "internalType": "enum Finance.BillState",
          "name": "",
          "type": "uint8"
        },
        {
          "internalType": "bytes32",
          "name": "",
          "type": "bytes32"
        }
      ],
      "stateMutability": "view",
      "type": "function",
      "constant": true
    },
    {
      "inputs": [
        {
          "internalType": "bytes32",
          "name": "billid",
          "type": "bytes32"
        }
      ],
      "name": "getBillHistory",
      "outputs": [
        {
          "internalType": "uint256[]",
          "name": "",
          "type": "uint256[]"
        },
        {
          "internalType": "bytes32[]",
          "name": "",
          "type": "bytes32[]"
        },
        {
          "internalType": "bytes32[]",
          "name": "",
          "type": "bytes32[]"
        }
      ],
      "stateMutability": "view",
      "type": "function",
      "constant": true
    },
    {
      "inputs": [
        {
          "internalType": "bytes32",
          "name": "billid",
          "type": "bytes32"
        }
      ],
      "name": "getBillSplitInfo",
      "outputs": [
        {
          "internalType": "bytes32",
          "name": "",
          "type": "bytes32"
        },
        {
          "internalType": "bytes32[]",
          "name": "",
          "type": "bytes32[]"
        }
      ],
      "stateMutability": "view",
      "type": "function",
      "constant": true
    },
    {
      "inputs": [
        {
          "internalType": "bytes32",
          "name": "repid",
          "type": "bytes32"
        }
      ],
      "name": "getRecepitInfo",
      "outputs": [
        {
          "internalType": "uint256",
          "name": "",
          "type": "uint256"
        },
        {
          "internalType": "bytes32",
          "name": "",
          "type": "bytes32"
        },
        {
          "internalType": "bytes32",
          "name": "",
          "type": "bytes32"
        },
        {
          "internalType": "bytes32",
          "name": "",
          "type": "bytes32"
        }
      ],
      "stateMutability": "view",
      "type": "function",
      "constant": true
    },
    {
      "inputs": [
        {
          "internalType": "bytes32",
          "name": "id",
          "type": "bytes32"
        }
      ],
      "name": "getBankBasicInfo",
      "outputs": [
        {
          "internalType": "uint256",
          "name": "",
          "type": "uint256"
        },
        {
          "internalType": "uint256",
          "name": "",
          "type": "uint256"
        },
        {
          "internalType": "string",
          "name": "",
          "type": "string"
        }
      ],
      "stateMutability": "view",
      "type": "function",
      "constant": true
    },
    {
      "inputs": [
        {
          "internalType": "bytes32",
          "name": "id",
          "type": "bytes32"
        }
      ],
      "name": "getSupplierBasicInfo",
      "outputs": [
        {
          "internalType": "uint256",
          "name": "",
          "type": "uint256"
        },
        {
          "internalType": "uint256",
          "name": "",
          "type": "uint256"
        },
        {
          "internalType": "uint256",
          "name": "",
          "type": "uint256"
        },
        {
          "internalType": "string",
          "name": "",
          "type": "string"
        }
      ],
      "stateMutability": "view",
      "type": "function",
      "constant": true
    },
    {
      "inputs": [
        {
          "internalType": "bytes32",
          "name": "id",
          "type": "bytes32"
        }
      ],
      "name": "getEnterpriseBasicInfo",
      "outputs": [
        {
          "internalType": "uint256",
          "name": "",
          "type": "uint256"
        },
        {
          "internalType": "uint256",
          "name": "",
          "type": "uint256"
        },
        {
          "internalType": "uint256",
          "name": "",
          "type": "uint256"
        },
        {
          "internalType": "string",
          "name": "",
          "type": "string"
        }
      ],
      "stateMutability": "view",
      "type": "function",
      "constant": true
    },
    {
      "inputs": [
        {
          "internalType": "bytes32",
          "name": "id",
          "type": "bytes32"
        }
      ],
      "name": "getAllofSupplierBillsid",
      "outputs": [
        {
          "internalType": "bytes32[]",
          "name": "",
          "type": "bytes32[]"
        }
      ],
      "stateMutability": "view",
      "type": "function",
      "constant": true
    },
    {
      "inputs": [
        {
          "internalType": "bytes32",
          "name": "id",
          "type": "bytes32"
        }
      ],
      "name": "getAllofBankBillsid",
      "outputs": [
        {
          "internalType": "bytes32[]",
          "name": "",
          "type": "bytes32[]"
        }
      ],
      "stateMutability": "view",
      "type": "function",
      "constant": true
    },
    {
      "inputs": [
        {
          "internalType": "bytes32",
          "name": "id",
          "type": "bytes32"
        }
      ],
      "name": "getAllofEnterpriseBillsid",
      "outputs": [
        {
          "internalType": "bytes32[]",
          "name": "",
          "type": "bytes32[]"
        }
      ],
      "stateMutability": "view",
      "type": "function",
      "constant": true
    },
    {
      "inputs": [
        {
          "internalType": "bytes32",
          "name": "id",
          "type": "bytes32"
        }
      ],
      "name": "getAllofSupplierRecepitsid",
      "outputs": [
        {
          "internalType": "bytes32[]",
          "name": "",
          "type": "bytes32[]"
        }
      ],
      "stateMutability": "view",
      "type": "function",
      "constant": true
    },
    {
      "inputs": [
        {
          "internalType": "bytes32",
          "name": "id",
          "type": "bytes32"
        }
      ],
      "name": "getAllofBankRecepitsid",
      "outputs": [
        {
          "internalType": "bytes32[]",
          "name": "",
          "type": "bytes32[]"
        }
      ],
      "stateMutability": "view",
      "type": "function",
      "constant": true
    },
    {
      "inputs": [
        {
          "internalType": "bytes32",
          "name": "id",
          "type": "bytes32"
        }
      ],
      "name": "getAllofEnterpriseRecepitsid",
      "outputs": [
        {
          "internalType": "bytes32[]",
          "name": "",
          "type": "bytes32[]"
        }
      ],
      "stateMutability": "view",
      "type": "function",
      "constant": true
    },
    {
      "inputs": [
        {
          "internalType": "uint256",
          "name": "amount",
          "type": "uint256"
        }
      ],
      "name": "withdraw",
      "outputs": [],
      "stateMutability": "nonpayable",
      "type": "function"
    }
  ],
  "bytecode": "0x608060405234801561001057600080fd5b5060405162004a7038038062004a708339818101604052602081101561003557600080fd5b810190808051906020019092919050505060405180604001604052808281526020013373ffffffffffffffffffffffffffffffffffffffff16815250600080820151816000015560208201518160010160006101000a81548173ffffffffffffffffffffffffffffffffffffffff021916908373ffffffffffffffffffffffffffffffffffffffff1602179055509050505061499980620000d76000396000f3fe6080604052600436106101c65760003560e01c806375a010c9116100f7578063ba25a5f711610095578063f185e30011610064578063f185e3001461115d578063f7a992a1146111ed578063fc94d0511461127d578063fdade4fd146113de576101cd565b8063ba25a5f714610ef2578063c0a2f30414610f82578063c90edbfa14611050578063ef0ddc0c146110cd576101cd565b80638c7977ed116100d15780638c7977ed14610c2e5780639f3ef7e314610d10578063b10b733914610dd9578063b353334914610eaa576101cd565b806375a010c914610a475780638791e7b414610ad75780638936f96a14610b9e576101cd565b806333a5522b116101645780634af999b31161013e5780634af999b31461080357806352d07cd01461098d5780635b897075146109b85780637386c9a7146109e3576101cd565b806333a5522b146104ad5780633b8e661d1461058f5780633db8ec07146106af576101cd565b806326cf81a7116101a057806326cf81a7146102ee5780632b78c076146103b05780632e1a7d4d146104475780632e44715d14610482576101cd565b80631883c7cc146101cf57806323218e5f146101fa57806326cb93c514610225576101cd565b366101cd57005b005b3480156101db57600080fd5b506101e461153c565b6040518082815260200191505060405180910390f35b34801561020657600080fd5b5061020f611549565b6040518082815260200191505060405180910390f35b34801561023157600080fd5b5061025e6004803603602081101561024857600080fd5b8101908080359060200190929190505050611556565b6040518085815260200184815260200183815260200180602001828103825283818151815260200191508051906020019080838360005b838110156102b0578082015181840152602081019050610295565b50505050905090810190601f1680156102dd5780820380516001836020036101000a031916815260200191505b509550505050505060405180910390f35b3480156102fa57600080fd5b506103276004803603602081101561031157600080fd5b810190808035906020019092919050505061164c565b6040518084815260200183815260200180602001828103825283818151815260200191508051906020019080838360005b83811015610373578082015181840152602081019050610358565b50505050905090810190601f1680156103a05780820380516001836020036101000a031916815260200191505b5094505050505060405180910390f35b3480156103bc57600080fd5b506103e9600480360360208110156103d357600080fd5b8101908080359060200190929190505050611726565b6040518083815260200180602001828103825283818151815260200191508051906020019060200280838360005b83811015610432578082015181840152602081019050610417565b50505050905001935050505060405180910390f35b34801561045357600080fd5b506104806004803603602081101561046a57600080fd5b81019080803590602001909291905050506117a6565b005b34801561048e57600080fd5b506104976118cb565b6040518082815260200191505060405180910390f35b3480156104b957600080fd5b50610504600480360360808110156104d057600080fd5b81019080803590602001909291908035906020019092919080359060200190929190803590602001909291905050506118d8565b60405180841515815260200180602001838152602001828103825284818151815260200191508051906020019080838360005b83811015610552578082015181840152602081019050610537565b50505050905090810190601f16801561057f5780820380516001836020036101000a031916815260200191505b5094505050505060405180910390f35b34801561059b57600080fd5b506105c8600480360360208110156105b257600080fd5b8101908080359060200190929190505050611d81565b60405180806020018060200180602001848103845287818151815260200191508051906020019060200280838360005b838110156106135780820151818401526020810190506105f8565b50505050905001848103835286818151815260200191508051906020019060200280838360005b8381101561065557808201518184015260208101905061063a565b50505050905001848103825285818151815260200191508051906020019060200280838360005b8381101561069757808201518184015260208101905061067c565b50505050905001965050505050505060405180910390f35b3480156106bb57600080fd5b5061077f600480360360408110156106d257600080fd5b8101908080359060200190929190803590602001906401000000008111156106f957600080fd5b82018360208201111561070b57600080fd5b8035906020019184600183028401116401000000008311171561072d57600080fd5b91908080601f016020809104026020016040519081016040528093929190818152602001838380828437600081840152601f19601f820116905080830192505050505050509192919290505050611ead565b60405180831515815260200180602001828103825283818151815260200191508051906020019080838360005b838110156107c75780820151818401526020810190506107ac565b50505050905090810190601f1680156107f45780820380516001836020036101000a031916815260200191505b50935050505060405180910390f35b34801561080f57600080fd5b506108da6004803603606081101561082657600080fd5b8101908080359060200190929190803590602001909291908035906020019064010000000081111561085757600080fd5b82018360208201111561086957600080fd5b8035906020019184602083028401116401000000008311171561088b57600080fd5b919080806020026020016040519081016040528093929190818152602001838360200280828437600081840152601f19601f820116905080830192505050505050509192919290505050612190565b6040518084151581526020018060200183600a60200280838360005b838110156109115780820151818401526020810190506108f6565b50505050905001828103825284818151815260200191508051906020019080838360005b83811015610950578082015181840152602081019050610935565b50505050905090810190601f16801561097d5780820380516001836020036101000a031916815260200191505b5094505050505060405180910390f35b34801561099957600080fd5b506109a2612756565b6040518082815260200191505060405180910390f35b3480156109c457600080fd5b506109cd612763565b6040518082815260200191505060405180910390f35b3480156109ef57600080fd5b50610a1c60048036036020811015610a0657600080fd5b8101908080359060200190929190505050612770565b6040518085815260200184815260200183815260200182815260200194505050505060405180910390f35b348015610a5357600080fd5b50610a8060048036036020811015610a6a57600080fd5b81019080803590602001909291905050506127b1565b6040518080602001828103825283818151815260200191508051906020019060200280838360005b83811015610ac3578082015181840152602081019050610aa8565b505050509050019250505060405180910390f35b348015610ae357600080fd5b50610b1a60048036036040811015610afa57600080fd5b810190808035906020019092919080359060200190929190505050612825565b60405180831515815260200180602001828103825283818151815260200191508051906020019080838360005b83811015610b62578082015181840152602081019050610b47565b50505050905090810190601f168015610b8f5780820380516001836020036101000a031916815260200191505b50935050505060405180910390f35b348015610baa57600080fd5b50610bd760048036036020811015610bc157600080fd5b81019080803590602001909291905050506129af565b6040518080602001828103825283818151815260200191508051906020019060200280838360005b83811015610c1a578082015181840152602081019050610bff565b505050509050019250505060405180910390f35b348015610c3a57600080fd5b50610c8560048036036080811015610c5157600080fd5b8101908080359060200190929190803590602001909291908035906020019092919080359060200190929190505050612a23565b60405180841515815260200183815260200180602001828103825283818151815260200191508051906020019080838360005b83811015610cd3578082015181840152602081019050610cb8565b50505050905090810190601f168015610d005780820380516001836020036101000a031916815260200191505b5094505050505060405180910390f35b348015610d1c57600080fd5b50610d4960048036036020811015610d3357600080fd5b8101908080359060200190929190505050612c91565b6040518085815260200184815260200183815260200180602001828103825283818151815260200191508051906020019080838360005b83811015610d9b578082015181840152602081019050610d80565b50505050905090810190601f168015610dc85780820380516001836020036101000a031916815260200191505b509550505050505060405180910390f35b348015610de557600080fd5b50610e2660048036036060811015610dfc57600080fd5b81019080803590602001909291908035906020019092919080359060200190929190505050612d74565b60405180831515815260200180602001828103825283818151815260200191508051906020019080838360005b83811015610e6e578082015181840152602081019050610e53565b50505050905090810190601f168015610e9b5780820380516001836020036101000a031916815260200191505b50935050505060405180910390f35b348015610eb657600080fd5b50610ebf613177565b604051808381526020018273ffffffffffffffffffffffffffffffffffffffff1681526020019250505060405180910390f35b348015610efe57600080fd5b50610f2b60048036036020811015610f1557600080fd5b81019080803590602001909291905050506131a9565b6040518080602001828103825283818151815260200191508051906020019060200280838360005b83811015610f6e578082015181840152602081019050610f53565b505050509050019250505060405180910390f35b348015610f8e57600080fd5b50610fc560048036036040811015610fa557600080fd5b81019080803590602001909291908035906020019092919050505061321d565b60405180841515815260200180602001838152602001828103825284818151815260200191508051906020019080838360005b83811015611013578082015181840152602081019050610ff8565b50505050905090810190601f1680156110405780820380516001836020036101000a031916815260200191505b5094505050505060405180910390f35b34801561105c57600080fd5b506110896004803603602081101561107357600080fd5b810190808035906020019092919050505061366a565b604051808781526020018681526020018581526020018481526020018360028111156110b157fe5b8152602001828152602001965050505050505060405180910390f35b3480156110d957600080fd5b50611106600480360360208110156110f057600080fd5b81019080803590602001909291905050506136cb565b6040518080602001828103825283818151815260200191508051906020019060200280838360005b8381101561114957808201518184015260208101905061112e565b505050509050019250505060405180910390f35b34801561116957600080fd5b506111966004803603602081101561118057600080fd5b810190808035906020019092919050505061373f565b6040518080602001828103825283818151815260200191508051906020019060200280838360005b838110156111d95780820151818401526020810190506111be565b505050509050019250505060405180910390f35b3480156111f957600080fd5b506112266004803603602081101561121057600080fd5b81019080803590602001909291905050506137b3565b6040518080602001828103825283818151815260200191508051906020019060200280838360005b8381101561126957808201518184015260208101905061124e565b505050509050019250505060405180910390f35b34801561128957600080fd5b5061135a600480360360608110156112a057600080fd5b8101908080359060200190929190803560ff169060200190929190803590602001906401000000008111156112d457600080fd5b8201836020820111156112e657600080fd5b8035906020019184600183028401116401000000008311171561130857600080fd5b91908080601f016020809104026020016040519081016040528093929190818152602001838380828437600081840152601f19601f820116905080830192505050505050509192919290505050613827565b60405180831515815260200180602001828103825283818151815260200191508051906020019080838360005b838110156113a2578082015181840152602081019050611387565b50505050905090810190601f1680156113cf5780820380516001836020036101000a031916815260200191505b50935050505060405180910390f35b3480156113ea57600080fd5b506114b86004803603606081101561140157600080fd5b8101908080359060200190929190803590602001909291908035906020019064010000000081111561143257600080fd5b82018360208201111561144457600080fd5b8035906020019184600183028401116401000000008311171561146657600080fd5b91908080601f016020809104026020016040519081016040528093929190818152602001838380828437600081840152601f19601f820116905080830192505050505050509192919290505050613b63565b60405180831515815260200180602001828103825283818151815260200191508051906020019080838360005b838110156115005780820151818401526020810190506114e5565b50505050905090810190601f16801561152d5780820380516001836020036101000a031916815260200191505b50935050505060405180910390f35b6000600780549050905090565b6000600b80549050905090565b6000806000606060006006600087815260200190815260200160002090508060010160009054906101000a900460ff1681600201805490508260030180549050836004018360ff169350808054600181600116156101000203166002900480601f0160208091040260200160405190810160405280929190818152602001828054600181600116156101000203166002900480156116355780601f1061160a57610100808354040283529160200191611635565b820191906000526020600020905b81548152906001019060200180831161161857829003601f168201915b505050505090509450945094509450509193509193565b600080606060006005600086815260200190815260200160002090508060010180549050816002018054905082600301808054600181600116156101000203166002900480601f0160208091040260200160405190810160405280929190818152602001828054600181600116156101000203166002900480156117115780601f106116e657610100808354040283529160200191611711565b820191906000526020600020905b8154815290600101906020018083116116f457829003601f168201915b50505050509050935093509350509193909250565b6000606060006003600085815260200190815260200160002090508060060154816007018080548060200260200160405190810160405280929190818152602001828054801561179557602002820191906000526020600020905b815481526020019060010190808311611781575b505050505090509250925050915091565b600060010160009054906101000a900473ffffffffffffffffffffffffffffffffffffffff1673ffffffffffffffffffffffffffffffffffffffff163373ffffffffffffffffffffffffffffffffffffffff161461186c576040517f08c379a00000000000000000000000000000000000000000000000000000000081526004018080602001828103825260198152602001807f4f6e6c7920617262697472616c2063616e206f7065726174650000000000000081525060200191505060405180910390fd5b68056bc75e2d63100000811061188157600080fd5b3373ffffffffffffffffffffffffffffffffffffffff166108fc829081150290604051600060405180830381858888f193505050501580156118c7573d6000803e3d6000fd5b5050565b6000600a80549050905090565b6000606060008060010160009054906101000a900473ffffffffffffffffffffffffffffffffffffffff1673ffffffffffffffffffffffffffffffffffffffff163373ffffffffffffffffffffffffffffffffffffffff16146119a3576040517f08c379a00000000000000000000000000000000000000000000000000000000081526004018080602001828103825260198152602001807f4f6e6c7920617262697472616c2063616e206f7065726174650000000000000081525060200191505060405180910390fd5b6000600360008981526020019081526020016000209050600060066000898152602001908152602001600020905060006005600089815260200190815260200160002090506000801b826000015414158015611a0657506000801b836000015414155b8015611a1957506000801b816000015414155b611a6e576040517f08c379a00000000000000000000000000000000000000000000000000000000081526004018080602001828103825260408152602001806148246040913960400191505060405180910390fd5b6000611a798b613e7c565b611ac6576000816040518060400160405280600681526020017f6661696c656400000000000000000000000000000000000000000000000000008152509096509650965050505050611d77565b60016002811115611ad357fe5b8460040160009054906101000a900460ff166002811115611af057fe5b1415611b64576040517f08c379a000000000000000000000000000000000000000000000000000000000815260040180806020018281038252600d8152602001807f42696c6c2069732053706c69740000000000000000000000000000000000000081525060200191505060405180910390fd5b6000600185600801805490500390508a856009018281548110611b8357fe5b906000526020600020015414611c01576040517f08c379a00000000000000000000000000000000000000000000000000000000081526004018080602001828103825260208152602001807f42696c6c20646f65736e27742062656c6f6e6720746f20537570706c6965722081525060200191505060405180910390fd5b60006103e88a87600201540281611c1457fe5b049050611c238b8d8f84613f75565b9250856008018c9080600181540180825580915050600190039060005260206000200160009091909190915055856009018b908060018154018082558091505060019003906000526020600020016000909190919091505585600a0142908060018154018082558091505060019003906000526020600020016000909190919091505582866005018190555083600201839080600181540180825580915050600190039060005260206000200160009091909190915055836001018d9080600181540180825580915050600190039060005260206000200160009091909190915055846003018390806001815401808255809150506001900390600052602060002001600090919091909150556001836040518060400160405280600781526020017f7375636365737300000000000000000000000000000000000000000000000000815250909850985098505050505050505b9450945094915050565b6060806060600060036000868152602001908152602001600020905080600a01816008018260090182805480602002602001604051908101604052809291908181526020018280548015611df457602002820191906000526020600020905b815481526020019060010190808311611de0575b5050505050925081805480602002602001604051908101604052809291908181526020018280548015611e4657602002820191906000526020600020905b815481526020019060010190808311611e32575b5050505050915080805480602002602001604051908101604052809291908181526020018280548015611e9857602002820191906000526020600020905b815481526020019060010190808311611e84575b50505050509050935093509350509193909250565b60006060600060010160009054906101000a900473ffffffffffffffffffffffffffffffffffffffff1673ffffffffffffffffffffffffffffffffffffffff163373ffffffffffffffffffffffffffffffffffffffff1614611f77576040517f08c379a00000000000000000000000000000000000000000000000000000000081526004018080602001828103825260198152602001807f4f6e6c7920617262697472616c2063616e206f7065726174650000000000000081525060200191505060405180910390fd5b600a6040518060800160405280868152602001600067ffffffffffffffff81118015611fa257600080fd5b50604051908082528060200260200182016040528015611fd15781602001602082028036833780820191505090505b508152602001600067ffffffffffffffff81118015611fef57600080fd5b5060405190808252806020026020018201604052801561201e5781602001602082028036833780820191505090505b508152602001858152509080600181540180825580915050600190039060005260206000209060040201600090919091909150600082015181600001556020820151816001019080519060200190612077929190614527565b506040820151816002019080519060200190612094929190614527565b5060608201518160030190805190602001906120b1929190614574565b505050600a6001600a8054905003815481106120c957fe5b90600052602060002090600402016005600086815260200190815260200160002060008201548160000155600182018160010190805461210a9291906145f4565b5060028201816002019080546121219291906145f4565b5060038201816003019080546001816001161561010002031660029004612149929190614646565b5090505060016040518060400160405280600781526020017f7375636365737300000000000000000000000000000000000000000000000000815250915091509250929050565b6000606061219c6146cd565b600060010160009054906101000a900473ffffffffffffffffffffffffffffffffffffffff1673ffffffffffffffffffffffffffffffffffffffff163373ffffffffffffffffffffffffffffffffffffffff1614612262576040517f08c379a00000000000000000000000000000000000000000000000000000000081526004018080602001828103825260198152602001807f4f6e6c7920617262697472616c2063616e206f7065726174650000000000000081525060200191505060405180910390fd5b600060036000888152602001908152602001600020905060006006600088815260200190815260200160002090506122986146cd565b6000801b82600001541415612315576040517f08c379a00000000000000000000000000000000000000000000000000000000081526004018080602001828103825260168152602001807f537570706c69657220646f65736e27742065786973740000000000000000000081525060200191505060405180910390fd5b61231e89613e7c565b61236a576000816040518060400160405280600681526020017f6661696c656400000000000000000000000000000000000000000000000000008152509095509550955050505061274d565b6001600281111561237757fe5b8360040160009054906101000a900460ff16600281111561239457fe5b1415612408576040517f08c379a000000000000000000000000000000000000000000000000000000000815260040180806020018281038252600d8152602001807f42696c6c2069732053706c69740000000000000000000000000000000000000081525060200191505060405180910390fd5b6000600184600801805490500390508884600901828154811061242757fe5b90600052602060002001541480156124415750600a885111155b612496576040517f08c379a000000000000000000000000000000000000000000000000000000000815260040180806020018281038252603b815260200180614864603b913960400191505060405180910390fd5b6000805b89518110156125515760008a82815181106124b157fe5b60200260200101511161252c576040517f08c379a00000000000000000000000000000000000000000000000000000000081526004018080602001828103825260198152602001807f73706c6974207761792069736e2774206665617369626c652e0000000000000081525060200191505060405180910390fd5b89818151811061253857fe5b602002602001015182019150808060010191505061249a565b50846002015481146125cb576040517f08c379a00000000000000000000000000000000000000000000000000000000081526004018080602001828103825260198152602001807f73706c6974207761792069736e2774206665617369626c652e0000000000000081525060200191505060405180910390fd5b60008560030154905060008660010154905060008d905060008d905060008960080160018b60080180549050038154811061260257fe5b9060005260206000200154905060005b8e518110156126db5760008f828151811061262957fe5b602002602001015190506126428385888842868d6140ce565b8a83600a811061264e57fe5b6020020181815250508b6007018a83600a811061266757fe5b602002015190806001815401808255809150506001900390600052602060002001600090919091909150558a6002018a83600a81106126a257fe5b60200201519080600181540180825580915050600190039060005260206000200160009091909190915055508080600101915050612612565b5060018a60040160006101000a81548160ff021916908360028111156126fd57fe5b02179055506001886040518060400160405280600781526020017f7375636365737300000000000000000000000000000000000000000000000000815250909c509c509c50505050505050505050505b93509350939050565b6000600980549050905090565b6000600880549050905090565b600080600080600060026000878152602001908152602001600020905080600101548160020154826003015483600401549450945094509450509193509193565b606060006005600084815260200190815260200160002090508060020180548060200260200160405190810160405280929190818152602001828054801561281857602002820191906000526020600020905b815481526020019060010190808311612804575b5050505050915050919050565b60006060600060010160009054906101000a900473ffffffffffffffffffffffffffffffffffffffff1673ffffffffffffffffffffffffffffffffffffffff163373ffffffffffffffffffffffffffffffffffffffff16146128ef576040517f08c379a00000000000000000000000000000000000000000000000000000000081526004018080602001828103825260198152602001807f4f6e6c7920617262697472616c2063616e206f7065726174650000000000000081525060200191505060405180910390fd5b600060046000868152602001908152602001600020905083816001015410612962576040517f08c379a00000000000000000000000000000000000000000000000000000000081526004018080602001828103825260298152602001806147fb6029913960400191505060405180910390fd5b83816002018190555060016040518060400160405280600781526020017f737563636573730000000000000000000000000000000000000000000000000081525092509250509250929050565b6060600060046000848152602001908152602001600020905080600301805480602002602001604051908101604052809291908181526020018280548015612a1657602002820191906000526020600020905b815481526020019060010190808311612a02575b5050505050915050919050565b6000806060600060010160009054906101000a900473ffffffffffffffffffffffffffffffffffffffff1673ffffffffffffffffffffffffffffffffffffffff163373ffffffffffffffffffffffffffffffffffffffff1614612aee576040517f08c379a00000000000000000000000000000000000000000000000000000000081526004018080602001828103825260198152602001807f4f6e6c7920617262697472616c2063616e206f7065726174650000000000000081525060200191505060405180910390fd5b600060046000898152602001908152602001600020905060006006600089815260200190815260200160002090506000801b826000015414158015612b3a57506000801b816000015414155b8015612b5a575060018160010160009054906101000a900460ff1660ff16145b8015612b70575081600201548683600101540111155b612bc5576040517f08c379a000000000000000000000000000000000000000000000000000000000815260040180806020018281038252606f81526020018061489f606f913960800191505060405180910390fd5b6000612bdb8a8a8c6000801b428c8e42016140ce565b905086836001016000828254019250508190555082600301819080600181540180825580915050600190039060005260206000200160009091909190915055816002018190806001815401808255809150506001900390600052602060002001600090919091909150556001816040518060400160405280600781526020017f73756363657373000000000000000000000000000000000000000000000000008152509550955095505050509450945094915050565b60008060006060600060046000878152602001908152602001600020905080600101548160030180549050826004018054905083600501808054600181600116156101000203166002900480601f016020809104026020016040519081016040528092919081815260200182805460018160011615610100020316600290048015612d5d5780601f10612d3257610100808354040283529160200191612d5d565b820191906000526020600020905b815481529060010190602001808311612d4057829003601f168201915b505050505090509450945094509450509193509193565b60006060600060010160009054906101000a900473ffffffffffffffffffffffffffffffffffffffff1673ffffffffffffffffffffffffffffffffffffffff163373ffffffffffffffffffffffffffffffffffffffff1614612e3e576040517f08c379a00000000000000000000000000000000000000000000000000000000081526004018080602001828103825260198152602001807f4f6e6c7920617262697472616c2063616e206f7065726174650000000000000081525060200191505060405180910390fd5b6000600660008781526020019081526020016000209050600060066000878152602001908152602001600020905060006003600087815260200190815260200160002090506000801b836000015414158015612ea157506000801b826000015414155b612ef6576040517f08c379a00000000000000000000000000000000000000000000000000000000081526004018080602001828103825260318152602001806147ca6031913960400191505060405180910390fd5b612eff86613e7c565b612f475760006040518060400160405280600681526020017f6661696c656400000000000000000000000000000000000000000000000000008152509450945050505061316f565b60016002811115612f5457fe5b8160040160009054906101000a900460ff166002811115612f7157fe5b1415612fe5576040517f08c379a000000000000000000000000000000000000000000000000000000000815260040180806020018281038252600d8152602001807f42696c6c2069732053706c69740000000000000000000000000000000000000081525060200191505060405180910390fd5b6000600182600801805490500390508882600901828154811061300457fe5b906000526020600020015414613082576040517f08c379a00000000000000000000000000000000000000000000000000000000081526004018080602001828103825260208152602001807f42696c6c20646f65736e27742062656c6f6e6720746f20537570706c6965723181525060200191505060405180910390fd5b816008018990806001815401808255809150506001900390600052602060002001600090919091909150558160090188908060018154018082558091505060019003906000526020600020016000909190919091505581600a014290806001815401808255809150506001900390600052602060002001600090919091909150558260020187908060018154018082558091505060019003906000526020600020016000909190919091505560016040518060400160405280600781526020017f737563636573730000000000000000000000000000000000000000000000000081525095509550505050505b935093915050565b60008060000154908060010160009054906101000a900473ffffffffffffffffffffffffffffffffffffffff16905082565b606060006006600084815260200190815260200160002090508060030180548060200260200160405190810160405280929190818152602001828054801561321057602002820191906000526020600020905b8154815260200190600101908083116131fc575b5050505050915050919050565b6000606060008060010160009054906101000a900473ffffffffffffffffffffffffffffffffffffffff1673ffffffffffffffffffffffffffffffffffffffff163373ffffffffffffffffffffffffffffffffffffffff16146132e8576040517f08c379a00000000000000000000000000000000000000000000000000000000081526004018080602001828103825260198152602001807f4f6e6c7920617262697472616c2063616e206f7065726174650000000000000081525060200191505060405180910390fd5b600060036000878152602001908152602001600020905060006004600087815260200190815260200160002090506000801b82600001541415801561333457506000801b816000015414155b80156133435750858260010154145b613398576040517f08c379a000000000000000000000000000000000000000000000000000000000815260040180806020018281038252605681526020018061490e6056913960600191505060405180910390fd5b6000826002015490506000836009016001856009018054905003815481106133bc57fe5b9060005260206000200154905060006133d789838c86613f75565b905084600801829080600181540180825580915050600190039060005260206000200160009091909190915055846009016000908060018154018082558091505060019003906000526020600020016000909160001b90919091505584600a0142908060018154018082558091505060019003906000526020600020016000909190919091505580856005018190555060028560040160006101000a81548160ff0219169083600281111561348857fe5b0217905550836004018190806001815401808255809150506001900390600052602060002001600090919091909150556000801b8560060154146134f257836003018a90806001815401808255809150506001900390600052602060002001600090919091909150555b6000801b6006600084815260200190815260200160002060000154146135545760066000838152602001908152602001600020600301819080600181540180825580915050600190039060005260206000200160009091909190915055613592565b600560008381526020019081526020016000206002018190806001815401808255809150506001900390600052602060002001600090919091909150555b836001015483111561360c576040517f08c379a00000000000000000000000000000000000000000000000000000000081526004018080602001828103825260128152602001807f4163636f756e74696e67206572726f72732e000000000000000000000000000081525060200191505060405180910390fd5b8284600101600082825403925050819055506001816040518060400160405280600781526020017f73756363657373000000000000000000000000000000000000000000000000008152509097509750975050505050509250925092565b600080600080600080600060036000898152602001908152602001600020905080600001548160010154826002015483600301548460040160009054906101000a900460ff1685600501549650965096509650965096505091939550919395565b606060006006600084815260200190815260200160002090508060020180548060200260200160405190810160405280929190818152602001828054801561373257602002820191906000526020600020905b81548152602001906001019080831161371e575b5050505050915050919050565b60606000600460008481526020019081526020016000209050806004018054806020026020016040519081016040528092919081815260200182805480156137a657602002820191906000526020600020905b815481526020019060010190808311613792575b5050505050915050919050565b606060006005600084815260200190815260200160002090508060010180548060200260200160405190810160405280929190818152602001828054801561381a57602002820191906000526020600020905b815481526020019060010190808311613806575b5050505050915050919050565b60006060600060010160009054906101000a900473ffffffffffffffffffffffffffffffffffffffff1673ffffffffffffffffffffffffffffffffffffffff163373ffffffffffffffffffffffffffffffffffffffff16146138f1576040517f08c379a00000000000000000000000000000000000000000000000000000000081526004018080602001828103825260198152602001807f4f6e6c7920617262697472616c2063616e206f7065726174650000000000000081525060200191505060405180910390fd5b600b6040518060a001604052808781526020018660ff168152602001600067ffffffffffffffff8111801561392557600080fd5b506040519080825280602002602001820160405280156139545781602001602082028036833780820191505090505b508152602001600067ffffffffffffffff8111801561397257600080fd5b506040519080825280602002602001820160405280156139a15781602001602082028036833780820191505090505b5081526020018581525090806001815401808255809150506001900390600052602060002090600502016000909190919091506000820151816000015560208201518160010160006101000a81548160ff021916908360ff1602179055506040820151816002019080519060200190613a1b929190614527565b506060820151816003019080519060200190613a38929190614527565b506080820151816004019080519060200190613a55929190614574565b505050600b6001600b805490500381548110613a6d57fe5b906000526020600020906005020160066000878152602001908152602001600020600082015481600001556001820160009054906101000a900460ff168160010160006101000a81548160ff021916908360ff1602179055506002820181600201908054613adc9291906145f4565b506003820181600301908054613af39291906145f4565b5060048201816004019080546001816001161561010002031660029004613b1b929190614646565b5090505060016040518060400160405280600781526020017f737563636573730000000000000000000000000000000000000000000000000081525091509150935093915050565b60006060600060010160009054906101000a900473ffffffffffffffffffffffffffffffffffffffff1673ffffffffffffffffffffffffffffffffffffffff163373ffffffffffffffffffffffffffffffffffffffff1614613c2d576040517f08c379a00000000000000000000000000000000000000000000000000000000081526004018080602001828103825260198152602001807f4f6e6c7920617262697472616c2063616e206f7065726174650000000000000081525060200191505060405180910390fd5b60096040518060c0016040528087815260200160008152602001868152602001600067ffffffffffffffff81118015613c6557600080fd5b50604051908082528060200260200182016040528015613c945781602001602082028036833780820191505090505b508152602001600067ffffffffffffffff81118015613cb257600080fd5b50604051908082528060200260200182016040528015613ce15781602001602082028036833780820191505090505b5081526020018581525090806001815401808255809150506001900390600052602060002090600602016000909190919091506000820151816000015560208201518160010155604082015181600201556060820151816003019080519060200190613d4e929190614527565b506080820151816004019080519060200190613d6b929190614527565b5060a0820151816005019080519060200190613d88929190614574565b505050600960016009805490500381548110613da057fe5b9060005260206000209060060201600460008781526020019081526020016000206000820154816000015560018201548160010155600282015481600201556003820181600301908054613df59291906145f4565b506004820181600401908054613e0c9291906145f4565b5060058201816005019080546001816001161561010002031660029004613e34929190614646565b5090505060016040518060400160405280600781526020017f737563636573730000000000000000000000000000000000000000000000000081525091509150935093915050565b6000806003600084815260200190815260200160002090506000801b81600001541415613f11576040517f08c379a00000000000000000000000000000000000000000000000000000000081526004018080602001828103825260148152602001807f42696c6c206973206e6f7420657869737465642e00000000000000000000000081525060200191505060405180910390fd5b8060030154421015613f27576001915050613f70565b7f08654ce5265a228148184007620cec585adccfc16241c136beabe78b4ced7ae7838260010154604051808381526020018281526020019250505060405180910390a160009150505b919050565b60008042868660405160200180848152602001838152602001828152602001935050505060405160208183030381529060405280519060200120905060086040518060c00160405280838152602001858152602001868152602001888152602001878152602001428152509080600181540180825580915050600190039060005260206000209060060201600090919091909150600082015181600001556020820151816001015560408201518160020155606082015181600301556080820151816004015560a082015181600501555050600060086001600880549050038154811061405e57fe5b9060005260206000209060060201905080600260008481526020019081526020016000206000820154816000015560018201548160010155600282015481600201556003820154816003015560048201548160040155600582015481600501559050508192505050949350505050565b60008042898960405160200180848152602001838152602001828152602001935050505060405160208183030381529060405280519060200120905060076040518061016001604052808381526020018981526020018681526020018581526020016000600281111561413d57fe5b81526020016000801b8152602001888152602001600067ffffffffffffffff8111801561416957600080fd5b506040519080825280602002602001820160405280156141985781602001602082028036833780820191505090505b508152602001600067ffffffffffffffff811180156141b657600080fd5b506040519080825280602002602001820160405280156141e55781602001602082028036833780820191505090505b508152602001600067ffffffffffffffff8111801561420357600080fd5b506040519080825280602002602001820160405280156142325781602001602082028036833780820191505090505b508152602001600067ffffffffffffffff8111801561425057600080fd5b5060405190808252806020026020018201604052801561427f5781602001602082028036833780820191505090505b5081525090806001815401808255809150506001900390600052602060002090600b02016000909190919091506000820151816000015560208201518160010155604082015181600201556060820151816003015560808201518160040160006101000a81548160ff021916908360028111156142f857fe5b021790555060a0820151816005015560c0820151816006015560e082015181600701908051906020019061432d929190614527565b5061010082015181600801908051906020019061434b929190614527565b50610120820151816009019080519060200190614369929190614527565b5061014082015181600a0190805190602001906143879291906146f0565b50505060006007600160078054905003815481106143a157fe5b90600052602060002090600b020190508060036000848152602001908152602001600020600082015481600001556001820154816001015560028201548160020155600382015481600301556004820160009054906101000a900460ff168160040160006101000a81548160ff0219169083600281111561441e57fe5b02179055506005820154816005015560068201548160060155600782018160070190805461444d9291906145f4565b5060088201816008019080546144649291906145f4565b50600982018160090190805461447b9291906145f4565b50600a820181600a0190805461449292919061473d565b5090505080600a01869080600181540180825580915050600190039060005260206000200160009091909190915055806008018a9080600181540180825580915050600190039060005260206000200160009091909190915055806009018990806001815401808255809150506001900390600052602060002001600090919091909150558192505050979650505050505050565b828054828255906000526020600020908101928215614563579160200282015b82811115614562578251825591602001919060010190614547565b5b509050614570919061478f565b5090565b828054600181600116156101000203166002900490600052602060002090601f016020900481019282601f106145b557805160ff19168380011785556145e3565b828001600101855582156145e3579182015b828111156145e25782518255916020019190600101906145c7565b5b5090506145f091906147ac565b5090565b8280548282559060005260206000209081019282156146355760005260206000209182015b82811115614634578254825591600101919060010190614619565b5b509050614642919061478f565b5090565b828054600181600116156101000203166002900490600052602060002090601f016020900481019282601f1061467f57805485556146bc565b828001600101855582156146bc57600052602060002091601f016020900482015b828111156146bb5782548255916001019190600101906146a0565b5b5090506146c991906147ac565b5090565b604051806101400160405280600a90602082028036833780820191505090505090565b82805482825590600052602060002090810192821561472c579160200282015b8281111561472b578251825591602001919060010190614710565b5b50905061473991906147ac565b5090565b82805482825590600052602060002090810192821561477e5760005260206000209182015b8281111561477d578254825591600101919060010190614762565b5b50905061478b91906147ac565b5090565b5b808211156147a8576000816000905550600101614790565b5090565b5b808211156147c55760008160009055506001016147ad565b509056fe537570706c6965723120646f65736e2774206578697374202f20537570706c6965723220646f65736e27742065786973746e6577206c696d69742063616e206e6f74206576656e20636f7665722063757272656e742064656274537570706c69657220646f65736e2774206578697374202f2042696c6c20646f65736e2774206578697374202f2042616e6b20646f65736e277420657869737442696c6c20646f65736e27742062656c6f6e6720746f20537570706c696572202f2073706c6974207761792069736e2774206665617369626c652e456e746572707269736520646f65736e2774206578697374202f20537570706c69657220646f65736e2774206578697374202f20537570706c6965722773206c6576656c20646f65736e27742073756666696365202f20496e73756666696369656e7420637265646974206c696e652042696c6c20646f65736e2774206578697374202f20456e746572707269736520646f65736e2774206578697374202f2042696c6c206973206e6f7420697373756564206279207468697320456e7465727072697365a26469706673582212207f147b57f814f838c16fbf988faaaed586546d36bbe52a2334bcbc9d36529c1b64736f6c63430007000033",
  "immutableReferences": {},
  "source": "// SPDX-License-Identifier: GPL-3.0\npragma solidity >0.4.0 <0.8.0;\n\ncontract Finance {\n    \n    //\n    enum BillState{Valid, Split, Done} // Expired: not not writed off yet ; Done: already writed off.\n    \n    //\n    struct TradeDebtBill{\n        bytes32 id;\n        bytes32 issuer; //  \n        uint facevalue; // \n        uint expire_time;// \n        BillState state;\n        bytes32 idOfCR; // ID\n        bytes32 idOfparent; \n        bytes32[] idOfsons; // if it is split, store id of its sons to here.  \n        bytes32[] froms; //  \n        bytes32[] tos; // \n        uint[] times;\n    }\n    \n    // \n    struct CashReceipt{\n        bytes32 id;\n        uint amount;\n        bytes32 idOfTDB; // ID\n        bytes32 from;\n        bytes32 to;\n        uint time;\n    }   \n    \n    // \n    struct Arbitral {\n        bytes32 _id;\n        address _address;\n    }\n    \n    // \n    struct Bank {\n        bytes32 id;\n        bytes32[] idOfBills; // id\n        bytes32[] idOfRecepits;// id\n        string name;\n    }\n\n    //\n    struct Enterprise {\n        bytes32 id;\n        uint totalDebt;//  /  / \n        uint totalDebtLimit; // \n        bytes32[] idOfBills;\n        bytes32[] idOfRecepits;\n        string name;\n    }\n    \n    //\n    struct Supplier {\n        bytes32 id;\n        uint8 level; // \n        bytes32[] idOfBills;\n        bytes32[] idOfRecepits;\n        string name;\n    }\n    \n    Arbitral public theArbitral;\n\n    mapping(bytes32 => CashReceipt) mapOfCashReceipt;\n    mapping(bytes32 => TradeDebtBill) mapOfTradeDebtBill;\n    mapping(bytes32 => Enterprise) mapOfEnterprise;\n    mapping(bytes32 => Bank) mapOfBank;\n    mapping(bytes32 => Supplier) mapOfSupplier;\n    \n    TradeDebtBill[]  Bills;\n    // TradeDebtBill[] public doneBills;\n    CashReceipt[]  Recepits;\n    Enterprise[]  enterprises;\n    Bank[]  banks;\n    Supplier[]  suppliers;\n    \n    \n    constructor(bytes32 id){\n        theArbitral = Arbitral({\n            _id: id,\n            _address: msg.sender\n        });\n    }\n    \n    // \n    modifier onlytheArbitral{\n        require(msg.sender == theArbitral._address, \"Only arbitral can operate\");\n        _;\n    }\n    \n    // \n    function addBank(bytes32 bankid, string memory _name) onlytheArbitral public returns(bool, string memory) {\n\n        banks.push(Bank({\n            id: bankid, \n            idOfBills: new bytes32[](0),\n            idOfRecepits: new bytes32[](0),\n            name: _name\n        }));\n\n        mapOfBank[bankid] = banks[banks.length - 1];\n        return (true, \"success\");\n    }\n    \n    //\n    function addEnterprise(bytes32 epid, uint limit,string memory _name) onlytheArbitral public returns(bool, string memory) {\n        \n        enterprises.push(Enterprise({\n            id: epid, \n            totalDebt: 0,\n            totalDebtLimit: limit,\n            idOfBills: new bytes32[](0),\n            idOfRecepits: new bytes32[](0),\n            name: _name\n        }));\n\n        mapOfEnterprise[epid] = enterprises[enterprises.length - 1];\n        return (true, \"success\");\n    }\n\n    function updateEnterpriseCreditLimit(bytes32 eid, uint newLimit) onlytheArbitral public returns(bool, string memory){\n        Enterprise storage e = mapOfEnterprise[eid];\n        require(e.totalDebt < newLimit, \"new limit can not even cover current debt\");\n        e.totalDebtLimit = newLimit;\n        return (true, \"success\");\n    }\n    \n    // \n    function addSupplier(bytes32 spid, uint8 _level, string memory _name) onlytheArbitral public returns(bool, string memory) {\n\n        suppliers.push(Supplier({\n            id: spid, \n            level:_level,\n            idOfBills: new bytes32[](0),\n            idOfRecepits: new bytes32[](0),\n            name: _name\n        }));\n\n        mapOfSupplier[spid] = suppliers[suppliers.length - 1];\n        return (true, \"success\");\n    }\n    \n    // \n    function newTradeDebtBill(bytes32 _from, bytes32 _to, bytes32 _issuer, bytes32 _parentid,\n                            uint _init_time, uint _facevalue, uint _expire_time) internal returns(bytes32){\n                                \n        bytes32 _id = keccak256(abi.encodePacked(block.timestamp, _from, _to)); // sha3ID\n\n        Bills.push(TradeDebtBill({\n            id: _id,\n            issuer: _issuer,\n            facevalue: _facevalue,\n            expire_time: _expire_time,\n            state: BillState.Valid,\n            idOfCR: 0x0,\n            idOfsons: new bytes32[](0),\n            froms: new bytes32[](0),\n            tos: new bytes32[](0),\n            times: new uint[](0),\n            idOfparent: _parentid\n        }));\n        \n        TradeDebtBill storage t = Bills[Bills.length - 1];\n        mapOfTradeDebtBill[_id] = t;\n        t.times.push(_init_time); // \n        t.froms.push(_from);\n        t.tos.push(_to);\n\n        return _id;\n    }\n    \n    // \n    function newCashRecepit(bytes32 _from, bytes32 _to, bytes32 _idOfTDB, uint _amount) internal returns(bytes32){\n        bytes32 _id = keccak256(abi.encodePacked(block.timestamp, _from, _to));\n        \n        Recepits.push(CashReceipt({\n            id: _id,\n            idOfTDB: _idOfTDB,\n            amount: _amount,\n            from: _from,\n            to: _to,\n            time: block.timestamp\n        }));\n        \n        CashReceipt storage c = Recepits[Recepits.length - 1];\n        mapOfCashReceipt[_id] = c;\n        return _id;\n    }\n    \n    // \n    function issueTradeDebtBill(bytes32 epid, bytes32 spid, uint tolerate_time, uint _facevalue) onlytheArbitral external returns(bool, bytes32, string memory){\n        Enterprise storage e = mapOfEnterprise[epid];\n        Supplier storage s = mapOfSupplier[spid];\n        \n        require(e.id != 0x0 && s.id != 0x0 && s.level == 1 && e.totalDebt + _facevalue <= e.totalDebtLimit, \n                \"Enterprise doesn't exist / Supplier doesn't exist / Supplier's level doesn't suffice / Insufficient credit line\");\n        \n        bytes32 id = newTradeDebtBill(epid, spid, epid, 0x0, block.timestamp, _facevalue, block.timestamp + tolerate_time);\n        \n        e.totalDebt += _facevalue;\n        \n        e.idOfBills.push(id);\n        s.idOfBills.push(id);\n        \n        return (true, id, \"success\");\n    }\n    \n    //  \n    event billDueToRepay(bytes32 billid, bytes32 epid);\n    \n    //\n    function CheckBillState(bytes32 billid) internal returns(bool){\n        TradeDebtBill storage b = mapOfTradeDebtBill[billid];\n        require(b.id != 0x0 , \"Bill is not existed.\");\n\n        if(block.timestamp < b.expire_time) return true;\n\n        emit billDueToRepay(billid, b.issuer);\n\n        return false;\n    }\n    \n    // \n    function transferBillbetweenSuppliers(bytes32 spid1, bytes32 spid2, bytes32 billid) onlytheArbitral external returns(bool, string memory){\n        Supplier storage s1 = mapOfSupplier[spid1];\n        Supplier storage s2 = mapOfSupplier[spid2];\n        TradeDebtBill storage b = mapOfTradeDebtBill[billid];\n        \n        require(s1.id != 0x0 && s2.id != 0x0, \"Supplier1 doesn't exist / Supplier2 doesn't exist\");  \n\n        if(!CheckBillState(billid)){\n            return(false, \"failed\");\n        }\n\n        require(b.state != BillState.Split, \"Bill is Split\");\n\n        uint ridx = b.froms.length - 1; // index\n        require(b.tos[ridx] ==  spid1, \"Bill doesn't belong to Supplier1\");\n\n        b.froms.push(spid1); // \n        b.tos.push(spid2);\n        b.times.push(block.timestamp);\n        \n        s2.idOfBills.push(billid);\n\n        return (true, \"success\");\n    }\n    \n    // \n    function billSplitBySupplier(bytes32 billid, bytes32 spid, uint[] memory ways) onlytheArbitral external returns(bool, string memory, bytes32[10] memory){\n        TradeDebtBill storage b = mapOfTradeDebtBill[billid];\n        Supplier storage s = mapOfSupplier[spid];\n        bytes32[10] memory newbillids; // ID 10\n        \n        require(s.id != 0x0 , \"Supplier doesn't exist\");  \n        if(!CheckBillState(billid)){\n            return(false, \"failed\", newbillids);\n        }\n        require(b.state != BillState.Split, \"Bill is Split\");\n        \n\n        uint ridx = b.froms.length - 1;\n        require(b.tos[ridx] ==  spid && ways.length <= 10, \"Bill doesn't belong to Supplier / split way isn't feasible.\");\n\n        //\n        uint sum = 0;\n        for(uint i = 0; i < ways.length; i++){\n            require(ways[i] > 0, \"split way isn't feasible.\");\n            sum += ways[i];\n        }\n        require(sum == b.facevalue, \"split way isn't feasible.\");\n\n        //  stack too deep\n        uint expire_time = b.expire_time;\n        bytes32 issuer = b.issuer;\n        bytes32 bid = billid;\n        bytes32 sid = spid;\n        bytes32 _from = b.froms[b.froms.length - 1];\n        \n        //\n        for(uint i = 0; i < ways.length; i++){\n            uint v = ways[i];\n            newbillids[i] = newTradeDebtBill(_from,sid,issuer,bid,block.timestamp,v,expire_time);\n            b.idOfsons.push(newbillids[i]);\n            s.idOfBills.push(newbillids[i]);\n        }\n\n        b.state = BillState.Split;\n        \n        //ID\n        return(true, \"success\", newbillids);\n        \n    }\n    \n    \n    // \n    function supplierFinancingfromBank(bytes32 billid, bytes32 spid, bytes32 bankid, uint rate) onlytheArbitral external returns(bool, string memory, bytes32){\n        TradeDebtBill storage bi = mapOfTradeDebtBill[billid];\n        Supplier storage s = mapOfSupplier[spid];\n        Bank storage ba = mapOfBank[bankid];\n\n        require(s.id != 0x0 && bi.id != 0x0 && ba.id != 0x0, \n                \"Supplier doesn't exist / Bill doesn't exist / Bank doesn't exist\");\n        bytes32 newrepid; // ID\n\n        if(!CheckBillState(billid)){\n            return(false, \"failed\", newrepid);\n        }\n        require(bi.state != BillState.Split, \"Bill is Split\");\n        \n        \n        uint ridx = bi.froms.length - 1;\n        require(bi.tos[ridx] ==  spid , \"Bill doesn't belong to Supplier \");\n\n        uint amount = bi.facevalue * rate / 1000; //  rate\n\n        //\n        newrepid = newCashRecepit(bankid, spid, billid, amount);\n        bi.froms.push(spid);\n        bi.tos.push(bankid);\n        bi.times.push(block.timestamp);\n        bi.idOfCR = newrepid;\n        \n        ba.idOfRecepits.push(newrepid);\n        ba.idOfBills.push(billid);\n        s.idOfRecepits.push(newrepid);\n        \n        return(true, \"success\", newrepid);\n\n    }\n    \n    // \n    function enterpriseRepay(bytes32 billid, bytes32 epid) onlytheArbitral external returns(bool, string memory, bytes32){\n\n        TradeDebtBill storage b = mapOfTradeDebtBill[billid];\n        Enterprise storage e = mapOfEnterprise[epid];\n\n        require(b.id != 0x0 && e.id != 0x0 && b.issuer == epid, \" Bill doesn't exist / Enterprise doesn't exist / Bill is not issued by this Enterprise\");\n\n        uint amount = b.facevalue;\n        bytes32 debtorid = b.tos[b.tos.length - 1]; //  \n        bytes32 newrepid = newCashRecepit(epid, debtorid, billid, amount);\n        \n\n        b.froms.push(debtorid);\n        b.tos.push(0x0);// 0\n        b.times.push(block.timestamp);\n        b.idOfCR = newrepid;\n        b.state = BillState.Done;\n        e.idOfRecepits.push(newrepid);\n\n        // id\n        if(b.idOfparent != 0x0){\n            e.idOfBills.push(billid);\n        }\n        \n        //id\n        if(mapOfSupplier[debtorid].id != 0x0){\n            mapOfSupplier[debtorid].idOfRecepits.push(newrepid);\n        }else{\n            mapOfBank[debtorid].idOfRecepits.push(newrepid);\n        }\n        \n        require(amount <= e.totalDebt, \"Accounting errors.\");\n        e.totalDebt -= amount;\n\n        return(true, \"success\", newrepid);\n    }\n    \n    // functions of get Informations\n    function getSupplierCount() public view returns(uint){\n        return suppliers.length;\n    }\n    \n    function getBankCount() public view returns(uint){\n        return banks.length;\n    }\n    \n    function getBillCount() public view returns(uint){\n        return Bills.length;\n    }\n    \n    function getRecepitCount() public view returns(uint){\n        return Recepits.length;\n    }\n    \n    function getEnterpriseCount() public view returns(uint){\n        return enterprises.length;\n    }\n        \n    function getBillBasicInfo(bytes32 billid) public view returns(bytes32, bytes32, uint, uint, BillState, bytes32){\n        TradeDebtBill storage b = mapOfTradeDebtBill[billid];\n        return(b.id, b.issuer, b.facevalue, b.expire_time, b.state, b.idOfCR);\n    }\n    \n    function getBillHistory(bytes32 billid) public view returns(uint[] memory, bytes32[] memory, bytes32[] memory){\n        TradeDebtBill storage b = mapOfTradeDebtBill[billid];\n        return(b.times, b.froms, b.tos);\n    }\n    \n    function getBillSplitInfo(bytes32 billid) public view returns(bytes32, bytes32[]memory){\n        TradeDebtBill storage b = mapOfTradeDebtBill[billid];\n        return(b.idOfparent, b.idOfsons);\n    }\n    \n    function getRecepitInfo(bytes32 repid) public view returns(uint, bytes32, bytes32, bytes32){\n        CashReceipt storage r = mapOfCashReceipt[repid];\n        return(r.amount, r.idOfTDB, r.from, r.to);\n    }\n    \n    function getBankBasicInfo(bytes32 id) public view returns(uint, uint, string memory){\n        Bank storage b = mapOfBank[id];\n        return( b.idOfBills.length, b.idOfRecepits.length, b.name);\n    }\n    \n    function getSupplierBasicInfo(bytes32 id) public view returns(uint, uint, uint, string memory){\n        Supplier storage s = mapOfSupplier[id];\n        return(s.level, s.idOfBills.length, s.idOfRecepits.length, s.name);\n    }\n    \n    function getEnterpriseBasicInfo(bytes32 id) public view returns(uint, uint, uint , string memory){\n        Enterprise storage e = mapOfEnterprise[id];\n        return(e.totalDebt, e.idOfBills.length, e.idOfRecepits.length, e.name);\n    }\n    \n    function getAllofSupplierBillsid(bytes32 id) public view returns(bytes32[] memory){\n        Supplier storage s = mapOfSupplier[id];\n        return(s.idOfBills);\n    }\n    \n    function getAllofBankBillsid(bytes32 id) public view returns(bytes32[] memory){\n        Bank storage b = mapOfBank[id];\n        return(b.idOfBills);\n    }\n    \n    function getAllofEnterpriseBillsid(bytes32 id) public view returns(bytes32[] memory){\n        Enterprise storage e = mapOfEnterprise[id];\n        return(e.idOfBills);\n    }\n    \n    function getAllofSupplierRecepitsid(bytes32 id) public view returns(bytes32[] memory){\n        Supplier storage s = mapOfSupplier[id];\n        return(s.idOfRecepits);\n    }\n    \n    function getAllofBankRecepitsid(bytes32 id) public view returns(bytes32[] memory){\n        Bank storage b = mapOfBank[id];\n        return(b.idOfRecepits);\n    }\n    \n    function getAllofEnterpriseRecepitsid(bytes32 id) public view returns(bytes32[] memory){\n        Enterprise storage e = mapOfEnterprise[id];\n        return(e.idOfRecepits);\n    }\n    \n\n    function withdraw(uint amount) onlytheArbitral public{\n        require(amount < 1e20);\n        msg.sender.transfer(amount);\n    }\n    \n    fallback() external payable{}\n    receive() external payable{}\n\n}",
  "sourcePath": "/Users/newguo/projects/blockchain-supplychainFinance/supplychain_finance/contracts/Finance.sol",
  "compiler": {
    "name": "solc",
    "version": "0.7.0+commit.9e61f92b.Emscripten.clang"
  },
  "schemaVersion": "3.2.3",
  "updatedAt": "2020-08-14T13:07:49.777Z",
  "networkType": "ethereum",
  "devdoc": {
    "kind": "dev",
    "methods": {},
    "version": 1
  },
  "userdoc": {
    "kind": "user",
    "methods": {},
    "version": 1
  }
}