{
  "contractName": "Finance",
  "abi": [
    {
      "inputs": [
        {
          "internalType": "bytes32",
          "name": "id",
          "type": "bytes32"
        }
      ],
      "stateMutability": "nonpayable",
      "type": "constructor"
    },
    {
      "anonymous": false,
      "inputs": [
        {
          "indexed": false,
          "internalType": "bytes32",
          "name": "billid",
          "type": "bytes32"
        },
        {
          "indexed": false,
          "internalType": "bytes32",
          "name": "epid",
          "type": "bytes32"
        }
      ],
      "name": "billDueToRepay",
      "type": "event"
    },
    {
      "stateMutability": "payable",
      "type": "fallback"
    },
    {
      "inputs": [],
      "name": "theArbitral",
      "outputs": [
        {
          "internalType": "bytes32",
          "name": "_id",
          "type": "bytes32"
        },
        {
          "internalType": "address",
          "name": "_address",
          "type": "address"
        }
      ],
      "stateMutability": "view",
      "type": "function"
    },
    {
      "stateMutability": "payable",
      "type": "receive"
    },
    {
      "inputs": [
        {
          "internalType": "bytes32",
          "name": "bankid",
          "type": "bytes32"
        },
        {
          "internalType": "string",
          "name": "_name",
          "type": "string"
        }
      ],
      "name": "addBank",
      "outputs": [
        {
          "internalType": "bool",
          "name": "",
          "type": "bool"
        },
        {
          "internalType": "string",
          "name": "",
          "type": "string"
        }
      ],
      "stateMutability": "nonpayable",
      "type": "function"
    },
    {
      "inputs": [
        {
          "internalType": "bytes32",
          "name": "epid",
          "type": "bytes32"
        },
        {
          "internalType": "uint256",
          "name": "limit",
          "type": "uint256"
        },
        {
          "internalType": "string",
          "name": "_name",
          "type": "string"
        }
      ],
      "name": "addEnterprise",
      "outputs": [
        {
          "internalType": "bool",
          "name": "",
          "type": "bool"
        },
        {
          "internalType": "string",
          "name": "",
          "type": "string"
        }
      ],
      "stateMutability": "nonpayable",
      "type": "function"
    },
    {
      "inputs": [
        {
          "internalType": "bytes32",
          "name": "eid",
          "type": "bytes32"
        },
        {
          "internalType": "uint256",
          "name": "newLimit",
          "type": "uint256"
        }
      ],
      "name": "updateEnterpriseCreditLimit",
      "outputs": [
        {
          "internalType": "bool",
          "name": "",
          "type": "bool"
        },
        {
          "internalType": "string",
          "name": "",
          "type": "string"
        }
      ],
      "stateMutability": "nonpayable",
      "type": "function"
    },
    {
      "inputs": [
        {
          "internalType": "bytes32",
          "name": "spid",
          "type": "bytes32"
        },
        {
          "internalType": "string",
          "name": "_name",
          "type": "string"
        }
      ],
      "name": "addSupplier",
      "outputs": [
        {
          "internalType": "bool",
          "name": "",
          "type": "bool"
        },
        {
          "internalType": "string",
          "name": "",
          "type": "string"
        }
      ],
      "stateMutability": "nonpayable",
      "type": "function"
    },
    {
      "inputs": [
        {
          "internalType": "bytes32",
          "name": "epid",
          "type": "bytes32"
        },
        {
          "internalType": "bytes32",
          "name": "spid",
          "type": "bytes32"
        },
        {
          "internalType": "uint256",
          "name": "tolerate_time",
          "type": "uint256"
        },
        {
          "internalType": "uint256",
          "name": "_facevalue",
          "type": "uint256"
        }
      ],
      "name": "issueTradeDebtBill",
      "outputs": [
        {
          "internalType": "bool",
          "name": "",
          "type": "bool"
        },
        {
          "internalType": "bytes32",
          "name": "",
          "type": "bytes32"
        },
        {
          "internalType": "string",
          "name": "",
          "type": "string"
        }
      ],
      "stateMutability": "nonpayable",
      "type": "function"
    },
    {
      "inputs": [
        {
          "internalType": "bytes32",
          "name": "spid1",
          "type": "bytes32"
        },
        {
          "internalType": "bytes32",
          "name": "spid2",
          "type": "bytes32"
        },
        {
          "internalType": "bytes32",
          "name": "billid",
          "type": "bytes32"
        },
        {
          "internalType": "uint256",
          "name": "amount",
          "type": "uint256"
        }
      ],
      "name": "transferBillbetweenSuppliers",
      "outputs": [
        {
          "internalType": "bool",
          "name": "",
          "type": "bool"
        },
        {
          "internalType": "string",
          "name": "",
          "type": "string"
        }
      ],
      "stateMutability": "nonpayable",
      "type": "function"
    },
    {
      "inputs": [
        {
          "internalType": "bytes32",
          "name": "billid",
          "type": "bytes32"
        },
        {
          "internalType": "bytes32",
          "name": "spid",
          "type": "bytes32"
        },
        {
          "internalType": "bytes32",
          "name": "bankid",
          "type": "bytes32"
        },
        {
          "internalType": "uint256",
          "name": "rate",
          "type": "uint256"
        }
      ],
      "name": "supplierFinancingfromBank",
      "outputs": [
        {
          "internalType": "bool",
          "name": "",
          "type": "bool"
        },
        {
          "internalType": "string",
          "name": "",
          "type": "string"
        },
        {
          "internalType": "bytes32",
          "name": "",
          "type": "bytes32"
        }
      ],
      "stateMutability": "nonpayable",
      "type": "function"
    },
    {
      "inputs": [
        {
          "internalType": "bytes32",
          "name": "billid",
          "type": "bytes32"
        },
        {
          "internalType": "bytes32",
          "name": "epid",
          "type": "bytes32"
        }
      ],
      "name": "enterpriseRepay",
      "outputs": [
        {
          "internalType": "bool",
          "name": "",
          "type": "bool"
        },
        {
          "internalType": "string",
          "name": "",
          "type": "string"
        },
        {
          "internalType": "bytes32",
          "name": "",
          "type": "bytes32"
        }
      ],
      "stateMutability": "nonpayable",
      "type": "function"
    },
    {
      "inputs": [],
      "name": "getSupplierCount",
      "outputs": [
        {
          "internalType": "uint256",
          "name": "",
          "type": "uint256"
        }
      ],
      "stateMutability": "view",
      "type": "function"
    },
    {
      "inputs": [],
      "name": "getBankCount",
      "outputs": [
        {
          "internalType": "uint256",
          "name": "",
          "type": "uint256"
        }
      ],
      "stateMutability": "view",
      "type": "function"
    },
    {
      "inputs": [],
      "name": "getBillCount",
      "outputs": [
        {
          "internalType": "uint256",
          "name": "",
          "type": "uint256"
        }
      ],
      "stateMutability": "view",
      "type": "function"
    },
    {
      "inputs": [],
      "name": "getRecepitCount",
      "outputs": [
        {
          "internalType": "uint256",
          "name": "",
          "type": "uint256"
        }
      ],
      "stateMutability": "view",
      "type": "function"
    },
    {
      "inputs": [],
      "name": "getEnterpriseCount",
      "outputs": [
        {
          "internalType": "uint256",
          "name": "",
          "type": "uint256"
        }
      ],
      "stateMutability": "view",
      "type": "function"
    },
    {
      "inputs": [
        {
          "internalType": "bytes32",
          "name": "billid",
          "type": "bytes32"
        }
      ],
      "name": "getBillBasicInfo",
      "outputs": [
        {
          "internalType": "bytes32",
          "name": "",
          "type": "bytes32"
        },
        {
          "internalType": "bytes32",
          "name": "",
          "type": "bytes32"
        },
        {
          "internalType": "uint256",
          "name": "",
          "type": "uint256"
        },
        {
          "internalType": "uint256",
          "name": "",
          "type": "uint256"
        },
        {
          "internalType": "enum Finance.BillState",
          "name": "",
          "type": "uint8"
        },
        {
          "internalType": "bytes32",
          "name": "",
          "type": "bytes32"
        },
        {
          "internalType": "bytes32",
          "name": "",
          "type": "bytes32"
        }
      ],
      "stateMutability": "view",
      "type": "function"
    },
    {
      "inputs": [
        {
          "internalType": "bytes32",
          "name": "billid",
          "type": "bytes32"
        }
      ],
      "name": "getBillHistory",
      "outputs": [
        {
          "internalType": "uint256[]",
          "name": "",
          "type": "uint256[]"
        },
        {
          "internalType": "bytes32[]",
          "name": "",
          "type": "bytes32[]"
        }
      ],
      "stateMutability": "view",
      "type": "function"
    },
    {
      "inputs": [
        {
          "internalType": "bytes32",
          "name": "billid",
          "type": "bytes32"
        }
      ],
      "name": "getBillSplitInfo",
      "outputs": [
        {
          "internalType": "bytes32",
          "name": "",
          "type": "bytes32"
        },
        {
          "internalType": "bytes32",
          "name": "",
          "type": "bytes32"
        },
        {
          "internalType": "bytes32",
          "name": "",
          "type": "bytes32"
        }
      ],
      "stateMutability": "view",
      "type": "function"
    },
    {
      "inputs": [
        {
          "internalType": "bytes32",
          "name": "repid",
          "type": "bytes32"
        }
      ],
      "name": "getRecepitInfo",
      "outputs": [
        {
          "internalType": "uint256",
          "name": "",
          "type": "uint256"
        },
        {
          "internalType": "bytes32",
          "name": "",
          "type": "bytes32"
        },
        {
          "internalType": "bytes32",
          "name": "",
          "type": "bytes32"
        },
        {
          "internalType": "bytes32",
          "name": "",
          "type": "bytes32"
        }
      ],
      "stateMutability": "view",
      "type": "function"
    },
    {
      "inputs": [
        {
          "internalType": "bytes32",
          "name": "id",
          "type": "bytes32"
        }
      ],
      "name": "getBankBasicInfo",
      "outputs": [
        {
          "internalType": "uint256",
          "name": "",
          "type": "uint256"
        },
        {
          "internalType": "uint256",
          "name": "",
          "type": "uint256"
        },
        {
          "internalType": "string",
          "name": "",
          "type": "string"
        }
      ],
      "stateMutability": "view",
      "type": "function"
    },
    {
      "inputs": [
        {
          "internalType": "bytes32",
          "name": "id",
          "type": "bytes32"
        }
      ],
      "name": "getSupplierBasicInfo",
      "outputs": [
        {
          "internalType": "uint256",
          "name": "",
          "type": "uint256"
        },
        {
          "internalType": "uint256",
          "name": "",
          "type": "uint256"
        },
        {
          "internalType": "string",
          "name": "",
          "type": "string"
        }
      ],
      "stateMutability": "view",
      "type": "function"
    },
    {
      "inputs": [
        {
          "internalType": "bytes32",
          "name": "id",
          "type": "bytes32"
        }
      ],
      "name": "getEnterpriseBasicInfo",
      "outputs": [
        {
          "internalType": "uint256",
          "name": "",
          "type": "uint256"
        },
        {
          "internalType": "uint256",
          "name": "",
          "type": "uint256"
        },
        {
          "internalType": "uint256",
          "name": "",
          "type": "uint256"
        },
        {
          "internalType": "string",
          "name": "",
          "type": "string"
        }
      ],
      "stateMutability": "view",
      "type": "function"
    },
    {
      "inputs": [
        {
          "internalType": "bytes32",
          "name": "id",
          "type": "bytes32"
        }
      ],
      "name": "getAllofSupplierBillsid",
      "outputs": [
        {
          "internalType": "bytes32[]",
          "name": "",
          "type": "bytes32[]"
        }
      ],
      "stateMutability": "view",
      "type": "function"
    },
    {
      "inputs": [
        {
          "internalType": "bytes32",
          "name": "id",
          "type": "bytes32"
        }
      ],
      "name": "getAllofBankBillsid",
      "outputs": [
        {
          "internalType": "bytes32[]",
          "name": "",
          "type": "bytes32[]"
        }
      ],
      "stateMutability": "view",
      "type": "function"
    },
    {
      "inputs": [
        {
          "internalType": "bytes32",
          "name": "id",
          "type": "bytes32"
        }
      ],
      "name": "getAllofEnterpriseBillsid",
      "outputs": [
        {
          "internalType": "bytes32[]",
          "name": "",
          "type": "bytes32[]"
        }
      ],
      "stateMutability": "view",
      "type": "function"
    },
    {
      "inputs": [
        {
          "internalType": "bytes32",
          "name": "id",
          "type": "bytes32"
        }
      ],
      "name": "getAllofSupplierRecepitsid",
      "outputs": [
        {
          "internalType": "bytes32[]",
          "name": "",
          "type": "bytes32[]"
        }
      ],
      "stateMutability": "view",
      "type": "function"
    },
    {
      "inputs": [
        {
          "internalType": "bytes32",
          "name": "id",
          "type": "bytes32"
        }
      ],
      "name": "getAllofBankRecepitsid",
      "outputs": [
        {
          "internalType": "bytes32[]",
          "name": "",
          "type": "bytes32[]"
        }
      ],
      "stateMutability": "view",
      "type": "function"
    },
    {
      "inputs": [
        {
          "internalType": "bytes32",
          "name": "id",
          "type": "bytes32"
        }
      ],
      "name": "getAllofEnterpriseRecepitsid",
      "outputs": [
        {
          "internalType": "bytes32[]",
          "name": "",
          "type": "bytes32[]"
        }
      ],
      "stateMutability": "view",
      "type": "function"
    },
    {
      "inputs": [
        {
          "internalType": "uint256",
          "name": "amount",
          "type": "uint256"
        }
      ],
      "name": "withdraw",
      "outputs": [],
      "stateMutability": "nonpayable",
      "type": "function"
    }
  ],
  "bytecode": "0x608060405234801561001057600080fd5b5060405162004228380380620042288339818101604052602081101561003557600080fd5b810190808051906020019092919050505060405180604001604052808281526020013373ffffffffffffffffffffffffffffffffffffffff16815250600080820151816000015560208201518160010160006101000a81548173ffffffffffffffffffffffffffffffffffffffff021916908373ffffffffffffffffffffffffffffffffffffffff1602179055509050505061415180620000d76000396000f3fe6080604052600436106101bb5760003560e01c806375a010c9116100ec578063ba25a5f71161008a578063ef0ddc0c11610064578063ef0ddc0c14611014578063f185e300146110a4578063f7a992a114611134578063fdade4fd146111c4576101c2565b8063ba25a5f714610e32578063c0a2f30414610ec2578063c90edbfa14610f90576101c2565b80638c7977ed116100c65780638c7977ed14610aeb5780639f3ef7e314610bcd578063a1f459ad14610c96578063b353334914610dea576101c2565b806375a010c9146109045780638791e7b4146109945780638936f96a14610a5b576101c2565b80632e44715d116101595780633db8ec07116101335780633db8ec07146106f657806352d07cd01461084a5780635b897075146108755780637386c9a7146108a0576101c2565b80632e44715d1461051157806333a5522b1461053c5780633b8e661d1461061e576101c2565b806326cf81a71161019557806326cf81a7146102dc5780632b2a42ad1461039e5780632b78c076146104795780632e1a7d4d146104d6576101c2565b80631883c7cc146101c457806323218e5f146101ef57806326cb93c51461021a576101c2565b366101c257005b005b3480156101d057600080fd5b506101d9611322565b6040518082815260200191505060405180910390f35b3480156101fb57600080fd5b5061020461132f565b6040518082815260200191505060405180910390f35b34801561022657600080fd5b506102536004803603602081101561023d57600080fd5b810190808035906020019092919050505061133c565b6040518084815260200183815260200180602001828103825283818151815260200191508051906020019080838360005b8381101561029f578082015181840152602081019050610284565b50505050905090810190601f1680156102cc5780820380516001836020036101000a031916815260200191505b5094505050505060405180910390f35b3480156102e857600080fd5b50610315600480360360208110156102ff57600080fd5b8101908080359060200190929190505050611416565b6040518084815260200183815260200180602001828103825283818151815260200191508051906020019080838360005b83811015610361578082015181840152602081019050610346565b50505050905090810190601f16801561038e5780820380516001836020036101000a031916815260200191505b5094505050505060405180910390f35b3480156103aa57600080fd5b506103f5600480360360808110156103c157600080fd5b81019080803590602001909291908035906020019092919080359060200190929190803590602001909291905050506114f0565b60405180831515815260200180602001828103825283818151815260200191508051906020019080838360005b8381101561043d578082015181840152602081019050610422565b50505050905090810190601f16801561046a5780820380516001836020036101000a031916815260200191505b50935050505060405180910390f35b34801561048557600080fd5b506104b26004803603602081101561049c57600080fd5b8101908080359060200190929190505050611ab2565b60405180848152602001838152602001828152602001935050505060405180910390f35b3480156104e257600080fd5b5061050f600480360360208110156104f957600080fd5b8101908080359060200190929190505050611aea565b005b34801561051d57600080fd5b50610526611c0f565b6040518082815260200191505060405180910390f35b34801561054857600080fd5b506105936004803603608081101561055f57600080fd5b8101908080359060200190929190803590602001909291908035906020019092919080359060200190929190505050611c1c565b60405180841515815260200180602001838152602001828103825284818151815260200191508051906020019080838360005b838110156105e15780820151818401526020810190506105c6565b50505050905090810190601f16801561060e5780820380516001836020036101000a031916815260200191505b5094505050505060405180910390f35b34801561062a57600080fd5b506106576004803603602081101561064157600080fd5b810190808035906020019092919050505061209a565b604051808060200180602001838103835285818151815260200191508051906020019060200280838360005b8381101561069e578082015181840152602081019050610683565b50505050905001838103825284818151815260200191508051906020019060200280838360005b838110156106e05780820151818401526020810190506106c5565b5050505090500194505050505060405180910390f35b34801561070257600080fd5b506107c66004803603604081101561071957600080fd5b81019080803590602001909291908035906020019064010000000081111561074057600080fd5b82018360208201111561075257600080fd5b8035906020019184600183028401116401000000008311171561077457600080fd5b91908080601f016020809104026020016040519081016040528093929190818152602001838380828437600081840152601f19601f82011690508083019250505050505050919291929050505061216a565b60405180831515815260200180602001828103825283818151815260200191508051906020019080838360005b8381101561080e5780820151818401526020810190506107f3565b50505050905090810190601f16801561083b5780820380516001836020036101000a031916815260200191505b50935050505060405180910390f35b34801561085657600080fd5b5061085f61244d565b6040518082815260200191505060405180910390f35b34801561088157600080fd5b5061088a61245a565b6040518082815260200191505060405180910390f35b3480156108ac57600080fd5b506108d9600480360360208110156108c357600080fd5b8101908080359060200190929190505050612467565b6040518085815260200184815260200183815260200182815260200194505050505060405180910390f35b34801561091057600080fd5b5061093d6004803603602081101561092757600080fd5b81019080803590602001909291905050506124a8565b6040518080602001828103825283818151815260200191508051906020019060200280838360005b83811015610980578082015181840152602081019050610965565b505050509050019250505060405180910390f35b3480156109a057600080fd5b506109d7600480360360408110156109b757600080fd5b81019080803590602001909291908035906020019092919050505061251c565b60405180831515815260200180602001828103825283818151815260200191508051906020019080838360005b83811015610a1f578082015181840152602081019050610a04565b50505050905090810190601f168015610a4c5780820380516001836020036101000a031916815260200191505b50935050505060405180910390f35b348015610a6757600080fd5b50610a9460048036036020811015610a7e57600080fd5b81019080803590602001909291905050506126a6565b6040518080602001828103825283818151815260200191508051906020019060200280838360005b83811015610ad7578082015181840152602081019050610abc565b505050509050019250505060405180910390f35b348015610af757600080fd5b50610b4260048036036080811015610b0e57600080fd5b810190808035906020019092919080359060200190929190803590602001909291908035906020019092919050505061271a565b60405180841515815260200183815260200180602001828103825283818151815260200191508051906020019080838360005b83811015610b90578082015181840152602081019050610b75565b50505050905090810190601f168015610bbd5780820380516001836020036101000a031916815260200191505b5094505050505060405180910390f35b348015610bd957600080fd5b50610c0660048036036020811015610bf057600080fd5b81019080803590602001909291905050506129fa565b6040518085815260200184815260200183815260200180602001828103825283818151815260200191508051906020019080838360005b83811015610c58578082015181840152602081019050610c3d565b50505050905090810190601f168015610c855780820380516001836020036101000a031916815260200191505b509550505050505060405180910390f35b348015610ca257600080fd5b50610d6660048036036040811015610cb957600080fd5b810190808035906020019092919080359060200190640100000000811115610ce057600080fd5b820183602082011115610cf257600080fd5b80359060200191846001830284011164010000000083111715610d1457600080fd5b91908080601f016020809104026020016040519081016040528093929190818152602001838380828437600081840152601f19601f820116905080830192505050505050509192919290505050612add565b60405180831515815260200180602001828103825283818151815260200191508051906020019080838360005b83811015610dae578082015181840152602081019050610d93565b50505050905090810190601f168015610ddb5780820380516001836020036101000a031916815260200191505b50935050505060405180910390f35b348015610df657600080fd5b50610dff612dc0565b604051808381526020018273ffffffffffffffffffffffffffffffffffffffff1681526020019250505060405180910390f35b348015610e3e57600080fd5b50610e6b60048036036020811015610e5557600080fd5b8101908080359060200190929190505050612df2565b6040518080602001828103825283818151815260200191508051906020019060200280838360005b83811015610eae578082015181840152602081019050610e93565b505050509050019250505060405180910390f35b348015610ece57600080fd5b50610f0560048036036040811015610ee557600080fd5b810190808035906020019092919080359060200190929190505050612e66565b60405180841515815260200180602001838152602001828103825284818151815260200191508051906020019080838360005b83811015610f53578082015181840152602081019050610f38565b50505050905090810190601f168015610f805780820380516001836020036101000a031916815260200191505b5094505050505060405180910390f35b348015610f9c57600080fd5b50610fc960048036036020811015610fb357600080fd5b8101908080359060200190929190505050613288565b60405180888152602001878152602001868152602001858152602001846002811115610ff157fe5b815260200183815260200182815260200197505050505050505060405180910390f35b34801561102057600080fd5b5061104d6004803603602081101561103757600080fd5b81019080803590602001909291905050506132f3565b6040518080602001828103825283818151815260200191508051906020019060200280838360005b83811015611090578082015181840152602081019050611075565b505050509050019250505060405180910390f35b3480156110b057600080fd5b506110dd600480360360208110156110c757600080fd5b8101908080359060200190929190505050613367565b6040518080602001828103825283818151815260200191508051906020019060200280838360005b83811015611120578082015181840152602081019050611105565b505050509050019250505060405180910390f35b34801561114057600080fd5b5061116d6004803603602081101561115757600080fd5b81019080803590602001909291905050506133db565b6040518080602001828103825283818151815260200191508051906020019060200280838360005b838110156111b0578082015181840152602081019050611195565b505050509050019250505060405180910390f35b3480156111d057600080fd5b5061129e600480360360608110156111e757600080fd5b8101908080359060200190929190803590602001909291908035906020019064010000000081111561121857600080fd5b82018360208201111561122a57600080fd5b8035906020019184600183028401116401000000008311171561124c57600080fd5b91908080601f016020809104026020016040519081016040528093929190818152602001838380828437600081840152601f19601f82011690508083019250505050505050919291929050505061344f565b60405180831515815260200180602001828103825283818151815260200191508051906020019080838360005b838110156112e65780820151818401526020810190506112cb565b50505050905090810190601f1680156113135780820380516001836020036101000a031916815260200191505b50935050505060405180910390f35b6000600780549050905090565b6000600b80549050905090565b600080606060006006600086815260200190815260200160002090508060010180549050816002018054905082600301808054600181600116156101000203166002900480601f0160208091040260200160405190810160405280929190818152602001828054600181600116156101000203166002900480156114015780601f106113d657610100808354040283529160200191611401565b820191906000526020600020905b8154815290600101906020018083116113e457829003601f168201915b50505050509050935093509350509193909250565b600080606060006005600086815260200190815260200160002090508060010180549050816002018054905082600301808054600181600116156101000203166002900480601f0160208091040260200160405190810160405280929190818152602001828054600181600116156101000203166002900480156114db5780601f106114b0576101008083540402835291602001916114db565b820191906000526020600020905b8154815290600101906020018083116114be57829003601f168201915b50505050509050935093509350509193909250565b60006060600060010160009054906101000a900473ffffffffffffffffffffffffffffffffffffffff1673ffffffffffffffffffffffffffffffffffffffff163373ffffffffffffffffffffffffffffffffffffffff16146115ba576040517f08c379a00000000000000000000000000000000000000000000000000000000081526004018080602001828103825260198152602001807f4f6e6c7920617262697472616c2063616e206f7065726174650000000000000081525060200191505060405180910390fd5b6000600660008881526020019081526020016000209050600060066000888152602001908152602001600020905060006003600088815260200190815260200160002090506000801b83600001541415801561161d57506000801b826000015414155b611672576040517f08c379a0000000000000000000000000000000000000000000000000000000008152600401808060200182810382526031815260200180613fdf6031913960400191505060405180910390fd5b61167b87613768565b6116c35760006040518060400160405280600681526020017f6661696c6564000000000000000000000000000000000000000000000000000081525094509450505050611aa9565b600160028111156116d057fe5b8160040160009054906101000a900460ff1660028111156116ed57fe5b1415611761576040517f08c379a000000000000000000000000000000000000000000000000000000000815260040180806020018281038252600d8152602001807f42696c6c2069732053706c69740000000000000000000000000000000000000081525060200191505060405180910390fd5b6000600182600a01805490500390508982600a01828154811061178057fe5b9060005260206000200154146117fe576040517f08c379a00000000000000000000000000000000000000000000000000000000081526004018080602001828103825260208152602001807f42696c6c20646f65736e27742062656c6f6e6720746f20537570706c6965723181525060200191505060405180910390fd5b8160020154871115611878576040517f08c379a000000000000000000000000000000000000000000000000000000000815260040180806020018281038252600e8152602001807f616d6f756e74206578636565647300000000000000000000000000000000000081525060200191505060405180910390fd5b816002015487141561190a5781600a0189908060018154018082558091505060019003906000526020600020016000909190919091505581600b0142908060018154018082558091505060019003906000526020600020016000909190919091505582600101889080600181540180825580915050600190039060005260206000200160009091909190915055611a68565b611912613d3d565b6119288a84600101548b428c8860030154613861565b8160006002811061193557fe5b60200201818152505061195a8b84600101548b428c8860020154038860030154613861565b8160016002811061196757fe5b6020020181815250508060006002811061197d57fe5b602002015183600801819055508060016002811061199757fe5b60200201518360090181905550600660008c8152602001908152602001600020600101816001600281106119c757fe5b60200201519080600181540180825580915050600190039060005260206000200160009091909190915055600660008b815260200190815260200160002060010181600060028110611a1557fe5b6020020151908060018154018082558091505060019003906000526020600020016000909190919091505560018360040160006101000a81548160ff02191690836002811115611a6157fe5b0217905550505b60016040518060400160405280600781526020017f737563636573730000000000000000000000000000000000000000000000000081525095509550505050505b94509492505050565b600080600080600360008681526020019081526020016000209050806007015481600801548260090154935093509350509193909250565b600060010160009054906101000a900473ffffffffffffffffffffffffffffffffffffffff1673ffffffffffffffffffffffffffffffffffffffff163373ffffffffffffffffffffffffffffffffffffffff1614611bb0576040517f08c379a00000000000000000000000000000000000000000000000000000000081526004018080602001828103825260198152602001807f4f6e6c7920617262697472616c2063616e206f7065726174650000000000000081525060200191505060405180910390fd5b68056bc75e2d631000008110611bc557600080fd5b3373ffffffffffffffffffffffffffffffffffffffff166108fc829081150290604051600060405180830381858888f19350505050158015611c0b573d6000803e3d6000fd5b5050565b6000600a80549050905090565b6000606060008060010160009054906101000a900473ffffffffffffffffffffffffffffffffffffffff1673ffffffffffffffffffffffffffffffffffffffff163373ffffffffffffffffffffffffffffffffffffffff1614611ce7576040517f08c379a00000000000000000000000000000000000000000000000000000000081526004018080602001828103825260198152602001807f4f6e6c7920617262697472616c2063616e206f7065726174650000000000000081525060200191505060405180910390fd5b6000600360008981526020019081526020016000209050600060066000898152602001908152602001600020905060006005600089815260200190815260200160002090506000801b826000015414158015611d4a57506000801b836000015414155b8015611d5d57506000801b816000015414155b611db2576040517f08c379a00000000000000000000000000000000000000000000000000000000081526004018080602001828103825260408152602001806140396040913960400191505060405180910390fd5b6000611dbd8b613768565b611e0a576000816040518060400160405280600681526020017f6661696c656400000000000000000000000000000000000000000000000000008152509096509650965050505050612090565b60016002811115611e1757fe5b8460040160009054906101000a900460ff166002811115611e3457fe5b1415611ea8576040517f08c379a000000000000000000000000000000000000000000000000000000000815260040180806020018281038252600d8152602001807f42696c6c2069732053706c69740000000000000000000000000000000000000081525060200191505060405180910390fd5b6000600185600a01805490500390508a85600a018281548110611ec757fe5b906000526020600020015414611f45576040517f08c379a00000000000000000000000000000000000000000000000000000000081526004018080602001828103825260208152602001807f42696c6c20646f65736e27742062656c6f6e6720746f20537570706c6965722081525060200191505060405180910390fd5b60006103e88a87600201540281611f5857fe5b049050611f678b8d8f84613be4565b925085600a018b908060018154018082558091505060019003906000526020600020016000909190919091505585600b0142908060018154018082558091505060019003906000526020600020016000909190919091505582866005018190555083600201839080600181540180825580915050600190039060005260206000200160009091909190915055836001018d9080600181540180825580915050600190039060005260206000200160009091909190915055846002018390806001815401808255809150506001900390600052602060002001600090919091909150556001836040518060400160405280600781526020017f7375636365737300000000000000000000000000000000000000000000000000815250909850985098505050505050505b9450945094915050565b606080600060036000858152602001908152602001600020905080600b0181600a018180548060200260200160405190810160405280929190818152602001828054801561210757602002820191906000526020600020905b8154815260200190600101908083116120f3575b505050505091508080548060200260200160405190810160405280929190818152602001828054801561215957602002820191906000526020600020905b815481526020019060010190808311612145575b505050505090509250925050915091565b60006060600060010160009054906101000a900473ffffffffffffffffffffffffffffffffffffffff1673ffffffffffffffffffffffffffffffffffffffff163373ffffffffffffffffffffffffffffffffffffffff1614612234576040517f08c379a00000000000000000000000000000000000000000000000000000000081526004018080602001828103825260198152602001807f4f6e6c7920617262697472616c2063616e206f7065726174650000000000000081525060200191505060405180910390fd5b600a6040518060800160405280868152602001600067ffffffffffffffff8111801561225f57600080fd5b5060405190808252806020026020018201604052801561228e5781602001602082028036833780820191505090505b508152602001600067ffffffffffffffff811180156122ac57600080fd5b506040519080825280602002602001820160405280156122db5781602001602082028036833780820191505090505b508152602001858152509080600181540180825580915050600190039060005260206000209060040201600090919091909150600082015181600001556020820151816001019080519060200190612334929190613d5f565b506040820151816002019080519060200190612351929190613d5f565b50606082015181600301908051906020019061236e929190613dac565b505050600a6001600a80549050038154811061238657fe5b9060005260206000209060040201600560008681526020019081526020016000206000820154816000015560018201816001019080546123c7929190613e2c565b5060028201816002019080546123de929190613e2c565b5060038201816003019080546001816001161561010002031660029004612406929190613e7e565b5090505060016040518060400160405280600781526020017f7375636365737300000000000000000000000000000000000000000000000000815250915091509250929050565b6000600980549050905090565b6000600880549050905090565b600080600080600060026000878152602001908152602001600020905080600101548160020154826003015483600401549450945094509450509193509193565b606060006005600084815260200190815260200160002090508060020180548060200260200160405190810160405280929190818152602001828054801561250f57602002820191906000526020600020905b8154815260200190600101908083116124fb575b5050505050915050919050565b60006060600060010160009054906101000a900473ffffffffffffffffffffffffffffffffffffffff1673ffffffffffffffffffffffffffffffffffffffff163373ffffffffffffffffffffffffffffffffffffffff16146125e6576040517f08c379a00000000000000000000000000000000000000000000000000000000081526004018080602001828103825260198152602001807f4f6e6c7920617262697472616c2063616e206f7065726174650000000000000081525060200191505060405180910390fd5b600060046000868152602001908152602001600020905083816001015410612659576040517f08c379a00000000000000000000000000000000000000000000000000000000081526004018080602001828103825260298152602001806140106029913960400191505060405180910390fd5b83816002018190555060016040518060400160405280600781526020017f737563636573730000000000000000000000000000000000000000000000000081525092509250509250929050565b606060006004600084815260200190815260200160002090508060030180548060200260200160405190810160405280929190818152602001828054801561270d57602002820191906000526020600020905b8154815260200190600101908083116126f9575b5050505050915050919050565b6000806060600060010160009054906101000a900473ffffffffffffffffffffffffffffffffffffffff1673ffffffffffffffffffffffffffffffffffffffff163373ffffffffffffffffffffffffffffffffffffffff16146127e5576040517f08c379a00000000000000000000000000000000000000000000000000000000081526004018080602001828103825260198152602001807f4f6e6c7920617262697472616c2063616e206f7065726174650000000000000081525060200191505060405180910390fd5b600060046000898152602001908152602001600020905060006006600089815260200190815260200160002090506000801b82600001541415801561283157506000801b816000015414155b8015612847575081600201548683600101540111155b61289c576040517f08c379a000000000000000000000000000000000000000000000000000000000815260040180806020018281038252604d8152602001806140cf604d913960600191505060405180910390fd5b60006128b18a8b6000801b60008b6000613861565b9050600060036000838152602001908152602001600020905080600a018a908060018154018082558091505060019003906000526020600020016000909190919091505580600b014290806001815401808255809150506001900390600052602060002001600090919091909150558881600b0160018154811061293157fe5b906000526020600020015401816003018190555087846001016000828254019250508190555083600301829080600181540180825580915050600190039060005260206000200160009091909190915055826001018290806001815401808255809150506001900390600052602060002001600090919091909150556001826040518060400160405280600781526020017f7375636365737300000000000000000000000000000000000000000000000000815250965096509650505050509450945094915050565b60008060006060600060046000878152602001908152602001600020905080600101548160030180549050826004018054905083600501808054600181600116156101000203166002900480601f016020809104026020016040519081016040528092919081815260200182805460018160011615610100020316600290048015612ac65780601f10612a9b57610100808354040283529160200191612ac6565b820191906000526020600020905b815481529060010190602001808311612aa957829003601f168201915b505050505090509450945094509450509193509193565b60006060600060010160009054906101000a900473ffffffffffffffffffffffffffffffffffffffff1673ffffffffffffffffffffffffffffffffffffffff163373ffffffffffffffffffffffffffffffffffffffff1614612ba7576040517f08c379a00000000000000000000000000000000000000000000000000000000081526004018080602001828103825260198152602001807f4f6e6c7920617262697472616c2063616e206f7065726174650000000000000081525060200191505060405180910390fd5b600b6040518060800160405280868152602001600067ffffffffffffffff81118015612bd257600080fd5b50604051908082528060200260200182016040528015612c015781602001602082028036833780820191505090505b508152602001600067ffffffffffffffff81118015612c1f57600080fd5b50604051908082528060200260200182016040528015612c4e5781602001602082028036833780820191505090505b508152602001858152509080600181540180825580915050600190039060005260206000209060040201600090919091909150600082015181600001556020820151816001019080519060200190612ca7929190613d5f565b506040820151816002019080519060200190612cc4929190613d5f565b506060820151816003019080519060200190612ce1929190613dac565b505050600b6001600b805490500381548110612cf957fe5b906000526020600020906004020160066000868152602001908152602001600020600082015481600001556001820181600101908054612d3a929190613e2c565b506002820181600201908054612d51929190613e2c565b5060038201816003019080546001816001161561010002031660029004612d79929190613e7e565b5090505060016040518060400160405280600781526020017f7375636365737300000000000000000000000000000000000000000000000000815250915091509250929050565b60008060000154908060010160009054906101000a900473ffffffffffffffffffffffffffffffffffffffff16905082565b6060600060066000848152602001908152602001600020905080600201805480602002602001604051908101604052809291908181526020018280548015612e5957602002820191906000526020600020905b815481526020019060010190808311612e45575b5050505050915050919050565b6000606060008060010160009054906101000a900473ffffffffffffffffffffffffffffffffffffffff1673ffffffffffffffffffffffffffffffffffffffff163373ffffffffffffffffffffffffffffffffffffffff1614612f31576040517f08c379a00000000000000000000000000000000000000000000000000000000081526004018080602001828103825260198152602001807f4f6e6c7920617262697472616c2063616e206f7065726174650000000000000081525060200191505060405180910390fd5b600060036000878152602001908152602001600020905060006004600087815260200190815260200160002090506000801b826000015414158015612f7d57506000801b816000015414155b8015612f8c5750858260010154145b612fe1576040517f08c379a00000000000000000000000000000000000000000000000000000000081526004018080602001828103825260568152602001806140796056913960600191505060405180910390fd5b600082600201549050600083600a01600185600a0180549050038154811061300557fe5b90600052602060002001549050600061302089838c86613be4565b905084600a016000908060018154018082558091505060019003906000526020600020016000909160001b90919091505584600b0142908060018154018082558091505060019003906000526020600020016000909190919091505580856006018190555060028560040160006101000a81548160ff021916908360028111156130a657fe5b0217905550836004018190806001815401808255809150506001900390600052602060002001600090919091909150556000801b85600701541461311057836003018a90806001815401808255809150506001900390600052602060002001600090919091909150555b6000801b60066000848152602001908152602001600020600001541461317257600660008381526020019081526020016000206002018190806001815401808255809150506001900390600052602060002001600090919091909150556131b0565b600560008381526020019081526020016000206002018190806001815401808255809150506001900390600052602060002001600090919091909150555b836001015483111561322a576040517f08c379a00000000000000000000000000000000000000000000000000000000081526004018080602001828103825260128152602001807f4163636f756e74696e67206572726f72732e000000000000000000000000000081525060200191505060405180910390fd5b8284600101600082825403925050819055506001816040518060400160405280600781526020017f73756363657373000000000000000000000000000000000000000000000000008152509097509750975050505050509250925092565b600080600080600080600080600360008a8152602001908152602001600020905080600001548160010154826002015483600301548460040160009054906101000a900460ff1685600501548660060154975097509750975097509750975050919395979092949650565b606060006006600084815260200190815260200160002090508060010180548060200260200160405190810160405280929190818152602001828054801561335a57602002820191906000526020600020905b815481526020019060010190808311613346575b5050505050915050919050565b60606000600460008481526020019081526020016000209050806004018054806020026020016040519081016040528092919081815260200182805480156133ce57602002820191906000526020600020905b8154815260200190600101908083116133ba575b5050505050915050919050565b606060006005600084815260200190815260200160002090508060010180548060200260200160405190810160405280929190818152602001828054801561344257602002820191906000526020600020905b81548152602001906001019080831161342e575b5050505050915050919050565b60006060600060010160009054906101000a900473ffffffffffffffffffffffffffffffffffffffff1673ffffffffffffffffffffffffffffffffffffffff163373ffffffffffffffffffffffffffffffffffffffff1614613519576040517f08c379a00000000000000000000000000000000000000000000000000000000081526004018080602001828103825260198152602001807f4f6e6c7920617262697472616c2063616e206f7065726174650000000000000081525060200191505060405180910390fd5b60096040518060c0016040528087815260200160008152602001868152602001600067ffffffffffffffff8111801561355157600080fd5b506040519080825280602002602001820160405280156135805781602001602082028036833780820191505090505b508152602001600067ffffffffffffffff8111801561359e57600080fd5b506040519080825280602002602001820160405280156135cd5781602001602082028036833780820191505090505b508152602001858152509080600181540180825580915050600190039060005260206000209060060201600090919091909150600082015181600001556020820151816001015560408201518160020155606082015181600301908051906020019061363a929190613d5f565b506080820151816004019080519060200190613657929190613d5f565b5060a0820151816005019080519060200190613674929190613dac565b50505060096001600980549050038154811061368c57fe5b90600052602060002090600602016004600087815260200190815260200160002060008201548160000155600182015481600101556002820154816002015560038201816003019080546136e1929190613e2c565b5060048201816004019080546136f8929190613e2c565b5060058201816005019080546001816001161561010002031660029004613720929190613e7e565b5090505060016040518060400160405280600781526020017f737563636573730000000000000000000000000000000000000000000000000081525091509150935093915050565b6000806003600084815260200190815260200160002090506000801b816000015414156137fd576040517f08c379a00000000000000000000000000000000000000000000000000000000081526004018080602001828103825260148152602001807f42696c6c206973206e6f7420657869737465642e00000000000000000000000081525060200191505060405180910390fd5b806003015442101561381357600191505061385c565b7f08654ce5265a228148184007620cec585adccfc16241c136beabe78b4ced7ae7838260010154604051808381526020018281526020019250505060405180910390a160009150505b919050565b6000804288886040516020018084815260200183815260200182815260200193505050506040516020818303038152906040528051906020012090506007604051806101800160405280838152602001898152602001868152602001858152602001600060028111156138d057fe5b81526020016000801b81526020016000801b81526020018881526020016000801b81526020016000801b8152602001600067ffffffffffffffff8111801561391757600080fd5b506040519080825280602002602001820160405280156139465781602001602082028036833780820191505090505b508152602001600067ffffffffffffffff8111801561396457600080fd5b506040519080825280602002602001820160405280156139935781602001602082028036833780820191505090505b5081525090806001815401808255809150506001900390600052602060002090600c02016000909190919091506000820151816000015560208201518160010155604082015181600201556060820151816003015560808201518160040160006101000a81548160ff02191690836002811115613a0c57fe5b021790555060a0820151816005015560c0820151816006015560e082015181600701556101008201518160080155610120820151816009015561014082015181600a019080519060200190613a62929190613d5f565b5061016082015181600b019080519060200190613a80929190613f05565b5050506000600760016007805490500381548110613a9a57fe5b90600052602060002090600c020190508060036000848152602001908152602001600020600082015481600001556001820154816001015560028201548160020155600382015481600301556004820160009054906101000a900460ff168160040160006101000a81548160ff02191690836002811115613b1757fe5b02179055506005820154816005015560068201548160060155600782015481600701556008820154816008015560098201548160090155600a820181600a01908054613b64929190613e2c565b50600b820181600b01908054613b7b929190613f52565b5090505080600b0186908060018154018082558091505060019003906000526020600020016000909190919091505580600a0189908060018154018082558091505060019003906000526020600020016000909190919091505581925050509695505050505050565b60008042868660405160200180848152602001838152602001828152602001935050505060405160208183030381529060405280519060200120905060086040518060c00160405280838152602001858152602001868152602001888152602001878152602001428152509080600181540180825580915050600190039060005260206000209060060201600090919091909150600082015181600001556020820151816001015560408201518160020155606082015181600301556080820151816004015560a0820151816005015550506000600860016008805490500381548110613ccd57fe5b9060005260206000209060060201905080600260008481526020019081526020016000206000820154816000015560018201548160010155600282015481600201556003820154816003015560048201548160040155600582015481600501559050508192505050949350505050565b6040518060400160405280600290602082028036833780820191505090505090565b828054828255906000526020600020908101928215613d9b579160200282015b82811115613d9a578251825591602001919060010190613d7f565b5b509050613da89190613fa4565b5090565b828054600181600116156101000203166002900490600052602060002090601f016020900481019282601f10613ded57805160ff1916838001178555613e1b565b82800160010185558215613e1b579182015b82811115613e1a578251825591602001919060010190613dff565b5b509050613e289190613fc1565b5090565b828054828255906000526020600020908101928215613e6d5760005260206000209182015b82811115613e6c578254825591600101919060010190613e51565b5b509050613e7a9190613fa4565b5090565b828054600181600116156101000203166002900490600052602060002090601f016020900481019282601f10613eb75780548555613ef4565b82800160010185558215613ef457600052602060002091601f016020900482015b82811115613ef3578254825591600101919060010190613ed8565b5b509050613f019190613fc1565b5090565b828054828255906000526020600020908101928215613f41579160200282015b82811115613f40578251825591602001919060010190613f25565b5b509050613f4e9190613fc1565b5090565b828054828255906000526020600020908101928215613f935760005260206000209182015b82811115613f92578254825591600101919060010190613f77565b5b509050613fa09190613fc1565b5090565b5b80821115613fbd576000816000905550600101613fa5565b5090565b5b80821115613fda576000816000905550600101613fc2565b509056fe537570706c6965723120646f65736e2774206578697374202f20537570706c6965723220646f65736e27742065786973746e6577206c696d69742063616e206e6f74206576656e20636f7665722063757272656e742064656274537570706c69657220646f65736e2774206578697374202f2042696c6c20646f65736e2774206578697374202f2042616e6b20646f65736e27742065786973742042696c6c20646f65736e2774206578697374202f20456e746572707269736520646f65736e2774206578697374202f2042696c6c206973206e6f7420697373756564206279207468697320456e7465727072697365456e746572707269736520646f65736e2774206578697374202f20537570706c69657220646f65736e277420657869737420202f20496e73756666696369656e7420637265646974206c696e65a2646970667358221220ac33a30c353073c026539154f8c54a0e26e178d6c5f718fa2134393942f8079d64736f6c63430007000033",
  "immutableReferences": {},
  "source": "// SPDX-License-Identifier: GPL-3.0\npragma solidity >0.4.0 <0.8.0;\n\ncontract Finance {\n    \n    //\n    enum BillState{Valid, Split, Done} // Expired: not not writed off yet ; Done: already writed off.\n    \n    //\n    struct TradeDebtBill{\n        bytes32 id;\n        bytes32 issuer; //  \n        uint facevalue; // \n        uint expire_time;// \n        BillState state;\n        bytes32 idOfCR0; // ID\n        bytes32 idOfCR1; // ID\n        bytes32 idOfparent; \n        bytes32 idOfson0;   \n        bytes32 idOfson1;   \n        bytes32[] owners; //  \n        uint[] times;\n    }\n    \n    // \n    struct CashReceipt{\n        bytes32 id;\n        uint amount;\n        bytes32 idOfTDB; // ID\n        bytes32 from;\n        bytes32 to;\n        uint time;\n    }   \n    \n    // \n    struct Arbitral {\n        bytes32 _id;\n        address _address;\n    }\n    \n    // \n    struct Bank {\n        bytes32 id;\n        bytes32[] idOfBills; // id\n        bytes32[] idOfRecepits;// id\n        string name;\n    }\n\n    //\n    struct Enterprise {\n        bytes32 id;\n        uint totalDebt;//  /  / \n        uint totalDebtLimit; // \n        bytes32[] idOfBills;\n        bytes32[] idOfRecepits;\n        string name;\n    }\n    \n    //\n    struct Supplier {\n        bytes32 id;\n        bytes32[] idOfBills;\n        bytes32[] idOfRecepits;\n        string name;\n    }\n    \n    Arbitral public theArbitral;\n\n    mapping(bytes32 => CashReceipt) mapOfCashReceipt;\n    mapping(bytes32 => TradeDebtBill) mapOfTradeDebtBill;\n    mapping(bytes32 => Enterprise) mapOfEnterprise;\n    mapping(bytes32 => Bank) mapOfBank;\n    mapping(bytes32 => Supplier) mapOfSupplier;\n    \n    TradeDebtBill[]  Bills;\n    // TradeDebtBill[] public doneBills;\n    CashReceipt[]  Recepits;\n    Enterprise[]  enterprises;\n    Bank[]  banks;\n    Supplier[]  suppliers;\n    \n    \n    constructor(bytes32 id){\n        theArbitral = Arbitral({\n            _id: id,\n            _address: msg.sender\n        });\n    }\n    \n    // \n    modifier onlytheArbitral{\n        require(msg.sender == theArbitral._address, \"Only arbitral can operate\");\n        _;\n    }\n    \n    // \n    function addBank(bytes32 bankid, string memory _name) onlytheArbitral public returns(bool, string memory) {\n\n        banks.push(Bank({\n            id: bankid, \n            idOfBills: new bytes32[](0),\n            idOfRecepits: new bytes32[](0),\n            name: _name\n        }));\n\n        mapOfBank[bankid] = banks[banks.length - 1];\n        return (true, \"success\");\n    }\n    \n    //\n    function addEnterprise(bytes32 epid, uint limit,string memory _name) onlytheArbitral public returns(bool, string memory) {\n        \n        enterprises.push(Enterprise({\n            id: epid, \n            totalDebt: 0,\n            totalDebtLimit: limit,\n            idOfBills: new bytes32[](0),\n            idOfRecepits: new bytes32[](0),\n            name: _name\n        }));\n\n        mapOfEnterprise[epid] = enterprises[enterprises.length - 1];\n        return (true, \"success\");\n    }\n\n    function updateEnterpriseCreditLimit(bytes32 eid, uint newLimit) onlytheArbitral public returns(bool, string memory){\n        Enterprise storage e = mapOfEnterprise[eid];\n        require(e.totalDebt < newLimit, \"new limit can not even cover current debt\");\n        e.totalDebtLimit = newLimit;\n        return (true, \"success\");\n    }\n    \n    // \n    function addSupplier(bytes32 spid, string memory _name) onlytheArbitral public returns(bool, string memory) {\n\n        suppliers.push(Supplier({\n            id: spid, \n            idOfBills: new bytes32[](0),\n            idOfRecepits: new bytes32[](0),\n            name: _name\n        }));\n\n        mapOfSupplier[spid] = suppliers[suppliers.length - 1];\n        return (true, \"success\");\n    }\n    \n    // \n    function newTradeDebtBill(bytes32 _owner, bytes32 _issuer, bytes32 _parentid,\n                            uint _init_time, uint _facevalue, uint _expire_time) internal returns(bytes32){\n                                \n        bytes32 _id = keccak256(abi.encodePacked(block.timestamp, _owner, _issuer)); // sha3ID\n\n        Bills.push(TradeDebtBill({\n            id: _id,\n            issuer: _issuer,\n            facevalue: _facevalue,\n            expire_time: _expire_time,\n            state: BillState.Valid,\n            idOfCR0: 0x0,\n            idOfCR1: 0x0,\n            idOfson0: 0x0,\n            idOfson1: 0x0,\n            owners: new bytes32[](0),\n            times: new uint[](0),\n            idOfparent: _parentid\n        }));\n        \n        TradeDebtBill storage t = Bills[Bills.length - 1];\n        mapOfTradeDebtBill[_id] = t;\n        t.times.push(_init_time); // \n        t.owners.push(_owner);\n\n        return _id;\n    }\n    \n    // \n    function newCashRecepit(bytes32 _from, bytes32 _to, bytes32 _idOfTDB, uint _amount) internal returns(bytes32){\n        bytes32 _id = keccak256(abi.encodePacked(block.timestamp, _from, _to));\n        \n        Recepits.push(CashReceipt({\n            id: _id,\n            idOfTDB: _idOfTDB,\n            amount: _amount,\n            from: _from,\n            to: _to,\n            time: block.timestamp\n        }));\n        \n        CashReceipt storage c = Recepits[Recepits.length - 1];\n        mapOfCashReceipt[_id] = c;\n        return _id;\n    }\n    \n    // \n    function issueTradeDebtBill(bytes32 epid, bytes32 spid, uint tolerate_time, uint _facevalue) onlytheArbitral external returns(bool, bytes32, string memory){\n        Enterprise storage e = mapOfEnterprise[epid];\n        Supplier storage s = mapOfSupplier[spid];\n        \n        require(e.id != 0x0 && s.id != 0x0 && e.totalDebt + _facevalue <= e.totalDebtLimit, \n                \"Enterprise doesn't exist / Supplier doesn't exist  / Insufficient credit line\");\n        \n        bytes32 id = newTradeDebtBill(epid, epid, 0x0, 0, _facevalue, 0);\n\n        TradeDebtBill storage b = mapOfTradeDebtBill[id];\n\n        b.owners.push(spid);\n        b.times.push(block.timestamp);\n        b.expire_time = b.times[1] + tolerate_time;\n        \n        e.totalDebt += _facevalue;\n        \n        e.idOfBills.push(id);\n        s.idOfBills.push(id);\n        \n        return (true, id, \"success\");\n    }\n    \n    //  \n    event billDueToRepay(bytes32 billid, bytes32 epid);\n    \n    //\n    function CheckBillState(bytes32 billid) internal returns(bool){\n        TradeDebtBill storage b = mapOfTradeDebtBill[billid];\n        require(b.id != 0x0 , \"Bill is not existed.\");\n\n        if(block.timestamp < b.expire_time) return true;\n\n        emit billDueToRepay(billid, b.issuer);\n\n        return false;\n    }\n    \n    // \n    function transferBillbetweenSuppliers(bytes32 spid1, bytes32 spid2, bytes32 billid, uint amount) onlytheArbitral external returns(bool, string memory){\n        Supplier storage s1 = mapOfSupplier[spid1];\n        Supplier storage s2 = mapOfSupplier[spid2];\n        TradeDebtBill storage b = mapOfTradeDebtBill[billid];\n        \n        require(s1.id != 0x0 && s2.id != 0x0, \"Supplier1 doesn't exist / Supplier2 doesn't exist\");  \n\n        if(!CheckBillState(billid)){\n            return(false, \"failed\");\n        }\n\n        require(b.state != BillState.Split, \"Bill is Split\");\n\n        uint ridx = b.owners.length - 1; // index\n        require(b.owners[ridx] ==  spid1, \"Bill doesn't belong to Supplier1\");\n        require(amount <= b.facevalue, \"amount exceeds\");\n\n        if(amount == b.facevalue){\n            b.owners.push(spid2);\n            b.times.push(block.timestamp);\n            s2.idOfBills.push(billid);\n        }else{//\n            bytes32[2] memory newbillids;\n\n            newbillids[0] = newTradeDebtBill(spid2 , b.issuer, billid, block.timestamp, amount, b.expire_time);\n            newbillids[1] = newTradeDebtBill(spid1 , b.issuer, billid, block.timestamp, b.facevalue - amount, b.expire_time);\n\n            b.idOfson0 = newbillids[0];\n            b.idOfson1 = newbillids[1];\n\n            mapOfSupplier[spid1].idOfBills.push(newbillids[1]);\n            mapOfSupplier[spid2].idOfBills.push(newbillids[0]);\n\n            b.state = BillState.Split;\n        }\n        return (true, \"success\");\n    }\n    \n    \n    // \n    function supplierFinancingfromBank(bytes32 billid, bytes32 spid, bytes32 bankid, uint rate) onlytheArbitral external returns(bool, string memory, bytes32){\n        TradeDebtBill storage bi = mapOfTradeDebtBill[billid];\n        Supplier storage s = mapOfSupplier[spid];\n        Bank storage ba = mapOfBank[bankid];\n\n        require(s.id != 0x0 && bi.id != 0x0 && ba.id != 0x0, \n                \"Supplier doesn't exist / Bill doesn't exist / Bank doesn't exist\");\n        bytes32 newrepid; // ID\n\n        if(!CheckBillState(billid)){\n            return(false, \"failed\", newrepid);\n        }\n        require(bi.state != BillState.Split, \"Bill is Split\");\n        \n        \n        uint ridx = bi.owners.length - 1;\n        require(bi.owners[ridx] ==  spid , \"Bill doesn't belong to Supplier \");\n\n        uint amount = bi.facevalue * rate / 1000; //  rate\n\n        //\n        newrepid = newCashRecepit(bankid, spid, billid, amount);\n        bi.owners.push(bankid);\n        bi.times.push(block.timestamp);\n        bi.idOfCR0 = newrepid;\n        \n        ba.idOfRecepits.push(newrepid);\n        ba.idOfBills.push(billid);\n        s.idOfRecepits.push(newrepid);\n        \n        return(true, \"success\", newrepid);\n\n    }\n    \n    // \n    function enterpriseRepay(bytes32 billid, bytes32 epid) onlytheArbitral external returns(bool, string memory, bytes32){\n\n        TradeDebtBill storage b = mapOfTradeDebtBill[billid];\n        Enterprise storage e = mapOfEnterprise[epid];\n\n        require(b.id != 0x0 && e.id != 0x0 && b.issuer == epid, \" Bill doesn't exist / Enterprise doesn't exist / Bill is not issued by this Enterprise\");\n\n        uint amount = b.facevalue;\n        bytes32 debtorid = b.owners[b.owners.length - 1]; //  \n        bytes32 newrepid = newCashRecepit(epid, debtorid, billid, amount);\n        \n\n        b.owners.push(0x0);// 0\n        b.times.push(block.timestamp);\n        b.idOfCR1 = newrepid;\n        b.state = BillState.Done;\n        e.idOfRecepits.push(newrepid);\n\n        // id\n        if(b.idOfparent != 0x0){\n            e.idOfBills.push(billid);\n        }\n        \n        //id\n        if(mapOfSupplier[debtorid].id != 0x0){\n            mapOfSupplier[debtorid].idOfRecepits.push(newrepid);\n        }else{\n            mapOfBank[debtorid].idOfRecepits.push(newrepid);\n        }\n        \n        require(amount <= e.totalDebt, \"Accounting errors.\");\n        e.totalDebt -= amount;\n\n        return(true, \"success\", newrepid);\n    }\n    \n    // functions of get Informations\n    function getSupplierCount() public view returns(uint){\n        return suppliers.length;\n    }\n    \n    function getBankCount() public view returns(uint){\n        return banks.length;\n    }\n    \n    function getBillCount() public view returns(uint){\n        return Bills.length;\n    }\n    \n    function getRecepitCount() public view returns(uint){\n        return Recepits.length;\n    }\n    \n    function getEnterpriseCount() public view returns(uint){\n        return enterprises.length;\n    }\n        \n    function getBillBasicInfo(bytes32 billid) public view returns(bytes32, bytes32, uint, uint, BillState, bytes32, bytes32){\n        TradeDebtBill storage b = mapOfTradeDebtBill[billid];\n        return(b.id, b.issuer, b.facevalue, b.expire_time, b.state, b.idOfCR0, b.idOfCR1);\n    }\n    \n    function getBillHistory(bytes32 billid) public view returns(uint[] memory, bytes32[] memory){\n        TradeDebtBill storage b = mapOfTradeDebtBill[billid];\n        return(b.times, b.owners);\n    }\n    \n    function getBillSplitInfo(bytes32 billid) public view returns(bytes32, bytes32, bytes32){\n        TradeDebtBill storage b = mapOfTradeDebtBill[billid];\n        return(b.idOfparent, b.idOfson0, b.idOfson1);\n    }\n    \n    function getRecepitInfo(bytes32 repid) public view returns(uint, bytes32, bytes32, bytes32){\n        CashReceipt storage r = mapOfCashReceipt[repid];\n        return(r.amount, r.idOfTDB, r.from, r.to);\n    }\n    \n    function getBankBasicInfo(bytes32 id) public view returns(uint, uint, string memory){\n        Bank storage b = mapOfBank[id];\n        return( b.idOfBills.length, b.idOfRecepits.length, b.name);\n    }\n    \n    function getSupplierBasicInfo(bytes32 id) public view returns( uint, uint, string memory){\n        Supplier storage s = mapOfSupplier[id];\n        return( s.idOfBills.length, s.idOfRecepits.length, s.name);\n    }\n    \n    function getEnterpriseBasicInfo(bytes32 id) public view returns(uint, uint, uint , string memory){\n        Enterprise storage e = mapOfEnterprise[id];\n        return(e.totalDebt, e.idOfBills.length, e.idOfRecepits.length, e.name);\n    }\n    \n    function getAllofSupplierBillsid(bytes32 id) public view returns(bytes32[] memory){\n        Supplier storage s = mapOfSupplier[id];\n        return(s.idOfBills);\n    }\n    \n    function getAllofBankBillsid(bytes32 id) public view returns(bytes32[] memory){\n        Bank storage b = mapOfBank[id];\n        return(b.idOfBills);\n    }\n    \n    function getAllofEnterpriseBillsid(bytes32 id) public view returns(bytes32[] memory){\n        Enterprise storage e = mapOfEnterprise[id];\n        return(e.idOfBills);\n    }\n    \n    function getAllofSupplierRecepitsid(bytes32 id) public view returns(bytes32[] memory){\n        Supplier storage s = mapOfSupplier[id];\n        return(s.idOfRecepits);\n    }\n    \n    function getAllofBankRecepitsid(bytes32 id) public view returns(bytes32[] memory){\n        Bank storage b = mapOfBank[id];\n        return(b.idOfRecepits);\n    }\n    \n    function getAllofEnterpriseRecepitsid(bytes32 id) public view returns(bytes32[] memory){\n        Enterprise storage e = mapOfEnterprise[id];\n        return(e.idOfRecepits);\n    }\n    \n\n    function withdraw(uint amount) onlytheArbitral public{\n        require(amount < 1e20);\n        msg.sender.transfer(amount);\n    }\n    \n    fallback() external payable{}\n    receive() external payable{}\n\n}",
  "sourcePath": "/Users/newguo/projects/blockchain-supplychainFinance/supplychain_finance/contracts/Finance.sol",
  "compiler": {
    "name": "solc",
    "version": "0.7.0+commit.9e61f92b.Emscripten.clang"
  },
  "schemaVersion": "3.2.3",
  "updatedAt": "2020-08-14T16:38:53.556Z",
  "devdoc": {
    "kind": "dev",
    "methods": {},
    "version": 1
  },
  "userdoc": {
    "kind": "user",
    "methods": {},
    "version": 1
  }
}