{
  "contractName": "Test",
  "abi": [
    {
      "inputs": [],
      "stateMutability": "nonpayable",
      "type": "constructor"
    },
    {
      "stateMutability": "payable",
      "type": "fallback"
    },
    {
      "stateMutability": "payable",
      "type": "receive"
    },
    {
      "inputs": [],
      "name": "fun",
      "outputs": [
        {
          "internalType": "enum Test.State",
          "name": "",
          "type": "uint8"
        },
        {
          "internalType": "uint256[]",
          "name": "",
          "type": "uint256[]"
        },
        {
          "internalType": "bytes32[]",
          "name": "",
          "type": "bytes32[]"
        },
        {
          "internalType": "address[]",
          "name": "",
          "type": "address[]"
        }
      ],
      "stateMutability": "view",
      "type": "function"
    }
  ],
  "bytecode": "0x608060405234801561001057600080fd5b5060008060030160006101000a81548160ff0219169083600181111561003257fe5b021790555060005b600381101561013957600080018190806001815401808255809150506001900390600052602060002001600090919091909150556000600101428260405160200180838152602001828152602001925050506040516020818303038152906040528051906020012090806001815401808255809150506001900390600052602060002001600090919091909150556000600201339080600181540180825580915050600190039060005260206000200160009091909190916101000a81548173ffffffffffffffffffffffffffffffffffffffff021916908373ffffffffffffffffffffffffffffffffffffffff16021790555080600101905061003a565b506102c0806101496000396000f3fe6080604052600436106100225760003560e01c8063946644cd1461002b57610029565b3661002957005b005b34801561003757600080fd5b50610040610139565b6040518085600181111561005057fe5b8152602001806020018060200180602001848103845287818151815260200191508051906020019060200280838360005b8381101561009c578082015181840152602081019050610081565b50505050905001848103835286818151815260200191508051906020019060200280838360005b838110156100de5780820151818401526020810190506100c3565b50505050905001848103825285818151815260200191508051906020019060200280838360005b83811015610120578082015181840152602081019050610105565b5050505090500197505050505050505060405180910390f35b60006060806060600080600001600060010160006002018280548060200260200160405190810160405280929190818152602001828054801561019b57602002820191906000526020600020905b815481526020019060010190808311610187575b50505050509250818054806020026020016040519081016040528092919081815260200182805480156101ed57602002820191906000526020600020905b8154815260200190600101908083116101d9575b505050505091508080548060200260200160405190810160405280929190818152602001828054801561027557602002820191906000526020600020905b8160009054906101000a900473ffffffffffffffffffffffffffffffffffffffff1673ffffffffffffffffffffffffffffffffffffffff168152602001906001019080831161022b575b5050505050905093509350935093509091929356fea264697066735822122064d8d05e027e5e4965de57cc33e65f0b08f963228f6515ee3d4f496600c07d4764736f6c63430007000033",
  "immutableReferences": {},
  "source": "// SPDX-License-Identifier: GPL-3.0\npragma solidity >0.4.0 <0.8.0;\n\ncontract Test {\n\n    // bytes32[] public theByte;\n    // function Alter() public{\n    //     theByte.push(keccak256(abi.encode(block.timestamp)));\n    // }\n    \n    enum State{Valid, Done}\n    \n    struct Class{\n        uint256[] a;\n        bytes32[] b;\n        address[] c;\n        State state;\n        \n    }\n    Class cl;\n    constructor(){\n        cl.state = State.Valid;\n        for(uint i = 0; i < 3; ++i)\n        {\n            cl.a.push(i);\n            cl.b.push(keccak256(abi.encode(block.timestamp, i)));\n            cl.c.push(msg.sender);\n        }\n    }\n    function fun() public view returns(State, uint256[] memory,  bytes32[] memory,address[] memory){\n        return(State.Valid, cl.a, cl.b, cl.c);\n        \n    }\n\n\n    fallback() external payable{}\n    receive() external payable{}\n\n}",
  "sourcePath": "/Users/newguo/projects/blockchain-supplychainFinance/finance_contract/contracts/Test.sol",
  "compiler": {
    "name": "solc",
    "version": "0.7.0+commit.9e61f92b.Emscripten.clang"
  },
  "schemaVersion": "3.2.3",
  "updatedAt": "2020-08-18T06:16:44.805Z",
  "devdoc": {
    "kind": "dev",
    "methods": {},
    "version": 1
  },
  "userdoc": {
    "kind": "user",
    "methods": {},
    "version": 1
  }
}