{
  "contractName": "Test",
  "abi": [
    {
      "stateMutability": "payable",
      "type": "fallback"
    },
    {
      "inputs": [
        {
          "internalType": "uint256",
          "name": "",
          "type": "uint256"
        }
      ],
      "name": "theByte",
      "outputs": [
        {
          "internalType": "bytes32",
          "name": "",
          "type": "bytes32"
        }
      ],
      "stateMutability": "view",
      "type": "function"
    },
    {
      "stateMutability": "payable",
      "type": "receive"
    },
    {
      "inputs": [],
      "name": "Alter",
      "outputs": [],
      "stateMutability": "nonpayable",
      "type": "function"
    }
  ],
  "bytecode": "0x608060405234801561001057600080fd5b50610144806100206000396000f3fe60806040526004361061002d5760003560e01c806324fbdb06146100365780635cc38a311461004d57610034565b3661003457005b005b34801561004257600080fd5b5061004b61009c565b005b34801561005957600080fd5b506100866004803603602081101561007057600080fd5b81019080803590602001909291905050506100ed565b6040518082815260200191505060405180910390f35b60004260405160200180828152602001915050604051602081830303815290604052805190602001209080600181540180825580915050600190039060005260206000200160009091909190915055565b600081815481106100fa57fe5b90600052602060002001600091509050548156fea26469706673582212208da07e173c9fb5b71e9000e9f970c8252584c30502f0a24d6719b0990822f94264736f6c63430007000033",
  "immutableReferences": {},
  "source": "// SPDX-License-Identifier: GPL-3.0\npragma solidity >0.4.0 <0.8.0;\n\ncontract Test {\n\n    bytes32[] public theByte;\n    function Alter() public{\n        theByte.push(keccak256(abi.encode(block.timestamp)));\n    }\n    \n\n    fallback() external payable{}\n    receive() external payable{}\n\n}",
  "sourcePath": "/Users/newguo/projects/blockchain-supplychainFinance/finance_contract/contracts/Test.sol",
  "compiler": {
    "name": "solc",
    "version": "0.7.0+commit.9e61f92b.Emscripten.clang"
  },
  "schemaVersion": "3.2.3",
  "updatedAt": "2020-08-16T09:08:37.478Z",
  "devdoc": {
    "kind": "dev",
    "methods": {},
    "version": 1
  },
  "userdoc": {
    "kind": "user",
    "methods": {},
    "version": 1
  }
}